{
  "_format": "hh-sol-artifact-1",
  "contractName": "DataUnionTemplate",
  "sourceName": "contracts/unichain/DataUnionTemplate.sol",
  "abi": [
    {
      "inputs": [],
      "stateMutability": "nonpayable",
      "type": "constructor"
    },
    {
      "anonymous": false,
      "inputs": [
        {
          "indexed": false,
          "internalType": "uint256",
          "name": "newAdminFee",
          "type": "uint256"
        },
        {
          "indexed": false,
          "internalType": "uint256",
          "name": "oldAdminFee",
          "type": "uint256"
        }
      ],
      "name": "AdminFeeChanged",
      "type": "event"
    },
    {
      "anonymous": false,
      "inputs": [
        {
          "indexed": true,
          "internalType": "address",
          "name": "member",
          "type": "address"
        },
        {
          "indexed": false,
          "internalType": "uint256",
          "name": "amount",
          "type": "uint256"
        }
      ],
      "name": "EarningsWithdrawn",
      "type": "event"
    },
    {
      "anonymous": false,
      "inputs": [
        {
          "indexed": false,
          "internalType": "uint256",
          "name": "adminFee",
          "type": "uint256"
        },
        {
          "indexed": false,
          "internalType": "uint256",
          "name": "dataUnionFee",
          "type": "uint256"
        }
      ],
      "name": "FeesCharged",
      "type": "event"
    },
    {
      "anonymous": false,
      "inputs": [
        {
          "indexed": true,
          "internalType": "contract IJoinListener",
          "name": "listener",
          "type": "address"
        }
      ],
      "name": "JoinListenerAdded",
      "type": "event"
    },
    {
      "anonymous": false,
      "inputs": [
        {
          "indexed": true,
          "internalType": "contract IJoinListener",
          "name": "listener",
          "type": "address"
        }
      ],
      "name": "JoinListenerRemoved",
      "type": "event"
    },
    {
      "anonymous": false,
      "inputs": [
        {
          "indexed": true,
          "internalType": "address",
          "name": "agent",
          "type": "address"
        }
      ],
      "name": "JoinPartAgentAdded",
      "type": "event"
    },
    {
      "anonymous": false,
      "inputs": [
        {
          "indexed": true,
          "internalType": "address",
          "name": "agent",
          "type": "address"
        }
      ],
      "name": "JoinPartAgentRemoved",
      "type": "event"
    },
    {
      "anonymous": false,
      "inputs": [
        {
          "indexed": true,
          "internalType": "address",
          "name": "member",
          "type": "address"
        }
      ],
      "name": "MemberJoined",
      "type": "event"
    },
    {
      "anonymous": false,
      "inputs": [
        {
          "indexed": true,
          "internalType": "address",
          "name": "member",
          "type": "address"
        },
        {
          "indexed": true,
          "internalType": "enum LeaveConditionCode",
          "name": "leaveConditionCode",
          "type": "uint8"
        }
      ],
      "name": "MemberParted",
      "type": "event"
    },
    {
      "anonymous": false,
      "inputs": [
        {
          "indexed": false,
          "internalType": "string",
          "name": "newMetadata",
          "type": "string"
        }
      ],
      "name": "MetadataChanged",
      "type": "event"
    },
    {
      "anonymous": false,
      "inputs": [
        {
          "indexed": false,
          "internalType": "uint256",
          "name": "earningsPerMember",
          "type": "uint256"
        },
        {
          "indexed": false,
          "internalType": "uint256",
          "name": "activeMemberCount",
          "type": "uint256"
        }
      ],
      "name": "NewEarnings",
      "type": "event"
    },
    {
      "anonymous": false,
      "inputs": [
        {
          "indexed": false,
          "internalType": "uint256",
          "name": "newMemberStipendWei",
          "type": "uint256"
        },
        {
          "indexed": false,
          "internalType": "uint256",
          "name": "oldMemberStipendWei",
          "type": "uint256"
        }
      ],
      "name": "NewMemberEthChanged",
      "type": "event"
    },
    {
      "anonymous": false,
      "inputs": [
        {
          "indexed": false,
          "internalType": "uint256",
          "name": "amountWei",
          "type": "uint256"
        }
      ],
      "name": "NewMemberEthSent",
      "type": "event"
    },
    {
      "anonymous": false,
      "inputs": [
        {
          "indexed": true,
          "internalType": "address",
          "name": "previousOwner",
          "type": "address"
        },
        {
          "indexed": true,
          "internalType": "address",
          "name": "newOwner",
          "type": "address"
        }
      ],
      "name": "OwnershipTransferred",
      "type": "event"
    },
    {
      "anonymous": false,
      "inputs": [
        {
          "indexed": true,
          "internalType": "contract IPartListener",
          "name": "listener",
          "type": "address"
        }
      ],
      "name": "PartListenerAdded",
      "type": "event"
    },
    {
      "anonymous": false,
      "inputs": [
        {
          "indexed": true,
          "internalType": "contract IPartListener",
          "name": "listener",
          "type": "address"
        }
      ],
      "name": "PartListenerRemoved",
      "type": "event"
    },
    {
      "anonymous": false,
      "inputs": [
        {
          "indexed": false,
          "internalType": "uint256",
          "name": "amount",
          "type": "uint256"
        }
      ],
      "name": "RevenueReceived",
      "type": "event"
    },
    {
      "anonymous": false,
      "inputs": [
        {
          "indexed": true,
          "internalType": "address",
          "name": "from",
          "type": "address"
        },
        {
          "indexed": true,
          "internalType": "address",
          "name": "to",
          "type": "address"
        },
        {
          "indexed": false,
          "internalType": "uint256",
          "name": "amount",
          "type": "uint256"
        }
      ],
      "name": "TransferToAddressInContract",
      "type": "event"
    },
    {
      "anonymous": false,
      "inputs": [
        {
          "indexed": true,
          "internalType": "address",
          "name": "from",
          "type": "address"
        },
        {
          "indexed": true,
          "internalType": "address",
          "name": "to",
          "type": "address"
        },
        {
          "indexed": false,
          "internalType": "uint256",
          "name": "amount",
          "type": "uint256"
        }
      ],
      "name": "TransferWithinContract",
      "type": "event"
    },
    {
      "anonymous": false,
      "inputs": [
        {
          "indexed": true,
          "internalType": "contract IWithdrawModule",
          "name": "withdrawModule",
          "type": "address"
        }
      ],
      "name": "WithdrawModuleChanged",
      "type": "event"
    },
    {
      "inputs": [],
      "name": "activeMemberCount",
      "outputs": [
        {
          "internalType": "uint256",
          "name": "",
          "type": "uint256"
        }
      ],
      "stateMutability": "view",
      "type": "function"
    },
    {
      "inputs": [
        {
          "internalType": "contract IJoinListener",
          "name": "newListener",
          "type": "address"
        }
      ],
      "name": "addJoinListener",
      "outputs": [],
      "stateMutability": "nonpayable",
      "type": "function"
    },
    {
      "inputs": [
        {
          "internalType": "address",
          "name": "agent",
          "type": "address"
        }
      ],
      "name": "addJoinPartAgent",
      "outputs": [],
      "stateMutability": "nonpayable",
      "type": "function"
    },
    {
      "inputs": [
        {
          "internalType": "address[]",
          "name": "agents",
          "type": "address[]"
        }
      ],
      "name": "addJoinPartAgents",
      "outputs": [],
      "stateMutability": "nonpayable",
      "type": "function"
    },
    {
      "inputs": [
        {
          "internalType": "address payable",
          "name": "newMember",
          "type": "address"
        }
      ],
      "name": "addMember",
      "outputs": [],
      "stateMutability": "nonpayable",
      "type": "function"
    },
    {
      "inputs": [
        {
          "internalType": "address payable[]",
          "name": "members",
          "type": "address[]"
        }
      ],
      "name": "addMembers",
      "outputs": [],
      "stateMutability": "nonpayable",
      "type": "function"
    },
    {
      "inputs": [
        {
          "internalType": "contract IPartListener",
          "name": "newListener",
          "type": "address"
        }
      ],
      "name": "addPartListener",
      "outputs": [],
      "stateMutability": "nonpayable",
      "type": "function"
    },
    {
      "inputs": [],
      "name": "adminFeeFraction",
      "outputs": [
        {
          "internalType": "uint256",
          "name": "",
          "type": "uint256"
        }
      ],
      "stateMutability": "view",
      "type": "function"
    },
    {
      "inputs": [],
      "name": "claimOwnership",
      "outputs": [],
      "stateMutability": "nonpayable",
      "type": "function"
    },
    {
      "inputs": [
        {
          "internalType": "address",
          "name": "member",
          "type": "address"
        }
      ],
      "name": "getEarnings",
      "outputs": [
        {
          "internalType": "uint256",
          "name": "",
          "type": "uint256"
        }
      ],
      "stateMutability": "view",
      "type": "function"
    },
    {
      "inputs": [],
      "name": "getStats",
      "outputs": [
        {
          "internalType": "uint256[9]",
          "name": "",
          "type": "uint256[9]"
        }
      ],
      "stateMutability": "view",
      "type": "function"
    },
    {
      "inputs": [
        {
          "internalType": "address",
          "name": "member",
          "type": "address"
        }
      ],
      "name": "getWithdrawableEarnings",
      "outputs": [
        {
          "internalType": "uint256",
          "name": "",
          "type": "uint256"
        }
      ],
      "stateMutability": "view",
      "type": "function"
    },
    {
      "inputs": [
        {
          "internalType": "address",
          "name": "member",
          "type": "address"
        }
      ],
      "name": "getWithdrawn",
      "outputs": [
        {
          "internalType": "uint256",
          "name": "",
          "type": "uint256"
        }
      ],
      "stateMutability": "view",
      "type": "function"
    },
    {
      "inputs": [],
      "name": "inactiveMemberCount",
      "outputs": [
        {
          "internalType": "uint256",
          "name": "",
          "type": "uint256"
        }
      ],
      "stateMutability": "view",
      "type": "function"
    },
    {
      "inputs": [
        {
          "internalType": "address",
          "name": "initialOwner",
          "type": "address"
        },
        {
          "internalType": "address",
          "name": "tokenAddress",
          "type": "address"
        },
        {
          "internalType": "address[]",
          "name": "initialJoinPartAgents",
          "type": "address[]"
        },
        {
          "internalType": "uint256",
          "name": "defaultNewMemberEth",
          "type": "uint256"
        },
        {
          "internalType": "uint256",
          "name": "initialAdminFeeFraction",
          "type": "uint256"
        },
        {
          "internalType": "address",
          "name": "protocolFeeOracleAddress",
          "type": "address"
        },
        {
          "internalType": "string",
          "name": "initialMetadataJsonString",
          "type": "string"
        }
      ],
      "name": "initialize",
      "outputs": [],
      "stateMutability": "nonpayable",
      "type": "function"
    },
    {
      "inputs": [],
      "name": "isInitialized",
      "outputs": [
        {
          "internalType": "bool",
          "name": "",
          "type": "bool"
        }
      ],
      "stateMutability": "view",
      "type": "function"
    },
    {
      "inputs": [
        {
          "internalType": "address",
          "name": "agent",
          "type": "address"
        }
      ],
      "name": "isJoinPartAgent",
      "outputs": [
        {
          "internalType": "bool",
          "name": "",
          "type": "bool"
        }
      ],
      "stateMutability": "view",
      "type": "function"
    },
    {
      "inputs": [
        {
          "internalType": "address",
          "name": "member",
          "type": "address"
        }
      ],
      "name": "isMember",
      "outputs": [
        {
          "internalType": "bool",
          "name": "",
          "type": "bool"
        }
      ],
      "stateMutability": "view",
      "type": "function"
    },
    {
      "inputs": [
        {
          "internalType": "uint256",
          "name": "",
          "type": "uint256"
        }
      ],
      "name": "joinListeners",
      "outputs": [
        {
          "internalType": "address",
          "name": "",
          "type": "address"
        }
      ],
      "stateMutability": "view",
      "type": "function"
    },
    {
      "inputs": [],
      "name": "joinPartAgentCount",
      "outputs": [
        {
          "internalType": "uint256",
          "name": "",
          "type": "uint256"
        }
      ],
      "stateMutability": "view",
      "type": "function"
    },
    {
      "inputs": [
        {
          "internalType": "address",
          "name": "",
          "type": "address"
        }
      ],
      "name": "joinPartAgents",
      "outputs": [
        {
          "internalType": "enum DataUnionTemplate.ActiveStatus",
          "name": "",
          "type": "uint8"
        }
      ],
      "stateMutability": "view",
      "type": "function"
    },
    {
      "inputs": [],
      "name": "lifetimeMemberEarnings",
      "outputs": [
        {
          "internalType": "uint256",
          "name": "",
          "type": "uint256"
        }
      ],
      "stateMutability": "view",
      "type": "function"
    },
    {
      "inputs": [],
      "name": "lockModules",
      "outputs": [],
      "stateMutability": "nonpayable",
      "type": "function"
    },
    {
      "inputs": [
        {
          "internalType": "address",
          "name": "",
          "type": "address"
        }
      ],
      "name": "memberData",
      "outputs": [
        {
          "internalType": "enum DataUnionTemplate.ActiveStatus",
          "name": "status",
          "type": "uint8"
        },
        {
          "internalType": "uint256",
          "name": "earningsBeforeLastJoin",
          "type": "uint256"
        },
        {
          "internalType": "uint256",
          "name": "lmeAtJoin",
          "type": "uint256"
        },
        {
          "internalType": "uint256",
          "name": "withdrawnEarnings",
          "type": "uint256"
        }
      ],
      "stateMutability": "view",
      "type": "function"
    },
    {
      "inputs": [],
      "name": "metadataJsonString",
      "outputs": [
        {
          "internalType": "string",
          "name": "",
          "type": "string"
        }
      ],
      "stateMutability": "view",
      "type": "function"
    },
    {
      "inputs": [],
      "name": "modulesLocked",
      "outputs": [
        {
          "internalType": "bool",
          "name": "",
          "type": "bool"
        }
      ],
      "stateMutability": "view",
      "type": "function"
    },
    {
      "inputs": [],
      "name": "newMemberEth",
      "outputs": [
        {
          "internalType": "uint256",
          "name": "",
          "type": "uint256"
        }
      ],
      "stateMutability": "view",
      "type": "function"
    },
    {
      "inputs": [
        {
          "internalType": "address",
          "name": "",
          "type": "address"
        },
        {
          "internalType": "uint256",
          "name": "amount",
          "type": "uint256"
        },
        {
          "internalType": "bytes",
          "name": "data",
          "type": "bytes"
        }
      ],
      "name": "onTokenTransfer",
      "outputs": [],
      "stateMutability": "nonpayable",
      "type": "function"
    },
    {
      "inputs": [],
      "name": "owner",
      "outputs": [
        {
          "internalType": "address",
          "name": "",
          "type": "address"
        }
      ],
      "stateMutability": "view",
      "type": "function"
    },
    {
      "inputs": [
        {
          "internalType": "uint256",
          "name": "",
          "type": "uint256"
        }
      ],
      "name": "partListeners",
      "outputs": [
        {
          "internalType": "address",
          "name": "",
          "type": "address"
        }
      ],
      "stateMutability": "view",
      "type": "function"
    },
    {
      "inputs": [
        {
          "internalType": "address",
          "name": "member",
          "type": "address"
        }
      ],
      "name": "partMember",
      "outputs": [],
      "stateMutability": "nonpayable",
      "type": "function"
    },
    {
      "inputs": [
        {
          "internalType": "address[]",
          "name": "members",
          "type": "address[]"
        }
      ],
      "name": "partMembers",
      "outputs": [],
      "stateMutability": "nonpayable",
      "type": "function"
    },
    {
      "inputs": [],
      "name": "pendingOwner",
      "outputs": [
        {
          "internalType": "address",
          "name": "",
          "type": "address"
        }
      ],
      "stateMutability": "view",
      "type": "function"
    },
    {
      "inputs": [],
      "name": "protocolFeeOracle",
      "outputs": [
        {
          "internalType": "contract IFeeOracle",
          "name": "",
          "type": "address"
        }
      ],
      "stateMutability": "view",
      "type": "function"
    },
    {
      "inputs": [],
      "name": "refreshRevenue",
      "outputs": [
        {
          "internalType": "uint256",
          "name": "",
          "type": "uint256"
        }
      ],
      "stateMutability": "nonpayable",
      "type": "function"
    },
    {
      "inputs": [
        {
          "internalType": "contract IJoinListener",
          "name": "listener",
          "type": "address"
        }
      ],
      "name": "removeJoinListener",
      "outputs": [],
      "stateMutability": "nonpayable",
      "type": "function"
    },
    {
      "inputs": [
        {
          "internalType": "address",
          "name": "agent",
          "type": "address"
        }
      ],
      "name": "removeJoinPartAgent",
      "outputs": [],
      "stateMutability": "nonpayable",
      "type": "function"
    },
    {
      "inputs": [
        {
          "internalType": "address",
          "name": "member",
          "type": "address"
        },
        {
          "internalType": "enum LeaveConditionCode",
          "name": "leaveConditionCode",
          "type": "uint8"
        }
      ],
      "name": "removeMember",
      "outputs": [],
      "stateMutability": "nonpayable",
      "type": "function"
    },
    {
      "inputs": [
        {
          "internalType": "contract IPartListener",
          "name": "listener",
          "type": "address"
        }
      ],
      "name": "removePartListener",
      "outputs": [],
      "stateMutability": "nonpayable",
      "type": "function"
    },
    {
      "inputs": [
        {
          "internalType": "uint256",
          "name": "newAdminFee",
          "type": "uint256"
        }
      ],
      "name": "setAdminFee",
      "outputs": [],
      "stateMutability": "nonpayable",
      "type": "function"
    },
    {
      "inputs": [
        {
          "internalType": "string",
          "name": "newMetadata",
          "type": "string"
        }
      ],
      "name": "setMetadata",
      "outputs": [],
      "stateMutability": "nonpayable",
      "type": "function"
    },
    {
      "inputs": [
        {
          "internalType": "uint256",
          "name": "newMemberStipendWei",
          "type": "uint256"
        }
      ],
      "name": "setNewMemberEth",
      "outputs": [],
      "stateMutability": "nonpayable",
      "type": "function"
    },
    {
      "inputs": [
        {
          "internalType": "contract IWithdrawModule",
          "name": "newWithdrawModule",
          "type": "address"
        }
      ],
      "name": "setWithdrawModule",
      "outputs": [],
      "stateMutability": "nonpayable",
      "type": "function"
    },
    {
      "inputs": [
        {
          "internalType": "address",
          "name": "signer",
          "type": "address"
        },
        {
          "internalType": "address",
          "name": "recipient",
          "type": "address"
        },
        {
          "internalType": "uint256",
          "name": "amount",
          "type": "uint256"
        },
        {
          "internalType": "bytes",
          "name": "signature",
          "type": "bytes"
        }
      ],
      "name": "signatureIsValid",
      "outputs": [
        {
          "internalType": "bool",
          "name": "isValid",
          "type": "bool"
        }
      ],
      "stateMutability": "view",
      "type": "function"
    },
    {
      "inputs": [],
      "name": "token",
      "outputs": [
        {
          "internalType": "contract IERC677",
          "name": "",
          "type": "address"
        }
      ],
      "stateMutability": "view",
      "type": "function"
    },
    {
      "inputs": [],
      "name": "totalAdminFees",
      "outputs": [
        {
          "internalType": "uint256",
          "name": "",
          "type": "uint256"
        }
      ],
      "stateMutability": "view",
      "type": "function"
    },
    {
      "inputs": [],
      "name": "totalEarnings",
      "outputs": [
        {
          "internalType": "uint256",
          "name": "",
          "type": "uint256"
        }
      ],
      "stateMutability": "view",
      "type": "function"
    },
    {
      "inputs": [],
      "name": "totalProtocolFees",
      "outputs": [
        {
          "internalType": "uint256",
          "name": "",
          "type": "uint256"
        }
      ],
      "stateMutability": "view",
      "type": "function"
    },
    {
      "inputs": [],
      "name": "totalRevenue",
      "outputs": [
        {
          "internalType": "uint256",
          "name": "",
          "type": "uint256"
        }
      ],
      "stateMutability": "view",
      "type": "function"
    },
    {
      "inputs": [],
      "name": "totalWithdrawable",
      "outputs": [
        {
          "internalType": "uint256",
          "name": "",
          "type": "uint256"
        }
      ],
      "stateMutability": "view",
      "type": "function"
    },
    {
      "inputs": [],
      "name": "totalWithdrawn",
      "outputs": [
        {
          "internalType": "uint256",
          "name": "",
          "type": "uint256"
        }
      ],
      "stateMutability": "view",
      "type": "function"
    },
    {
      "inputs": [
        {
          "internalType": "address",
          "name": "newOwner",
          "type": "address"
        }
      ],
      "name": "transferOwnership",
      "outputs": [],
      "stateMutability": "nonpayable",
      "type": "function"
    },
    {
      "inputs": [
        {
          "internalType": "address",
          "name": "recipient",
          "type": "address"
        },
        {
          "internalType": "uint256",
          "name": "amount",
          "type": "uint256"
        }
      ],
      "name": "transferToMemberInContract",
      "outputs": [],
      "stateMutability": "nonpayable",
      "type": "function"
    },
    {
      "inputs": [
        {
          "internalType": "address",
          "name": "recipient",
          "type": "address"
        },
        {
          "internalType": "uint256",
          "name": "amount",
          "type": "uint256"
        }
      ],
      "name": "transferWithinContract",
      "outputs": [],
      "stateMutability": "nonpayable",
      "type": "function"
    },
    {
      "inputs": [
        {
          "internalType": "address",
          "name": "member",
          "type": "address"
        },
        {
          "internalType": "uint256",
          "name": "amount",
          "type": "uint256"
        },
        {
          "internalType": "bool",
          "name": "sendToMainnet",
          "type": "bool"
        }
      ],
      "name": "withdraw",
      "outputs": [
        {
          "internalType": "uint256",
          "name": "",
          "type": "uint256"
        }
      ],
      "stateMutability": "nonpayable",
      "type": "function"
    },
    {
      "inputs": [
        {
          "internalType": "address",
          "name": "member",
          "type": "address"
        },
        {
          "internalType": "bool",
          "name": "sendToMainnet",
          "type": "bool"
        }
      ],
      "name": "withdrawAll",
      "outputs": [
        {
          "internalType": "uint256",
          "name": "",
          "type": "uint256"
        }
      ],
      "stateMutability": "nonpayable",
      "type": "function"
    },
    {
      "inputs": [
        {
          "internalType": "address",
          "name": "to",
          "type": "address"
        },
        {
          "internalType": "bool",
          "name": "sendToMainnet",
          "type": "bool"
        }
      ],
      "name": "withdrawAllTo",
      "outputs": [
        {
          "internalType": "uint256",
          "name": "",
          "type": "uint256"
        }
      ],
      "stateMutability": "nonpayable",
      "type": "function"
    },
    {
      "inputs": [
        {
          "internalType": "address",
          "name": "fromSigner",
          "type": "address"
        },
        {
          "internalType": "address",
          "name": "to",
          "type": "address"
        },
        {
          "internalType": "bool",
          "name": "sendToMainnet",
          "type": "bool"
        },
        {
          "internalType": "bytes",
          "name": "signature",
          "type": "bytes"
        }
      ],
      "name": "withdrawAllToSigned",
      "outputs": [
        {
          "internalType": "uint256",
          "name": "withdrawn",
          "type": "uint256"
        }
      ],
      "stateMutability": "nonpayable",
      "type": "function"
    },
    {
      "inputs": [
        {
          "internalType": "address[]",
          "name": "members",
          "type": "address[]"
        },
        {
          "internalType": "bool",
          "name": "sendToMainnet",
          "type": "bool"
        }
      ],
      "name": "withdrawMembers",
      "outputs": [
        {
          "internalType": "uint256",
          "name": "",
          "type": "uint256"
        }
      ],
      "stateMutability": "nonpayable",
      "type": "function"
    },
    {
      "inputs": [],
      "name": "withdrawModule",
      "outputs": [
        {
          "internalType": "contract IWithdrawModule",
          "name": "",
          "type": "address"
        }
      ],
      "stateMutability": "view",
      "type": "function"
    },
    {
      "inputs": [
        {
          "internalType": "address",
          "name": "to",
          "type": "address"
        },
        {
          "internalType": "uint256",
          "name": "amount",
          "type": "uint256"
        },
        {
          "internalType": "bool",
          "name": "sendToMainnet",
          "type": "bool"
        }
      ],
      "name": "withdrawTo",
      "outputs": [
        {
          "internalType": "uint256",
          "name": "",
          "type": "uint256"
        }
      ],
      "stateMutability": "nonpayable",
      "type": "function"
    },
    {
      "inputs": [
        {
          "internalType": "address",
          "name": "fromSigner",
          "type": "address"
        },
        {
          "internalType": "address",
          "name": "to",
          "type": "address"
        },
        {
          "internalType": "uint256",
          "name": "amount",
          "type": "uint256"
        },
        {
          "internalType": "bool",
          "name": "sendToMainnet",
          "type": "bool"
        },
        {
          "internalType": "bytes",
          "name": "signature",
          "type": "bytes"
        }
      ],
      "name": "withdrawToSigned",
      "outputs": [
        {
          "internalType": "uint256",
          "name": "withdrawn",
          "type": "uint256"
        }
      ],
      "stateMutability": "nonpayable",
      "type": "function"
    },
    {
      "stateMutability": "payable",
      "type": "receive"
    }
  ],
  "bytecode": "0x608060405234801561001057600080fd5b50600080546001600160a01b0319169055613c4d806100306000396000f3fe6080604052600436106103b15760003560e01c806373e2290c116101e7578063ae66d9481161010d578063d78e6c0a116100a0578063ead5d3591161006f578063ead5d35914610af7578063f2fde38b14610b17578063f526e39a14610b37578063fc0c546a14610b4d57600080fd5b8063d78e6c0a14610a77578063d88124b714610a97578063e30c397814610ab7578063e6018c3114610ad757600080fd5b8063c59d4847116100dc578063c59d4847146109ff578063ca6d56dc14610a21578063ce7b786414610a41578063d35cec4014610a6157600080fd5b8063ae66d9481461096c578063b274bcc71461098c578063bf2d9e0b146109ac578063c44b73a3146109c257600080fd5b80638f8af0e511610185578063a3fc6b2f11610154578063a3fc6b2f146108ec578063a49a1e7d1461090c578063a4c0ed361461092c578063a4d6ddc01461094c57600080fd5b80638f8af0e5146108365780639107d08e14610856578063a230c524146108ac578063a2d3cf4b146108cc57600080fd5b80637dfef647116101c15780637dfef647146107bc57806385803659146107d65780638beb60b6146107f65780638da5cb5b1461081657600080fd5b806373e2290c1461076657806379049017146107865780637b30ed431461079c57600080fd5b80633d8e36a3116102d75780635fb6c6ed1161026a57806369ee75141161023957806369ee7514146106fb5780636d8018b8146107105780636f4d469b1461072657806371cdfd681461074657600080fd5b80635fb6c6ed1461068f57806361feacff146106a5578063662d45a2146106bb57806368cdc676146106db57600080fd5b80634bee9137116102a65780634bee91371461061a5780634e40ea641461063a5780634e71e0c81461065a578063535ce5d11461066f57600080fd5b80633d8e36a3146105b85780633ea27cfe146105ce5780633ebff90e146105ee5780634b3197131461060457600080fd5b80632afc0a581161034f578063314b5ce31161031e578063314b5ce31461051f578063331beb5f1461055757806336f5847d1461056c578063392e53cd1461058c57600080fd5b80632afc0a58146104a95780632b94411f146104c95780632df3eba4146104e95780632e0d4212146104ff57600080fd5b8063157c05961161038b578063157c0596146104275780631796621a1461044957806317966e09146104695780631a79246c1461048957600080fd5b80630600a865146103bd57806309a6400b146103e5578063131b9c041461040757600080fd5b366103b857005b600080fd5b3480156103c957600080fd5b506103d2610b6d565b6040519081526020015b60405180910390f35b3480156103f157600080fd5b50610405610400366004613369565b610b84565b005b34801561041357600080fd5b506103d2610422366004613369565b610c8e565b34801561043357600080fd5b5061043c610d49565b6040516103dc91906139d3565b34801561045557600080fd5b506104056104643660046137db565b610dd7565b34801561047557600080fd5b50610405610484366004613654565b610e45565b34801561049557600080fd5b506103d26104a43660046134d4565b611067565b3480156104b557600080fd5b506104056104c43660046133a3565b611103565b3480156104d557600080fd5b506103d26104e436600461361b565b6111e5565b3480156104f557600080fd5b506103d2600c5481565b34801561050b57600080fd5b506103d261051a366004613369565b61120c565b34801561052b57600080fd5b5060045461053f906001600160a01b031681565b6040516001600160a01b0390911681526020016103dc565b34801561056357600080fd5b506103d26112de565b34801561057857600080fd5b50610405610587366004613369565b61170c565b34801561059857600080fd5b506002546001600160a01b031615155b60405190151581526020016103dc565b3480156105c457600080fd5b506103d260115481565b3480156105da57600080fd5b506104056105e9366004613369565b6117c9565b3480156105fa57600080fd5b506103d260135481565b34801561061057600080fd5b506103d2600f5481565b34801561062657600080fd5b506103d261063536600461361b565b611881565b34801561064657600080fd5b50610405610655366004613369565b61189f565b34801561066657600080fd5b506104056118c4565b34801561067b57600080fd5b5061040561068a366004613369565b61197b565b34801561069b57600080fd5b506103d260105481565b3480156106b157600080fd5b506103d2600d5481565b3480156106c757600080fd5b506104056106d6366004613369565b611a33565b3480156106e757600080fd5b506105a86106f6366004613369565b611b36565b34801561070757600080fd5b50610405611b6e565b34801561071c57600080fd5b506103d260125481565b34801561073257600080fd5b5061040561074136600461374f565b611ba7565b34801561075257600080fd5b50610405610761366004613686565b611bee565b34801561077257600080fd5b506103d26107813660046136b2565b611cbe565b34801561079257600080fd5b506103d260085481565b3480156107a857600080fd5b506104056107b736600461374f565b611cd4565b3480156107c857600080fd5b506007546105a89060ff1681565b3480156107e257600080fd5b5061053f6107f1366004613861565b611d1b565b34801561080257600080fd5b50610405610811366004613861565b611d45565b34801561082257600080fd5b5060005461053f906001600160a01b031681565b34801561084257600080fd5b5060035461053f906001600160a01b031681565b34801561086257600080fd5b5061089c610871366004613369565b601460205260009081526040902080546001820154600283015460039093015460ff90921692909184565b6040516103dc949392919061397b565b3480156108b857600080fd5b506105a86108c7366004613369565b611e85565b3480156108d857600080fd5b506105a86108e7366004613558565b611eb6565b3480156108f857600080fd5b50610405610907366004613369565b612096565b34801561091857600080fd5b5061040561092736600461382c565b612138565b34801561093857600080fd5b506104056109473660046136f4565b6121ac565b34801561095857600080fd5b506103d2610967366004613790565b6122f8565b34801561097857600080fd5b506103d2610987366004613369565b61235c565b34801561099857600080fd5b506104056109a7366004613686565b6123d5565b3480156109b857600080fd5b506103d2600b5481565b3480156109ce57600080fd5b506109f26109dd366004613369565b60156020526000908152604090205460ff1681565b6040516103dc9190613968565b348015610a0b57600080fd5b50610a14612600565b6040516103dc9190613936565b348015610a2d57600080fd5b50610405610a3c366004613369565b612767565b348015610a4d57600080fd5b506103d2610a5c366004613459565b612a09565b348015610a6d57600080fd5b506103d260095481565b348015610a8357600080fd5b50610405610a92366004613369565b612ab6565b348015610aa357600080fd5b5061053f610ab2366004613861565b612b58565b348015610ac357600080fd5b5060015461053f906001600160a01b031681565b348015610ae357600080fd5b50610405610af2366004613861565b612b68565b348015610b0357600080fd5b506103d2610b123660046136b2565b612bd0565b348015610b2357600080fd5b50610405610b32366004613369565b612c40565b348015610b4357600080fd5b506103d2600e5481565b348015610b5957600080fd5b5060025461053f906001600160a01b031681565b6000600f54600b54610b7f9190613ae5565b905090565b6000546001600160a01b03163314610bb75760405162461bcd60e51b8152600401610bae906139e6565b60405180910390fd5b60016001600160a01b03821660009081526015602052604090205460ff166002811115610be657610be6613b7e565b14610c2a5760405162461bcd60e51b8152602060048201526014602482015273195c9c9bdc97db9bdd1058dd1a5d995059d95b9d60621b6044820152606401610bae565b6001600160a01b038116600081815260156020526040808220805460ff19166002179055517feac6c7d5a1c157497119a5d4f661d5f23b844c415452ef440ed346bd127d885e9190a2600160136000828254610c869190613ae5565b909155505050565b6001600160a01b038116600090815260146020526040812081815460ff166002811115610cbd57610cbd613b7e565b1415610cfd5760405162461bcd60e51b815260206004820152600f60248201526e32b93937b92fb737ba26b2b6b132b960891b6044820152606401610bae565b6001815460ff166002811115610d1557610d15613b7e565b14610d21576000610d33565b8060020154601254610d339190613ae5565b8160010154610d429190613a67565b9392505050565b600a8054610d5690613afc565b80601f0160208091040260200160405190810160405280929190818152602001828054610d8290613afc565b8015610dcf5780601f10610da457610100808354040283529160200191610dcf565b820191906000526020600020905b815481529060010190602001808311610db257829003601f168201915b505050505081565b6000546001600160a01b03163314610e015760405162461bcd60e51b8152600401610bae906139e6565b60005b8151811015610e4157610e2f828281518110610e2257610e22613baa565b6020026020010151611a33565b80610e3981613b37565b915050610e04565b5050565b336001600160a01b0383161480610e7f575060013360009081526015602052604090205460ff166002811115610e7d57610e7d613b7e565b145b610ec05760405162461bcd60e51b8152602060048201526012602482015271195c9c9bdc97db9bdd14195c9b5a5d1d195960721b6044820152606401610bae565b610ec982611e85565b610f0d5760405162461bcd60e51b815260206004820152601560248201527432b93937b92fb737ba20b1ba34bb32a6b2b6b132b960591b6044820152606401610bae565b610f1682610c8e565b6001600160a01b0383166000908152601460205260408120600180820193909355805460ff1916600217905560108054909190610f54908490613ae5565b92505081905550600160116000828254610f6e9190613a67565b909155508190506002811115610f8657610f86613b7e565b6040516001600160a01b038416907f5f1690f61957d783b6db3a7cfd5802c10639675ed2c25d2e998b4dfaf6ae426f90600090a360005b60065481101561105957600060068281548110610fdc57610fdc613baa565b6000918252602090912001546040516309a56ffd60e41b81526001600160a01b0390911691508190639a56ffd09061101a90879087906004016138e0565b600060405180830381600087803b15801561103457600080fd5b505af1925050508015611045575060015b50508061105181613b37565b915050610fbd565b506110626112de565b505050565b60006110ab87878786868080601f016020809104026020016040519081016040528093929190818152602001838380828437600092019190915250611eb692505050565b6110ec5760405162461bcd60e51b81526020600482015260126024820152716572726f725f6261645369676e617475726560701b6044820152606401610bae565b6110f887878787612c8c565b979650505050505050565b6002546001600160a01b03161561115c5760405162461bcd60e51b815260206004820152601860248201527f6572726f725f616c7265616479496e697469616c697a656400000000000000006044820152606401610bae565b600380546001600160a01b038086166001600160a01b0319928316179092556000805482163317905560028054928a169290911691909117905561119f86610dd7565b6111a884611d45565b6111b185612b68565b6111bb8282612138565b5050600080546001600160a01b0319166001600160a01b0397909716969096179095555050505050565b60006111ef6112de565b50611203836111fd3361120c565b84611cbe565b90505b92915050565b6000806112188361235c565b61122184610c8e565b61122b9190613ae5565b6004549091506001600160a01b0316156112065760048054604051630b8eada360e31b81526001600160a01b03868116938201939093526024810184905260009290911690635c756d189060440160206040518083038186803b15801561129157600080fd5b505afa1580156112a5573d6000803e3d6000fd5b505050506040513d601f19601f820116820180604052508101906112c9919061387a565b9050818110156112d7578091505b5092915050565b6002546040516370a0823160e01b815230600482015260009182916001600160a01b03909116906370a082319060240160206040518083038186803b15801561132657600080fd5b505afa15801561133a573d6000803e3d6000fd5b505050506040513d601f19601f8201168201806040525081019061135e919061387a565b9050600061136a610b6d565b6113749083613ae5565b90508015806113835750601054155b156113915760009250505090565b80600b60008282546113a39190613a67565b90915550506040518181527f41b06c6e0a1531dcb4b86d53ec6268666aa12d55775f8e5a63596fc935cdcc229060200160405180910390a160035460405163ecc6395760e01b81523060048201526000916001600160a01b03169063ecc639579060240160206040518083038186803b15801561141f57600080fd5b505afa158015611433573d6000803e3d6000fd5b505050506040513d601f19601f82011682018060405250810190611457919061387a565b90506000600360009054906101000a90046001600160a01b03166001600160a01b03166338af3eed6040518163ffffffff1660e01b815260040160206040518083038186803b1580156114a957600080fd5b505afa1580156114bd573d6000803e3d6000fd5b505050506040513d601f19601f820116820180604052508101906114e19190613386565b9050670de0b6b3a7640000826009546114fa9190613a67565b11156115165761151282670de0b6b3a7640000613ae5565b6009555b6000670de0b6b3a76400006009548561152f9190613ac6565b6115399190613aa4565b90506000670de0b6b3a76400006115508587613ac6565b61155a9190613aa4565b90506000816115698488613ae5565b6115739190613ae5565b60005490915061158c906001600160a01b031684612ed5565b6115968483612ed5565b82600d60008282546115a89190613a67565b9250508190555081600e60008282546115c19190613a67565b909155505060408051848152602081018490527f4fed68db354fc9a4a85e24ef5dc3a7bea31a6b507ecaaa263f65fa1c70ab647c910160405180910390a160006010548261160f9190613aa4565b90508060125461161f9190613a67565b601255600c54611630908390613a67565b600c556010546040805183815260208101929092527f24a9873073eba764d17ef9fa7475b3b209c02e6e6f7ed991c9c80e09226a37a7910160405180910390a1611678610b6d565b6002546040516370a0823160e01b81523060048201526001600160a01b03909116906370a082319060240160206040518083038186803b1580156116bb57600080fd5b505afa1580156116cf573d6000803e3d6000fd5b505050506040513d601f19601f820116820180604052508101906116f3919061387a565b1461170057611700613b52565b50979650505050505050565b6000546001600160a01b031633146117365760405162461bcd60e51b8152600401610bae906139e6565b60075460ff161561177f5760405162461bcd60e51b8152602060048201526013602482015272195c9c9bdc97db5bd91d5b195cd31bd8dad959606a1b6044820152606401610bae565b600480546001600160a01b0319166001600160a01b0383169081179091556040517f5baac16b14d7b635a00727fea8f8ed8be743136944f21f24198375d2caa7e31e90600090a250565b6000546001600160a01b031633146117f35760405162461bcd60e51b8152600401610bae906139e6565b6117fe600582612f4b565b61184a5760405162461bcd60e51b815260206004820152601a60248201527f6572726f725f6a6f696e4c697374656e65724e6f74466f756e640000000000006044820152606401610bae565b6040516001600160a01b038216907fc2930df8ca9cd93c736bf3cc100569fe72b69c28099dab7f24288e527bbda74890600090a250565b600061188b6112de565b50611203836118998561120c565b84612bd0565b6118c181336001600160a01b038216146118ba576001610e45565b6000610e45565b50565b6001546001600160a01b031633146119175760405162461bcd60e51b815260206004820152601660248201527532b93937b92fb7b7363ca832b73234b733a7bbb732b960511b6044820152606401610bae565b600154600080546040516001600160a01b0393841693909116917f8be0079c531659141344cd1fd0a4f28419497f9722a3daafe3b4186f6b6457e091a360018054600080546001600160a01b03199081166001600160a01b03841617909155169055565b6000546001600160a01b031633146119a55760405162461bcd60e51b8152600401610bae906139e6565b6119b0600682612f4b565b6119fc5760405162461bcd60e51b815260206004820152601a60248201527f6572726f725f706172744c697374656e65724e6f74466f756e640000000000006044820152606401610bae565b6040516001600160a01b038216907f9bbfbcf74777ac8fbf537a6b375c7b2030b8f66a5c71a7c2567fe22e7b099b0890600090a250565b6000546001600160a01b03163314611a5d5760405162461bcd60e51b8152600401610bae906139e6565b60016001600160a01b03821660009081526015602052604090205460ff166002811115611a8c57611a8c613b7e565b1415611ada5760405162461bcd60e51b815260206004820152601860248201527f6572726f725f616c72656164794163746976654167656e7400000000000000006044820152606401610bae565b6001600160a01b038116600081815260156020526040808220805460ff19166001179055517f10581818fb1ffbfd9ac8500cba931a30c3a57b5e9b7972f2fa0aef002b3fde2b9190a2600160136000828254610c869190613a67565b600060016001600160a01b03831660009081526015602052604090205460ff166002811115611b6757611b67613b7e565b1492915050565b6000546001600160a01b03163314611b985760405162461bcd60e51b8152600401610bae906139e6565b6007805460ff19166001179055565b60005b8181101561106257611bdc838383818110611bc757611bc7613baa565b9050602002016020810190610a3c9190613369565b80611be681613b37565b915050611baa565b80611bf83361120c565b1015611c425760405162461bcd60e51b81526020600482015260196024820152786572726f725f696e73756666696369656e7442616c616e636560381b6044820152606401610bae565b3360009081526014602052604090206003810154611c61908390613a67565b6003820155611c708383612ed5565b6040518281526001600160a01b0384169033907f638ce96e87261f007ef5c0389bb59b90db3e19c42edee859d6b09739d8d79f7f9060200160405180910390a3611cb86112de565b50505050565b6000611ccc33858585612c8c565b949350505050565b60005b8181101561106257611d09838383818110611cf457611cf4613baa565b90506020020160208101906106559190613369565b80611d1381613b37565b915050611cd7565b60058181548110611d2b57600080fd5b6000918252602090912001546001600160a01b0316905081565b6000546001600160a01b03163314611d6f5760405162461bcd60e51b8152600401610bae906139e6565b60035460405163ecc6395760e01b81523060048201526000916001600160a01b03169063ecc639579060240160206040518083038186803b158015611db357600080fd5b505afa158015611dc7573d6000803e3d6000fd5b505050506040513d601f19601f82011682018060405250810190611deb919061387a565b9050670de0b6b3a7640000611e008284613a67565b1115611e3f5760405162461bcd60e51b815260206004820152600e60248201526d6572726f725f61646d696e46656560901b6044820152606401610bae565b600980549083905560408051848152602081018390527f9cb4aeb5436ced0779e46ff687966e51f25f37bb483f0c5822aeac9be9e67a7e910160405180910390a1505050565b600060016001600160a01b03831660009081526014602052604090205460ff166002811115611b6757611b67613b7e565b60008151604114611f095760405162461bcd60e51b815260206004820152601860248201527f6572726f725f6261645369676e61747572654c656e67746800000000000000006044820152606401610bae565b60208201516040830151606084015160001a601b811015611f3257611f2f601b82613a7f565b90505b8060ff16601b1480611f4757508060ff16601c145b611f935760405162461bcd60e51b815260206004820152601960248201527f6572726f725f6261645369676e617475726556657273696f6e000000000000006044820152606401610bae565b6000878730611fa18c61235c565b6040517f19457468657265756d205369676e6564204d6573736167653a0a31303400000060208201526bffffffffffffffffffffffff19606095861b8116603d83015260518201949094529190931b9091166071820152608581019190915260a50160408051601f198184030181528282528051602091820120600080855291840180845281905260ff86169284019290925260608301879052608083018690529092509060019060a0016020604051602081039080840390855afa15801561206e573d6000803e3d6000fd5b5050604051601f1901516001600160a01b038c81169116149650505050505050949350505050565b6000546001600160a01b031633146120c05760405162461bcd60e51b8152600401610bae906139e6565b6006805460018101825560009182527ff652222313e28459528d920b65115c16c04f3efc82aaedc97be59f3f377c0d3f0180546001600160a01b0319166001600160a01b03841690811790915560405190917fde5492345cd7090548289c03dc4c85b7557218333e6ecf9ea4fd74405fb07e1791a250565b6000546001600160a01b031633146121625760405162461bcd60e51b8152600401610bae906139e6565b61216e600a83836131a3565b507fc5e8f06e682be1cb96bb6e6f0b17a64299e4f96d2e3d04003c3d9c3a8de22f3d82826040516121a09291906139a4565b60405180910390a15050565b6002546001600160a01b031633146122065760405162461bcd60e51b815260206004820152601760248201527f6572726f725f6f6e6c79546f6b656e436f6e74726163740000000000000000006044820152606401610bae565b601481141561227b57813560601c61221e8185612ed5565b83600b60008282546122309190613a67565b90915550506040518481526001600160a01b0382169033907f4e018df3c92158645fcf45007db7029d3fa97d269866be2bd4360c5f5a6163e49060200160405180910390a3506122e9565b60208114156122e95781356122908185612ed5565b83600b60008282546122a29190613a67565b90915550506040518481526001600160a01b0382169033907f4e018df3c92158645fcf45007db7029d3fa97d269866be2bd4360c5f5a6163e49060200160405180910390a3505b6122f16112de565b5050505050565b600080805b848110156123535761233586868381811061231a5761231a613baa565b905060200201602081019061232f9190613369565b85611881565b61233f9083613a67565b91508061234b81613b37565b9150506122fd565b50949350505050565b6001600160a01b038116600090815260146020526040812081815460ff16600281111561238b5761238b613b7e565b14156123cb5760405162461bcd60e51b815260206004820152600f60248201526e32b93937b92fb737ba26b2b6b132b960891b6044820152606401610bae565b6003015492915050565b6123df8282612ed5565b80600b60008282546123f19190613a67565b90915550506040518181526001600160a01b0383169033907f4e018df3c92158645fcf45007db7029d3fa97d269866be2bd4360c5f5a6163e49060200160405180910390a36002546040516370a0823160e01b81523060048201526000916001600160a01b0316906370a082319060240160206040518083038186803b15801561247a57600080fd5b505afa15801561248e573d6000803e3d6000fd5b505050506040513d601f19601f820116820180604052508101906124b2919061387a565b6002546040516323b872dd60e01b8152336004820152306024820152604481018590529192506001600160a01b0316906323b872dd90606401602060405180830381600087803b15801561250557600080fd5b505af1158015612519573d6000803e3d6000fd5b505050506040513d601f19601f8201168201806040525081019061253d919061380f565b6125595760405162461bcd60e51b8152600401610bae90613a0f565b6002546040516370a0823160e01b81523060048201526000916001600160a01b0316906370a082319060240160206040518083038186803b15801561259d57600080fd5b505afa1580156125b1573d6000803e3d6000fd5b505050506040513d601f19601f820116820180604052508101906125d5919061387a565b9050826125e28383613ae5565b10156122e95760405162461bcd60e51b8152600401610bae90613a0f565b612608613227565b601154600354604080516338af3eed60e01b815290516000926001600160a01b0316916338af3eed916004808301926020929190829003018186803b15801561265057600080fd5b505afa158015612664573d6000803e3d6000fd5b505050506040513d601f19601f820116820180604052508101906126889190613386565b90506002600080546001600160a01b031681526014602052604090205460ff1660028111156126b9576126b9613b7e565b14156126cd576126ca600183613ae5565b91505b60026001600160a01b03821660009081526014602052604090205460ff1660028111156126fc576126fc613b7e565b14156127105761270d600183613ae5565b91505b604051806101200160405280600b548152602001600c548152602001600d548152602001600e548152602001600f548152602001601054815260200183815260200160125481526020016013548152509250505090565b61277033611b36565b6127bc5760405162461bcd60e51b815260206004820152601760248201527f6572726f725f6f6e6c794a6f696e506172744167656e740000000000000000006044820152606401610bae565b6001600160a01b03811660009081526014602052604090206127dd82611e85565b156128205760405162461bcd60e51b815260206004820152601360248201527232b93937b92fb0b63932b0b23ca6b2b6b132b960691b6044820152606401610bae565b6002815460ff16600281111561283857612838613b7e565b1415612857576001601160008282546128519190613ae5565b90915550505b600080825460ff16600281111561287057612870613b7e565b14801561287f57506000600854115b801561288d57506008544710155b825460ff19166001908117845560125460028501556010805492935090916000906128b9908490613a67565b90915550506040516001600160a01b038416907f0abf3b3f643594d958297062a019458e27d7766629590ac621aa1000fa1298ab90600090a260005b6005548110156129935760006005828154811061291457612914613baa565b6000918252602090912001546040516318932a6760e21b81526001600160a01b0387811660048301529091169150819063624ca99c90602401600060405180830381600087803b15801561296757600080fd5b505af115801561297b573d6000803e3d6000fd5b5050505050808061298b90613b37565b9150506128f5565b508015612a01576008546040516001600160a01b0385169180156108fc02916000818181858888f1935050505015612a01577f55e2724f03f2711a94cf86d8b10c57130b103d6c2f1726076fbf9430340d41e76008546040516129f891815260200190565b60405180910390a15b611cb86112de565b6000612a4e8686600086868080601f016020809104026020016040519081016040528093929190818152602001838380828437600092019190915250611eb692505050565b612a8f5760405162461bcd60e51b81526020600482015260126024820152716572726f725f6261645369676e617475726560701b6044820152606401610bae565b612a976112de565b50612aac8686612aa68961120c565b87612c8c565b9695505050505050565b6000546001600160a01b03163314612ae05760405162461bcd60e51b8152600401610bae906139e6565b6005805460018101825560009182527f036b6384b5eca791c62761152d0c79bb0604c104a5fb6f4eb0703f3154bb3db00180546001600160a01b0319166001600160a01b03841690811790915560405190917fdabc377fa2f5811c8c6f796d0b4e97f1030390ce5f1806e1870e28b042ae7e4091a250565b60068181548110611d2b57600080fd5b6000546001600160a01b03163314612b925760405162461bcd60e51b8152600401610bae906139e6565b600880549082905560408051838152602081018390527fd5b940b7ee8b1759039160ca4734a68a8bd36d3ded559ac043a68d28da314b5891016121a0565b6000336001600160a01b0385161480612bf357506000546001600160a01b031633145b612c345760405162461bcd60e51b8152602060048201526012602482015271195c9c9bdc97db9bdd14195c9b5a5d1d195960721b6044820152606401610bae565b611ccc84858585612c8c565b6000546001600160a01b03163314612c6a5760405162461bcd60e51b8152600401610bae906139e6565b600180546001600160a01b0319166001600160a01b0392909216919091179055565b600082612c9b57506000611ccc565b612ca36112de565b50612cad8561120c565b831115612cf85760405162461bcd60e51b81526020600482015260196024820152786572726f725f696e73756666696369656e7442616c616e636560381b6044820152606401610bae565b6001600160a01b038516600090815260146020526040812060038101805491928692612d25908490613a67565b9250508190555083600f6000828254612d3e9190613a67565b90915550506004546001600160a01b031615612e7c576002546004805460405163a9059cbb60e01b81526001600160a01b0391821692810192909252602482018790529091169063a9059cbb90604401602060405180830381600087803b158015612da857600080fd5b505af1158015612dbc573d6000803e3d6000fd5b505050506040513d601f19601f82011682018060405250810190612de0919061380f565b612dfc5760405162461bcd60e51b8152600401610bae90613a0f565b60048054600254604051630445e43f60e21b81526001600160a01b038a811694820194909452888416602482015290831660448201526064810187905291169063111790fc90608401600060405180830381600087803b158015612e5f57600080fd5b505af1158015612e73573d6000803e3d6000fd5b50505050612e88565b612e8886868686613088565b856001600160a01b03167f48dc35af7b45e2a81fffad55f6e2fafacdb1d3d0d50d24ebdc16324f5ba757f185604051612ec391815260200190565b60405180910390a25091949350505050565b6001600160a01b03821660009081526014602052604090206001810154612efd908390613a67565b60018201556000815460ff166002811115612f1a57612f1a613b7e565b141561106257805460ff191660021781556011805460019190600090612f41908490613a67565b9091555050505050565b6000805b835481108015612f8e5750826001600160a01b0316848281548110612f7657612f76613baa565b6000918252602090912001546001600160a01b031614155b15612fa557612f9e600182613a67565b9050612f4f565b8354811415612fb8576000915050611206565b8354612fc690600190613ae5565b81101561304c5783548490612fdd90600190613ae5565b81548110612fed57612fed613baa565b9060005260206000200160009054906101000a90046001600160a01b031684828154811061301d5761301d613baa565b9060005260206000200160006101000a8154816001600160a01b0302191690836001600160a01b031602179055505b8380548061305c5761305c613b94565b600082815260209020600019908201810180546001600160a01b03191690550190555060019392505050565b80156130d65760405162461bcd60e51b815260206004820152601d60248201527f6572726f725f73656e64546f4d61696e6e6574446570726563617465640000006044820152606401610bae565b60025460408051606087901b6bffffffffffffffffffffffff19166020820152815160148183030181526034820192839052630200057560e51b9092526001600160a01b0390921691634000aea0916131359187918791603801613906565b602060405180830381600087803b15801561314f57600080fd5b505af1158015613163573d6000803e3d6000fd5b505050506040513d601f19601f82011682018060405250810190613187919061380f565b611cb85760405162461bcd60e51b8152600401610bae90613a0f565b8280546131af90613afc565b90600052602060002090601f0160209004810192826131d15760008555613217565b82601f106131ea5782800160ff19823516178555613217565b82800160010185558215613217579182015b828111156132175782358255916020019190600101906131fc565b50613223929150613246565b5090565b6040518061012001604052806009906020820280368337509192915050565b5b808211156132235760008155600101613247565b60008083601f84011261326d57600080fd5b5081356001600160401b0381111561328457600080fd5b6020830191508360208260051b850101111561329f57600080fd5b9250929050565b600082601f8301126132b757600080fd5b813560206001600160401b038211156132d2576132d2613bc0565b8160051b6132e1828201613a37565b8381528281019086840183880185018910156132fc57600080fd5b600093505b8584101561170057803561331481613bf4565b835260019390930192918401918401613301565b60008083601f84011261333a57600080fd5b5081356001600160401b0381111561335157600080fd5b60208301915083602082850101111561329f57600080fd5b60006020828403121561337b57600080fd5b8135610d4281613bf4565b60006020828403121561339857600080fd5b8151610d4281613bf4565b60008060008060008060008060e0898b0312156133bf57600080fd5b88356133ca81613bf4565b975060208901356133da81613bf4565b965060408901356001600160401b03808211156133f657600080fd5b6134028c838d016132a6565b975060608b0135965060808b0135955060a08b0135915061342282613bf4565b90935060c08a0135908082111561343857600080fd5b506134458b828c01613328565b999c989b5096995094979396929594505050565b60008060008060006080868803121561347157600080fd5b853561347c81613bf4565b9450602086013561348c81613bf4565b9350604086013561349c81613c09565b925060608601356001600160401b038111156134b757600080fd5b6134c388828901613328565b969995985093965092949392505050565b60008060008060008060a087890312156134ed57600080fd5b86356134f881613bf4565b9550602087013561350881613bf4565b945060408701359350606087013561351f81613c09565b925060808701356001600160401b0381111561353a57600080fd5b61354689828a01613328565b979a9699509497509295939492505050565b6000806000806080858703121561356e57600080fd5b843561357981613bf4565b935060208581013561358a81613bf4565b93506040860135925060608601356001600160401b03808211156135ad57600080fd5b818801915088601f8301126135c157600080fd5b8135818111156135d3576135d3613bc0565b6135e5601f8201601f19168501613a37565b915080825289848285010111156135fb57600080fd5b808484018584013760008482840101525080935050505092959194509250565b6000806040838503121561362e57600080fd5b823561363981613bf4565b9150602083013561364981613c09565b809150509250929050565b6000806040838503121561366757600080fd5b823561367281613bf4565b915060208301356003811061364957600080fd5b6000806040838503121561369957600080fd5b82356136a481613bf4565b946020939093013593505050565b6000806000606084860312156136c757600080fd5b83356136d281613bf4565b92506020840135915060408401356136e981613c09565b809150509250925092565b6000806000806060858703121561370a57600080fd5b843561371581613bf4565b93506020850135925060408501356001600160401b0381111561373757600080fd5b61374387828801613328565b95989497509550505050565b6000806020838503121561376257600080fd5b82356001600160401b0381111561377857600080fd5b6137848582860161325b565b90969095509350505050565b6000806000604084860312156137a557600080fd5b83356001600160401b038111156137bb57600080fd5b6137c78682870161325b565b90945092505060208401356136e981613c09565b6000602082840312156137ed57600080fd5b81356001600160401b0381111561380357600080fd5b611ccc848285016132a6565b60006020828403121561382157600080fd5b8151610d4281613c09565b6000806020838503121561383f57600080fd5b82356001600160401b0381111561385557600080fd5b61378485828601613328565b60006020828403121561387357600080fd5b5035919050565b60006020828403121561388c57600080fd5b5051919050565b6000815180845260005b818110156138b95760208185018101518683018201520161389d565b818111156138cb576000602083870101525b50601f01601f19169290920160200192915050565b6001600160a01b0383168152604081016138f983613bd6565b8260208301529392505050565b60018060a01b038416815282602082015260606040820152600061392d6060830184613893565b95945050505050565b6101208101818360005b600981101561395f578151835260209283019290910190600101613940565b50505092915050565b6020810161397583613bd6565b91905290565b6080810161398886613bd6565b9481526020810193909352604083019190915260609091015290565b60208152816020820152818360408301376000818301604090810191909152601f909201601f19160101919050565b6020815260006112036020830184613893565b6020808252600f908201526e32b93937b92fb7b7363ca7bbb732b960891b604082015260600190565b6020808252600e908201526d32b93937b92fba3930b739b332b960911b604082015260600190565b604051601f8201601f191681016001600160401b0381118282101715613a5f57613a5f613bc0565b604052919050565b60008219821115613a7a57613a7a613b68565b500190565b600060ff821660ff84168060ff03821115613a9c57613a9c613b68565b019392505050565b600082613ac157634e487b7160e01b600052601260045260246000fd5b500490565b6000816000190483118215151615613ae057613ae0613b68565b500290565b600082821015613af757613af7613b68565b500390565b600181811c90821680613b1057607f821691505b60208210811415613b3157634e487b7160e01b600052602260045260246000fd5b50919050565b6000600019821415613b4b57613b4b613b68565b5060010190565b634e487b7160e01b600052600160045260246000fd5b634e487b7160e01b600052601160045260246000fd5b634e487b7160e01b600052602160045260246000fd5b634e487b7160e01b600052603160045260246000fd5b634e487b7160e01b600052603260045260246000fd5b634e487b7160e01b600052604160045260246000fd5b600381106118c157634e487b7160e01b600052602160045260246000fd5b6001600160a01b03811681146118c157600080fd5b80151581146118c157600080fdfea26469706673582212203d7b653639df5e38014dac633a04d518c8eb1378e3a5ec2b6fda26aca07bd9b864736f6c63430008060033",
  "linkReferences": {},
  "deployedLinkReferences": {}
}