{
  "contractName": "DataUnionFactorySidechain",
  "abi": [
    {
      "inputs": [
        {
          "internalType": "address",
          "name": "_token_mediator",
          "type": "address"
        },
        {
          "internalType": "address",
          "name": "_data_union_sidechain_template",
          "type": "address"
        }
      ],
      "stateMutability": "nonpayable",
      "type": "constructor"
    },
    {
      "anonymous": false,
      "inputs": [
        {
          "indexed": true,
          "internalType": "address",
          "name": "mainnet",
          "type": "address"
        },
        {
          "indexed": true,
          "internalType": "address",
          "name": "sidenet",
          "type": "address"
        },
        {
          "indexed": true,
          "internalType": "address",
          "name": "owner",
          "type": "address"
        },
        {
          "indexed": false,
          "internalType": "address",
          "name": "template",
          "type": "address"
        }
      ],
      "name": "SidechainDUCreated",
      "type": "event"
    },
    {
      "inputs": [],
      "name": "amb",
      "outputs": [
        {
          "internalType": "contract IAMB",
          "name": "",
          "type": "address"
        }
      ],
      "stateMutability": "view",
      "type": "function"
    },
    {
      "inputs": [],
      "name": "data_union_sidechain_template",
      "outputs": [
        {
          "internalType": "address",
          "name": "",
          "type": "address"
        }
      ],
      "stateMutability": "view",
      "type": "function"
    },
    {
      "inputs": [],
      "name": "token_mediator",
      "outputs": [
        {
          "internalType": "contract ITokenMediator",
          "name": "",
          "type": "address"
        }
      ],
      "stateMutability": "view",
      "type": "function"
    },
    {
      "inputs": [
        {
          "internalType": "address",
          "name": "mainet_address",
          "type": "address"
        }
      ],
      "name": "sidechainAddress",
      "outputs": [
        {
          "internalType": "address",
          "name": "proxy",
          "type": "address"
        }
      ],
      "stateMutability": "view",
      "type": "function"
    },
    {
      "inputs": [
        {
          "internalType": "address",
          "name": "owner",
          "type": "address"
        },
        {
          "internalType": "uint256",
          "name": "adminFeeFraction",
          "type": "uint256"
        },
        {
          "internalType": "address[]",
          "name": "agents",
          "type": "address[]"
        }
      ],
      "name": "deployNewDUSidechain",
      "outputs": [
        {
          "internalType": "address",
          "name": "",
          "type": "address"
        }
      ],
      "stateMutability": "nonpayable",
      "type": "function"
    }
  ],
  "bytecode": "0x608060405234801561001057600080fd5b506040516107153803806107158339818101604052604081101561003357600080fd5b508051602091820151600280546001600160a01b038085166001600160a01b03199283161792839055600080548286169316929092179091556040805163cd59658360e01b8152905194959394929091169263cd59658392600480840193829003018186803b1580156100a557600080fd5b505afa1580156100b9573d6000803e3d6000fd5b505050506040513d60208110156100cf57600080fd5b5051600180546001600160a01b0319166001600160a01b03909216919091179055506106139050806101026000396000f3fe608060405234801561001057600080fd5b50600436106100575760003560e01c80631062b39a1461005c57806317c2a98c14610080578063b33ff60b146100a6578063c5a8c91f1461015e578063e4a154a414610166575b600080fd5b61006461016e565b604080516001600160a01b039092168252519081900360200190f35b6100646004803603602081101561009657600080fd5b50356001600160a01b031661017d565b610064600480360360608110156100bc57600080fd5b6001600160a01b03823516916020810135918101906060810160408201356401000000008111156100ec57600080fd5b8201836020820111156100fe57600080fd5b8035906020019184602083028401116401000000008311171561012057600080fd5b9190808060200260200160405190810160405280939291908181526020018383602002808284376000920191909152509295506101a0945050505050565b6100646103f0565b6100646103ff565b6001546001600160a01b031681565b6000805461019a906001600160a01b03908116903090851661040e565b92915050565b60015460009081906001600160a01b031633146101bd5733610238565b600160009054906101000a90046001600160a01b03166001600160a01b031663d67bdd256040518163ffffffff1660e01b815260040160206040518083038186803b15801561020b57600080fd5b505afa15801561021f573d6000803e3d6000fd5b505050506040513d602081101561023557600080fd5b50515b600254604080516318d8f9c960e01b815290519293506001600160a01b03808516936060938a939216916318d8f9c9916004808301926020929190829003018186803b15801561028757600080fd5b505afa15801561029b573d6000803e3d6000fd5b505050506040513d60208110156102b157600080fd5b50516002546040516001600160a01b03848116602483019081528185166044840152606483018c905292811660a4830181905290881660c483015260c0608483019081528a5160e48401528a518c948c948b939192610104909101906020878101910280838360005b8381101561033257818101518382015260200161031a565b50506040805193909501838103601f190184529094525060208101805163ba1a4de960e01b6001600160e01b0390911617905260008054919c509a50610396995061038f98506001600160a01b0316965061047a95505050505050565b83856104cc565b600054604080516001600160a01b0392831681529051929350818b1692828516928816917f90d0a5d098b9a181ff8ddc866f840cc210e5b91eaf27bc267d5822a0deafad25919081900360200190a4979650505050505050565b6002546001600160a01b031681565b6000546001600160a01b031681565b60008061041a8561047a565b8051602091820120604080516001600160f81b0319818501526bffffffffffffffffffffffff19606089901b1660218201526035810187905260558082019390935281518082039093018352607501905280519101209150509392505050565b604080516057810190915260378152733d602d80600a3d3981f3363d3d373d3d3d363d7360601b602082015260609190911b60348201526e5af43d82803e903d91602b57fd5bf360881b604882015290565b825160009082816020870184f58451909250156105d5576000826001600160a01b0316856040518082805190602001908083835b6020831061051f5780518252601f199092019160209182019101610500565b6001836020036101000a0380198251168184511680821785525050505050509050019150506000604051808303816000865af19150503d8060008114610581576040519150601f19603f3d011682016040523d82523d6000602084013e610586565b606091505b50509050806105d3576040805162461bcd60e51b815260206004820152601460248201527332b93937b92fb4b734ba34b0b634bd30ba34b7b760611b604482015290519081900360640190fd5b505b50939250505056fea26469706673582212206a83e117e35bef463df35358f8b81781a658e9e7dbccabaf50b699dde7bf39ae64736f6c63430006060033",
  "immutableReferences": {},
  "source": "pragma solidity ^0.6.0;\n\nimport \"openzeppelin-solidity/contracts/token/ERC20/IERC20.sol\";\nimport \"openzeppelin-solidity/contracts/math/SafeMath.sol\";\nimport \"./CloneLib.sol\";\n\n//Tokenbridge Arbitrary Message Bridge\ninterface IAMB {\n    function messageSender() external view returns (address);\n\n    function maxGasPerTx() external view returns (uint256);\n\n    function transactionHash() external view returns (bytes32);\n\n    function messageId() external view returns (bytes32);\n\n    function messageSourceChainId() external view returns (bytes32);\n\n    function messageCallStatus(bytes32 _messageId) external view returns (bool);\n\n    function failedMessageDataHash(bytes32 _messageId)\n        external\n        view\n        returns (bytes32);\n\n    function failedMessageReceiver(bytes32 _messageId)\n        external\n        view\n        returns (address);\n\n    function failedMessageSender(bytes32 _messageId)\n        external\n        view\n        returns (address);\n\n    function requireToPassMessage(\n        address _contract,\n        bytes calldata _data,\n        uint256 _gas\n    ) external returns (bytes32);\n}\n\ninterface ITokenMediator {\n    function erc677token() external view returns (address);\n    function bridgeContract() external view returns (address);\n    function relayTokens(address _from, address _receiver, uint256 _value) external;\n}\n\n\ncontract DataUnionFactorySidechain {\n    event SidechainDUCreated(address indexed mainnet, address indexed sidenet, address indexed owner, address template);\n\n    address public data_union_sidechain_template;\n    IAMB public amb;\n    ITokenMediator public token_mediator;\n\n    constructor( address _token_mediator, address _data_union_sidechain_template) public {\n        token_mediator = ITokenMediator(_token_mediator);\n        data_union_sidechain_template = _data_union_sidechain_template;\n        amb = IAMB(token_mediator.bridgeContract());\n    }\n\n    function sidechainAddress(address mainet_address)\n        public view\n        returns (address proxy)\n    {\n        return CloneLib.predictCloneAddressCreate2(data_union_sidechain_template, address(this), bytes32(uint256(mainet_address)));\n    }\n\n/*\n    initialize(address _owner,\n        address token_address,\n        uint256 adminFeeFraction_,\n        address[] memory agents,\n        address _token_mediator,\n        address _mainchain_DU)\n\n\n    users can only deploy with salt = their key.\n*/\n    function deployNewDUSidechain(address owner, uint256 adminFeeFraction, address[] memory agents) public returns (address) {\n        //if the request didnt come from AMB, use the sender's address as the corresponding \"mainnet\" address\n        address du_mainnet = msg.sender == address(amb) ? amb.messageSender() : msg.sender;\n        bytes32 salt = bytes32(uint256(du_mainnet));\n        bytes memory data = abi.encodeWithSignature(\"initialize(address,address,uint256,address[],address,address)\",\n            owner,\n            token_mediator.erc677token(),\n            adminFeeFraction,\n            agents,\n            address(token_mediator),\n            du_mainnet\n        );\n        address du = CloneLib.deployCodeAndInitUsingCreate2(CloneLib.cloneBytecode(data_union_sidechain_template), data, salt);\n        emit SidechainDUCreated(du_mainnet, du, owner, data_union_sidechain_template);\n        return du;\n    }\n}\n",
  "sourcePath": "/home/heynow/streamr/data-union-solidity/contracts/DataUnionFactorySidechain.sol",
  "compiler": {
    "name": "solc",
    "version": "0.6.6+commit.6c089d02.Emscripten.clang"
  },
  "schemaVersion": "3.2.0",
  "updatedAt": "2020-08-19T08:05:24.720Z",
  "devdoc": {
    "methods": {}
  },
  "userdoc": {
    "methods": {}
  }
}