{
  "contractName": "DataUnionMainnet",
  "abi": [
    {
      "inputs": [
        {
          "internalType": "address",
          "name": "_token_mediator",
          "type": "address"
        },
        {
          "internalType": "address",
          "name": "_sidechain_DU_factory",
          "type": "address"
        },
        {
          "internalType": "uint256",
          "name": "_sidechain_maxgas",
          "type": "uint256"
        },
        {
          "internalType": "address",
          "name": "_sidechain_template_DU",
          "type": "address"
        },
        {
          "internalType": "uint256",
          "name": "adminFeeFraction",
          "type": "uint256"
        },
        {
          "internalType": "address[]",
          "name": "agents",
          "type": "address[]"
        }
      ],
      "stateMutability": "nonpayable",
      "type": "constructor"
    },
    {
      "anonymous": false,
      "inputs": [
        {
          "indexed": true,
          "internalType": "address",
          "name": "previousOwner",
          "type": "address"
        },
        {
          "indexed": true,
          "internalType": "address",
          "name": "newOwner",
          "type": "address"
        }
      ],
      "name": "OwnershipTransferred",
      "type": "event"
    },
    {
      "inputs": [],
      "name": "amb",
      "outputs": [
        {
          "internalType": "contract IAMB",
          "name": "",
          "type": "address"
        }
      ],
      "stateMutability": "view",
      "type": "function"
    },
    {
      "inputs": [],
      "name": "claimOwnership",
      "outputs": [],
      "stateMutability": "nonpayable",
      "type": "function"
    },
    {
      "inputs": [],
      "name": "owner",
      "outputs": [
        {
          "internalType": "address",
          "name": "",
          "type": "address"
        }
      ],
      "stateMutability": "view",
      "type": "function"
    },
    {
      "inputs": [],
      "name": "pendingOwner",
      "outputs": [
        {
          "internalType": "address",
          "name": "",
          "type": "address"
        }
      ],
      "stateMutability": "view",
      "type": "function"
    },
    {
      "inputs": [],
      "name": "sidechain_DU_factory",
      "outputs": [
        {
          "internalType": "address",
          "name": "",
          "type": "address"
        }
      ],
      "stateMutability": "view",
      "type": "function"
    },
    {
      "inputs": [],
      "name": "sidechain_maxgas",
      "outputs": [
        {
          "internalType": "uint256",
          "name": "",
          "type": "uint256"
        }
      ],
      "stateMutability": "view",
      "type": "function"
    },
    {
      "inputs": [],
      "name": "sidechain_template_DU",
      "outputs": [
        {
          "internalType": "address",
          "name": "",
          "type": "address"
        }
      ],
      "stateMutability": "view",
      "type": "function"
    },
    {
      "inputs": [],
      "name": "token",
      "outputs": [
        {
          "internalType": "contract ERC20",
          "name": "",
          "type": "address"
        }
      ],
      "stateMutability": "view",
      "type": "function"
    },
    {
      "inputs": [],
      "name": "token_mediator",
      "outputs": [
        {
          "internalType": "contract ITokenMediator",
          "name": "",
          "type": "address"
        }
      ],
      "stateMutability": "view",
      "type": "function"
    },
    {
      "inputs": [],
      "name": "token_sent_to_bridge",
      "outputs": [
        {
          "internalType": "uint256",
          "name": "",
          "type": "uint256"
        }
      ],
      "stateMutability": "view",
      "type": "function"
    },
    {
      "inputs": [
        {
          "internalType": "address",
          "name": "newOwner",
          "type": "address"
        }
      ],
      "name": "transferOwnership",
      "outputs": [],
      "stateMutability": "nonpayable",
      "type": "function"
    },
    {
      "inputs": [
        {
          "internalType": "uint256",
          "name": "adminFeeFraction",
          "type": "uint256"
        },
        {
          "internalType": "address[]",
          "name": "agents",
          "type": "address[]"
        }
      ],
      "name": "deployNewDUSidechain",
      "outputs": [],
      "stateMutability": "nonpayable",
      "type": "function"
    },
    {
      "inputs": [],
      "name": "sidechainAddress",
      "outputs": [
        {
          "internalType": "address",
          "name": "proxy",
          "type": "address"
        }
      ],
      "stateMutability": "view",
      "type": "function"
    },
    {
      "inputs": [
        {
          "internalType": "bytes32",
          "name": "productId",
          "type": "bytes32"
        },
        {
          "internalType": "address",
          "name": "subscriber",
          "type": "address"
        },
        {
          "internalType": "uint256",
          "name": "endTimestamp",
          "type": "uint256"
        },
        {
          "internalType": "uint256",
          "name": "priceDatacoin",
          "type": "uint256"
        },
        {
          "internalType": "uint256",
          "name": "feeDatacoin",
          "type": "uint256"
        }
      ],
      "name": "onPurchase",
      "outputs": [
        {
          "internalType": "bool",
          "name": "accepted",
          "type": "bool"
        }
      ],
      "stateMutability": "nonpayable",
      "type": "function"
    },
    {
      "inputs": [],
      "name": "sendTokensToBridge",
      "outputs": [
        {
          "internalType": "uint256",
          "name": "",
          "type": "uint256"
        }
      ],
      "stateMutability": "nonpayable",
      "type": "function"
    }
  ],
  "bytecode": "0x60806040523480156200001157600080fd5b506040516200105838038062001058833981810160405260c08110156200003757600080fd5b815160208301516040808501516060860151608087015160a0880180519451969895979396929591949293820192846401000000008211156200007957600080fd5b9083019060208201858111156200008f57600080fd5b8251866020820283011164010000000082111715620000ad57600080fd5b82525081516020918201928201910280838360005b83811015620000dc578181015183820152602001620000c2565b50505050919091016040818152600080546001600160a01b03199081163317909155600380546001600160a01b038f811691909316179081905563cd59658360e01b845291519116955063cd596583945060048083019450602093509091829003018186803b1580156200014f57600080fd5b505afa15801562000164573d6000803e3d6000fd5b505050506040513d60208110156200017b57600080fd5b5051600280546001600160a01b0319166001600160a01b03928316179055600354604080516318d8f9c960e01b8152905191909216916318d8f9c9916004808301926020929190829003018186803b158015620001d757600080fd5b505afa158015620001ec573d6000803e3d6000fd5b505050506040513d60208110156200020357600080fd5b5051600780546001600160a01b03199081166001600160a01b03938416179091556004805482168884161790556005869055600880549091169185169190911790556200025182826200025d565b50505050505062000410565b60606000809054906101000a90046001600160a01b0316838360405160240180846001600160a01b03166001600160a01b0316815260200183815260200180602001828103825283818151815260200191508051906020019060200280838360005b83811015620002d9578181015183820152602001620002bf565b50506040805193909501838103601f190184528552505060208101805163b33ff60b60e01b6001600160e01b0390911617815260025460048054600554965163dc8601b360e01b81526001600160a01b0391821692810183815260448201899052606060248301908152875160648401528751979f50929094169c5063dc8601b39b509199508c9850959650909493506084019180838360005b838110156200038d57818101518382015260200162000373565b50505050905090810190601f168015620003bb5780820380516001836020036101000a031916815260200191505b50945050505050602060405180830381600087803b158015620003dd57600080fd5b505af1158015620003f2573d6000803e3d6000fd5b505050506040513d60208110156200040957600080fd5b5050505050565b610c3880620004206000396000f3fe608060405234801561001057600080fd5b50600436106100f55760003560e01c80638da5cb5b11610097578063e22ec11211610066578063e22ec1121461026e578063e30c397814610276578063f2fde38b1461027e578063fc0c546a146102a4576100f5565b80638da5cb5b1461024e578063a65c87d914610256578063c5a8c91f1461025e578063deec742b14610266576100f5565b80634a439cc0116100d35780634a439cc0146101405780634e71e0c8146101925780635f6dcb8c1461019c578063692199d414610246576100f5565b80631062b39a146100fa5780632efc10071461011e57806337b43a9414610138575b600080fd5b6101026102ac565b604080516001600160a01b039092168252519081900360200190f35b6101266102bb565b60408051918252519081900360200190f35b610102610773565b61017e600480360360a081101561015657600080fd5b508035906001600160a01b036020820135169060408101359060608101359060800135610798565b604080519115158252519081900360200190f35b61019a6107af565b005b61019a600480360360408110156101b257600080fd5b813591908101906040810160208201356401000000008111156101d457600080fd5b8201836020820111156101e657600080fd5b8035906020019184602083028401116401000000008311171561020857600080fd5b919080806020026020016040519081016040528093929190818152602001838360200280828437600092019190915250929550610865945050505050565b610126610a10565b610102610a16565b610102610a25565b610102610a34565b610126610a43565b610102610a49565b610102610a58565b61019a6004803603602081101561029457600080fd5b50356001600160a01b0316610a67565b610102610ad4565b6002546001600160a01b031681565b600754604080516370a0823160e01b8152306004820152905160009283926001600160a01b03909116916370a0823191602480820192602092909190829003018186803b15801561030b57600080fd5b505afa15801561031f573d6000803e3d6000fd5b505050506040513d602081101561033557600080fd5b5051905080610348576000915050610770565b6007546003546040805163095ea7b360e01b81526001600160a01b0392831660048201526000602482018190529151929093169263095ea7b39260448083019360209383900390910190829087803b1580156103a357600080fd5b505af11580156103b7573d6000803e3d6000fd5b505050506040513d60208110156103cd57600080fd5b5051610411576040805162461bcd60e51b815260206004820152600e60248201526d185c1c1c9bdd9957d9985a5b195960921b604482015290519081900360640190fd5b6007546003546040805163095ea7b360e01b81526001600160a01b039283166004820152602481018590529051919092169163095ea7b39160448083019260209291908290030181600087803b15801561046a57600080fd5b505af115801561047e573d6000803e3d6000fd5b505050506040513d602081101561049457600080fd5b50516104d8576040805162461bcd60e51b815260206004820152600e60248201526d185c1c1c9bdd9957d9985a5b195960921b604482015290519081900360640190fd5b6003546001600160a01b031663ad58bdd1306104f2610773565b846040518463ffffffff1660e01b815260040180846001600160a01b03166001600160a01b03168152602001836001600160a01b03166001600160a01b031681526020018281526020019350505050600060405180830381600087803b15801561055b57600080fd5b505af115801561056f573d6000803e3d6000fd5b5050600754604080516370a0823160e01b815230600482015290516001600160a01b0390921693506370a082319250602480820192602092909190829003018186803b1580156105be57600080fd5b505afa1580156105d2573d6000803e3d6000fd5b505050506040513d60208110156105e857600080fd5b50511561062e576040805162461bcd60e51b815260206004820152600f60248201526e1d1c985b9cd9995c97d9985a5b1959608a1b604482015290519081900360640190fd5b600654610641908263ffffffff610ae316565b6006556040805160048152602481019091526020810180516001600160e01b03166371d1ae7560e01b1790526002546001600160a01b031663dc8601b3610686610773565b6005546040516001600160e01b031960e085901b1681526001600160a01b038316600482019081526044820183905260606024830190815287516064840152875188949360840190602086019080838360005b838110156106f15781810151838201526020016106d9565b50505050905090810190601f16801561071e5780820380516001836020036101000a031916815260200191505b50945050505050602060405180830381600087803b15801561073f57600080fd5b505af1158015610753573d6000803e3d6000fd5b505050506040513d602081101561076957600080fd5b5091925050505b90565b600854600454600091610793916001600160a01b03918216911630610b44565b905090565b60006107a26102bb565b5060019695505050505050565b6001546001600160a01b03163314610801576040805162461bcd60e51b815260206004820152601060248201526f37b7363ca832b73234b733a7bbb732b960811b604482015290519081900360640190fd5b600154600080546040516001600160a01b0393841693909116917f8be0079c531659141344cd1fd0a4f28419497f9722a3daafe3b4186f6b6457e091a360018054600080546001600160a01b03199081166001600160a01b03841617909155169055565b60606000809054906101000a90046001600160a01b0316838360405160240180846001600160a01b03166001600160a01b0316815260200183815260200180602001828103825283818151815260200191508051906020019060200280838360005b838110156108df5781810151838201526020016108c7565b50506040805193909501838103601f190184528552505060208101805163b33ff60b60e01b6001600160e01b0390911617815260025460048054600554965163dc8601b360e01b81526001600160a01b0391821692810183815260448201899052606060248301908152875160648401528751979f50929094169c5063dc8601b39b509199508c9850959650909493506084019180838360005b83811015610991578181015183820152602001610979565b50505050905090810190601f1680156109be5780820380516001836020036101000a031916815260200191505b50945050505050602060405180830381600087803b1580156109df57600080fd5b505af11580156109f3573d6000803e3d6000fd5b505050506040513d6020811015610a0957600080fd5b5050505050565b60055481565b6000546001600160a01b031681565b6008546001600160a01b031681565b6003546001600160a01b031681565b60065481565b6004546001600160a01b031681565b6001546001600160a01b031681565b6000546001600160a01b03163314610ab2576040805162461bcd60e51b815260206004820152600960248201526837b7363ca7bbb732b960b91b604482015290519081900360640190fd5b600180546001600160a01b0319166001600160a01b0392909216919091179055565b6007546001600160a01b031681565b600082820183811015610b3d576040805162461bcd60e51b815260206004820152601b60248201527f536166654d6174683a206164646974696f6e206f766572666c6f770000000000604482015290519081900360640190fd5b9392505050565b600080610b5085610bb0565b8051602091820120604080516001600160f81b0319818501526bffffffffffffffffffffffff19606089901b1660218201526035810187905260558082019390935281518082039093018352607501905280519101209150509392505050565b604080516057810190915260378152733d602d80600a3d3981f3363d3d373d3d3d363d7360601b602082015260609190911b60348201526e5af43d82803e903d91602b57fd5bf360881b60488201529056fea26469706673582212207ada4650a6ad3654c738aedc5b9b3d1dee64c2a67866cf0f241ca261d145bc3164736f6c63430006060033",
  "immutableReferences": {},
  "source": "pragma solidity ^0.6.0;\n\nimport \"openzeppelin-solidity/contracts/token/ERC20/ERC20.sol\";\nimport \"openzeppelin-solidity/contracts/math/SafeMath.sol\";\nimport \"./Ownable.sol\";\nimport \"./PurchaseListener.sol\";\nimport \"./CloneLib.sol\";\n\ninterface IAMB {\n    function messageSender() external view returns (address);\n\n    function maxGasPerTx() external view returns (uint256);\n\n    function transactionHash() external view returns (bytes32);\n\n    function messageId() external view returns (bytes32);\n\n    function messageSourceChainId() external view returns (bytes32);\n\n    function messageCallStatus(bytes32 _messageId) external view returns (bool);\n\n    function failedMessageDataHash(bytes32 _messageId)\n        external\n        view\n        returns (bytes32);\n\n    function failedMessageReceiver(bytes32 _messageId)\n        external\n        view\n        returns (address);\n\n    function failedMessageSender(bytes32 _messageId)\n        external\n        view\n        returns (address);\n\n    function requireToPassMessage(\n        address _contract,\n        bytes calldata _data,\n        uint256 _gas\n    ) external returns (bytes32);\n}\n\ninterface ITokenMediator {\n    function erc677token() external view returns (address);\n    function bridgeContract() external view returns (address);\n    function relayTokens(address _from, address _receiver, uint256 _value) external;\n}\n\ncontract DataUnionMainnet is Ownable {\n    using SafeMath for uint256;\n\n    IAMB public amb;\n    ITokenMediator public token_mediator;\n    address public sidechain_DU_factory;\n    uint256 public sidechain_maxgas;\n    uint256 public token_sent_to_bridge;\n    ERC20 public token;\n    // needed to compute sidechain address\n    address public sidechain_template_DU;\n\n    constructor(\n        address _token_mediator,\n        address _sidechain_DU_factory,\n        uint256 _sidechain_maxgas,\n        address _sidechain_template_DU,\n        uint256 adminFeeFraction,\n        address[] memory agents\n    )  public Ownable(msg.sender) {\n        token_mediator = ITokenMediator(_token_mediator);\n        amb = IAMB(token_mediator.bridgeContract());\n        token = ERC20(token_mediator.erc677token());\n        sidechain_DU_factory = _sidechain_DU_factory;\n        sidechain_maxgas = _sidechain_maxgas;\n        sidechain_template_DU = _sidechain_template_DU;\n        deployNewDUSidechain(adminFeeFraction, agents);\n    }\n\n    function deployNewDUSidechain(uint256 adminFeeFraction, address[] memory agents) public {\n        bytes memory data = abi.encodeWithSignature(\"deployNewDUSidechain(address,uint256,address[])\", owner, adminFeeFraction, agents);\n        amb.requireToPassMessage(sidechain_DU_factory, data, sidechain_maxgas);\n    }\n\n    function sidechainAddress()\n        public view\n        returns (address proxy)\n    {\n        return CloneLib.predictCloneAddressCreate2(sidechain_template_DU, sidechain_DU_factory, bytes32(uint256(address(this))));\n    }\n\n/*\n2 way doesnt work atm\n    //calls withdraw(member) on home network\n    function withdraw(address member) public {\n        bytes memory data = abi.encodeWithSignature(\n            \"withdraw(address,bool)\",\n            member,\n            true\n        );\n        amb.requireToPassMessage(sidechainAddress(), data, sidechain_maxgas);\n    }\n    */\n\n    function onPurchase(\n        bytes32 productId,\n        address subscriber,\n        uint256 endTimestamp,\n        uint256 priceDatacoin,\n        uint256 feeDatacoin\n    ) external returns (bool accepted) {\n        sendTokensToBridge();\n        return true;\n    }\n\n    function sendTokensToBridge() public returns (uint256) {\n        uint256 bal = token.balanceOf(address(this));\n        if (bal == 0) return 0;\n        // approve 0 first?\n        require(token.approve(address(token_mediator), 0), \"approve_failed\");\n        require(token.approve(address(token_mediator), bal), \"approve_failed\");\n\n        token_mediator.relayTokens(address(this), sidechainAddress(), bal);\n        require(token.balanceOf(address(this)) == 0, \"transfer_failed\");\n        token_sent_to_bridge = token_sent_to_bridge.add(bal);\n        \n        bytes memory data = abi.encodeWithSignature(\"addRevenue()\");\n        amb.requireToPassMessage(sidechainAddress(), data, sidechain_maxgas);\n\n        return bal;\n    }\n}\n",
  "sourcePath": "/home/heynow/streamr/data-union-solidity/contracts/DataUnionMainnet.sol",
  "compiler": {
    "name": "solc",
    "version": "0.6.6+commit.6c089d02.Emscripten.clang"
  },
  "schemaVersion": "3.2.0",
  "updatedAt": "2020-07-03T17:00:42.735Z",
  "devdoc": {
    "methods": {
      "claimOwnership()": {
        "details": "Allows the pendingOwner address to finalize the transfer."
      },
      "transferOwnership(address)": {
        "details": "Allows the current owner to set the pendingOwner address.",
        "params": {
          "newOwner": "The address to transfer ownership to."
        }
      }
    }
  },
  "userdoc": {
    "methods": {}
  }
}