{
  "contractName": "DataUnionFactory",
  "abi": [
    {
      "inputs": [
        {
          "internalType": "address",
          "name": "_amb",
          "type": "address"
        },
        {
          "internalType": "address",
          "name": "_data_union_sidechain_template",
          "type": "address"
        },
        {
          "internalType": "address",
          "name": "_token_mediator",
          "type": "address"
        }
      ],
      "stateMutability": "nonpayable",
      "type": "constructor"
    },
    {
      "anonymous": false,
      "inputs": [
        {
          "indexed": true,
          "internalType": "address",
          "name": "",
          "type": "address"
        }
      ],
      "name": "DUCreated",
      "type": "event"
    },
    {
      "inputs": [],
      "name": "amb",
      "outputs": [
        {
          "internalType": "contract IAMB",
          "name": "",
          "type": "address"
        }
      ],
      "stateMutability": "view",
      "type": "function"
    },
    {
      "inputs": [],
      "name": "data_union_sidechain_template",
      "outputs": [
        {
          "internalType": "address",
          "name": "",
          "type": "address"
        }
      ],
      "stateMutability": "view",
      "type": "function"
    },
    {
      "inputs": [
        {
          "internalType": "address",
          "name": "",
          "type": "address"
        }
      ],
      "name": "mainchain2sidechain",
      "outputs": [
        {
          "internalType": "address",
          "name": "",
          "type": "address"
        }
      ],
      "stateMutability": "view",
      "type": "function"
    },
    {
      "inputs": [],
      "name": "token_mediator",
      "outputs": [
        {
          "internalType": "contract ITokenMediator",
          "name": "",
          "type": "address"
        }
      ],
      "stateMutability": "view",
      "type": "function"
    },
    {
      "inputs": [
        {
          "internalType": "address",
          "name": "_logic",
          "type": "address"
        },
        {
          "internalType": "bytes",
          "name": "_data",
          "type": "bytes"
        }
      ],
      "name": "deployMinimal",
      "outputs": [
        {
          "internalType": "address",
          "name": "proxy",
          "type": "address"
        }
      ],
      "stateMutability": "nonpayable",
      "type": "function"
    },
    {
      "inputs": [
        {
          "internalType": "bytes",
          "name": "data",
          "type": "bytes"
        }
      ],
      "name": "relayMessageToSidechainDU",
      "outputs": [
        {
          "internalType": "bool",
          "name": "",
          "type": "bool"
        },
        {
          "internalType": "bytes",
          "name": "",
          "type": "bytes"
        }
      ],
      "stateMutability": "nonpayable",
      "type": "function"
    },
    {
      "inputs": [
        {
          "internalType": "uint256",
          "name": "adminFeeFraction",
          "type": "uint256"
        },
        {
          "internalType": "address[]",
          "name": "agents",
          "type": "address[]"
        }
      ],
      "name": "deployNewDUSidechain",
      "outputs": [
        {
          "internalType": "address",
          "name": "",
          "type": "address"
        }
      ],
      "stateMutability": "nonpayable",
      "type": "function"
    }
  ],
  "bytecode": "0x608060405234801561001057600080fd5b506040516109b73803806109b78339818101604052606081101561003357600080fd5b5080516020820151604090920151600080546001600160a01b03199081166001600160a01b0395861617825560018054821694861694909417909355600280549093169390911692909217905561092790819061009090396000f3fe608060405234801561001057600080fd5b506004361061007d5760003560e01c80635f6dcb8c1161005b5780635f6dcb8c146101f5578063b3eeb5e21461029f578063c5a8c91f14610355578063e4a154a41461035d5761007d565b80630ea347fa146100825780631062b39a146100c457806314f3cb16146100cc575b600080fd5b6100a86004803603602081101561009857600080fd5b50356001600160a01b0316610365565b604080516001600160a01b039092168252519081900360200190f35b6100a8610380565b610172600480360360208110156100e257600080fd5b8101906020810181356401000000008111156100fd57600080fd5b82018360208201111561010f57600080fd5b8035906020019184600183028401116401000000008311171561013157600080fd5b91908080601f01602080910402602001604051908101604052809392919081815260200183838082843760009201919091525092955061038f945050505050565b604051808315151515815260200180602001828103825283818151815260200191508051906020019080838360005b838110156101b95781810151838201526020016101a1565b50505050905090810190601f1680156101e65780820380516001836020036101000a031916815260200191505b50935050505060405180910390f35b6100a86004803603604081101561020b57600080fd5b8135919081019060408101602082013564010000000081111561022d57600080fd5b82018360208201111561023f57600080fd5b8035906020019184602083028401116401000000008311171561026157600080fd5b91908080602002602001604051908101604052809392919081815260200183836020028082843760009201919091525092955061055c945050505050565b6100a8600480360360408110156102b557600080fd5b6001600160a01b0382351691908101906040810160208201356401000000008111156102e057600080fd5b8201836020820111156102f257600080fd5b8035906020019184600183028401116401000000008311171561031457600080fd5b91908080601f0160208091040260200160405190810160405280939291908181526020018383808284376000920191909152509295506107c2945050505050565b6100a86108d3565b6100a86108e2565b6003602052600090815260409020546001600160a01b031681565b6001546001600160a01b031681565b6001546000906060906001600160a01b031633146103df576040805162461bcd60e51b815260206004820152600860248201526737b7363cafb0b6b160c11b604482015290519081900360640190fd5b6001546040805163d67bdd2560e01b815290516000926001600160a01b03169163d67bdd25916004808301926020929190829003018186803b15801561042457600080fd5b505afa158015610438573d6000803e3d6000fd5b505050506040513d602081101561044e57600080fd5b50516001600160a01b0380821660009081526003602052604090205491925016806104af576040805162461bcd60e51b815260206004820152600c60248201526b191d57db9bdd17d99bdd5b9960a21b604482015290519081900360640190fd5b806001600160a01b0316856040518082805190602001908083835b602083106104e95780518252601f1990920191602091820191016104ca565b6001836020036101000a0380198251168184511680821785525050505050509050019150506000604051808303816000865af19150503d806000811461054b576040519150601f19603f3d011682016040523d82523d6000602084013e610550565b606091505b50935093505050915091565b6001546000906001600160a01b031633146105a9576040805162461bcd60e51b815260206004820152600860248201526737b7363cafb0b6b160c11b604482015290519081900360640190fd5b6001546040805163d67bdd2560e01b815290516000926001600160a01b03169163d67bdd25916004808301926020929190829003018186803b1580156105ee57600080fd5b505afa158015610602573d6000803e3d6000fd5b505050506040513d602081101561061857600080fd5b5051600254604080516318d8f9c960e01b815290519293506060926001600160a01b03909216916318d8f9c991600480820192602092909190829003018186803b15801561066557600080fd5b505afa158015610679573d6000803e3d6000fd5b505050506040513d602081101561068f57600080fd5b50516002546040516001600160a01b0380841660248301908152604483018a90529281166084830181905290861660a483015260a060648301908152885160c484015288518a948a948993919260e4909101906020878101910280838360005b838110156107075781810151838201526020016106ef565b50506040805193909501838103601f1901845290945250602081018051631646fc3560e11b6001600160e01b0390911617905260008054919b50995061076198506001600160a01b031696508995506107c2945050505050565b6001600160a01b0384811660009081526003602052604080822080546001600160a01b03191693851693841790555192935090917fae96bdc1fafca9fc5058f039e3784b63aecab67349257d56e3e87564503581d79190a295945050505050565b6000808360601b9050604051733d602d80600a3d3981f3363d3d373d3d3d363d7360601b81528160148201526e5af43d82803e903d91602b57fd5bf360881b60288201526037816000f09250506000835111156108cc576000826001600160a01b0316846040518082805190602001908083835b602083106108555780518252601f199092019160209182019101610836565b6001836020036101000a0380198251168184511680821785525050505050509050019150506000604051808303816000865af19150503d80600081146108b7576040519150601f19603f3d011682016040523d82523d6000602084013e6108bc565b606091505b50509050806108ca57600080fd5b505b5092915050565b6002546001600160a01b031681565b6000546001600160a01b03168156fea2646970667358221220e6f1c0f859e349556eff22fbdd4151a9ff5c32cf7d3cdf86d27546a49a5cd6af64736f6c63430006060033",
  "immutableReferences": {},
  "source": "pragma solidity ^0.6.0;\n\nimport \"openzeppelin-solidity/contracts/token/ERC20/IERC20.sol\";\nimport \"openzeppelin-solidity/contracts/math/SafeMath.sol\";\nimport \"./Ownable.sol\";\n\ninterface IAMB {\n    function messageSender() external view returns (address);\n\n    function maxGasPerTx() external view returns (uint256);\n\n    function transactionHash() external view returns (bytes32);\n\n    function messageId() external view returns (bytes32);\n\n    function messageSourceChainId() external view returns (bytes32);\n\n    function messageCallStatus(bytes32 _messageId) external view returns (bool);\n\n    function failedMessageDataHash(bytes32 _messageId)\n        external\n        view\n        returns (bytes32);\n\n    function failedMessageReceiver(bytes32 _messageId)\n        external\n        view\n        returns (address);\n\n    function failedMessageSender(bytes32 _messageId)\n        external\n        view\n        returns (address);\n\n    function requireToPassMessage(\n        address _contract,\n        bytes calldata _data,\n        uint256 _gas\n    ) external returns (bytes32);\n}\n\ninterface ITokenMediator {\n    function erc677token() external view returns (address);\n}\n\ncontract DataUnionFactory {\n    event DUCreated(address indexed);\n    address public data_union_sidechain_template;\n    IAMB public amb;\n    ITokenMediator public token_mediator;\n    mapping(address => address) public mainchain2sidechain;\n\n    constructor(address _amb, address _data_union_sidechain_template, address _token_mediator) public {\n        data_union_sidechain_template = _data_union_sidechain_template;\n        amb = IAMB(_amb);\n        token_mediator = ITokenMediator(_token_mediator);\n    }\n\n    //https://raw.githubusercontent.com/OpenZeppelin/openzeppelin-sdk/master/packages/lib/contracts/upgradeability/ProxyFactory.sol\n    function deployMinimal(address _logic, bytes memory _data)\n        public\n        returns (address proxy)\n    {\n        // Adapted from https://github.com/optionality/clone-factory/blob/32782f82dfc5a00d103a7e61a17a5dedbd1e8e9d/contracts/CloneFactory.sol\n        bytes20 targetBytes = bytes20(_logic);\n        assembly {\n            let clone := mload(0x40)\n            mstore(\n                clone,\n                0x3d602d80600a3d3981f3363d3d373d3d3d363d73000000000000000000000000\n            )\n            mstore(add(clone, 0x14), targetBytes)\n            mstore(\n                add(clone, 0x28),\n                0x5af43d82803e903d91602b57fd5bf30000000000000000000000000000000000\n            )\n            proxy := create(0, clone, 0x37)\n        }\n        if (_data.length > 0) {\n            (bool success, ) = proxy.call(_data);\n            require(success);\n        }\n    }\n\n    function relayMessageToSidechainDU(bytes memory data)\n        public\n        returns (bool, bytes memory)\n    {\n        require(msg.sender == address(amb), \"only_amb\");\n        address sender = amb.messageSender();\n        address recipient = mainchain2sidechain[sender];\n        require(recipient != address(0), \"du_not_found\");\n        return recipient.call(data);\n    }\n/*\nfunction initialize(\n        address token_address,\n        uint256 adminFeeFraction_,\n        address[] memory agents,\n        address _token_mediator,\n        address _mainchain_DU\n    )\n*/\n    function deployNewDUSidechain(uint256 adminFeeFraction, address[] memory agents) public returns (address) {\n        require(msg.sender == address(amb), \"only_amb\");\n        address du_mainnet = amb.messageSender();\n        bytes memory data = abi.encodeWithSignature(\"initialize(address,uint256,address[],address,address)\",\n            token_mediator.erc677token(),\n            adminFeeFraction,\n            agents,\n            address(token_mediator),\n            du_mainnet\n        );\n        address du = deployMinimal(data_union_sidechain_template, data);\n        mainchain2sidechain[du_mainnet] = du;\n        emit DUCreated(du);\n        return du;\n    }\n}\n",
  "sourcePath": "/home/heynow/streamr/data-union-solidity/contracts/DataUnionFactorySidechain.sol",
  "compiler": {
    "name": "solc",
    "version": "0.6.6+commit.6c089d02.Emscripten.clang"
  },
  "schemaVersion": "3.2.0",
  "updatedAt": "2020-07-02T01:15:01.350Z",
  "devdoc": {
    "methods": {}
  },
  "userdoc": {
    "methods": {}
  }
}