{
  "contractName": "DataUnionMainnet",
  "abi": [
    {
      "inputs": [],
      "stateMutability": "nonpayable",
      "type": "constructor"
    },
    {
      "anonymous": false,
      "inputs": [
        {
          "indexed": false,
          "internalType": "uint256",
          "name": "adminFee",
          "type": "uint256"
        }
      ],
      "name": "AdminFeeChanged",
      "type": "event"
    },
    {
      "anonymous": false,
      "inputs": [
        {
          "indexed": false,
          "internalType": "uint256",
          "name": "amount",
          "type": "uint256"
        }
      ],
      "name": "AdminFeeCharged",
      "type": "event"
    },
    {
      "anonymous": false,
      "inputs": [
        {
          "indexed": true,
          "internalType": "address",
          "name": "admin",
          "type": "address"
        },
        {
          "indexed": false,
          "internalType": "uint256",
          "name": "amount",
          "type": "uint256"
        }
      ],
      "name": "AdminFeesWithdrawn",
      "type": "event"
    },
    {
      "anonymous": false,
      "inputs": [
        {
          "indexed": true,
          "internalType": "address",
          "name": "newMediator",
          "type": "address"
        },
        {
          "indexed": true,
          "internalType": "address",
          "name": "oldMediator",
          "type": "address"
        }
      ],
      "name": "MigrateMediator",
      "type": "event"
    },
    {
      "anonymous": false,
      "inputs": [
        {
          "indexed": true,
          "internalType": "address",
          "name": "newToken",
          "type": "address"
        },
        {
          "indexed": true,
          "internalType": "address",
          "name": "oldToken",
          "type": "address"
        }
      ],
      "name": "MigrateToken",
      "type": "event"
    },
    {
      "anonymous": false,
      "inputs": [
        {
          "indexed": true,
          "internalType": "address",
          "name": "previousOwner",
          "type": "address"
        },
        {
          "indexed": true,
          "internalType": "address",
          "name": "newOwner",
          "type": "address"
        }
      ],
      "name": "OwnershipTransferred",
      "type": "event"
    },
    {
      "anonymous": false,
      "inputs": [
        {
          "indexed": false,
          "internalType": "uint256",
          "name": "amount",
          "type": "uint256"
        }
      ],
      "name": "RevenueReceived",
      "type": "event"
    },
    {
      "inputs": [],
      "name": "adminFeeFraction",
      "outputs": [
        {
          "internalType": "uint256",
          "name": "",
          "type": "uint256"
        }
      ],
      "stateMutability": "view",
      "type": "function"
    },
    {
      "inputs": [],
      "name": "autoSendAdminFee",
      "outputs": [
        {
          "internalType": "bool",
          "name": "",
          "type": "bool"
        }
      ],
      "stateMutability": "view",
      "type": "function"
    },
    {
      "inputs": [],
      "name": "claimOwnership",
      "outputs": [],
      "stateMutability": "nonpayable",
      "type": "function"
    },
    {
      "inputs": [],
      "name": "migrationManager",
      "outputs": [
        {
          "internalType": "contract FactoryConfig",
          "name": "",
          "type": "address"
        }
      ],
      "stateMutability": "view",
      "type": "function"
    },
    {
      "inputs": [],
      "name": "owner",
      "outputs": [
        {
          "internalType": "address",
          "name": "",
          "type": "address"
        }
      ],
      "stateMutability": "view",
      "type": "function"
    },
    {
      "inputs": [],
      "name": "pendingOwner",
      "outputs": [
        {
          "internalType": "address",
          "name": "",
          "type": "address"
        }
      ],
      "stateMutability": "view",
      "type": "function"
    },
    {
      "inputs": [],
      "name": "sidechainDUFactory",
      "outputs": [
        {
          "internalType": "address",
          "name": "",
          "type": "address"
        }
      ],
      "stateMutability": "view",
      "type": "function"
    },
    {
      "inputs": [],
      "name": "sidechainDUTemplate",
      "outputs": [
        {
          "internalType": "address",
          "name": "",
          "type": "address"
        }
      ],
      "stateMutability": "view",
      "type": "function"
    },
    {
      "inputs": [],
      "name": "sidechainMaxGas",
      "outputs": [
        {
          "internalType": "uint256",
          "name": "",
          "type": "uint256"
        }
      ],
      "stateMutability": "view",
      "type": "function"
    },
    {
      "inputs": [],
      "name": "token",
      "outputs": [
        {
          "internalType": "contract ERC20",
          "name": "",
          "type": "address"
        }
      ],
      "stateMutability": "view",
      "type": "function"
    },
    {
      "inputs": [],
      "name": "tokenMediator",
      "outputs": [
        {
          "internalType": "contract ITokenMediator",
          "name": "",
          "type": "address"
        }
      ],
      "stateMutability": "view",
      "type": "function"
    },
    {
      "inputs": [],
      "name": "tokensSentToBridge",
      "outputs": [
        {
          "internalType": "uint256",
          "name": "",
          "type": "uint256"
        }
      ],
      "stateMutability": "view",
      "type": "function"
    },
    {
      "inputs": [],
      "name": "totalAdminFees",
      "outputs": [
        {
          "internalType": "uint256",
          "name": "",
          "type": "uint256"
        }
      ],
      "stateMutability": "view",
      "type": "function"
    },
    {
      "inputs": [],
      "name": "totalAdminFeesWithdrawn",
      "outputs": [
        {
          "internalType": "uint256",
          "name": "",
          "type": "uint256"
        }
      ],
      "stateMutability": "view",
      "type": "function"
    },
    {
      "inputs": [
        {
          "internalType": "address",
          "name": "newOwner",
          "type": "address"
        }
      ],
      "name": "transferOwnership",
      "outputs": [],
      "stateMutability": "nonpayable",
      "type": "function"
    },
    {
      "inputs": [],
      "name": "version",
      "outputs": [
        {
          "internalType": "uint256",
          "name": "",
          "type": "uint256"
        }
      ],
      "stateMutability": "pure",
      "type": "function"
    },
    {
      "inputs": [
        {
          "internalType": "address",
          "name": "_migrationManager",
          "type": "address"
        },
        {
          "internalType": "address",
          "name": "_sidechainDUFactory",
          "type": "address"
        },
        {
          "internalType": "uint256",
          "name": "_sidechainMaxGas",
          "type": "uint256"
        },
        {
          "internalType": "address",
          "name": "_sidechainDUTemplate",
          "type": "address"
        },
        {
          "internalType": "address",
          "name": "_owner",
          "type": "address"
        },
        {
          "internalType": "uint256",
          "name": "_adminFeeFraction",
          "type": "uint256"
        },
        {
          "internalType": "address[]",
          "name": "agents",
          "type": "address[]"
        }
      ],
      "name": "initialize",
      "outputs": [],
      "stateMutability": "nonpayable",
      "type": "function"
    },
    {
      "inputs": [],
      "name": "isInitialized",
      "outputs": [
        {
          "internalType": "bool",
          "name": "",
          "type": "bool"
        }
      ],
      "stateMutability": "view",
      "type": "function"
    },
    {
      "inputs": [],
      "name": "amb",
      "outputs": [
        {
          "internalType": "contract IAMB",
          "name": "",
          "type": "address"
        }
      ],
      "stateMutability": "view",
      "type": "function"
    },
    {
      "inputs": [
        {
          "internalType": "uint256",
          "name": "newAdminFee",
          "type": "uint256"
        }
      ],
      "name": "setAdminFee",
      "outputs": [],
      "stateMutability": "nonpayable",
      "type": "function"
    },
    {
      "inputs": [
        {
          "internalType": "bool",
          "name": "autoSend",
          "type": "bool"
        }
      ],
      "name": "setAutoSendAdminFee",
      "outputs": [],
      "stateMutability": "nonpayable",
      "type": "function"
    },
    {
      "inputs": [
        {
          "internalType": "address[]",
          "name": "agents",
          "type": "address[]"
        }
      ],
      "name": "deployNewDUSidechain",
      "outputs": [],
      "stateMutability": "nonpayable",
      "type": "function"
    },
    {
      "inputs": [],
      "name": "sidechainAddress",
      "outputs": [
        {
          "internalType": "address",
          "name": "",
          "type": "address"
        }
      ],
      "stateMutability": "view",
      "type": "function"
    },
    {
      "inputs": [
        {
          "internalType": "address",
          "name": "",
          "type": "address"
        },
        {
          "internalType": "uint256",
          "name": "",
          "type": "uint256"
        },
        {
          "internalType": "bytes",
          "name": "",
          "type": "bytes"
        }
      ],
      "name": "onTokenTransfer",
      "outputs": [
        {
          "internalType": "bool",
          "name": "success",
          "type": "bool"
        }
      ],
      "stateMutability": "nonpayable",
      "type": "function"
    },
    {
      "inputs": [
        {
          "internalType": "bytes32",
          "name": "",
          "type": "bytes32"
        },
        {
          "internalType": "address",
          "name": "",
          "type": "address"
        },
        {
          "internalType": "uint256",
          "name": "",
          "type": "uint256"
        },
        {
          "internalType": "uint256",
          "name": "",
          "type": "uint256"
        },
        {
          "internalType": "uint256",
          "name": "",
          "type": "uint256"
        }
      ],
      "name": "onPurchase",
      "outputs": [
        {
          "internalType": "bool",
          "name": "",
          "type": "bool"
        }
      ],
      "stateMutability": "nonpayable",
      "type": "function"
    },
    {
      "inputs": [],
      "name": "adminFeesWithdrawable",
      "outputs": [
        {
          "internalType": "uint256",
          "name": "",
          "type": "uint256"
        }
      ],
      "stateMutability": "view",
      "type": "function"
    },
    {
      "inputs": [],
      "name": "unaccountedTokens",
      "outputs": [
        {
          "internalType": "uint256",
          "name": "",
          "type": "uint256"
        }
      ],
      "stateMutability": "view",
      "type": "function"
    },
    {
      "inputs": [],
      "name": "sendTokensToBridge",
      "outputs": [
        {
          "internalType": "uint256",
          "name": "",
          "type": "uint256"
        }
      ],
      "stateMutability": "nonpayable",
      "type": "function"
    },
    {
      "inputs": [],
      "name": "withdrawAdminFees",
      "outputs": [
        {
          "internalType": "uint256",
          "name": "",
          "type": "uint256"
        }
      ],
      "stateMutability": "nonpayable",
      "type": "function"
    },
    {
      "inputs": [],
      "name": "migrate",
      "outputs": [],
      "stateMutability": "nonpayable",
      "type": "function"
    }
  ],
  "bytecode": "0x608060405234801561001057600080fd5b50600080546001600160a01b0319169055611949806100306000396000f3fe608060405234801561001057600080fd5b50600436106101da5760003560e01c80638beb60b611610104578063cb12b92d116100a2578063e30c397811610071578063e30c39781461046d578063f2fde38b14610475578063f658af451461049b578063fc0c546a14610574576101da565b8063cb12b92d1461044d578063cc77244014610455578063d35cec401461045d578063d9c8c63b14610465576101da565b806399dd1c81116100de57806399dd1c81146103155780639eeba07c146103b8578063a4c0ed36146103c0578063a913f41d14610445576101da565b80638beb60b6146102e85780638da5cb5b146103055780638fd3ab801461030d576101da565b80632efc10071161017c5780634e71e0c81161014b5780634e71e0c8146102c857806354fd4d50146102d057806361feacff146102d857806375ddc11d146102e0576101da565b80632efc10071461025e57806337b43a9414610266578063392e53cd1461026e5780634a439cc01461028a576101da565b80631062b39a116101b85780631062b39a14610222578063132b41941461024657806313fd3c561461024e578063187ac4cb14610256576101da565b80630419b45a146101df5780630b23e95a146101f95780630f3afcbe14610201575b600080fd5b6101e761057c565b60408051918252519081900360200190f35b6101e76106c2565b6102206004803603602081101561021757600080fd5b503515156106c8565b005b61022a610726565b604080516001600160a01b039092168252519081900360200190f35b6101e761079c565b6101e7610831565b61022a61084a565b6101e7610859565b61022a610d3f565b610276610d5f565b604080519115158252519081900360200190f35b610276600480360360a08110156102a057600080fd5b508035906001600160a01b036020820135169060408101359060608101359060800135610d70565b610220610d87565b6101e7610e3d565b6101e7610e42565b61022a610e48565b610220600480360360208110156102fe57600080fd5b5035610e57565b61022a610f2b565b610220610f3a565b6102206004803603602081101561032b57600080fd5b81019060208101813564010000000081111561034657600080fd5b82018360208201111561035857600080fd5b8035906020019184602083028401116401000000008311171561037a57600080fd5b919080806020026020016040519081016040528093929190818152602001838360200280828437600092019190915250929550611173945050505050565b610276611320565b610276600480360360608110156103d657600080fd5b6001600160a01b038235169160208101359181019060608101604082013564010000000081111561040657600080fd5b82018360208201111561041857600080fd5b8035906020019184600183028401116401000000008311171561043a57600080fd5b509092509050611329565b6101e761135c565b6101e7611362565b61022a611368565b6101e7611377565b61022a61137d565b61022a61138c565b6102206004803603602081101561048b57600080fd5b50356001600160a01b031661139b565b610220600480360360e08110156104b157600080fd5b6001600160a01b0382358116926020810135821692604082013592606083013581169260808101359091169160a0820135919081019060e0810160c082013564010000000081111561050257600080fd5b82018360208201111561051457600080fd5b8035906020019184602083028401116401000000008311171561053657600080fd5b919080806020026020016040519081016040528093929190818152602001838360200280828437600092019190915250929550611408945050505050565b61022a6115e9565b600080610587610831565b9050806105985760009150506106bf565b600a546105ab908263ffffffff6115f816565b600a55600554600080546040805163a9059cbb60e01b81526001600160a01b039283166004820152602481018690529051919093169263a9059cbb9260448083019360209390929083900390910190829087803b15801561060b57600080fd5b505af115801561061f573d6000803e3d6000fd5b505050506040513d602081101561063557600080fd5b505161067a576040805162461bcd60e51b815260206004820152600f60248201526e1d1c985b9cd9995c97d9985a5b1959608a1b604482015290519081900360640190fd5b6000546040805183815290516001600160a01b03909216917fcdcaff67ac16639664e5f9343c9223a1dc9c972ec367b69ae9fc1325c7be54749181900360200190a290505b90565b60045481565b6000546001600160a01b03163314610713576040805162461bcd60e51b815260206004820152600960248201526837b7363ca7bbb732b960b91b604482015290519081900360640190fd5b600b805460ff1916911515919091179055565b6002546040805163cd59658360e01b815290516000926001600160a01b03169163cd596583916004808301926020929190829003018186803b15801561076b57600080fd5b505afa15801561077f573d6000803e3d6000fd5b505050506040513d602081101561079557600080fd5b5051905090565b600061082c6107a9610831565b600554604080516370a0823160e01b815230600482015290516001600160a01b03909216916370a0823191602480820192602092909190829003018186803b1580156107f457600080fd5b505afa158015610808573d6000803e3d6000fd5b505050506040513d602081101561081e57600080fd5b50519063ffffffff61165b16565b905090565b600061082c600a5460095461165b90919063ffffffff16565b6006546001600160a01b031681565b60008061086461079c565b9050806108755760009150506106bf565b6040805182815290517f41b06c6e0a1531dcb4b86d53ec6268666aa12d55775f8e5a63596fc935cdcc229181900360200190a160006108d7670de0b6b3a76400006108cb6008548561169d90919063ffffffff16565b9063ffffffff6116f616565b905060006108eb838363ffffffff61165b16565b600954909150610901908363ffffffff6115f816565b6009556040805183815290517f538d1b2114be2374c7010694167f3db7f2d56f864a4e1555582b9716b7d11c3d9181900360200190a1600b5460ff161561094c5761094a61057c565b505b6005546002546040805163095ea7b360e01b81526001600160a01b0392831660048201526000602482018190529151929093169263095ea7b39260448083019360209383900390910190829087803b1580156109a757600080fd5b505af11580156109bb573d6000803e3d6000fd5b505050506040513d60208110156109d157600080fd5b5051610a15576040805162461bcd60e51b815260206004820152600e60248201526d185c1c1c9bdd9957d9985a5b195960921b604482015290519081900360640190fd5b6005546002546040805163095ea7b360e01b81526001600160a01b039283166004820152602481018590529051919092169163095ea7b39160448083019260209291908290030181600087803b158015610a6e57600080fd5b505af1158015610a82573d6000803e3d6000fd5b505050506040513d6020811015610a9857600080fd5b5051610adc576040805162461bcd60e51b815260206004820152600e60248201526d185c1c1c9bdd9957d9985a5b195960921b604482015290519081900360640190fd5b6002546040805163437764df60e01b815290516000926001600160a01b03169163437764df916004808301926020929190829003018186803b158015610b2157600080fd5b505afa158015610b35573d6000803e3d6000fd5b505050506040513d6020811015610b4b57600080fd5b505190506358a8b61360e11b6001600160e01b031982161415610c0f576002546005546001600160a01b039182169163ad58bdd19116610b89610d3f565b856040518463ffffffff1660e01b815260040180846001600160a01b03166001600160a01b03168152602001836001600160a01b03166001600160a01b031681526020018281526020019350505050600060405180830381600087803b158015610bf257600080fd5b505af1158015610c06573d6000803e3d6000fd5b50505050610cd4565b633b2cadab60e11b6001600160e01b031982161415610c91576002546001600160a01b03166301e4f53a610c41610d3f565b846040518363ffffffff1660e01b815260040180836001600160a01b03166001600160a01b0316815260200182815260200192505050600060405180830381600087803b158015610bf257600080fd5b6040805162461bcd60e51b8152602060048201526013602482015272756e6b6e6f776e5f6272696467655f6d6f646560681b604482015290519081900360640190fd5b610cdc61079c565b15610d20576040805162461bcd60e51b815260206004820152600f60248201526e1b9bdd17dd1c985b9cd9995c9c9959608a1b604482015290519081900360640190fd5b600c54610d33908363ffffffff6115f816565b600c5550919250505090565b60075460035460009161082c916001600160a01b03918216911630611738565b6005546001600160a01b0316151590565b6000610d7a610859565b5060019695505050505050565b6001546001600160a01b03163314610dd9576040805162461bcd60e51b815260206004820152601060248201526f37b7363ca832b73234b733a7bbb732b960811b604482015290519081900360640190fd5b600154600080546040516001600160a01b0393841693909116917f8be0079c531659141344cd1fd0a4f28419497f9722a3daafe3b4186f6b6457e091a360018054600080546001600160a01b03199081166001600160a01b03841617909155169055565b600290565b60095481565b6007546001600160a01b031681565b6000546001600160a01b03163314610ea2576040805162461bcd60e51b815260206004820152600960248201526837b7363ca7bbb732b960b91b604482015290519081900360640190fd5b670de0b6b3a7640000811115610ef0576040805162461bcd60e51b815260206004820152600e60248201526d6572726f725f61646d696e46656560901b604482015290519081900360640190fd5b60088190556040805182815290517f11a80b766155f9b8f16a7da44d66269fd694cb1c247f4814244586f68dd534879181900360200190a150565b6000546001600160a01b031681565b6000546001600160a01b03163314610f85576040805162461bcd60e51b815260206004820152600960248201526837b7363ca7bbb732b960b91b604482015290519081900360640190fd5b6006546040805163836c081d60e01b815290516000926001600160a01b03169163836c081d916004808301926020929190829003018186803b158015610fca57600080fd5b505afa158015610fde573d6000803e3d6000fd5b505050506040513d6020811015610ff457600080fd5b505190506001600160a01b0381161580159061101e57506005546001600160a01b03828116911614155b1561107a576005546040516001600160a01b03918216918316907f1a10a9f5e0b3bc7bffb82cdebe89204ade13ed81bf7dc816199fadc282de3d8a90600090a3600580546001600160a01b0319166001600160a01b0383161790555b6006546040805163533426d160e01b815290516000926001600160a01b03169163533426d1916004808301926020929190829003018186803b1580156110bf57600080fd5b505afa1580156110d3573d6000803e3d6000fd5b505050506040513d60208110156110e957600080fd5b505190506001600160a01b0381161580159061111357506002546001600160a01b03828116911614155b1561116f576002546040516001600160a01b03918216918316907f5d82b60ad3cf3639e02e96994b2b10060c4c0a7c0214695baa228363fb910c3490600090a3600280546001600160a01b0319166001600160a01b0383161790555b5050565b60606000809054906101000a90046001600160a01b03168260405160240180836001600160a01b03166001600160a01b0316815260200180602001828103825283818151815260200191508051906020019060200280838360005b838110156111e65781810151838201526020016111ce565b50506040805193909501838103601f190184529094525060208101805163325ff66f60e01b6001600160e01b03909116179052965061122b9550610726945050505050565b6003546004805460405163dc8601b360e01b81526001600160a01b0393841692810183815260448201839052606060248301908152875160648401528751969095169563dc8601b3958894939091608490910190602086019080838360005b838110156112a257818101518382015260200161128a565b50505050905090810190601f1680156112cf5780820380516001836020036101000a031916815260200191505b50945050505050602060405180830381600087803b1580156112f057600080fd5b505af1158015611304573d6000803e3d6000fd5b505050506040513d602081101561131a57600080fd5b50505050565b600b5460ff1681565b6005546000906001600160a01b0316331461134657506000611354565b61134e610859565b50600190505b949350505050565b600a5481565b600c5481565b6002546001600160a01b031681565b60085481565b6003546001600160a01b031681565b6001546001600160a01b031681565b6000546001600160a01b031633146113e6576040805162461bcd60e51b815260206004820152600960248201526837b7363ca7bbb732b960b91b604482015290519081900360640190fd5b600180546001600160a01b0319166001600160a01b0392909216919091179055565b611410610d5f565b1561144e576040805162461bcd60e51b8152602060048201526009602482015268696e69745f6f6e636560b81b604482015290519081900360640190fd5b600b805460ff19166001179055600680546001600160a01b03808a166001600160a01b031992831617928390556000805490921633179091556040805163533426d160e01b81529051929091169163533426d191600480820192602092909190829003018186803b1580156114c257600080fd5b505afa1580156114d6573d6000803e3d6000fd5b505050506040513d60208110156114ec57600080fd5b5051600280546001600160a01b0319166001600160a01b039283161790556006546040805163836c081d60e01b81529051919092169163836c081d916004808301926020929190829003018186803b15801561154757600080fd5b505afa15801561155b573d6000803e3d6000fd5b505050506040513d602081101561157157600080fd5b5051600580546001600160a01b03199081166001600160a01b03938416179091556003805482168984161790556004879055600780549091169186169190911790556115bc82610e57565b600080546001600160a01b0319166001600160a01b0385161790556115e081611173565b50505050505050565b6005546001600160a01b031681565b600082820183811015611652576040805162461bcd60e51b815260206004820152601b60248201527f536166654d6174683a206164646974696f6e206f766572666c6f770000000000604482015290519081900360640190fd5b90505b92915050565b600061165283836040518060400160405280601e81526020017f536166654d6174683a207375627472616374696f6e206f766572666c6f7700008152506117a4565b6000826116ac57506000611655565b828202828482816116b957fe5b04146116525760405162461bcd60e51b81526004018080602001828103825260218152602001806118f36021913960400191505060405180910390fd5b600061165283836040518060400160405280601a81526020017f536166654d6174683a206469766973696f6e206279207a65726f00000000000081525061183b565b600080611744856118a0565b8051602091820120604080516001600160f81b0319818501526bffffffffffffffffffffffff19606089901b1660218201526035810187905260558082019390935281518082039093018352607501905280519101209150509392505050565b600081848411156118335760405162461bcd60e51b81526004018080602001828103825283818151815260200191508051906020019080838360005b838110156117f85781810151838201526020016117e0565b50505050905090810190601f1680156118255780820380516001836020036101000a031916815260200191505b509250505060405180910390fd5b505050900390565b6000818361188a5760405162461bcd60e51b81526020600482018181528351602484015283519092839260449091019190850190808383600083156117f85781810151838201526020016117e0565b50600083858161189657fe5b0495945050505050565b604080516057810190915260378152733d602d80600a3d3981f3363d3d373d3d3d363d7360601b602082015260609190911b60348201526e5af43d82803e903d91602b57fd5bf360881b60488201529056fe536166654d6174683a206d756c7469706c69636174696f6e206f766572666c6f77a264697066735822122023a0c5a73cab00a155748f1275938c41b97b7cccaefe4c7234c6a170402bcfd964736f6c63430006060033",
  "immutableReferences": {},
  "source": "pragma solidity 0.6.6;\n\nimport \"openzeppelin-solidity/contracts/token/ERC20/ERC20.sol\";\nimport \"openzeppelin-solidity/contracts/math/SafeMath.sol\";\nimport \"./Ownable.sol\"; // TODO: switch to \"openzeppelin-solidity/contracts/access/Ownable.sol\";\nimport \"./PurchaseListener.sol\";\nimport \"./CloneLib.sol\";\nimport \"./IAMB.sol\";\nimport \"./ITokenMediator.sol\";\nimport \"./FactoryConfig.sol\";\n\ncontract DataUnionMainnet is Ownable, PurchaseListener {\n    using SafeMath for uint256;\n\n    event AdminFeeChanged(uint256 adminFee);\n    event AdminFeeCharged(uint256 amount);\n    event AdminFeesWithdrawn(address indexed admin, uint256 amount);\n    event MigrateToken(address indexed newToken, address indexed oldToken);\n    event MigrateMediator(address indexed newMediator, address indexed oldMediator);\n    event RevenueReceived(uint256 amount);\n\n    ITokenMediator public tokenMediator;\n    address public sidechainDUFactory;\n    uint256 public sidechainMaxGas;\n    ERC20 public token;\n    FactoryConfig public migrationManager;\n\n/*\n    NOTE: any variables set below will NOT be visible in clones\n    clones must set variables in initialize()\n*/\n\n    // needed to compute sidechain address\n    address public sidechainDUTemplate;\n    uint256 public adminFeeFraction;\n    uint256 public totalAdminFees;\n    uint256 public totalAdminFeesWithdrawn;\n    bool public autoSendAdminFee;\n\n    function version() public pure returns (uint256) { return 2; }\n\n    uint256 public tokensSentToBridge;\n\n\n    constructor() public Ownable(address(0)) {}\n\n    function initialize(\n        address _migrationManager,\n        address _sidechainDUFactory,\n        uint256 _sidechainMaxGas,\n        address _sidechainDUTemplate,\n        address _owner,\n        uint256 _adminFeeFraction,\n        address[] memory agents\n    )  public {\n        require(!isInitialized(), \"init_once\");\n        // must set default values here so that there are in clone state\n        autoSendAdminFee = true;\n        migrationManager = FactoryConfig(_migrationManager);\n\n        //during setup, msg.sender is admin\n        owner = msg.sender;\n\n        tokenMediator = ITokenMediator(migrationManager.currentMediator());\n        token = ERC20(migrationManager.currentToken());\n        sidechainDUFactory = _sidechainDUFactory;\n        sidechainMaxGas = _sidechainMaxGas;\n        sidechainDUTemplate = _sidechainDUTemplate;\n        setAdminFee(_adminFeeFraction);\n        //transfer to real admin\n        owner = _owner;\n        deployNewDUSidechain(agents);\n    }\n\n    function isInitialized() public view returns (bool) {\n        return address(token) != address(0);\n    }\n\n    function amb() public view returns (IAMB) {\n        return IAMB(tokenMediator.bridgeContract());\n    }\n\n    /**\n     * Admin fee as a fraction of revenue.\n     * @param newAdminFee fixed-point decimal in the same way as ether: 50% === 0.5 ether === \"500000000000000000\"\n     */\n    function setAdminFee(uint256 newAdminFee) public onlyOwner {\n        require(newAdminFee <= 1 ether, \"error_adminFee\");\n        adminFeeFraction = newAdminFee;\n        emit AdminFeeChanged(adminFeeFraction);\n    }\n\n    function setAutoSendAdminFee(bool autoSend) public onlyOwner {\n        autoSendAdminFee = autoSend;\n    }\n\n\n    function deployNewDUSidechain(address[] memory agents) public {\n        bytes memory data = abi.encodeWithSignature(\"deployNewDUSidechain(address,address[])\", owner, agents);\n        amb().requireToPassMessage(sidechainDUFactory, data, sidechainMaxGas);\n    }\n\n    function sidechainAddress() public view returns (address) {\n        return CloneLib.predictCloneAddressCreate2(sidechainDUTemplate, sidechainDUFactory, bytes32(uint256(address(this))));\n    }\n\n    /**\n    ERC677 callback function\n    see https://github.com/ethereum/EIPs/issues/677\n    */\n    function onTokenTransfer(address, uint256, bytes calldata) external returns (bool success) {\n        if(msg.sender != address(token)){\n            return false;\n        }\n        sendTokensToBridge();\n        return true;\n    }\n\n    //function onPurchase(bytes32 productId, address subscriber, uint256 endTimestamp, uint256 priceDatacoin, uint256 feeDatacoin)\n    function onPurchase(bytes32, address, uint256, uint256, uint256) external override returns (bool) {\n        sendTokensToBridge();\n        return true;\n    }\n\n    function adminFeesWithdrawable() public view returns (uint256) {\n        return totalAdminFees.sub(totalAdminFeesWithdrawn);\n    }\n\n    function unaccountedTokens() public view returns (uint256) {\n        return token.balanceOf(address(this)).sub(adminFeesWithdrawable());\n    }\n\n\n    function sendTokensToBridge() public returns (uint256) {\n        uint256 newTokens = unaccountedTokens();\n        if (newTokens == 0) return 0;\n\n        emit RevenueReceived(newTokens);\n\n        uint256 adminFee = newTokens.mul(adminFeeFraction).div(10**18);\n        uint256 memberEarnings = newTokens.sub(adminFee);\n\n        totalAdminFees = totalAdminFees.add(adminFee);\n        emit AdminFeeCharged(adminFee);\n        if(autoSendAdminFee) withdrawAdminFees();\n\n        // transfer memberEarnings\n        require(token.approve(address(tokenMediator), 0), \"approve_failed\");\n        require(token.approve(address(tokenMediator), memberEarnings), \"approve_failed\");\n        bytes4 bridgeMode = tokenMediator.getBridgeMode();\n        //MultiAMB 0xb1516c26 == bytes4(keccak256(abi.encodePacked(\"multi-erc-to-erc-amb\")))\n        //Single token AMB 0x76595b56 ==  bytes4(keccak256(abi.encodePacked(\"erc-to-erc-amb\")))\n        if(bridgeMode == 0xb1516c26) {\n            tokenMediator.relayTokens(address(token), sidechainAddress(), memberEarnings);\n        }\n        else if(bridgeMode == 0x76595b56){\n            tokenMediator.relayTokens(sidechainAddress(), memberEarnings);\n        }\n        else{\n            revert(\"unknown_bridge_mode\");\n        }\n\n        //check that memberEarnings were sent\n        require(unaccountedTokens() == 0, \"not_transferred\");\n        tokensSentToBridge = tokensSentToBridge.add(memberEarnings);\n\n        return newTokens;\n    }\n\n    function withdrawAdminFees() public returns (uint256) {\n        uint256 withdrawable = adminFeesWithdrawable();\n        if (withdrawable == 0) return 0;\n        totalAdminFeesWithdrawn = totalAdminFeesWithdrawn.add(withdrawable);\n        require(token.transfer(owner, withdrawable), \"transfer_failed\");\n        emit AdminFeesWithdrawn(owner, withdrawable);\n        return withdrawable;\n    }\n\n    function migrate() public onlyOwner {\n        address newToken = migrationManager.currentToken();\n        if(newToken != address(0) && newToken != address(token)) {\n            emit MigrateToken(newToken, address(token));\n            token = ERC20(newToken);\n        }\n        address newMediator = migrationManager.currentMediator();\n        if(newMediator != address(0) && newMediator != address(tokenMediator)) {\n            emit MigrateMediator(newMediator, address(tokenMediator));\n            tokenMediator = ITokenMediator(newMediator);\n        }\n    }\n}\n",
  "sourcePath": "/home/heynow/streamr/data-union-solidity/contracts/DataUnionMainnet.sol",
  "compiler": {
    "name": "solc",
    "version": "0.6.6+commit.6c089d02.Emscripten.clang"
  },
  "schemaVersion": "3.2.3",
  "updatedAt": "2021-02-26T10:42:16.428Z",
  "devdoc": {
    "methods": {
      "claimOwnership()": {
        "details": "Allows the pendingOwner address to finalize the transfer."
      },
      "setAdminFee(uint256)": {
        "params": {
          "newAdminFee": "fixed-point decimal in the same way as ether: 50% === 0.5 ether === \"500000000000000000\""
        }
      },
      "transferOwnership(address)": {
        "details": "Allows the current owner to set the pendingOwner address.",
        "params": {
          "newOwner": "The address to transfer ownership to."
        }
      }
    }
  },
  "userdoc": {
    "methods": {
      "onTokenTransfer(address,uint256,bytes)": {
        "notice": "ERC677 callback function see https://github.com/ethereum/EIPs/issues/677"
      },
      "setAdminFee(uint256)": {
        "notice": "Admin fee as a fraction of revenue."
      }
    }
  }
}