{
  "contractName": "DataUnionSidechain",
  "abi": [
    {
      "inputs": [],
      "stateMutability": "nonpayable",
      "type": "constructor"
    },
    {
      "anonymous": false,
      "inputs": [
        {
          "indexed": false,
          "internalType": "uint256",
          "name": "adminFee",
          "type": "uint256"
        }
      ],
      "name": "AdminFeeChanged",
      "type": "event"
    },
    {
      "anonymous": false,
      "inputs": [
        {
          "indexed": false,
          "internalType": "uint256",
          "name": "amount",
          "type": "uint256"
        }
      ],
      "name": "AdminFeeCharged",
      "type": "event"
    },
    {
      "anonymous": false,
      "inputs": [
        {
          "indexed": true,
          "internalType": "address",
          "name": "admin",
          "type": "address"
        },
        {
          "indexed": false,
          "internalType": "uint256",
          "name": "amount",
          "type": "uint256"
        }
      ],
      "name": "AdminFeesWithdrawn",
      "type": "event"
    },
    {
      "anonymous": false,
      "inputs": [
        {
          "indexed": true,
          "internalType": "address",
          "name": "member",
          "type": "address"
        },
        {
          "indexed": false,
          "internalType": "uint256",
          "name": "amount",
          "type": "uint256"
        }
      ],
      "name": "EarningsWithdrawn",
      "type": "event"
    },
    {
      "anonymous": false,
      "inputs": [
        {
          "indexed": true,
          "internalType": "address",
          "name": "",
          "type": "address"
        }
      ],
      "name": "JoinPartAgentAdded",
      "type": "event"
    },
    {
      "anonymous": false,
      "inputs": [
        {
          "indexed": true,
          "internalType": "address",
          "name": "",
          "type": "address"
        }
      ],
      "name": "JoinPartAgentRemoved",
      "type": "event"
    },
    {
      "anonymous": false,
      "inputs": [
        {
          "indexed": false,
          "internalType": "uint256",
          "name": "per_member_earn",
          "type": "uint256"
        },
        {
          "indexed": false,
          "internalType": "uint256",
          "name": "active_members",
          "type": "uint256"
        }
      ],
      "name": "MemberEarn",
      "type": "event"
    },
    {
      "anonymous": false,
      "inputs": [
        {
          "indexed": true,
          "internalType": "address",
          "name": "",
          "type": "address"
        }
      ],
      "name": "MemberJoined",
      "type": "event"
    },
    {
      "anonymous": false,
      "inputs": [
        {
          "indexed": true,
          "internalType": "address",
          "name": "",
          "type": "address"
        }
      ],
      "name": "MemberParted",
      "type": "event"
    },
    {
      "anonymous": false,
      "inputs": [
        {
          "indexed": true,
          "internalType": "address",
          "name": "previousOwner",
          "type": "address"
        },
        {
          "indexed": true,
          "internalType": "address",
          "name": "newOwner",
          "type": "address"
        }
      ],
      "name": "OwnershipTransferred",
      "type": "event"
    },
    {
      "anonymous": false,
      "inputs": [
        {
          "indexed": false,
          "internalType": "uint256",
          "name": "amount",
          "type": "uint256"
        }
      ],
      "name": "RevenueReceived",
      "type": "event"
    },
    {
      "anonymous": false,
      "inputs": [
        {
          "indexed": true,
          "internalType": "address",
          "name": "from",
          "type": "address"
        },
        {
          "indexed": true,
          "internalType": "address",
          "name": "to",
          "type": "address"
        },
        {
          "indexed": false,
          "internalType": "uint256",
          "name": "amount",
          "type": "uint256"
        }
      ],
      "name": "TransferToAddressInContract",
      "type": "event"
    },
    {
      "anonymous": false,
      "inputs": [
        {
          "indexed": true,
          "internalType": "address",
          "name": "from",
          "type": "address"
        },
        {
          "indexed": true,
          "internalType": "address",
          "name": "to",
          "type": "address"
        },
        {
          "indexed": false,
          "internalType": "uint256",
          "name": "amount",
          "type": "uint256"
        }
      ],
      "name": "TransferWithinContract",
      "type": "event"
    },
    {
      "inputs": [],
      "name": "active_members",
      "outputs": [
        {
          "internalType": "uint256",
          "name": "",
          "type": "uint256"
        }
      ],
      "stateMutability": "view",
      "type": "function"
    },
    {
      "inputs": [],
      "name": "adminFeeFraction",
      "outputs": [
        {
          "internalType": "uint256",
          "name": "",
          "type": "uint256"
        }
      ],
      "stateMutability": "view",
      "type": "function"
    },
    {
      "inputs": [],
      "name": "claimOwnership",
      "outputs": [],
      "stateMutability": "nonpayable",
      "type": "function"
    },
    {
      "inputs": [
        {
          "internalType": "address",
          "name": "",
          "type": "address"
        }
      ],
      "name": "joinPartAgents",
      "outputs": [
        {
          "internalType": "enum DataUnionSidechain.ActiveStatus",
          "name": "",
          "type": "uint8"
        }
      ],
      "stateMutability": "view",
      "type": "function"
    },
    {
      "inputs": [],
      "name": "join_part_agent_count",
      "outputs": [
        {
          "internalType": "uint256",
          "name": "",
          "type": "uint256"
        }
      ],
      "stateMutability": "view",
      "type": "function"
    },
    {
      "inputs": [],
      "name": "lifetime_member_earnings",
      "outputs": [
        {
          "internalType": "uint256",
          "name": "",
          "type": "uint256"
        }
      ],
      "stateMutability": "view",
      "type": "function"
    },
    {
      "inputs": [],
      "name": "mainchain_DU",
      "outputs": [
        {
          "internalType": "address",
          "name": "",
          "type": "address"
        }
      ],
      "stateMutability": "view",
      "type": "function"
    },
    {
      "inputs": [
        {
          "internalType": "address",
          "name": "",
          "type": "address"
        }
      ],
      "name": "memberData",
      "outputs": [
        {
          "internalType": "enum DataUnionSidechain.ActiveStatus",
          "name": "status",
          "type": "uint8"
        },
        {
          "internalType": "uint256",
          "name": "earnings_before_last_join",
          "type": "uint256"
        },
        {
          "internalType": "uint256",
          "name": "lme_at_join",
          "type": "uint256"
        },
        {
          "internalType": "uint256",
          "name": "withdrawnEarnings",
          "type": "uint256"
        }
      ],
      "stateMutability": "view",
      "type": "function"
    },
    {
      "inputs": [],
      "name": "owner",
      "outputs": [
        {
          "internalType": "address",
          "name": "",
          "type": "address"
        }
      ],
      "stateMutability": "view",
      "type": "function"
    },
    {
      "inputs": [],
      "name": "pendingOwner",
      "outputs": [
        {
          "internalType": "address",
          "name": "",
          "type": "address"
        }
      ],
      "stateMutability": "view",
      "type": "function"
    },
    {
      "inputs": [],
      "name": "token",
      "outputs": [
        {
          "internalType": "contract ERC677",
          "name": "",
          "type": "address"
        }
      ],
      "stateMutability": "view",
      "type": "function"
    },
    {
      "inputs": [],
      "name": "token_mediator",
      "outputs": [
        {
          "internalType": "address",
          "name": "",
          "type": "address"
        }
      ],
      "stateMutability": "view",
      "type": "function"
    },
    {
      "inputs": [],
      "name": "totalAdminFees",
      "outputs": [
        {
          "internalType": "uint256",
          "name": "",
          "type": "uint256"
        }
      ],
      "stateMutability": "view",
      "type": "function"
    },
    {
      "inputs": [],
      "name": "totalAdminFeesWithdrawn",
      "outputs": [
        {
          "internalType": "uint256",
          "name": "",
          "type": "uint256"
        }
      ],
      "stateMutability": "view",
      "type": "function"
    },
    {
      "inputs": [],
      "name": "totalEarnings",
      "outputs": [
        {
          "internalType": "uint256",
          "name": "",
          "type": "uint256"
        }
      ],
      "stateMutability": "view",
      "type": "function"
    },
    {
      "inputs": [],
      "name": "totalEarningsWithdrawn",
      "outputs": [
        {
          "internalType": "uint256",
          "name": "",
          "type": "uint256"
        }
      ],
      "stateMutability": "view",
      "type": "function"
    },
    {
      "inputs": [
        {
          "internalType": "address",
          "name": "newOwner",
          "type": "address"
        }
      ],
      "name": "transferOwnership",
      "outputs": [],
      "stateMutability": "nonpayable",
      "type": "function"
    },
    {
      "inputs": [
        {
          "internalType": "address",
          "name": "_owner",
          "type": "address"
        },
        {
          "internalType": "address",
          "name": "token_address",
          "type": "address"
        },
        {
          "internalType": "uint256",
          "name": "adminFeeFraction_",
          "type": "uint256"
        },
        {
          "internalType": "address[]",
          "name": "agents",
          "type": "address[]"
        },
        {
          "internalType": "address",
          "name": "_token_mediator",
          "type": "address"
        },
        {
          "internalType": "address",
          "name": "_mainchain_DU",
          "type": "address"
        }
      ],
      "name": "initialize",
      "outputs": [],
      "stateMutability": "nonpayable",
      "type": "function"
    },
    {
      "inputs": [],
      "name": "isInitialized",
      "outputs": [
        {
          "internalType": "bool",
          "name": "",
          "type": "bool"
        }
      ],
      "stateMutability": "view",
      "type": "function"
    },
    {
      "inputs": [
        {
          "internalType": "address",
          "name": "a",
          "type": "address"
        }
      ],
      "name": "toBytes",
      "outputs": [
        {
          "internalType": "bytes",
          "name": "b",
          "type": "bytes"
        }
      ],
      "stateMutability": "pure",
      "type": "function"
    },
    {
      "inputs": [
        {
          "internalType": "uint256",
          "name": "newAdminFee",
          "type": "uint256"
        }
      ],
      "name": "setAdminFee",
      "outputs": [],
      "stateMutability": "nonpayable",
      "type": "function"
    },
    {
      "inputs": [
        {
          "internalType": "address[]",
          "name": "agents",
          "type": "address[]"
        }
      ],
      "name": "addJoinPartAgents",
      "outputs": [],
      "stateMutability": "nonpayable",
      "type": "function"
    },
    {
      "inputs": [
        {
          "internalType": "address",
          "name": "agent",
          "type": "address"
        }
      ],
      "name": "addJoinPartAgent",
      "outputs": [],
      "stateMutability": "nonpayable",
      "type": "function"
    },
    {
      "inputs": [
        {
          "internalType": "address",
          "name": "agent",
          "type": "address"
        }
      ],
      "name": "removeJoinPartAgent",
      "outputs": [],
      "stateMutability": "nonpayable",
      "type": "function"
    },
    {
      "inputs": [
        {
          "internalType": "address",
          "name": "member",
          "type": "address"
        }
      ],
      "name": "getEarnings",
      "outputs": [
        {
          "internalType": "uint256",
          "name": "",
          "type": "uint256"
        }
      ],
      "stateMutability": "view",
      "type": "function"
    },
    {
      "inputs": [
        {
          "internalType": "address",
          "name": "member",
          "type": "address"
        }
      ],
      "name": "getWithdrawn",
      "outputs": [
        {
          "internalType": "uint256",
          "name": "",
          "type": "uint256"
        }
      ],
      "stateMutability": "view",
      "type": "function"
    },
    {
      "inputs": [
        {
          "internalType": "address",
          "name": "member",
          "type": "address"
        }
      ],
      "name": "getWithdrawableEarnings",
      "outputs": [
        {
          "internalType": "uint256",
          "name": "",
          "type": "uint256"
        }
      ],
      "stateMutability": "view",
      "type": "function"
    },
    {
      "inputs": [],
      "name": "addRevenue",
      "outputs": [
        {
          "internalType": "uint256",
          "name": "",
          "type": "uint256"
        }
      ],
      "stateMutability": "nonpayable",
      "type": "function"
    },
    {
      "inputs": [
        {
          "internalType": "address",
          "name": "member",
          "type": "address"
        }
      ],
      "name": "addMember",
      "outputs": [],
      "stateMutability": "nonpayable",
      "type": "function"
    },
    {
      "inputs": [
        {
          "internalType": "address",
          "name": "member",
          "type": "address"
        }
      ],
      "name": "partMember",
      "outputs": [],
      "stateMutability": "nonpayable",
      "type": "function"
    },
    {
      "inputs": [
        {
          "internalType": "address[]",
          "name": "members",
          "type": "address[]"
        }
      ],
      "name": "addMembers",
      "outputs": [],
      "stateMutability": "nonpayable",
      "type": "function"
    },
    {
      "inputs": [
        {
          "internalType": "address[]",
          "name": "members",
          "type": "address[]"
        }
      ],
      "name": "partMembers",
      "outputs": [],
      "stateMutability": "nonpayable",
      "type": "function"
    },
    {
      "inputs": [],
      "name": "totalRevenue",
      "outputs": [
        {
          "internalType": "uint256",
          "name": "",
          "type": "uint256"
        }
      ],
      "stateMutability": "view",
      "type": "function"
    },
    {
      "inputs": [],
      "name": "totalWithdrawable",
      "outputs": [
        {
          "internalType": "uint256",
          "name": "",
          "type": "uint256"
        }
      ],
      "stateMutability": "view",
      "type": "function"
    },
    {
      "inputs": [
        {
          "internalType": "address",
          "name": "recipient",
          "type": "address"
        },
        {
          "internalType": "uint256",
          "name": "amount",
          "type": "uint256"
        }
      ],
      "name": "transferToMemberInContract",
      "outputs": [],
      "stateMutability": "nonpayable",
      "type": "function"
    },
    {
      "inputs": [
        {
          "internalType": "address",
          "name": "recipient",
          "type": "address"
        },
        {
          "internalType": "uint256",
          "name": "amount",
          "type": "uint256"
        }
      ],
      "name": "transferWithinContract",
      "outputs": [],
      "stateMutability": "nonpayable",
      "type": "function"
    },
    {
      "inputs": [
        {
          "internalType": "address[]",
          "name": "members",
          "type": "address[]"
        },
        {
          "internalType": "bool",
          "name": "sendToMainnet",
          "type": "bool"
        }
      ],
      "name": "withdrawMembers",
      "outputs": [
        {
          "internalType": "uint256",
          "name": "",
          "type": "uint256"
        }
      ],
      "stateMutability": "nonpayable",
      "type": "function"
    },
    {
      "inputs": [
        {
          "internalType": "address",
          "name": "member",
          "type": "address"
        },
        {
          "internalType": "bool",
          "name": "sendToMainnet",
          "type": "bool"
        }
      ],
      "name": "withdraw",
      "outputs": [
        {
          "internalType": "uint256",
          "name": "",
          "type": "uint256"
        }
      ],
      "stateMutability": "nonpayable",
      "type": "function"
    },
    {
      "inputs": [
        {
          "internalType": "bool",
          "name": "sendToMainnet",
          "type": "bool"
        }
      ],
      "name": "withdrawAdminFees",
      "outputs": [
        {
          "internalType": "uint256",
          "name": "",
          "type": "uint256"
        }
      ],
      "stateMutability": "nonpayable",
      "type": "function"
    }
  ],
  "bytecode": "0x608060405234801561001057600080fd5b50600080546001600160a01b0319169055612294806100306000396000f3fe608060405234801561001057600080fd5b506004361061023d5760003560e01c806385a212461161013b578063bf2d9e0b116100b8578063d7e5487c1161007c578063d7e5487c1461094c578063e30c39781461096b578063f2de565114610973578063f2fde38b1461097b578063fc0c546a146109a15761023d565b8063bf2d9e0b146108c4578063c44b73a3146108cc578063c5a8c91f14610916578063ca6d56dc1461091e578063d35cec40146109445761023d565b8063a4d6ddc0116100ff578063a4d6ddc0146106f0578063a913f41d14610793578063ae66d9481461079b578063b274bcc7146107c1578063ba1a4de9146107ed5761023d565b806385a212461461065c5780638beb60b6146106645780638da5cb5b146106815780639107d08e14610689578063937e8c7b146106e85761023d565b80634e71e0c8116101c9578063662d45a21161018d578063662d45a2146104c05780636f4d469b146104e657806371cdfd681461058757806371d1ae75146105b35780637b30ed43146105bb5761023d565b80634e71e0c8146103c35780635437e401146103cb57806354b608a4146103f9578063593b79fe1461041d57806361feacff146104b85761023d565b80632df3eba4116102105780632df3eba41461034b5780632e0d421214610353578063392e53cd146103795780634c2541b8146103955780634e40ea641461039d5761023d565b80630600a8651461024257806309a6400b1461025c578063131b9c04146102845780631796621a146102aa575b600080fd5b61024a6109a9565b60408051918252519081900360200190f35b6102826004803603602081101561027257600080fd5b50356001600160a01b03166109d1565b005b61024a6004803603602081101561029a57600080fd5b50356001600160a01b0316610aef565b610282600480360360208110156102c057600080fd5b810190602081018135600160201b8111156102da57600080fd5b8201836020820111156102ec57600080fd5b803590602001918460208302840111600160201b8311171561030d57600080fd5b919080806020026020016040519081016040528093929190818152602001838360200280828437600092019190915250929550610ba0945050505050565b61024a610c1f565b61024a6004803603602081101561036957600080fd5b50356001600160a01b0316610c25565b610381610c42565b604080519115158252519081900360200190f35b61024a610c53565b610282600480360360208110156103b357600080fd5b50356001600160a01b0316610c59565b610282610da2565b61024a600480360360408110156103e157600080fd5b506001600160a01b0381351690602001351515610e58565b61040161111e565b604080516001600160a01b039092168252519081900360200190f35b6104436004803603602081101561043357600080fd5b50356001600160a01b031661112d565b6040805160208082528351818301528351919283929083019185019080838360005b8381101561047d578181015183820152602001610465565b50505050905090810190601f1680156104aa5780820380516001836020036101000a031916815260200191505b509250505060405180910390f35b61024a611151565b610282600480360360208110156104d657600080fd5b50356001600160a01b0316611157565b610282600480360360208110156104fc57600080fd5b810190602081018135600160201b81111561051657600080fd5b82018360208201111561052857600080fd5b803590602001918460208302840111600160201b8311171561054957600080fd5b91908080602002602001604051908101604052809392919081815260200183836020028082843760009201919091525092955061126c945050505050565b6102826004803603604081101561059d57600080fd5b506001600160a01b038135169060200135611302565b61024a6113ce565b610282600480360360208110156105d157600080fd5b810190602081018135600160201b8111156105eb57600080fd5b8201836020820111156105fd57600080fd5b803590602001918460208302840111600160201b8311171561061e57600080fd5b9190808060200260200160405190810160405280939291908181526020018383602002808284376000920191909152509295506115be945050505050565b61024a6115ee565b6102826004803603602081101561067a57600080fd5b50356115f4565b6104016116c8565b6106af6004803603602081101561069f57600080fd5b50356001600160a01b03166116d7565b604051808560038111156106bf57fe5b60ff16815260200184815260200183815260200182815260200194505050505060405180910390f35b61024a611702565b61024a6004803603604081101561070657600080fd5b810190602081018135600160201b81111561072057600080fd5b82018360208201111561073257600080fd5b803590602001918460208302840111600160201b8311171561075357600080fd5b9190808060200260200160405190810160405280939291908181526020018383602002808284376000920191909152509295505050503515159050611708565b61024a611754565b61024a600480360360208110156107b157600080fd5b50356001600160a01b031661175a565b610282600480360360408110156107d757600080fd5b506001600160a01b0381351690602001356117d1565b610282600480360360c081101561080357600080fd5b6001600160a01b03823581169260208101359091169160408201359190810190608081016060820135600160201b81111561083d57600080fd5b82018360208201111561084f57600080fd5b803590602001918460208302840111600160201b8311171561087057600080fd5b919080806020026020016040519081016040528093929190818152602001838360200280828437600092019190915250929550506001600160a01b038335811694506020909301359092169150611a499050565b61024a611b10565b6108f2600480360360208110156108e257600080fd5b50356001600160a01b0316611b29565b6040518082600381111561090257fe5b60ff16815260200191505060405180910390f35b610401611b3e565b6102826004803603602081101561093457600080fd5b50356001600160a01b0316611b4d565b61024a611c84565b61024a6004803603602081101561096257600080fd5b50351515611c8a565b610401611f3b565b61024a611f4a565b6102826004803603602081101561099157600080fd5b50356001600160a01b0316611f50565b610401611fbd565b60006109cb6009546109bf6007546109bf611b10565b9063ffffffff611fcc16565b90505b90565b6000546001600160a01b03163314610a1c576040805162461bcd60e51b815260206004820152600960248201526837b7363ca7bbb732b960b91b604482015290519081900360640190fd5b60016001600160a01b0382166000908152600e602052604090205460ff166003811115610a4557fe5b14610a8c576040805162461bcd60e51b81526020600482015260126024820152716a706167656e745f6e6f745f61637469766560701b604482015290519081900360640190fd5b6001600160a01b0381166000818152600e6020526040808220805460ff19166002179055517feac6c7d5a1c157497119a5d4f661d5f23b844c415452ef440ed346bd127d885e9190a2600c54610ae990600163ffffffff611fcc16565b600c5550565b6001600160a01b0381166000908152600d6020526040812081815460ff166003811115610b1857fe5b1415610b5c576040805162461bcd60e51b815260206004820152600e60248201526d36b2b6b132b92fbab735b737bbb760911b604482015290519081900360640190fd5b6001815460ff166003811115610b6e57fe5b14610b7a576000610b91565b6002810154600b54610b919163ffffffff611fcc16565b8160010154019150505b919050565b6000546001600160a01b03163314610beb576040805162461bcd60e51b815260206004820152600960248201526837b7363ca7bbb732b960b91b604482015290519081900360640190fd5b60005b8151811015610c1b57610c13828281518110610c0657fe5b6020026020010151611157565b600101610bee565b5050565b60065481565b6000610c3c610c338361175a565b6109bf84610aef565b92915050565b6002546001600160a01b0316151590565b600a5481565b336001600160a01b0382161480610c8d57506001336000908152600e602052604090205460ff166003811115610c8b57fe5b145b610cce576040805162461bcd60e51b815260206004820152600d60248201526c1858d8d95cdcd7d9195b9a5959609a1b604482015290519081900360640190fd5b6001600160a01b0381166000908152600d602052604090206001815460ff166003811115610cf857fe5b14610d3e576040805162461bcd60e51b81526020600482015260116024820152706d656d6265725f6e6f745f61637469766560781b604482015290519081900360640190fd5b610d4782610aef565b600182810191909155815460ff19166002178255600a54610d6791611fcc565b600a556040516001600160a01b038316907f7df2bff504799b36cafb9574b3fcfd8432ef4a1fa89d1ba9fe40324501adf5f590600090a25050565b6001546001600160a01b03163314610df4576040805162461bcd60e51b815260206004820152601060248201526f37b7363ca832b73234b733a7bbb732b960811b604482015290519081900360640190fd5b600154600080546040516001600160a01b0393841693909116917f8be0079c531659141344cd1fd0a4f28419497f9722a3daafe3b4186f6b6457e091a360018054600080546001600160a01b03199081166001600160a01b03841617909155169055565b600080610e6484610c25565b905080610e75576000915050610c3c565b6001600160a01b0384166000908152600d602052604090206003810154610ea2908363ffffffff61201516565b6003820155600754610eba908363ffffffff61201516565b6007558315611012576002546004546001600160a01b0391821691634000aea0911684610ee68961112d565b6040518463ffffffff1660e01b815260040180846001600160a01b03166001600160a01b0316815260200183815260200180602001828103825283818151815260200191508051906020019080838360005b83811015610f50578181015183820152602001610f38565b50505050905090810190601f168015610f7d5780820380516001836020036101000a031916815260200191505b50945050505050602060405180830381600087803b158015610f9e57600080fd5b505af1158015610fb2573d6000803e3d6000fd5b505050506040513d6020811015610fc857600080fd5b505161100d576040805162461bcd60e51b815260206004820152600f60248201526e1d1c985b9cd9995c97d9985a5b1959608a1b604482015290519081900360640190fd5b6110d7565b6002546040805163a9059cbb60e01b81526001600160a01b038881166004830152602482018690529151919092169163a9059cbb9160448083019260209291908290030181600087803b15801561106857600080fd5b505af115801561107c573d6000803e3d6000fd5b505050506040513d602081101561109257600080fd5b50516110d7576040805162461bcd60e51b815260206004820152600f60248201526e1d1c985b9cd9995c97d9985a5b1959608a1b604482015290519081900360640190fd5b6040805183815290516001600160a01b038716917f48dc35af7b45e2a81fffad55f6e2fafacdb1d3d0d50d24ebdc16324f5ba757f1919081900360200190a2509392505050565b6005546001600160a01b031681565b604080516001600160a01b0392909216600560a21b18601483015260348201905290565b60085481565b6000546001600160a01b031633146111a2576040805162461bcd60e51b815260206004820152600960248201526837b7363ca7bbb732b960b91b604482015290519081900360640190fd5b60016001600160a01b0382166000908152600e602052604090205460ff1660038111156111cb57fe5b141561120f576040805162461bcd60e51b815260206004820152600e60248201526d6a706167656e745f61637469766560901b604482015290519081900360640190fd5b6001600160a01b0381166000818152600e6020526040808220805460ff19166001179055517f10581818fb1ffbfd9ac8500cba931a30c3a57b5e9b7972f2fa0aef002b3fde2b9190a2600c54610ae990600163ffffffff61201516565b6001336000908152600e602052604090205460ff16600381111561128c57fe5b146112d2576040805162461bcd60e51b81526020600482015260116024820152701bdb9b1e529bda5b94185c9d1059d95b9d607a1b604482015290519081900360640190fd5b60005b8151811015610c1b576112fa8282815181106112ed57fe5b6020026020010151611b4d565b6001016112d5565b8061130c33610c25565b1015611356576040805162461bcd60e51b8152602060048201526014602482015273696e73756666696369656e745f62616c616e636560601b604482015290519081900360640190fd5b336000908152600d60205260409020600381015461137a908363ffffffff61201516565b6003820155611389838361206f565b6040805183815290516001600160a01b0385169133917f638ce96e87261f007ef5c0389bb59b90db3e19c42edee859d6b09739d8d79f7f9181900360200190a3505050565b60008061145f6113dc6109a9565b600254604080516370a0823160e01b815230600482015290516001600160a01b03909216916370a0823191602480820192602092909190829003018186803b15801561142757600080fd5b505afa15801561143b573d6000803e3d6000fd5b505050506040513d602081101561145157600080fd5b50519063ffffffff611fcc16565b9050806114705760009150506109ce565b600061149f670de0b6b3a7640000611493600354856120a690919063ffffffff16565b9063ffffffff6120ff16565b905060006114b3838363ffffffff611fcc16565b905060006114cc600a54836120ff90919063ffffffff16565b600b549091506114e2908263ffffffff61201516565b600b556006546114f8908363ffffffff61201516565b60065560085461150e908463ffffffff61201516565b6008556040805185815290517f41b06c6e0a1531dcb4b86d53ec6268666aa12d55775f8e5a63596fc935cdcc229181900360200190a1600a5460408051838152602081019290925280517ff74e10cbd1c87229fe868ed3a35ebea686515293ff04a097409a4e3e089e6cac9281900390910190a16040805184815290517f538d1b2114be2374c7010694167f3db7f2d56f864a4e1555582b9716b7d11c3d9181900360200190a150919250505090565b60005b8151811015610c1b576115e68282815181106115d957fe5b6020026020010151610c59565b6001016115c1565b60075481565b6000546001600160a01b0316331461163f576040805162461bcd60e51b815260206004820152600960248201526837b7363ca7bbb732b960b91b604482015290519081900360640190fd5b670de0b6b3a764000081111561168d576040805162461bcd60e51b815260206004820152600e60248201526d6572726f725f61646d696e46656560901b604482015290519081900360640190fd5b60038190556040805182815290517f11a80b766155f9b8f16a7da44d66269fd694cb1c247f4814244586f68dd534879181900360200190a150565b6000546001600160a01b031681565b600d60205260009081526040902080546001820154600283015460039093015460ff90921692909184565b600c5481565b600080805b845181101561174c5761174361173686838151811061172857fe5b602002602001015186610e58565b839063ffffffff61201516565b5060010161170d565b509392505050565b60095481565b6001600160a01b0381166000908152600d6020526040812081815460ff16600381111561178357fe5b14156117c7576040805162461bcd60e51b815260206004820152600e60248201526d36b2b6b132b92fbab735b737bbb760911b604482015290519081900360640190fd5b6003015492915050565b600254604080516370a0823160e01b815230600482015290516000926001600160a01b0316916370a08231916024808301926020929190829003018186803b15801561181c57600080fd5b505afa158015611830573d6000803e3d6000fd5b505050506040513d602081101561184657600080fd5b5051600254604080516323b872dd60e01b81523360048201523060248201526044810186905290519293506001600160a01b03909116916323b872dd916064808201926020929091908290030181600087803b1580156118a557600080fd5b505af11580156118b9573d6000803e3d6000fd5b505050506040513d60208110156118cf57600080fd5b5051611914576040805162461bcd60e51b815260206004820152600f60248201526e1d1c985b9cd9995c97d9985a5b1959608a1b604482015290519081900360640190fd5b600254604080516370a0823160e01b815230600482015290516000926001600160a01b0316916370a08231916024808301926020929190829003018186803b15801561195f57600080fd5b505afa158015611973573d6000803e3d6000fd5b505050506040513d602081101561198957600080fd5b505190508261199e828463ffffffff611fcc16565b10156119e3576040805162461bcd60e51b815260206004820152600f60248201526e1d1c985b9cd9995c97d9985a5b1959608a1b604482015290519081900360640190fd5b6119ed848461206f565b600654611a00908463ffffffff61201516565b6006556040805184815290516001600160a01b0386169133917f4e018df3c92158645fcf45007db7029d3fa97d269866be2bd4360c5f5a6163e49181900360200190a350505050565b611a51610c42565b15611a8f576040805162461bcd60e51b8152602060048201526009602482015268696e69745f6f6e636560b81b604482015290519081900360640190fd5b60008054336001600160a01b031991821617909155600280549091166001600160a01b038716179055611ac1846115f4565b611aca83610ba0565b600480546001600160a01b039384166001600160a01b03199182161790915560058054928416928216929092179091556000805496909216951694909417909355505050565b60006109cb60085460065461201590919063ffffffff16565b600e6020526000908152604090205460ff1681565b6004546001600160a01b031681565b6001336000908152600e602052604090205460ff166003811115611b6d57fe5b14611bb3576040805162461bcd60e51b81526020600482015260116024820152701bdb9b1e529bda5b94185c9d1059d95b9d607a1b604482015290519081900360640190fd5b6001600160a01b0381166000908152600d602052604090206001815460ff166003811115611bdd57fe5b1415611c28576040805162461bcd60e51b81526020600482015260156024820152746d656d6265725f616c72656164795f61637469766560581b604482015290519081900360640190fd5b805460ff191660019081178255600b546002830155600a54611c4991612015565b600a556040516001600160a01b038316907f0abf3b3f643594d958297062a019458e27d7766629590ac621aa1000fa1298ab90600090a25050565b60035481565b600080611ca4600954600854611fcc90919063ffffffff16565b905080611cb5576000915050610b9b565b600954611cc8908263ffffffff61201516565b6009558215611e27576002546004546000546001600160a01b0392831692634000aea0928116918591611cfb911661112d565b6040518463ffffffff1660e01b815260040180846001600160a01b03166001600160a01b0316815260200183815260200180602001828103825283818151815260200191508051906020019080838360005b83811015611d65578181015183820152602001611d4d565b50505050905090810190601f168015611d925780820380516001836020036101000a031916815260200191505b50945050505050602060405180830381600087803b158015611db357600080fd5b505af1158015611dc7573d6000803e3d6000fd5b505050506040513d6020811015611ddd57600080fd5b5051611e22576040805162461bcd60e51b815260206004820152600f60248201526e1d1c985b9cd9995c97d9985a5b1959608a1b604482015290519081900360640190fd5b611ef3565b600254600080546040805163a9059cbb60e01b81526001600160a01b039283166004820152602481018690529051919093169263a9059cbb9260448083019360209390929083900390910190829087803b158015611e8457600080fd5b505af1158015611e98573d6000803e3d6000fd5b505050506040513d6020811015611eae57600080fd5b5051611ef3576040805162461bcd60e51b815260206004820152600f60248201526e1d1c985b9cd9995c97d9985a5b1959608a1b604482015290519081900360640190fd5b6000546040805183815290516001600160a01b03909216917fcdcaff67ac16639664e5f9343c9223a1dc9c972ec367b69ae9fc1325c7be54749181900360200190a292915050565b6001546001600160a01b031681565b600b5481565b6000546001600160a01b03163314611f9b576040805162461bcd60e51b815260206004820152600960248201526837b7363ca7bbb732b960b91b604482015290519081900360640190fd5b600180546001600160a01b0319166001600160a01b0392909216919091179055565b6002546001600160a01b031681565b600061200e83836040518060400160405280601e81526020017f536166654d6174683a207375627472616374696f6e206f766572666c6f770000815250612141565b9392505050565b60008282018381101561200e576040805162461bcd60e51b815260206004820152601b60248201527f536166654d6174683a206164646974696f6e206f766572666c6f770000000000604482015290519081900360640190fd5b6001600160a01b0382166000908152600d60205260409020600181015461209c908363ffffffff61201516565b6001909101555050565b6000826120b557506000610c3c565b828202828482816120c257fe5b041461200e5760405162461bcd60e51b815260040180806020018281038252602181526020018061223e6021913960400191505060405180910390fd5b600061200e83836040518060400160405280601a81526020017f536166654d6174683a206469766973696f6e206279207a65726f0000000000008152506121d8565b600081848411156121d05760405162461bcd60e51b81526004018080602001828103825283818151815260200191508051906020019080838360005b8381101561219557818101518382015260200161217d565b50505050905090810190601f1680156121c25780820380516001836020036101000a031916815260200191505b509250505060405180910390fd5b505050900390565b600081836122275760405162461bcd60e51b815260206004820181815283516024840152835190928392604490910191908501908083836000831561219557818101518382015260200161217d565b50600083858161223357fe5b049594505050505056fe536166654d6174683a206d756c7469706c69636174696f6e206f766572666c6f77a264697066735822122065679b25581da09047f1da91a144e687423c3fd4c81e9ad10e359105ed0cb11664736f6c63430006060033",
  "immutableReferences": {},
  "source": "pragma solidity ^0.6.0;\n\nimport \"openzeppelin-solidity/contracts/token/ERC20/IERC20.sol\";\nimport \"openzeppelin-solidity/contracts/math/SafeMath.sol\";\nimport \"./Ownable.sol\";\n\ninterface ERC677 is IERC20 {\n    event Transfer(\n        address indexed from,\n        address indexed to,\n        uint256 value,\n        bytes data\n    );\n\n    function transferAndCall(\n        address,\n        uint256,\n        bytes calldata\n    ) external returns (bool);\n}\n\ncontract DataUnionSidechain is Ownable {\n    using SafeMath for uint256;\n\n    //used to describe members and join part agents\n    enum ActiveStatus {None, Active, Inactive, Blocked}\n\n    //emitted by joins/parts\n    event MemberJoined(address indexed);\n    event MemberParted(address indexed);\n    event JoinPartAgentAdded(address indexed);\n    event JoinPartAgentRemoved(address indexed);\n\n    event AdminFeeChanged(uint256 adminFee);\n\n    //emitted when revenue received\n    event RevenueReceived(uint256 amount);\n    event MemberEarn(uint256 per_member_earn, uint256 active_members);\n    event AdminFeeCharged(uint256 amount);\n\n    //emitted by withdrawal\n    event EarningsWithdrawn(address indexed member, uint256 amount);\n    event AdminFeesWithdrawn(address indexed admin, uint256 amount);\n\n    //in-contract transfers\n    event TransferWithinContract(address indexed from, address indexed to, uint amount);\n    event TransferToAddressInContract(address indexed from, address indexed to, uint amount);\n    \n\n    struct MemberInfo {\n        ActiveStatus status;\n        uint256 earnings_before_last_join;\n        uint256 lme_at_join;\n        uint256 withdrawnEarnings;\n    }\n\n    ERC677 public token;\n    uint256 public adminFeeFraction;\n    address public token_mediator;\n    address public mainchain_DU;\n\n/*\n    totalEarnings includes:\n         member earnings (ie revenue - admin fees) \n         tokens held for members via transferToMemberInContract()\n\n    totalRevenue = totalEarnings + totalAdminFees;\n*/\n    uint256 public totalEarnings;\n    uint256 public totalEarningsWithdrawn;\n\n    //only adminFee\n    uint256 public totalAdminFees;\n    uint256 public totalAdminFeesWithdrawn;\n\n    uint256 public active_members;\n    uint256 public lifetime_member_earnings;\n\n    uint256 public join_part_agent_count;\n    mapping(address => MemberInfo) public memberData;\n    mapping(address => ActiveStatus) public joinPartAgents;\n\n    modifier onlyJoinPartAgent() {\n        require(\n            joinPartAgents[msg.sender] == ActiveStatus.Active,\n            \"onlyJoinPartAgent\"\n        );\n        _;\n    }\n\n    //owner set by initialize()\n    constructor() public Ownable(address(0)) {}\n\n    function initialize(\n        address _owner,\n        address token_address,\n        uint256 adminFeeFraction_,\n        address[] memory agents,\n        address _token_mediator,\n        address _mainchain_DU\n    ) public {\n        require(!isInitialized(),\"init_once\");\n        //set owner at the end. caller needs admin to initialize()\n        owner = msg.sender;\n        token = ERC677(token_address);\n        setAdminFee(adminFeeFraction_);\n        addJoinPartAgents(agents);\n        token_mediator = _token_mediator;\n        mainchain_DU = _mainchain_DU;\n        owner = _owner;\n    }\n\n    function isInitialized() public view returns (bool){\n        return address(token) != address(0);\n    }\n\n    function toBytes(address a) public pure returns (bytes memory b) {\n        assembly {\n            let m := mload(0x40)\n            a := and(a, 0xFFFFFFFFFFFFFFFFFFFFFFFFFFFFFFFFFFFFFFFF)\n            mstore(\n                add(m, 20),\n                xor(0x140000000000000000000000000000000000000000, a)\n            )\n            mstore(0x40, add(m, 52))\n            b := m\n        }\n    }\n\n    /**\n     * Admin fee as a fraction of revenue.\n     * Smart contract doesn't use it, it's here just for storing purposes.\n     * @param newAdminFee fixed-point decimal in the same way as ether: 50% === 0.5 ether === \"500000000000000000\"\n     */\n    function setAdminFee(uint256 newAdminFee) public onlyOwner {\n        require(newAdminFee <= 1 ether, \"error_adminFee\");\n        adminFeeFraction = newAdminFee;\n        emit AdminFeeChanged(adminFeeFraction);\n    }\n\n    function addJoinPartAgents(address[] memory agents) public onlyOwner {\n        for (uint256 i = 0; i < agents.length; i++) {\n            addJoinPartAgent(agents[i]);\n        }\n    }\n\n    function addJoinPartAgent(address agent) public onlyOwner {\n        require(joinPartAgents[agent] != ActiveStatus.Active, \"jpagent_active\");\n        joinPartAgents[agent] = ActiveStatus.Active;\n        emit JoinPartAgentAdded(agent);\n        join_part_agent_count = join_part_agent_count.add(1);\n    }\n\n    function removeJoinPartAgent(address agent) public onlyOwner {\n        require(\n            joinPartAgents[agent] == ActiveStatus.Active,\n            \"jpagent_not_active\"\n        );\n        joinPartAgents[agent] = ActiveStatus.Inactive;\n        emit JoinPartAgentRemoved(agent);\n        join_part_agent_count = join_part_agent_count.sub(1);\n    }\n\n    function getEarnings(address member) public view returns (uint256) {\n        MemberInfo storage info = memberData[member];\n        require(info.status != ActiveStatus.None, \"member_unknown\");\n        return\n            info.earnings_before_last_join +\n            (\n                info.status == ActiveStatus.Active\n                    ? lifetime_member_earnings.sub(info.lme_at_join)\n                    : 0\n            );\n    }\n\n    function getWithdrawn(address member) public view returns (uint256) {\n        MemberInfo storage info = memberData[member];\n        require(info.status != ActiveStatus.None, \"member_unknown\");\n        return info.withdrawnEarnings;\n    }\n\n    function getWithdrawableEarnings(address member)\n        public\n        view\n        returns (uint256)\n    {\n        return getEarnings(member).sub(getWithdrawn(member));\n    }\n\n    function addRevenue() public returns (uint256) {\n        // a.sub(b) errors if b > a\n        uint256 amount = token.balanceOf(address(this)).sub(\n            totalWithdrawable()\n        );\n        if (amount == 0) return 0;\n        uint256 adminFee = amount.mul(adminFeeFraction).div(10**18);\n        uint256 memberEarnings = amount.sub(adminFee);\n        uint256 per_member_earn = memberEarnings.div(active_members);\n        lifetime_member_earnings = lifetime_member_earnings.add(\n            per_member_earn\n        );\n        totalEarnings = totalEarnings.add(memberEarnings);\n        totalAdminFees = totalAdminFees.add(adminFee);\n\n        emit RevenueReceived(amount);\n        emit MemberEarn(per_member_earn, active_members);\n        emit AdminFeeCharged(adminFee);\n        return amount;\n    }\n\n    function addMember(address member) public onlyJoinPartAgent {\n        MemberInfo storage info = memberData[member];\n        require(info.status != ActiveStatus.Active, \"member_already_active\");\n        info.status = ActiveStatus.Active;\n        info.lme_at_join = lifetime_member_earnings;\n        active_members = active_members.add(1);\n        emit MemberJoined(member);\n    }\n\n    function partMember(address member) public {\n        require(\n            msg.sender == member ||\n                joinPartAgents[msg.sender] == ActiveStatus.Active,\n            \"access_denied\"\n        );\n        MemberInfo storage info = memberData[member];\n        require(info.status == ActiveStatus.Active, \"member_not_active\");\n        info.earnings_before_last_join = getEarnings(member);\n        info.status = ActiveStatus.Inactive;\n        active_members = active_members.sub(1);\n        emit MemberParted(member);\n    }\n\n    function addMembers(address[] memory members) public onlyJoinPartAgent {\n        for (uint256 i = 0; i < members.length; i++) {\n            addMember(members[i]);\n        }\n    }\n\n    //access checked in partMember\n    function partMembers(address[] memory members) public {\n        for (uint256 i = 0; i < members.length; i++) {\n            partMember(members[i]);\n        }\n    }\n\n    function totalRevenue() public view returns (uint256) {\n        return totalEarnings.add(totalAdminFees);\n    }\n\n    function totalWithdrawable() public view returns (uint256) {\n        return\n            totalRevenue().sub(totalEarningsWithdrawn).sub(\n                totalAdminFeesWithdrawn\n            );\n    }\n\n    /*\n        transfer tokens from outside contract, add to recipient's in-contract balance\n    */\n\n    function transferToMemberInContract(address recipient, uint amount) public {\n        uint bal_before = token.balanceOf(address(this));\n        require(token.transferFrom(msg.sender, address(this), amount), \"transfer_failed\");\n        uint bal_after = token.balanceOf(address(this));\n        require(bal_after.sub(bal_before) >= amount, \"transfer_failed\");\n        _increaseBalance(recipient,  amount);\n        totalEarnings = totalEarnings.add(amount);\n        emit TransferToAddressInContract(msg.sender, recipient,  amount);\n    }\n    /*\n        transfer tokens from sender's in-contract balance to recipient's in-contract balance\n    */\n\n    function transferWithinContract(address recipient, uint amount) public {\n        require(getWithdrawableEarnings(msg.sender) >= amount, \"insufficient_balance\");\n        MemberInfo storage info = memberData[msg.sender];\n        info.withdrawnEarnings = info.withdrawnEarnings.add(amount);\n        _increaseBalance(recipient,  amount);\n        emit TransferWithinContract(msg.sender, recipient, amount);\n     }\n\n    function _increaseBalance(address member, uint amount) internal {\n        MemberInfo storage info = memberData[member];\n        info.earnings_before_last_join = info.earnings_before_last_join.add(amount);\n    }\n\n    function withdrawMembers(address[] memory members, bool sendToMainnet)\n        public\n        returns (uint256)\n    {\n        uint256 withdrawn = 0;\n        for (uint256 i = 0; i < members.length; i++) {\n            withdrawn.add(withdraw(members[i], sendToMainnet));\n        }\n        return withdrawn;\n    }\n\n    function withdraw(address member, bool sendToMainnet)\n        public\n        returns (uint256)\n    {\n        uint256 withdrawable = getWithdrawableEarnings(member);\n        if (withdrawable == 0) return 0;\n        MemberInfo storage info = memberData[member];\n        info.withdrawnEarnings = info.withdrawnEarnings.add(withdrawable);\n        totalEarningsWithdrawn = totalEarningsWithdrawn.add(withdrawable);\n        if (sendToMainnet)\n            require(\n                token.transferAndCall(\n                    token_mediator,\n                    withdrawable,\n                    toBytes(member)\n                ),\n                \"transfer_failed\"\n            );\n        else require(token.transfer(member, withdrawable), \"transfer_failed\");\n        emit EarningsWithdrawn(member, withdrawable);\n        return withdrawable;\n    }\n\n    function withdrawAdminFees(bool sendToMainnet) public returns (uint256) {\n        uint256 withdrawable = totalAdminFees.sub(totalAdminFeesWithdrawn);\n        if (withdrawable == 0) return 0;\n        totalAdminFeesWithdrawn = totalAdminFeesWithdrawn.add(withdrawable);\n        if (sendToMainnet)\n            require(\n                token.transferAndCall(\n                    token_mediator,\n                    withdrawable,\n                    toBytes(owner)\n                ),\n                \"transfer_failed\"\n            );\n        else require(token.transfer(owner, withdrawable), \"transfer_failed\");\n        emit AdminFeesWithdrawn(owner, withdrawable);\n        return withdrawable;\n    }\n}\n",
  "sourcePath": "/home/heynow/streamr/data-union-solidity/contracts/DataUnionSidechain.sol",
  "compiler": {
    "name": "solc",
    "version": "0.6.6+commit.6c089d02.Emscripten.clang"
  },
  "schemaVersion": "3.2.0",
  "updatedAt": "2020-07-31T15:14:02.074Z",
  "devdoc": {
    "methods": {
      "claimOwnership()": {
        "details": "Allows the pendingOwner address to finalize the transfer."
      },
      "setAdminFee(uint256)": {
        "params": {
          "newAdminFee": "fixed-point decimal in the same way as ether: 50% === 0.5 ether === \"500000000000000000\""
        }
      },
      "transferOwnership(address)": {
        "details": "Allows the current owner to set the pendingOwner address.",
        "params": {
          "newOwner": "The address to transfer ownership to."
        }
      }
    }
  },
  "userdoc": {
    "methods": {
      "setAdminFee(uint256)": {
        "notice": "Admin fee as a fraction of revenue. Smart contract doesn't use it, it's here just for storing purposes."
      }
    }
  }
}