{
  "contractName": "DataUnionMainnet",
  "abi": [
    {
      "inputs": [],
      "stateMutability": "nonpayable",
      "type": "constructor"
    },
    {
      "anonymous": false,
      "inputs": [
        {
          "indexed": true,
          "internalType": "address",
          "name": "previousOwner",
          "type": "address"
        },
        {
          "indexed": true,
          "internalType": "address",
          "name": "newOwner",
          "type": "address"
        }
      ],
      "name": "OwnershipTransferred",
      "type": "event"
    },
    {
      "inputs": [],
      "name": "amb",
      "outputs": [
        {
          "internalType": "contract IAMB",
          "name": "",
          "type": "address"
        }
      ],
      "stateMutability": "view",
      "type": "function"
    },
    {
      "inputs": [],
      "name": "claimOwnership",
      "outputs": [],
      "stateMutability": "nonpayable",
      "type": "function"
    },
    {
      "inputs": [],
      "name": "owner",
      "outputs": [
        {
          "internalType": "address",
          "name": "",
          "type": "address"
        }
      ],
      "stateMutability": "view",
      "type": "function"
    },
    {
      "inputs": [],
      "name": "pendingOwner",
      "outputs": [
        {
          "internalType": "address",
          "name": "",
          "type": "address"
        }
      ],
      "stateMutability": "view",
      "type": "function"
    },
    {
      "inputs": [],
      "name": "sidechain_DU",
      "outputs": [
        {
          "internalType": "address",
          "name": "",
          "type": "address"
        }
      ],
      "stateMutability": "view",
      "type": "function"
    },
    {
      "inputs": [],
      "name": "sidechain_maxgas",
      "outputs": [
        {
          "internalType": "uint256",
          "name": "",
          "type": "uint256"
        }
      ],
      "stateMutability": "view",
      "type": "function"
    },
    {
      "inputs": [],
      "name": "token",
      "outputs": [
        {
          "internalType": "contract ERC20",
          "name": "",
          "type": "address"
        }
      ],
      "stateMutability": "view",
      "type": "function"
    },
    {
      "inputs": [],
      "name": "token_mediator",
      "outputs": [
        {
          "internalType": "contract ERC677Receiver",
          "name": "",
          "type": "address"
        }
      ],
      "stateMutability": "view",
      "type": "function"
    },
    {
      "inputs": [],
      "name": "token_sent_to_bridge",
      "outputs": [
        {
          "internalType": "uint256",
          "name": "",
          "type": "uint256"
        }
      ],
      "stateMutability": "view",
      "type": "function"
    },
    {
      "inputs": [
        {
          "internalType": "address",
          "name": "newOwner",
          "type": "address"
        }
      ],
      "name": "transferOwnership",
      "outputs": [],
      "stateMutability": "nonpayable",
      "type": "function"
    },
    {
      "inputs": [],
      "name": "isInitialized",
      "outputs": [
        {
          "internalType": "bool",
          "name": "",
          "type": "bool"
        }
      ],
      "stateMutability": "view",
      "type": "function"
    },
    {
      "inputs": [
        {
          "internalType": "address",
          "name": "_amb",
          "type": "address"
        },
        {
          "internalType": "address",
          "name": "_sidechain_DU",
          "type": "address"
        },
        {
          "internalType": "address",
          "name": "_token",
          "type": "address"
        },
        {
          "internalType": "address",
          "name": "_token_mediator",
          "type": "address"
        },
        {
          "internalType": "uint256",
          "name": "_sidechain_maxgas",
          "type": "uint256"
        }
      ],
      "name": "initialize",
      "outputs": [],
      "stateMutability": "nonpayable",
      "type": "function"
    },
    {
      "inputs": [
        {
          "internalType": "address",
          "name": "member",
          "type": "address"
        }
      ],
      "name": "withdraw",
      "outputs": [],
      "stateMutability": "nonpayable",
      "type": "function"
    },
    {
      "inputs": [
        {
          "internalType": "bytes32",
          "name": "productId",
          "type": "bytes32"
        },
        {
          "internalType": "address",
          "name": "subscriber",
          "type": "address"
        },
        {
          "internalType": "uint256",
          "name": "endTimestamp",
          "type": "uint256"
        },
        {
          "internalType": "uint256",
          "name": "priceDatacoin",
          "type": "uint256"
        },
        {
          "internalType": "uint256",
          "name": "feeDatacoin",
          "type": "uint256"
        }
      ],
      "name": "onPurchase",
      "outputs": [
        {
          "internalType": "bool",
          "name": "accepted",
          "type": "bool"
        }
      ],
      "stateMutability": "nonpayable",
      "type": "function"
    },
    {
      "inputs": [],
      "name": "sendTokensToBridge",
      "outputs": [
        {
          "internalType": "uint256",
          "name": "",
          "type": "uint256"
        }
      ],
      "stateMutability": "nonpayable",
      "type": "function"
    }
  ],
  "bytecode": "0x608060405234801561001057600080fd5b50600080546001600160a01b03191633179055610b9f806100326000396000f3fe608060405234801561001057600080fd5b50600436106100f55760003560e01c80638da5cb5b11610097578063f2fde38b11610066578063f2fde38b146101ea578063f42d22ef14610210578063f7013ef614610218578063fc0c546a1461025e576100f5565b80638da5cb5b146101ca578063c5a8c91f146101d2578063deec742b146101da578063e30c3978146101e2576100f5565b80634a439cc0116100d35780634a439cc0146101545780634e71e0c81461019257806351cff8d91461019c578063692199d4146101c2576100f5565b80631062b39a146100fa5780632efc10071461011e578063392e53cd14610138575b600080fd5b610102610266565b604080516001600160a01b039092168252519081900360200190f35b610126610275565b60408051918252519081900360200190f35b6101406106fa565b604080519115158252519081900360200190f35b610140600480360360a081101561016a57600080fd5b508035906001600160a01b03602082013516906040810135906060810135906080013561070b565b61019a610722565b005b61019a600480360360208110156101b257600080fd5b50356001600160a01b03166107d8565b610126610960565b610102610966565b610102610975565b610126610984565b61010261098a565b61019a6004803603602081101561020057600080fd5b50356001600160a01b0316610999565b610102610a06565b61019a600480360360a081101561022e57600080fd5b506001600160a01b0381358116916020810135821691604082013581169160608101359091169060800135610a15565b610102610af9565b6002546001600160a01b031681565b600754604080516370a0823160e01b8152306004820152905160009283926001600160a01b03909116916370a0823191602480820192602092909190829003018186803b1580156102c557600080fd5b505afa1580156102d9573d6000803e3d6000fd5b505050506040513d60208110156102ef57600080fd5b50519050806103025760009150506106f7565b6007546003546040805163095ea7b360e01b81526001600160a01b0392831660048201526000602482018190529151929093169263095ea7b39260448083019360209383900390910190829087803b15801561035d57600080fd5b505af1158015610371573d6000803e3d6000fd5b505050506040513d602081101561038757600080fd5b50516103cb576040805162461bcd60e51b815260206004820152600e60248201526d185c1c1c9bdd9957d9985a5b195960921b604482015290519081900360640190fd5b6007546003546040805163095ea7b360e01b81526001600160a01b039283166004820152602481018590529051919092169163095ea7b39160448083019260209291908290030181600087803b15801561042457600080fd5b505af1158015610438573d6000803e3d6000fd5b505050506040513d602081101561044e57600080fd5b5051610492576040805162461bcd60e51b815260206004820152600e60248201526d185c1c1c9bdd9957d9985a5b195960921b604482015290519081900360640190fd5b600354600480546040805163ad58bdd160e01b815230938101939093526001600160a01b039182166024840152604483018590525192169163ad58bdd19160648082019260009290919082900301818387803b1580156104f157600080fd5b505af1158015610505573d6000803e3d6000fd5b5050600754604080516370a0823160e01b815230600482015290516001600160a01b0390921693506370a082319250602480820192602092909190829003018186803b15801561055457600080fd5b505afa158015610568573d6000803e3d6000fd5b505050506040513d602081101561057e57600080fd5b5051156105c4576040805162461bcd60e51b815260206004820152600f60248201526e1d1c985b9cd9995c97d9985a5b1959608a1b604482015290519081900360640190fd5b6006546105d7908263ffffffff610b0816565b600655604080516004808252602480830184526020830180516001600160e01b03166371d1ae7560e01b1781526002548354600554965163dc8601b360e01b81526001600160a01b039182169581018681526044820189905260609582019586528751606483015287519798929093169663dc8601b39695899593949390926084019180838360005b83811015610678578181015183820152602001610660565b50505050905090810190601f1680156106a55780820380516001836020036101000a031916815260200191505b50945050505050602060405180830381600087803b1580156106c657600080fd5b505af11580156106da573d6000803e3d6000fd5b505050506040513d60208110156106f057600080fd5b5091925050505b90565b6002546001600160a01b0316151590565b6000610715610275565b5060019695505050505050565b6001546001600160a01b03163314610774576040805162461bcd60e51b815260206004820152601060248201526f37b7363ca832b73234b733a7bbb732b960811b604482015290519081900360640190fd5b600154600080546040516001600160a01b0393841693909116917f8be0079c531659141344cd1fd0a4f28419497f9722a3daafe3b4186f6b6457e091a360018054600080546001600160a01b03199081166001600160a01b03841617909155169055565b6107e06106fa565b610823576040805162461bcd60e51b815260206004820152600f60248201526e1b9bdd17da5b9a5d1a585b1a5e9959608a1b604482015290519081900360640190fd5b604080516001600160a01b038084166024808401919091526001604480850191909152845180850382018152606494850186526020810180516001600160e01b0316635437e40160e01b17815260025460048054600554995163dc8601b360e01b81529088169181018281529581018a9052606096810196875284519881019890985283519398919096169663dc8601b39695899592949293909260849092019180838360005b838110156108e25781810151838201526020016108ca565b50505050905090810190601f16801561090f5780820380516001836020036101000a031916815260200191505b50945050505050602060405180830381600087803b15801561093057600080fd5b505af1158015610944573d6000803e3d6000fd5b505050506040513d602081101561095a57600080fd5b50505050565b60055481565b6000546001600160a01b031681565b6003546001600160a01b031681565b60065481565b6001546001600160a01b031681565b6000546001600160a01b031633146109e4576040805162461bcd60e51b815260206004820152600960248201526837b7363ca7bbb732b960b91b604482015290519081900360640190fd5b600180546001600160a01b0319166001600160a01b0392909216919091179055565b6004546001600160a01b031681565b6000546001600160a01b03163314610a60576040805162461bcd60e51b815260206004820152600960248201526837b7363ca7bbb732b960b91b604482015290519081900360640190fd5b610a686106fa565b15610aa6576040805162461bcd60e51b8152602060048201526009602482015268696e69745f6f6e636560b81b604482015290519081900360640190fd5b600280546001600160a01b039687166001600160a01b0319918216179091556004805495871695821695909517909455600555600780549285169284169290921790915560038054919093169116179055565b6007546001600160a01b031681565b600082820183811015610b62576040805162461bcd60e51b815260206004820152601b60248201527f536166654d6174683a206164646974696f6e206f766572666c6f770000000000604482015290519081900360640190fd5b939250505056fea26469706673582212203e3d9812059075a55a24e4d62752f1c2e5a004b2448ec18d9798d7681479229564736f6c63430006060033",
  "immutableReferences": {},
  "source": "pragma solidity ^0.6.0;\n\nimport \"openzeppelin-solidity/contracts/token/ERC20/ERC20.sol\";\nimport \"openzeppelin-solidity/contracts/math/SafeMath.sol\";\nimport \"./Ownable.sol\";\nimport \"./PurchaseListener.sol\";\n\ninterface IAMB {\n    function messageSender() external view returns (address);\n\n    function maxGasPerTx() external view returns (uint256);\n\n    function transactionHash() external view returns (bytes32);\n\n    function messageId() external view returns (bytes32);\n\n    function messageSourceChainId() external view returns (bytes32);\n\n    function messageCallStatus(bytes32 _messageId) external view returns (bool);\n\n    function failedMessageDataHash(bytes32 _messageId)\n        external\n        view\n        returns (bytes32);\n\n    function failedMessageReceiver(bytes32 _messageId)\n        external\n        view\n        returns (address);\n\n    function failedMessageSender(bytes32 _messageId)\n        external\n        view\n        returns (address);\n\n    function requireToPassMessage(\n        address _contract,\n        bytes calldata _data,\n        uint256 _gas\n    ) external returns (bytes32);\n}\n\ninterface ERC677Receiver {\n    function onTokenTransfer(\n        address _from,\n        uint256 _value,\n        bytes calldata _data\n    ) external returns (bool);\n    function relayTokens(address _from, address _receiver, uint256 _value) external;\n\n}\n\n\ncontract DataUnionMainnet is Ownable {\n    using SafeMath for uint256;\n\n    IAMB public amb;\n    ERC677Receiver public token_mediator;\n    address public sidechain_DU;\n    uint256 public sidechain_maxgas;\n    uint256 public token_sent_to_bridge;\n    ERC20 public token;\n\n    constructor() public Ownable(msg.sender) {}\n\n    function isInitialized() public view returns (bool) {\n        return address(amb) != address(0);\n    }\n\n    function initialize(\n        address _amb,\n        address _sidechain_DU,\n        address _token,\n        address _token_mediator,\n        uint256 _sidechain_maxgas\n    ) public onlyOwner {\n        require(!isInitialized(),\"init_once\");\n        amb = IAMB(_amb);\n        sidechain_DU = _sidechain_DU;\n        sidechain_maxgas = _sidechain_maxgas;\n        token = ERC20(_token);\n        token_mediator = ERC677Receiver(_token_mediator);\n    }\n\n\n    //calls withdraw(member) on home network\n    function withdraw(address member) public {\n        require(isInitialized(), \"not_initialized\");\n        bytes memory data = abi.encodeWithSignature(\n            \"withdraw(address,bool)\",\n            member,\n            true\n        );\n        amb.requireToPassMessage(sidechain_DU, data, sidechain_maxgas);\n    }\n\n    function onPurchase(\n        bytes32 productId,\n        address subscriber,\n        uint256 endTimestamp,\n        uint256 priceDatacoin,\n        uint256 feeDatacoin\n    ) external returns (bool accepted) {\n        sendTokensToBridge();\n        return true;\n    }\n\n    function sendTokensToBridge() public returns (uint256) {\n        uint256 bal = token.balanceOf(address(this));\n        if (bal == 0) return 0;\n        // approve 0 first?\n        require(token.approve(address(token_mediator), 0), \"approve_failed\");\n        require(token.approve(address(token_mediator), bal), \"approve_failed\");\n\n        token_mediator.relayTokens(address(this), sidechain_DU, bal);\n        require(token.balanceOf(address(this)) == 0, \"transfer_failed\");\n        token_sent_to_bridge = token_sent_to_bridge.add(bal);\n        \n        bytes memory data = abi.encodeWithSignature(\"addRevenue()\");\n        amb.requireToPassMessage(sidechain_DU, data, sidechain_maxgas);\n\n        return bal;\n    }\n}\n",
  "sourcePath": "/home/heynow/streamr/data-union-solidity/contracts/DataUnionMainnet.sol",
  "compiler": {
    "name": "solc",
    "version": "0.6.6+commit.6c089d02.Emscripten.clang"
  },
  "schemaVersion": "3.2.0",
  "updatedAt": "2020-07-02T01:15:01.371Z",
  "devdoc": {
    "methods": {
      "claimOwnership()": {
        "details": "Allows the pendingOwner address to finalize the transfer."
      },
      "transferOwnership(address)": {
        "details": "Allows the current owner to set the pendingOwner address.",
        "params": {
          "newOwner": "The address to transfer ownership to."
        }
      }
    }
  },
  "userdoc": {
    "methods": {}
  }
}