{
  "contractName": "DataUnionSidechain",
  "abi": [
    {
      "inputs": [],
      "stateMutability": "nonpayable",
      "type": "constructor"
    },
    {
      "anonymous": false,
      "inputs": [
        {
          "indexed": false,
          "internalType": "uint256",
          "name": "adminFee",
          "type": "uint256"
        }
      ],
      "name": "AdminFeeChanged",
      "type": "event"
    },
    {
      "anonymous": false,
      "inputs": [
        {
          "indexed": false,
          "internalType": "uint256",
          "name": "amount",
          "type": "uint256"
        }
      ],
      "name": "AdminFeeCharged",
      "type": "event"
    },
    {
      "anonymous": false,
      "inputs": [
        {
          "indexed": true,
          "internalType": "address",
          "name": "admin",
          "type": "address"
        },
        {
          "indexed": false,
          "internalType": "uint256",
          "name": "amount",
          "type": "uint256"
        }
      ],
      "name": "AdminFeesWithdrawn",
      "type": "event"
    },
    {
      "anonymous": false,
      "inputs": [
        {
          "indexed": true,
          "internalType": "address",
          "name": "member",
          "type": "address"
        },
        {
          "indexed": false,
          "internalType": "uint256",
          "name": "amount",
          "type": "uint256"
        }
      ],
      "name": "EarningsWithdrawn",
      "type": "event"
    },
    {
      "anonymous": false,
      "inputs": [
        {
          "indexed": true,
          "internalType": "address",
          "name": "",
          "type": "address"
        }
      ],
      "name": "JoinPartAgentAdded",
      "type": "event"
    },
    {
      "anonymous": false,
      "inputs": [
        {
          "indexed": true,
          "internalType": "address",
          "name": "",
          "type": "address"
        }
      ],
      "name": "JoinPartAgentRemoved",
      "type": "event"
    },
    {
      "anonymous": false,
      "inputs": [
        {
          "indexed": false,
          "internalType": "uint256",
          "name": "per_member_earn",
          "type": "uint256"
        },
        {
          "indexed": false,
          "internalType": "uint256",
          "name": "active_members",
          "type": "uint256"
        }
      ],
      "name": "MemberEarn",
      "type": "event"
    },
    {
      "anonymous": false,
      "inputs": [
        {
          "indexed": true,
          "internalType": "address",
          "name": "",
          "type": "address"
        }
      ],
      "name": "MemberJoined",
      "type": "event"
    },
    {
      "anonymous": false,
      "inputs": [
        {
          "indexed": true,
          "internalType": "address",
          "name": "",
          "type": "address"
        }
      ],
      "name": "MemberParted",
      "type": "event"
    },
    {
      "anonymous": false,
      "inputs": [
        {
          "indexed": true,
          "internalType": "address",
          "name": "previousOwner",
          "type": "address"
        },
        {
          "indexed": true,
          "internalType": "address",
          "name": "newOwner",
          "type": "address"
        }
      ],
      "name": "OwnershipTransferred",
      "type": "event"
    },
    {
      "anonymous": false,
      "inputs": [
        {
          "indexed": false,
          "internalType": "uint256",
          "name": "amount",
          "type": "uint256"
        }
      ],
      "name": "RevenueReceived",
      "type": "event"
    },
    {
      "inputs": [],
      "name": "active_members",
      "outputs": [
        {
          "internalType": "uint256",
          "name": "",
          "type": "uint256"
        }
      ],
      "stateMutability": "view",
      "type": "function"
    },
    {
      "inputs": [],
      "name": "adminFeeFraction",
      "outputs": [
        {
          "internalType": "uint256",
          "name": "",
          "type": "uint256"
        }
      ],
      "stateMutability": "view",
      "type": "function"
    },
    {
      "inputs": [],
      "name": "claimOwnership",
      "outputs": [],
      "stateMutability": "nonpayable",
      "type": "function"
    },
    {
      "inputs": [
        {
          "internalType": "address",
          "name": "",
          "type": "address"
        }
      ],
      "name": "joinPartAgents",
      "outputs": [
        {
          "internalType": "enum DataUnionSidechain.ActiveStatus",
          "name": "",
          "type": "uint8"
        }
      ],
      "stateMutability": "view",
      "type": "function"
    },
    {
      "inputs": [],
      "name": "join_part_agent_count",
      "outputs": [
        {
          "internalType": "uint256",
          "name": "",
          "type": "uint256"
        }
      ],
      "stateMutability": "view",
      "type": "function"
    },
    {
      "inputs": [],
      "name": "lifetime_member_earnings",
      "outputs": [
        {
          "internalType": "uint256",
          "name": "",
          "type": "uint256"
        }
      ],
      "stateMutability": "view",
      "type": "function"
    },
    {
      "inputs": [],
      "name": "mainchain_DU",
      "outputs": [
        {
          "internalType": "address",
          "name": "",
          "type": "address"
        }
      ],
      "stateMutability": "view",
      "type": "function"
    },
    {
      "inputs": [
        {
          "internalType": "address",
          "name": "",
          "type": "address"
        }
      ],
      "name": "memberData",
      "outputs": [
        {
          "internalType": "enum DataUnionSidechain.ActiveStatus",
          "name": "status",
          "type": "uint8"
        },
        {
          "internalType": "uint256",
          "name": "earnings_before_last_join",
          "type": "uint256"
        },
        {
          "internalType": "uint256",
          "name": "lme_at_join",
          "type": "uint256"
        },
        {
          "internalType": "uint256",
          "name": "withdrawnEarnings",
          "type": "uint256"
        }
      ],
      "stateMutability": "view",
      "type": "function"
    },
    {
      "inputs": [],
      "name": "owner",
      "outputs": [
        {
          "internalType": "address",
          "name": "",
          "type": "address"
        }
      ],
      "stateMutability": "view",
      "type": "function"
    },
    {
      "inputs": [],
      "name": "pendingOwner",
      "outputs": [
        {
          "internalType": "address",
          "name": "",
          "type": "address"
        }
      ],
      "stateMutability": "view",
      "type": "function"
    },
    {
      "inputs": [],
      "name": "token",
      "outputs": [
        {
          "internalType": "contract ERC677",
          "name": "",
          "type": "address"
        }
      ],
      "stateMutability": "view",
      "type": "function"
    },
    {
      "inputs": [],
      "name": "token_mediator",
      "outputs": [
        {
          "internalType": "address",
          "name": "",
          "type": "address"
        }
      ],
      "stateMutability": "view",
      "type": "function"
    },
    {
      "inputs": [],
      "name": "totalAdminFees",
      "outputs": [
        {
          "internalType": "uint256",
          "name": "",
          "type": "uint256"
        }
      ],
      "stateMutability": "view",
      "type": "function"
    },
    {
      "inputs": [],
      "name": "totalAdminFeesWithdrawn",
      "outputs": [
        {
          "internalType": "uint256",
          "name": "",
          "type": "uint256"
        }
      ],
      "stateMutability": "view",
      "type": "function"
    },
    {
      "inputs": [],
      "name": "totalEarnings",
      "outputs": [
        {
          "internalType": "uint256",
          "name": "",
          "type": "uint256"
        }
      ],
      "stateMutability": "view",
      "type": "function"
    },
    {
      "inputs": [],
      "name": "totalEarningsWithdrawn",
      "outputs": [
        {
          "internalType": "uint256",
          "name": "",
          "type": "uint256"
        }
      ],
      "stateMutability": "view",
      "type": "function"
    },
    {
      "inputs": [
        {
          "internalType": "address",
          "name": "newOwner",
          "type": "address"
        }
      ],
      "name": "transferOwnership",
      "outputs": [],
      "stateMutability": "nonpayable",
      "type": "function"
    },
    {
      "inputs": [
        {
          "internalType": "address",
          "name": "token_address",
          "type": "address"
        },
        {
          "internalType": "uint256",
          "name": "adminFeeFraction_",
          "type": "uint256"
        },
        {
          "internalType": "address[]",
          "name": "agents",
          "type": "address[]"
        },
        {
          "internalType": "address",
          "name": "_token_mediator",
          "type": "address"
        },
        {
          "internalType": "address",
          "name": "_mainchain_DU",
          "type": "address"
        }
      ],
      "name": "initialize",
      "outputs": [],
      "stateMutability": "nonpayable",
      "type": "function"
    },
    {
      "inputs": [],
      "name": "isInitialized",
      "outputs": [
        {
          "internalType": "bool",
          "name": "",
          "type": "bool"
        }
      ],
      "stateMutability": "view",
      "type": "function"
    },
    {
      "inputs": [
        {
          "internalType": "address",
          "name": "a",
          "type": "address"
        }
      ],
      "name": "toBytes",
      "outputs": [
        {
          "internalType": "bytes",
          "name": "b",
          "type": "bytes"
        }
      ],
      "stateMutability": "pure",
      "type": "function"
    },
    {
      "inputs": [
        {
          "internalType": "uint256",
          "name": "newAdminFee",
          "type": "uint256"
        }
      ],
      "name": "setAdminFee",
      "outputs": [],
      "stateMutability": "nonpayable",
      "type": "function"
    },
    {
      "inputs": [
        {
          "internalType": "address[]",
          "name": "agents",
          "type": "address[]"
        }
      ],
      "name": "addJoinPartAgents",
      "outputs": [],
      "stateMutability": "nonpayable",
      "type": "function"
    },
    {
      "inputs": [
        {
          "internalType": "address",
          "name": "agent",
          "type": "address"
        }
      ],
      "name": "addJoinPartAgent",
      "outputs": [],
      "stateMutability": "nonpayable",
      "type": "function"
    },
    {
      "inputs": [
        {
          "internalType": "address",
          "name": "agent",
          "type": "address"
        }
      ],
      "name": "removeJoinPartAgent",
      "outputs": [],
      "stateMutability": "nonpayable",
      "type": "function"
    },
    {
      "inputs": [
        {
          "internalType": "address",
          "name": "member",
          "type": "address"
        }
      ],
      "name": "getEarnings",
      "outputs": [
        {
          "internalType": "uint256",
          "name": "",
          "type": "uint256"
        }
      ],
      "stateMutability": "view",
      "type": "function"
    },
    {
      "inputs": [
        {
          "internalType": "address",
          "name": "member",
          "type": "address"
        }
      ],
      "name": "getWithdrawn",
      "outputs": [
        {
          "internalType": "uint256",
          "name": "",
          "type": "uint256"
        }
      ],
      "stateMutability": "view",
      "type": "function"
    },
    {
      "inputs": [
        {
          "internalType": "address",
          "name": "member",
          "type": "address"
        }
      ],
      "name": "getWithdrawableEarnings",
      "outputs": [
        {
          "internalType": "uint256",
          "name": "",
          "type": "uint256"
        }
      ],
      "stateMutability": "view",
      "type": "function"
    },
    {
      "inputs": [],
      "name": "addRevenue",
      "outputs": [
        {
          "internalType": "uint256",
          "name": "",
          "type": "uint256"
        }
      ],
      "stateMutability": "nonpayable",
      "type": "function"
    },
    {
      "inputs": [
        {
          "internalType": "address",
          "name": "member",
          "type": "address"
        }
      ],
      "name": "addMember",
      "outputs": [],
      "stateMutability": "nonpayable",
      "type": "function"
    },
    {
      "inputs": [
        {
          "internalType": "address",
          "name": "member",
          "type": "address"
        }
      ],
      "name": "partMember",
      "outputs": [],
      "stateMutability": "nonpayable",
      "type": "function"
    },
    {
      "inputs": [
        {
          "internalType": "address[]",
          "name": "members",
          "type": "address[]"
        }
      ],
      "name": "addMembers",
      "outputs": [],
      "stateMutability": "nonpayable",
      "type": "function"
    },
    {
      "inputs": [
        {
          "internalType": "address[]",
          "name": "members",
          "type": "address[]"
        }
      ],
      "name": "partMembers",
      "outputs": [],
      "stateMutability": "nonpayable",
      "type": "function"
    },
    {
      "inputs": [],
      "name": "totalRevenue",
      "outputs": [
        {
          "internalType": "uint256",
          "name": "",
          "type": "uint256"
        }
      ],
      "stateMutability": "view",
      "type": "function"
    },
    {
      "inputs": [],
      "name": "totalWithdrawable",
      "outputs": [
        {
          "internalType": "uint256",
          "name": "",
          "type": "uint256"
        }
      ],
      "stateMutability": "view",
      "type": "function"
    },
    {
      "inputs": [
        {
          "internalType": "address[]",
          "name": "members",
          "type": "address[]"
        },
        {
          "internalType": "bool",
          "name": "sendToMainnet",
          "type": "bool"
        }
      ],
      "name": "withdrawMembers",
      "outputs": [
        {
          "internalType": "uint256",
          "name": "",
          "type": "uint256"
        }
      ],
      "stateMutability": "nonpayable",
      "type": "function"
    },
    {
      "inputs": [
        {
          "internalType": "address",
          "name": "member",
          "type": "address"
        },
        {
          "internalType": "bool",
          "name": "sendToMainnet",
          "type": "bool"
        }
      ],
      "name": "withdraw",
      "outputs": [
        {
          "internalType": "uint256",
          "name": "",
          "type": "uint256"
        }
      ],
      "stateMutability": "nonpayable",
      "type": "function"
    },
    {
      "inputs": [
        {
          "internalType": "bool",
          "name": "sendToMainnet",
          "type": "bool"
        }
      ],
      "name": "withdrawAdminFees",
      "outputs": [
        {
          "internalType": "uint256",
          "name": "",
          "type": "uint256"
        }
      ],
      "stateMutability": "nonpayable",
      "type": "function"
    }
  ],
  "bytecode": "0x608060405234801561001057600080fd5b50600080546001600160a01b03191633179055611ec8806100326000396000f3fe608060405234801561001057600080fd5b50600436106102275760003560e01c80637b30ed4311610130578063bf2d9e0b116100b8578063d7e5487c1161007c578063d7e5487c146108d3578063e30c3978146108f2578063f2de5651146108fa578063f2fde38b14610902578063fc0c546a1461092857610227565b8063bf2d9e0b1461084b578063c44b73a314610853578063c5a8c91f1461089d578063ca6d56dc146108a5578063d35cec40146108cb57610227565b80639107d08e116100ff5780639107d08e14610713578063937e8c7b14610772578063a4d6ddc01461077a578063a913f41d1461081d578063ae66d9481461082557610227565b80637b30ed431461064557806385a21246146106e65780638beb60b6146106ee5780638da5cb5b1461070b57610227565b80634e40ea64116101b3578063593b79fe11610182578063593b79fe146104d357806361feacff1461056e578063662d45a2146105765780636f4d469b1461059c57806371d1ae751461063d57610227565b80634e40ea64146104535780634e71e0c8146104795780635437e4011461048157806354b608a4146104af57610227565b80632c8df86a116101fa5780632c8df86a146103355780632df3eba4146104015780632e0d421214610409578063392e53cd1461042f5780634c2541b81461044b57610227565b80630600a8651461022c57806309a6400b14610246578063131b9c041461026e5780631796621a14610294575b600080fd5b610234610930565b60408051918252519081900360200190f35b61026c6004803603602081101561025c57600080fd5b50356001600160a01b0316610958565b005b6102346004803603602081101561028457600080fd5b50356001600160a01b0316610a76565b61026c600480360360208110156102aa57600080fd5b810190602081018135600160201b8111156102c457600080fd5b8201836020820111156102d657600080fd5b803590602001918460208302840111600160201b831117156102f757600080fd5b919080806020026020016040519081016040528093929190818152602001838360200280828437600092019190915250929550610b27945050505050565b61026c600480360360a081101561034b57600080fd5b6001600160a01b0382351691602081013591810190606081016040820135600160201b81111561037a57600080fd5b82018360208201111561038c57600080fd5b803590602001918460208302840111600160201b831117156103ad57600080fd5b919080806020026020016040519081016040528093929190818152602001838360200280828437600092019190915250929550506001600160a01b038335811694506020909301359092169150610ba69050565b610234610c95565b6102346004803603602081101561041f57600080fd5b50356001600160a01b0316610c9b565b610437610cb8565b604080519115158252519081900360200190f35b610234610cc9565b61026c6004803603602081101561046957600080fd5b50356001600160a01b0316610ccf565b61026c610e18565b6102346004803603604081101561049757600080fd5b506001600160a01b0381351690602001351515610ece565b6104b7611194565b604080516001600160a01b039092168252519081900360200190f35b6104f9600480360360208110156104e957600080fd5b50356001600160a01b03166111a3565b6040805160208082528351818301528351919283929083019185019080838360005b8381101561053357818101518382015260200161051b565b50505050905090810190601f1680156105605780820380516001836020036101000a031916815260200191505b509250505060405180910390f35b6102346111c7565b61026c6004803603602081101561058c57600080fd5b50356001600160a01b03166111cd565b61026c600480360360208110156105b257600080fd5b810190602081018135600160201b8111156105cc57600080fd5b8201836020820111156105de57600080fd5b803590602001918460208302840111600160201b831117156105ff57600080fd5b9190808060200260200160405190810160405280939291908181526020018383602002808284376000920191909152509295506112e2945050505050565b610234611378565b61026c6004803603602081101561065b57600080fd5b810190602081018135600160201b81111561067557600080fd5b82018360208201111561068757600080fd5b803590602001918460208302840111600160201b831117156106a857600080fd5b919080806020026020016040519081016040528093929190818152602001838360200280828437600092019190915250929550611568945050505050565b610234611598565b61026c6004803603602081101561070457600080fd5b503561159e565b6104b7611672565b6107396004803603602081101561072957600080fd5b50356001600160a01b0316611681565b6040518085600381111561074957fe5b60ff16815260200184815260200183815260200182815260200194505050505060405180910390f35b6102346116ac565b6102346004803603604081101561079057600080fd5b810190602081018135600160201b8111156107aa57600080fd5b8201836020820111156107bc57600080fd5b803590602001918460208302840111600160201b831117156107dd57600080fd5b91908080602002602001604051908101604052809392919081815260200183836020028082843760009201919091525092955050505035151590506116b2565b6102346116fe565b6102346004803603602081101561083b57600080fd5b50356001600160a01b0316611704565b61023461177b565b6108796004803603602081101561086957600080fd5b50356001600160a01b0316611794565b6040518082600381111561088957fe5b60ff16815260200191505060405180910390f35b6104b76117a9565b61026c600480360360208110156108bb57600080fd5b50356001600160a01b03166117b8565b6102346118ef565b610234600480360360208110156108e957600080fd5b503515156118f5565b6104b7611ba6565b610234611bb5565b61026c6004803603602081101561091857600080fd5b50356001600160a01b0316611bbb565b6104b7611c28565b600061095260095461094660075461094661177b565b9063ffffffff611c3716565b90505b90565b6000546001600160a01b031633146109a3576040805162461bcd60e51b815260206004820152600960248201526837b7363ca7bbb732b960b91b604482015290519081900360640190fd5b60016001600160a01b0382166000908152600e602052604090205460ff1660038111156109cc57fe5b14610a13576040805162461bcd60e51b81526020600482015260126024820152716a706167656e745f6e6f745f61637469766560701b604482015290519081900360640190fd5b6001600160a01b0381166000818152600e6020526040808220805460ff19166002179055517feac6c7d5a1c157497119a5d4f661d5f23b844c415452ef440ed346bd127d885e9190a2600c54610a7090600163ffffffff611c3716565b600c5550565b6001600160a01b0381166000908152600d6020526040812081815460ff166003811115610a9f57fe5b1415610ae3576040805162461bcd60e51b815260206004820152600e60248201526d36b2b6b132b92fbab735b737bbb760911b604482015290519081900360640190fd5b6001815460ff166003811115610af557fe5b14610b01576000610b18565b6002810154600b54610b189163ffffffff611c3716565b8160010154019150505b919050565b6000546001600160a01b03163314610b72576040805162461bcd60e51b815260206004820152600960248201526837b7363ca7bbb732b960b91b604482015290519081900360640190fd5b60005b8151811015610ba257610b9a828281518110610b8d57fe5b60200260200101516111cd565b600101610b75565b5050565b6000546001600160a01b03163314610bf1576040805162461bcd60e51b815260206004820152600960248201526837b7363ca7bbb732b960b91b604482015290519081900360640190fd5b610bf9610cb8565b15610c37576040805162461bcd60e51b8152602060048201526009602482015268696e69745f6f6e636560b81b604482015290519081900360640190fd5b600280546001600160a01b0319166001600160a01b038716179055610c5b8461159e565b610c6483610b27565b600480546001600160a01b039384166001600160a01b03199182161790915560058054929093169116179055505050565b60065481565b6000610cb2610ca983611704565b61094684610a76565b92915050565b6002546001600160a01b0316151590565b600a5481565b336001600160a01b0382161480610d0357506001336000908152600e602052604090205460ff166003811115610d0157fe5b145b610d44576040805162461bcd60e51b815260206004820152600d60248201526c1858d8d95cdcd7d9195b9a5959609a1b604482015290519081900360640190fd5b6001600160a01b0381166000908152600d602052604090206001815460ff166003811115610d6e57fe5b14610db4576040805162461bcd60e51b81526020600482015260116024820152706d656d6265725f6e6f745f61637469766560781b604482015290519081900360640190fd5b610dbd82610a76565b600182810191909155815460ff19166002178255600a54610ddd91611c37565b600a556040516001600160a01b038316907f7df2bff504799b36cafb9574b3fcfd8432ef4a1fa89d1ba9fe40324501adf5f590600090a25050565b6001546001600160a01b03163314610e6a576040805162461bcd60e51b815260206004820152601060248201526f37b7363ca832b73234b733a7bbb732b960811b604482015290519081900360640190fd5b600154600080546040516001600160a01b0393841693909116917f8be0079c531659141344cd1fd0a4f28419497f9722a3daafe3b4186f6b6457e091a360018054600080546001600160a01b03199081166001600160a01b03841617909155169055565b600080610eda84610c9b565b905080610eeb576000915050610cb2565b6001600160a01b0384166000908152600d602052604090206003810154610f18908363ffffffff611c8016565b6003820155600754610f30908363ffffffff611c8016565b6007558315611088576002546004546001600160a01b0391821691634000aea0911684610f5c896111a3565b6040518463ffffffff1660e01b815260040180846001600160a01b03166001600160a01b0316815260200183815260200180602001828103825283818151815260200191508051906020019080838360005b83811015610fc6578181015183820152602001610fae565b50505050905090810190601f168015610ff35780820380516001836020036101000a031916815260200191505b50945050505050602060405180830381600087803b15801561101457600080fd5b505af1158015611028573d6000803e3d6000fd5b505050506040513d602081101561103e57600080fd5b5051611083576040805162461bcd60e51b815260206004820152600f60248201526e1d1c985b9cd9995c97d9985a5b1959608a1b604482015290519081900360640190fd5b61114d565b6002546040805163a9059cbb60e01b81526001600160a01b038881166004830152602482018690529151919092169163a9059cbb9160448083019260209291908290030181600087803b1580156110de57600080fd5b505af11580156110f2573d6000803e3d6000fd5b505050506040513d602081101561110857600080fd5b505161114d576040805162461bcd60e51b815260206004820152600f60248201526e1d1c985b9cd9995c97d9985a5b1959608a1b604482015290519081900360640190fd5b6040805183815290516001600160a01b038716917f48dc35af7b45e2a81fffad55f6e2fafacdb1d3d0d50d24ebdc16324f5ba757f1919081900360200190a2509392505050565b6005546001600160a01b031681565b604080516001600160a01b0392909216600560a21b18601483015260348201905290565b60085481565b6000546001600160a01b03163314611218576040805162461bcd60e51b815260206004820152600960248201526837b7363ca7bbb732b960b91b604482015290519081900360640190fd5b60016001600160a01b0382166000908152600e602052604090205460ff16600381111561124157fe5b1415611285576040805162461bcd60e51b815260206004820152600e60248201526d6a706167656e745f61637469766560901b604482015290519081900360640190fd5b6001600160a01b0381166000818152600e6020526040808220805460ff19166001179055517f10581818fb1ffbfd9ac8500cba931a30c3a57b5e9b7972f2fa0aef002b3fde2b9190a2600c54610a7090600163ffffffff611c8016565b6001336000908152600e602052604090205460ff16600381111561130257fe5b14611348576040805162461bcd60e51b81526020600482015260116024820152701bdb9b1e529bda5b94185c9d1059d95b9d607a1b604482015290519081900360640190fd5b60005b8151811015610ba25761137082828151811061136357fe5b60200260200101516117b8565b60010161134b565b600080611409611386610930565b600254604080516370a0823160e01b815230600482015290516001600160a01b03909216916370a0823191602480820192602092909190829003018186803b1580156113d157600080fd5b505afa1580156113e5573d6000803e3d6000fd5b505050506040513d60208110156113fb57600080fd5b50519063ffffffff611c3716565b90508061141a576000915050610955565b6000611449670de0b6b3a764000061143d60035485611cda90919063ffffffff16565b9063ffffffff611d3316565b9050600061145d838363ffffffff611c3716565b90506000611476600a5483611d3390919063ffffffff16565b600b5490915061148c908263ffffffff611c8016565b600b556006546114a2908363ffffffff611c8016565b6006556008546114b8908463ffffffff611c8016565b6008556040805185815290517f41b06c6e0a1531dcb4b86d53ec6268666aa12d55775f8e5a63596fc935cdcc229181900360200190a1600a5460408051838152602081019290925280517ff74e10cbd1c87229fe868ed3a35ebea686515293ff04a097409a4e3e089e6cac9281900390910190a16040805184815290517f538d1b2114be2374c7010694167f3db7f2d56f864a4e1555582b9716b7d11c3d9181900360200190a150919250505090565b60005b8151811015610ba25761159082828151811061158357fe5b6020026020010151610ccf565b60010161156b565b60075481565b6000546001600160a01b031633146115e9576040805162461bcd60e51b815260206004820152600960248201526837b7363ca7bbb732b960b91b604482015290519081900360640190fd5b670de0b6b3a7640000811115611637576040805162461bcd60e51b815260206004820152600e60248201526d6572726f725f61646d696e46656560901b604482015290519081900360640190fd5b60038190556040805182815290517f11a80b766155f9b8f16a7da44d66269fd694cb1c247f4814244586f68dd534879181900360200190a150565b6000546001600160a01b031681565b600d60205260009081526040902080546001820154600283015460039093015460ff90921692909184565b600c5481565b600080805b84518110156116f6576116ed6116e08683815181106116d257fe5b602002602001015186610ece565b839063ffffffff611c8016565b506001016116b7565b509392505050565b60095481565b6001600160a01b0381166000908152600d6020526040812081815460ff16600381111561172d57fe5b1415611771576040805162461bcd60e51b815260206004820152600e60248201526d36b2b6b132b92fbab735b737bbb760911b604482015290519081900360640190fd5b6003015492915050565b6000610952600854600654611c8090919063ffffffff16565b600e6020526000908152604090205460ff1681565b6004546001600160a01b031681565b6001336000908152600e602052604090205460ff1660038111156117d857fe5b1461181e576040805162461bcd60e51b81526020600482015260116024820152701bdb9b1e529bda5b94185c9d1059d95b9d607a1b604482015290519081900360640190fd5b6001600160a01b0381166000908152600d602052604090206001815460ff16600381111561184857fe5b1415611893576040805162461bcd60e51b81526020600482015260156024820152746d656d6265725f616c72656164795f61637469766560581b604482015290519081900360640190fd5b805460ff191660019081178255600b546002830155600a546118b491611c80565b600a556040516001600160a01b038316907f0abf3b3f643594d958297062a019458e27d7766629590ac621aa1000fa1298ab90600090a25050565b60035481565b60008061190f600954600854611c3790919063ffffffff16565b905080611920576000915050610b22565b600954611933908263ffffffff611c8016565b6009558215611a92576002546004546000546001600160a01b0392831692634000aea092811691859161196691166111a3565b6040518463ffffffff1660e01b815260040180846001600160a01b03166001600160a01b0316815260200183815260200180602001828103825283818151815260200191508051906020019080838360005b838110156119d05781810151838201526020016119b8565b50505050905090810190601f1680156119fd5780820380516001836020036101000a031916815260200191505b50945050505050602060405180830381600087803b158015611a1e57600080fd5b505af1158015611a32573d6000803e3d6000fd5b505050506040513d6020811015611a4857600080fd5b5051611a8d576040805162461bcd60e51b815260206004820152600f60248201526e1d1c985b9cd9995c97d9985a5b1959608a1b604482015290519081900360640190fd5b611b5e565b600254600080546040805163a9059cbb60e01b81526001600160a01b039283166004820152602481018690529051919093169263a9059cbb9260448083019360209390929083900390910190829087803b158015611aef57600080fd5b505af1158015611b03573d6000803e3d6000fd5b505050506040513d6020811015611b1957600080fd5b5051611b5e576040805162461bcd60e51b815260206004820152600f60248201526e1d1c985b9cd9995c97d9985a5b1959608a1b604482015290519081900360640190fd5b6000546040805183815290516001600160a01b03909216917fcdcaff67ac16639664e5f9343c9223a1dc9c972ec367b69ae9fc1325c7be54749181900360200190a292915050565b6001546001600160a01b031681565b600b5481565b6000546001600160a01b03163314611c06576040805162461bcd60e51b815260206004820152600960248201526837b7363ca7bbb732b960b91b604482015290519081900360640190fd5b600180546001600160a01b0319166001600160a01b0392909216919091179055565b6002546001600160a01b031681565b6000611c7983836040518060400160405280601e81526020017f536166654d6174683a207375627472616374696f6e206f766572666c6f770000815250611d75565b9392505050565b600082820183811015611c79576040805162461bcd60e51b815260206004820152601b60248201527f536166654d6174683a206164646974696f6e206f766572666c6f770000000000604482015290519081900360640190fd5b600082611ce957506000610cb2565b82820282848281611cf657fe5b0414611c795760405162461bcd60e51b8152600401808060200182810382526021815260200180611e726021913960400191505060405180910390fd5b6000611c7983836040518060400160405280601a81526020017f536166654d6174683a206469766973696f6e206279207a65726f000000000000815250611e0c565b60008184841115611e045760405162461bcd60e51b81526004018080602001828103825283818151815260200191508051906020019080838360005b83811015611dc9578181015183820152602001611db1565b50505050905090810190601f168015611df65780820380516001836020036101000a031916815260200191505b509250505060405180910390fd5b505050900390565b60008183611e5b5760405162461bcd60e51b8152602060048201818152835160248401528351909283926044909101919085019080838360008315611dc9578181015183820152602001611db1565b506000838581611e6757fe5b049594505050505056fe536166654d6174683a206d756c7469706c69636174696f6e206f766572666c6f77a2646970667358221220ccac675292d0fc6d7b78c8531fc63ac4a3692800fd35f731cff93a63171a26a864736f6c63430006060033",
  "immutableReferences": {},
  "source": "pragma solidity ^0.6.0;\n\nimport \"openzeppelin-solidity/contracts/token/ERC20/IERC20.sol\";\nimport \"openzeppelin-solidity/contracts/math/SafeMath.sol\";\nimport \"./Ownable.sol\";\n\ninterface ERC677 is IERC20 {\n    event Transfer(\n        address indexed from,\n        address indexed to,\n        uint256 value,\n        bytes data\n    );\n\n    function transferAndCall(\n        address,\n        uint256,\n        bytes calldata\n    ) external returns (bool);\n}\n\ncontract DataUnionSidechain is Ownable {\n    using SafeMath for uint256;\n\n    //used to describe members and join part agents\n    enum ActiveStatus {None, Active, Inactive, Blocked}\n\n    //emitted by joins/parts\n    event MemberJoined(address indexed);\n    event MemberParted(address indexed);\n    event JoinPartAgentAdded(address indexed);\n    event JoinPartAgentRemoved(address indexed);\n\n    event AdminFeeChanged(uint256 adminFee);\n\n    //emitted when revenue received\n    event RevenueReceived(uint256 amount);\n    event MemberEarn(uint256 per_member_earn, uint256 active_members);\n    event AdminFeeCharged(uint256 amount);\n\n    //emitted by withdrawal\n    event EarningsWithdrawn(address indexed member, uint256 amount);\n    event AdminFeesWithdrawn(address indexed admin, uint256 amount);\n\n    struct MemberInfo {\n        ActiveStatus status;\n        uint256 earnings_before_last_join;\n        uint256 lme_at_join;\n        uint256 withdrawnEarnings;\n    }\n\n    ERC677 public token;\n    uint256 public adminFeeFraction;\n    address public token_mediator;\n    address public mainchain_DU;\n\n    //totalRevenue = totalEarnings + totalAdminFees;\n\n    //excluding adminFee:\n    uint256 public totalEarnings;\n    uint256 public totalEarningsWithdrawn;\n\n    //only adminFee\n    uint256 public totalAdminFees;\n    uint256 public totalAdminFeesWithdrawn;\n\n    uint256 public active_members;\n    uint256 public lifetime_member_earnings;\n\n    uint256 public join_part_agent_count;\n    mapping(address => MemberInfo) public memberData;\n    mapping(address => ActiveStatus) public joinPartAgents;\n\n    modifier onlyJoinPartAgent() {\n        require(\n            joinPartAgents[msg.sender] == ActiveStatus.Active,\n            \"onlyJoinPartAgent\"\n        );\n        _;\n    }\n\n    constructor() public Ownable(msg.sender) {}\n\n    function initialize(\n        address token_address,\n        uint256 adminFeeFraction_,\n        address[] memory agents,\n        address _token_mediator,\n        address _mainchain_DU\n    ) public onlyOwner {\n        require(!isInitialized(),\"init_once\");\n        token = ERC677(token_address);\n        setAdminFee(adminFeeFraction_);\n        addJoinPartAgents(agents);\n        token_mediator = _token_mediator;\n        mainchain_DU = _mainchain_DU;\n    }\n\n    function isInitialized() public view returns (bool){\n        return address(token) != address(0);\n    }\n\n    function toBytes(address a) public pure returns (bytes memory b) {\n        assembly {\n            let m := mload(0x40)\n            a := and(a, 0xFFFFFFFFFFFFFFFFFFFFFFFFFFFFFFFFFFFFFFFF)\n            mstore(\n                add(m, 20),\n                xor(0x140000000000000000000000000000000000000000, a)\n            )\n            mstore(0x40, add(m, 52))\n            b := m\n        }\n    }\n\n    /**\n     * Admin fee as a fraction of revenue.\n     * Smart contract doesn't use it, it's here just for storing purposes.\n     * @param newAdminFee fixed-point decimal in the same way as ether: 50% === 0.5 ether === \"500000000000000000\"\n     */\n    function setAdminFee(uint256 newAdminFee) public onlyOwner {\n        require(newAdminFee <= 1 ether, \"error_adminFee\");\n        adminFeeFraction = newAdminFee;\n        emit AdminFeeChanged(adminFeeFraction);\n    }\n\n    function addJoinPartAgents(address[] memory agents) public onlyOwner {\n        for (uint256 i = 0; i < agents.length; i++) {\n            addJoinPartAgent(agents[i]);\n        }\n    }\n\n    function addJoinPartAgent(address agent) public onlyOwner {\n        require(joinPartAgents[agent] != ActiveStatus.Active, \"jpagent_active\");\n        joinPartAgents[agent] = ActiveStatus.Active;\n        emit JoinPartAgentAdded(agent);\n        join_part_agent_count = join_part_agent_count.add(1);\n    }\n\n    function removeJoinPartAgent(address agent) public onlyOwner {\n        require(\n            joinPartAgents[agent] == ActiveStatus.Active,\n            \"jpagent_not_active\"\n        );\n        joinPartAgents[agent] = ActiveStatus.Inactive;\n        emit JoinPartAgentRemoved(agent);\n        join_part_agent_count = join_part_agent_count.sub(1);\n    }\n\n    function getEarnings(address member) public view returns (uint256) {\n        MemberInfo storage info = memberData[member];\n        require(info.status != ActiveStatus.None, \"member_unknown\");\n        return\n            info.earnings_before_last_join +\n            (\n                info.status == ActiveStatus.Active\n                    ? lifetime_member_earnings.sub(info.lme_at_join)\n                    : 0\n            );\n    }\n\n    function getWithdrawn(address member) public view returns (uint256) {\n        MemberInfo storage info = memberData[member];\n        require(info.status != ActiveStatus.None, \"member_unknown\");\n        return info.withdrawnEarnings;\n    }\n\n    function getWithdrawableEarnings(address member)\n        public\n        view\n        returns (uint256)\n    {\n        return getEarnings(member).sub(getWithdrawn(member));\n    }\n\n    function addRevenue() public returns (uint256) {\n        // a.sub(b) errors if b > a\n        uint256 amount = token.balanceOf(address(this)).sub(\n            totalWithdrawable()\n        );\n        if (amount == 0) return 0;\n        uint256 adminFee = amount.mul(adminFeeFraction).div(10**18);\n        uint256 memberEarnings = amount.sub(adminFee);\n        uint256 per_member_earn = memberEarnings.div(active_members);\n        lifetime_member_earnings = lifetime_member_earnings.add(\n            per_member_earn\n        );\n        totalEarnings = totalEarnings.add(memberEarnings);\n        totalAdminFees = totalAdminFees.add(adminFee);\n\n        emit RevenueReceived(amount);\n        emit MemberEarn(per_member_earn, active_members);\n        emit AdminFeeCharged(adminFee);\n        return amount;\n    }\n\n    function addMember(address member) public onlyJoinPartAgent {\n        MemberInfo storage info = memberData[member];\n        require(info.status != ActiveStatus.Active, \"member_already_active\");\n        info.status = ActiveStatus.Active;\n        info.lme_at_join = lifetime_member_earnings;\n        active_members = active_members.add(1);\n        emit MemberJoined(member);\n    }\n\n    function partMember(address member) public {\n        require(\n            msg.sender == member ||\n                joinPartAgents[msg.sender] == ActiveStatus.Active,\n            \"access_denied\"\n        );\n        MemberInfo storage info = memberData[member];\n        require(info.status == ActiveStatus.Active, \"member_not_active\");\n        info.earnings_before_last_join = getEarnings(member);\n        info.status = ActiveStatus.Inactive;\n        active_members = active_members.sub(1);\n        emit MemberParted(member);\n    }\n\n    function addMembers(address[] memory members) public onlyJoinPartAgent {\n        for (uint256 i = 0; i < members.length; i++) {\n            addMember(members[i]);\n        }\n    }\n\n    //access checked in partMember\n    function partMembers(address[] memory members) public {\n        for (uint256 i = 0; i < members.length; i++) {\n            partMember(members[i]);\n        }\n    }\n\n    function totalRevenue() public view returns (uint256) {\n        return totalEarnings.add(totalAdminFees);\n    }\n\n    function totalWithdrawable() public view returns (uint256) {\n        return\n            totalRevenue().sub(totalEarningsWithdrawn).sub(\n                totalAdminFeesWithdrawn\n            );\n    }\n\n    function withdrawMembers(address[] memory members, bool sendToMainnet)\n        public\n        returns (uint256)\n    {\n        uint256 withdrawn = 0;\n        for (uint256 i = 0; i < members.length; i++) {\n            withdrawn.add(withdraw(members[i], sendToMainnet));\n        }\n        return withdrawn;\n    }\n\n    function withdraw(address member, bool sendToMainnet)\n        public\n        returns (uint256)\n    {\n        uint256 withdrawable = getWithdrawableEarnings(member);\n        if (withdrawable == 0) return 0;\n        MemberInfo storage info = memberData[member];\n        info.withdrawnEarnings = info.withdrawnEarnings.add(withdrawable);\n        totalEarningsWithdrawn = totalEarningsWithdrawn.add(withdrawable);\n        if (sendToMainnet)\n            require(\n                token.transferAndCall(\n                    token_mediator,\n                    withdrawable,\n                    toBytes(member)\n                ),\n                \"transfer_failed\"\n            );\n        else require(token.transfer(member, withdrawable), \"transfer_failed\");\n        emit EarningsWithdrawn(member, withdrawable);\n        return withdrawable;\n    }\n\n    function withdrawAdminFees(bool sendToMainnet) public returns (uint256) {\n        uint256 withdrawable = totalAdminFees.sub(totalAdminFeesWithdrawn);\n        if (withdrawable == 0) return 0;\n        totalAdminFeesWithdrawn = totalAdminFeesWithdrawn.add(withdrawable);\n        if (sendToMainnet)\n            require(\n                token.transferAndCall(\n                    token_mediator,\n                    withdrawable,\n                    toBytes(owner)\n                ),\n                \"transfer_failed\"\n            );\n        else require(token.transfer(owner, withdrawable), \"transfer_failed\");\n        emit AdminFeesWithdrawn(owner, withdrawable);\n        return withdrawable;\n    }\n}\n",
  "sourcePath": "/home/heynow/streamr/data-union-solidity/contracts/DataUnionSidechain.sol",
  "compiler": {
    "name": "solc",
    "version": "0.6.6+commit.6c089d02.Emscripten.clang"
  },
  "schemaVersion": "3.2.0",
  "updatedAt": "2020-07-02T01:15:01.396Z",
  "devdoc": {
    "methods": {
      "claimOwnership()": {
        "details": "Allows the pendingOwner address to finalize the transfer."
      },
      "setAdminFee(uint256)": {
        "params": {
          "newAdminFee": "fixed-point decimal in the same way as ether: 50% === 0.5 ether === \"500000000000000000\""
        }
      },
      "transferOwnership(address)": {
        "details": "Allows the current owner to set the pendingOwner address.",
        "params": {
          "newOwner": "The address to transfer ownership to."
        }
      }
    }
  },
  "userdoc": {
    "methods": {
      "setAdminFee(uint256)": {
        "notice": "Admin fee as a fraction of revenue. Smart contract doesn't use it, it's here just for storing purposes."
      }
    }
  }
}