{
  "contractName": "DataUnionSidechain",
  "abi": [
    {
      "inputs": [],
      "stateMutability": "nonpayable",
      "type": "constructor"
    },
    {
      "anonymous": false,
      "inputs": [
        {
          "indexed": false,
          "internalType": "uint256",
          "name": "amount",
          "type": "uint256"
        }
      ],
      "name": "EarningsReceived",
      "type": "event"
    },
    {
      "anonymous": false,
      "inputs": [
        {
          "indexed": true,
          "internalType": "address",
          "name": "member",
          "type": "address"
        },
        {
          "indexed": false,
          "internalType": "uint256",
          "name": "amount",
          "type": "uint256"
        }
      ],
      "name": "EarningsWithdrawn",
      "type": "event"
    },
    {
      "anonymous": false,
      "inputs": [
        {
          "indexed": true,
          "internalType": "address",
          "name": "",
          "type": "address"
        }
      ],
      "name": "JoinPartAgentAdded",
      "type": "event"
    },
    {
      "anonymous": false,
      "inputs": [
        {
          "indexed": true,
          "internalType": "address",
          "name": "",
          "type": "address"
        }
      ],
      "name": "JoinPartAgentRemoved",
      "type": "event"
    },
    {
      "anonymous": false,
      "inputs": [
        {
          "indexed": false,
          "internalType": "uint256",
          "name": "per_member_earn",
          "type": "uint256"
        },
        {
          "indexed": false,
          "internalType": "uint256",
          "name": "active_members",
          "type": "uint256"
        }
      ],
      "name": "MemberEarn",
      "type": "event"
    },
    {
      "anonymous": false,
      "inputs": [
        {
          "indexed": true,
          "internalType": "address",
          "name": "",
          "type": "address"
        }
      ],
      "name": "MemberJoined",
      "type": "event"
    },
    {
      "anonymous": false,
      "inputs": [
        {
          "indexed": true,
          "internalType": "address",
          "name": "",
          "type": "address"
        }
      ],
      "name": "MemberParted",
      "type": "event"
    },
    {
      "anonymous": false,
      "inputs": [
        {
          "indexed": true,
          "internalType": "address",
          "name": "previousOwner",
          "type": "address"
        },
        {
          "indexed": true,
          "internalType": "address",
          "name": "newOwner",
          "type": "address"
        }
      ],
      "name": "OwnershipTransferred",
      "type": "event"
    },
    {
      "anonymous": false,
      "inputs": [
        {
          "indexed": true,
          "internalType": "address",
          "name": "from",
          "type": "address"
        },
        {
          "indexed": true,
          "internalType": "address",
          "name": "to",
          "type": "address"
        },
        {
          "indexed": false,
          "internalType": "uint256",
          "name": "amount",
          "type": "uint256"
        }
      ],
      "name": "TransferToAddressInContract",
      "type": "event"
    },
    {
      "anonymous": false,
      "inputs": [
        {
          "indexed": true,
          "internalType": "address",
          "name": "from",
          "type": "address"
        },
        {
          "indexed": true,
          "internalType": "address",
          "name": "to",
          "type": "address"
        },
        {
          "indexed": false,
          "internalType": "uint256",
          "name": "amount",
          "type": "uint256"
        }
      ],
      "name": "TransferWithinContract",
      "type": "event"
    },
    {
      "inputs": [],
      "name": "active_members",
      "outputs": [
        {
          "internalType": "uint256",
          "name": "",
          "type": "uint256"
        }
      ],
      "stateMutability": "view",
      "type": "function"
    },
    {
      "inputs": [],
      "name": "claimOwnership",
      "outputs": [],
      "stateMutability": "nonpayable",
      "type": "function"
    },
    {
      "inputs": [
        {
          "internalType": "address",
          "name": "",
          "type": "address"
        }
      ],
      "name": "joinPartAgents",
      "outputs": [
        {
          "internalType": "enum DataUnionSidechain.ActiveStatus",
          "name": "",
          "type": "uint8"
        }
      ],
      "stateMutability": "view",
      "type": "function"
    },
    {
      "inputs": [],
      "name": "join_part_agent_count",
      "outputs": [
        {
          "internalType": "uint256",
          "name": "",
          "type": "uint256"
        }
      ],
      "stateMutability": "view",
      "type": "function"
    },
    {
      "inputs": [],
      "name": "lifetime_member_earnings",
      "outputs": [
        {
          "internalType": "uint256",
          "name": "",
          "type": "uint256"
        }
      ],
      "stateMutability": "view",
      "type": "function"
    },
    {
      "inputs": [],
      "name": "mainchain_DU",
      "outputs": [
        {
          "internalType": "address",
          "name": "",
          "type": "address"
        }
      ],
      "stateMutability": "view",
      "type": "function"
    },
    {
      "inputs": [
        {
          "internalType": "address",
          "name": "",
          "type": "address"
        }
      ],
      "name": "memberData",
      "outputs": [
        {
          "internalType": "enum DataUnionSidechain.ActiveStatus",
          "name": "status",
          "type": "uint8"
        },
        {
          "internalType": "uint256",
          "name": "earnings_before_last_join",
          "type": "uint256"
        },
        {
          "internalType": "uint256",
          "name": "lme_at_join",
          "type": "uint256"
        },
        {
          "internalType": "uint256",
          "name": "withdrawnEarnings",
          "type": "uint256"
        }
      ],
      "stateMutability": "view",
      "type": "function"
    },
    {
      "inputs": [],
      "name": "owner",
      "outputs": [
        {
          "internalType": "address",
          "name": "",
          "type": "address"
        }
      ],
      "stateMutability": "view",
      "type": "function"
    },
    {
      "inputs": [],
      "name": "pendingOwner",
      "outputs": [
        {
          "internalType": "address",
          "name": "",
          "type": "address"
        }
      ],
      "stateMutability": "view",
      "type": "function"
    },
    {
      "inputs": [],
      "name": "token",
      "outputs": [
        {
          "internalType": "contract IERC677",
          "name": "",
          "type": "address"
        }
      ],
      "stateMutability": "view",
      "type": "function"
    },
    {
      "inputs": [],
      "name": "token_mediator",
      "outputs": [
        {
          "internalType": "address",
          "name": "",
          "type": "address"
        }
      ],
      "stateMutability": "view",
      "type": "function"
    },
    {
      "inputs": [],
      "name": "totalEarnings",
      "outputs": [
        {
          "internalType": "uint256",
          "name": "",
          "type": "uint256"
        }
      ],
      "stateMutability": "view",
      "type": "function"
    },
    {
      "inputs": [],
      "name": "totalEarningsWithdrawn",
      "outputs": [
        {
          "internalType": "uint256",
          "name": "",
          "type": "uint256"
        }
      ],
      "stateMutability": "view",
      "type": "function"
    },
    {
      "inputs": [
        {
          "internalType": "address",
          "name": "newOwner",
          "type": "address"
        }
      ],
      "name": "transferOwnership",
      "outputs": [],
      "stateMutability": "nonpayable",
      "type": "function"
    },
    {
      "inputs": [
        {
          "internalType": "address",
          "name": "_owner",
          "type": "address"
        },
        {
          "internalType": "address",
          "name": "token_address",
          "type": "address"
        },
        {
          "internalType": "address[]",
          "name": "agents",
          "type": "address[]"
        },
        {
          "internalType": "address",
          "name": "_token_mediator",
          "type": "address"
        },
        {
          "internalType": "address",
          "name": "_mainchain_DU",
          "type": "address"
        }
      ],
      "name": "initialize",
      "outputs": [],
      "stateMutability": "nonpayable",
      "type": "function"
    },
    {
      "inputs": [],
      "name": "isInitialized",
      "outputs": [
        {
          "internalType": "bool",
          "name": "",
          "type": "bool"
        }
      ],
      "stateMutability": "view",
      "type": "function"
    },
    {
      "inputs": [
        {
          "internalType": "address",
          "name": "a",
          "type": "address"
        }
      ],
      "name": "toBytes",
      "outputs": [
        {
          "internalType": "bytes",
          "name": "b",
          "type": "bytes"
        }
      ],
      "stateMutability": "pure",
      "type": "function"
    },
    {
      "inputs": [
        {
          "internalType": "address[]",
          "name": "agents",
          "type": "address[]"
        }
      ],
      "name": "addJoinPartAgents",
      "outputs": [],
      "stateMutability": "nonpayable",
      "type": "function"
    },
    {
      "inputs": [
        {
          "internalType": "address",
          "name": "agent",
          "type": "address"
        }
      ],
      "name": "addJoinPartAgent",
      "outputs": [],
      "stateMutability": "nonpayable",
      "type": "function"
    },
    {
      "inputs": [
        {
          "internalType": "address",
          "name": "agent",
          "type": "address"
        }
      ],
      "name": "removeJoinPartAgent",
      "outputs": [],
      "stateMutability": "nonpayable",
      "type": "function"
    },
    {
      "inputs": [
        {
          "internalType": "address",
          "name": "member",
          "type": "address"
        }
      ],
      "name": "getEarnings",
      "outputs": [
        {
          "internalType": "uint256",
          "name": "",
          "type": "uint256"
        }
      ],
      "stateMutability": "view",
      "type": "function"
    },
    {
      "inputs": [
        {
          "internalType": "address",
          "name": "member",
          "type": "address"
        }
      ],
      "name": "getWithdrawn",
      "outputs": [
        {
          "internalType": "uint256",
          "name": "",
          "type": "uint256"
        }
      ],
      "stateMutability": "view",
      "type": "function"
    },
    {
      "inputs": [
        {
          "internalType": "address",
          "name": "member",
          "type": "address"
        }
      ],
      "name": "getWithdrawableEarnings",
      "outputs": [
        {
          "internalType": "uint256",
          "name": "",
          "type": "uint256"
        }
      ],
      "stateMutability": "view",
      "type": "function"
    },
    {
      "inputs": [],
      "name": "addRevenue",
      "outputs": [
        {
          "internalType": "uint256",
          "name": "",
          "type": "uint256"
        }
      ],
      "stateMutability": "nonpayable",
      "type": "function"
    },
    {
      "inputs": [
        {
          "internalType": "address",
          "name": "member",
          "type": "address"
        }
      ],
      "name": "addMember",
      "outputs": [],
      "stateMutability": "nonpayable",
      "type": "function"
    },
    {
      "inputs": [
        {
          "internalType": "address",
          "name": "member",
          "type": "address"
        }
      ],
      "name": "partMember",
      "outputs": [],
      "stateMutability": "nonpayable",
      "type": "function"
    },
    {
      "inputs": [
        {
          "internalType": "address[]",
          "name": "members",
          "type": "address[]"
        }
      ],
      "name": "addMembers",
      "outputs": [],
      "stateMutability": "nonpayable",
      "type": "function"
    },
    {
      "inputs": [
        {
          "internalType": "address[]",
          "name": "members",
          "type": "address[]"
        }
      ],
      "name": "partMembers",
      "outputs": [],
      "stateMutability": "nonpayable",
      "type": "function"
    },
    {
      "inputs": [],
      "name": "totalWithdrawable",
      "outputs": [
        {
          "internalType": "uint256",
          "name": "",
          "type": "uint256"
        }
      ],
      "stateMutability": "view",
      "type": "function"
    },
    {
      "inputs": [
        {
          "internalType": "address",
          "name": "recipient",
          "type": "address"
        },
        {
          "internalType": "uint256",
          "name": "amount",
          "type": "uint256"
        }
      ],
      "name": "transferToMemberInContract",
      "outputs": [],
      "stateMutability": "nonpayable",
      "type": "function"
    },
    {
      "inputs": [
        {
          "internalType": "address",
          "name": "recipient",
          "type": "address"
        },
        {
          "internalType": "uint256",
          "name": "amount",
          "type": "uint256"
        }
      ],
      "name": "transferWithinContract",
      "outputs": [],
      "stateMutability": "nonpayable",
      "type": "function"
    },
    {
      "inputs": [
        {
          "internalType": "address[]",
          "name": "members",
          "type": "address[]"
        },
        {
          "internalType": "bool",
          "name": "sendToMainnet",
          "type": "bool"
        }
      ],
      "name": "withdrawMembers",
      "outputs": [
        {
          "internalType": "uint256",
          "name": "",
          "type": "uint256"
        }
      ],
      "stateMutability": "nonpayable",
      "type": "function"
    },
    {
      "inputs": [
        {
          "internalType": "address",
          "name": "member",
          "type": "address"
        },
        {
          "internalType": "bool",
          "name": "sendToMainnet",
          "type": "bool"
        }
      ],
      "name": "withdrawAll",
      "outputs": [
        {
          "internalType": "uint256",
          "name": "",
          "type": "uint256"
        }
      ],
      "stateMutability": "nonpayable",
      "type": "function"
    },
    {
      "inputs": [
        {
          "internalType": "address",
          "name": "member",
          "type": "address"
        },
        {
          "internalType": "uint256",
          "name": "amount",
          "type": "uint256"
        },
        {
          "internalType": "bool",
          "name": "sendToMainnet",
          "type": "bool"
        }
      ],
      "name": "withdraw",
      "outputs": [
        {
          "internalType": "uint256",
          "name": "",
          "type": "uint256"
        }
      ],
      "stateMutability": "nonpayable",
      "type": "function"
    },
    {
      "inputs": [
        {
          "internalType": "address",
          "name": "to",
          "type": "address"
        },
        {
          "internalType": "bool",
          "name": "sendToMainnet",
          "type": "bool"
        }
      ],
      "name": "withdrawAllTo",
      "outputs": [
        {
          "internalType": "uint256",
          "name": "",
          "type": "uint256"
        }
      ],
      "stateMutability": "nonpayable",
      "type": "function"
    },
    {
      "inputs": [
        {
          "internalType": "address",
          "name": "to",
          "type": "address"
        },
        {
          "internalType": "uint256",
          "name": "amount",
          "type": "uint256"
        },
        {
          "internalType": "bool",
          "name": "sendToMainnet",
          "type": "bool"
        }
      ],
      "name": "withdrawTo",
      "outputs": [
        {
          "internalType": "uint256",
          "name": "",
          "type": "uint256"
        }
      ],
      "stateMutability": "nonpayable",
      "type": "function"
    },
    {
      "inputs": [
        {
          "internalType": "address",
          "name": "signer",
          "type": "address"
        },
        {
          "internalType": "address",
          "name": "recipient",
          "type": "address"
        },
        {
          "internalType": "uint256",
          "name": "amount",
          "type": "uint256"
        },
        {
          "internalType": "bytes",
          "name": "signature",
          "type": "bytes"
        }
      ],
      "name": "signatureIsValid",
      "outputs": [
        {
          "internalType": "bool",
          "name": "isValid",
          "type": "bool"
        }
      ],
      "stateMutability": "view",
      "type": "function"
    },
    {
      "inputs": [
        {
          "internalType": "address",
          "name": "from_signer",
          "type": "address"
        },
        {
          "internalType": "address",
          "name": "to",
          "type": "address"
        },
        {
          "internalType": "bool",
          "name": "sendToMainnet",
          "type": "bool"
        },
        {
          "internalType": "bytes",
          "name": "signature",
          "type": "bytes"
        }
      ],
      "name": "withdrawAllToSigned",
      "outputs": [
        {
          "internalType": "uint256",
          "name": "withdrawn",
          "type": "uint256"
        }
      ],
      "stateMutability": "nonpayable",
      "type": "function"
    },
    {
      "inputs": [
        {
          "internalType": "address",
          "name": "from_signer",
          "type": "address"
        },
        {
          "internalType": "address",
          "name": "to",
          "type": "address"
        },
        {
          "internalType": "uint256",
          "name": "amount",
          "type": "uint256"
        },
        {
          "internalType": "bool",
          "name": "sendToMainnet",
          "type": "bool"
        },
        {
          "internalType": "bytes",
          "name": "signature",
          "type": "bytes"
        }
      ],
      "name": "withdrawToSigned",
      "outputs": [
        {
          "internalType": "uint256",
          "name": "withdrawn",
          "type": "uint256"
        }
      ],
      "stateMutability": "nonpayable",
      "type": "function"
    }
  ],
  "bytecode": "0x608060405234801561001057600080fd5b50600080546001600160a01b03191690556123e6806100306000396000f3fe608060405234801561001057600080fd5b506004361061023d5760003560e01c806373e2290c1161013b578063b274bcc7116100b8578063e30c39781161007c578063e30c397814610bbf578063ead5d35914610bc7578063f2de565114610bfb578063f2fde38b14610c03578063fc0c546a14610c295761023d565b8063b274bcc714610a55578063c44b73a314610a81578063c5a8c91f14610acb578063ca6d56dc14610ad3578063ce7b786414610af95761023d565b80639107d08e116100ff5780639107d08e14610861578063937e8c7b146108c0578063a2d3cf4b146108c8578063a4d6ddc01461098c578063ae66d94814610a2f5761023d565b806373e2290c146106ac5780637b30ed43146106e057806385a2124614610781578063869e847e146107895780638da5cb5b146108595761023d565b80634bee9137116101c9578063593b79fe1161018d578063593b79fe14610516578063662d45a2146105b15780636f4d469b146105d757806371cdfd681461067857806371d1ae75146106a45761023d565b80634bee91371461048e5780634c2541b8146104bc5780634e40ea64146104c45780634e71e0c8146104ea57806354b608a4146104f25761023d565b80631a79246c116102105780631a79246c1461034b5780632b94411f146104165780632df3eba4146104445780632e0d42121461044c578063392e53cd146104725761023d565b80630600a8651461024257806309a6400b1461025c578063131b9c04146102845780631796621a146102aa575b600080fd5b61024a610c31565b60408051918252519081900360200190f35b6102826004803603602081101561027257600080fd5b50356001600160a01b0316610c50565b005b61024a6004803603602081101561029a57600080fd5b50356001600160a01b0316610d6e565b610282600480360360208110156102c057600080fd5b810190602081018135600160201b8111156102da57600080fd5b8201836020820111156102ec57600080fd5b803590602001918460208302840111600160201b8311171561030d57600080fd5b919080806020026020016040519081016040528093929190818152602001838360200280828437600092019190915250929550610e1d945050505050565b61024a600480360360a081101561036157600080fd5b6001600160a01b038235811692602081013590911691604082013591606081013515159181019060a081016080820135600160201b8111156103a257600080fd5b8201836020820111156103b457600080fd5b803590602001918460018302840111600160201b831117156103d557600080fd5b91908080601f016020809104026020016040519081016040528093929190818152602001838380828437600092019190915250929550610e9c945050505050565b61024a6004803603604081101561042c57600080fd5b506001600160a01b0381351690602001351515610f06565b61024a610f22565b61024a6004803603602081101561046257600080fd5b50356001600160a01b0316610f28565b61047a610f51565b604080519115158252519081900360200190f35b61024a600480360360408110156104a457600080fd5b506001600160a01b0381351690602001351515610f62565b61024a610f7e565b610282600480360360208110156104da57600080fd5b50356001600160a01b0316610f84565b6102826110cd565b6104fa611183565b604080516001600160a01b039092168252519081900360200190f35b61053c6004803603602081101561052c57600080fd5b50356001600160a01b0316611192565b6040805160208082528351818301528351919283929083019185019080838360005b8381101561057657818101518382015260200161055e565b50505050905090810190601f1680156105a35780820380516001836020036101000a031916815260200191505b509250505060405180910390f35b610282600480360360208110156105c757600080fd5b50356001600160a01b03166111b6565b610282600480360360208110156105ed57600080fd5b810190602081018135600160201b81111561060757600080fd5b82018360208201111561061957600080fd5b803590602001918460208302840111600160201b8311171561063a57600080fd5b9190808060200260200160405190810160405280939291908181526020018383602002808284376000920191909152509295506112cb945050505050565b6102826004803603604081101561068e57600080fd5b506001600160a01b038135169060200135611361565b61024a61142d565b61024a600480360360608110156106c257600080fd5b506001600160a01b0381351690602081013590604001351515611595565b610282600480360360208110156106f657600080fd5b810190602081018135600160201b81111561071057600080fd5b82018360208201111561072257600080fd5b803590602001918460208302840111600160201b8311171561074357600080fd5b9190808060200260200160405190810160405280939291908181526020018383602002808284376000920191909152509295506115ab945050505050565b61024a6115db565b610282600480360360a081101561079f57600080fd5b6001600160a01b038235811692602081013590911691810190606081016040820135600160201b8111156107d257600080fd5b8201836020820111156107e457600080fd5b803590602001918460208302840111600160201b8311171561080557600080fd5b919080806020026020016040519081016040528093929190818152602001838360200280828437600092019190915250929550506001600160a01b0383358116945060209093013590921691506115e19050565b6104fa61169e565b6108876004803603602081101561087757600080fd5b50356001600160a01b03166116ad565b6040518085600381111561089757fe5b60ff16815260200184815260200183815260200182815260200194505050505060405180910390f35b61024a6116d8565b61047a600480360360808110156108de57600080fd5b6001600160a01b03823581169260208101359091169160408201359190810190608081016060820135600160201b81111561091857600080fd5b82018360208201111561092a57600080fd5b803590602001918460018302840111600160201b8311171561094b57600080fd5b91908080601f0160208091040260200160405190810160405280939291908181526020018383808284376000920191909152509295506116de945050505050565b61024a600480360360408110156109a257600080fd5b810190602081018135600160201b8111156109bc57600080fd5b8201836020820111156109ce57600080fd5b803590602001918460208302840111600160201b831117156109ef57600080fd5b91908080602002602001604051908101604052809392919081815260200183836020028082843760009201919091525092955050505035151590506118e0565b61024a60048036036020811015610a4557600080fd5b50356001600160a01b0316611924565b61028260048036036040811015610a6b57600080fd5b506001600160a01b03813516906020013561199b565b610aa760048036036020811015610a9757600080fd5b50356001600160a01b0316611c13565b60405180826003811115610ab757fe5b60ff16815260200191505060405180910390f35b6104fa611c28565b61028260048036036020811015610ae957600080fd5b50356001600160a01b0316611c37565b61024a60048036036080811015610b0f57600080fd5b6001600160a01b038235811692602081013590911691604082013515159190810190608081016060820135600160201b811115610b4b57600080fd5b820183602082011115610b5d57600080fd5b803590602001918460018302840111600160201b83111715610b7e57600080fd5b91908080601f016020809104026020016040519081016040528093929190818152602001838380828437600092019190915250929550611d6e945050505050565b6104fa611d8e565b61024a60048036036060811015610bdd57600080fd5b506001600160a01b0381351690602081013590604001351515611d9d565b61024a611e11565b61028260048036036020811015610c1957600080fd5b50356001600160a01b0316611e17565b6104fa611e84565b6000610c4a600654600554611e9390919063ffffffff16565b90505b90565b6000546001600160a01b03163314610c9b576040805162461bcd60e51b815260206004820152600960248201526837b7363ca7bbb732b960b91b604482015290519081900360640190fd5b60016001600160a01b0382166000908152600b602052604090205460ff166003811115610cc457fe5b14610d0b576040805162461bcd60e51b81526020600482015260126024820152716a706167656e745f6e6f745f61637469766560701b604482015290519081900360640190fd5b6001600160a01b0381166000818152600b6020526040808220805460ff19166002179055517feac6c7d5a1c157497119a5d4f661d5f23b844c415452ef440ed346bd127d885e9190a2600954610d6890600163ffffffff611e9316565b60095550565b6001600160a01b0381166000908152600a6020526040812081815460ff166003811115610d9757fe5b1415610ddb576040805162461bcd60e51b815260206004820152600e60248201526d36b2b6b132b92fbab735b737bbb760911b604482015290519081900360640190fd5b6001815460ff166003811115610ded57fe5b14610df9576000610e10565b6002810154600854610e109163ffffffff611e9316565b6001909101540192915050565b6000546001600160a01b03163314610e68576040805162461bcd60e51b815260206004820152600960248201526837b7363ca7bbb732b960b91b604482015290519081900360640190fd5b60005b8151811015610e9857610e90828281518110610e8357fe5b60200260200101516111b6565b600101610e6b565b5050565b6000610eaa868686856116de565b610ef0576040805162461bcd60e51b81526020600482015260126024820152716572726f725f6261645369676e617475726560701b604482015290519081900360640190fd5b610efc86868686611ed5565b9695505050505050565b6000610f1b83610f1533610f28565b84611595565b5092915050565b60055481565b6000610f4b610f3683611924565b610f3f84610d6e565b9063ffffffff611e9316565b92915050565b6002546001600160a01b0316151590565b6000610f7783610f7185610f28565b84611d9d565b9392505050565b60075481565b336001600160a01b0382161480610fb857506001336000908152600b602052604090205460ff166003811115610fb657fe5b145b610ff9576040805162461bcd60e51b815260206004820152600d60248201526c1858d8d95cdcd7d9195b9a5959609a1b604482015290519081900360640190fd5b6001600160a01b0381166000908152600a602052604090206001815460ff16600381111561102357fe5b14611069576040805162461bcd60e51b81526020600482015260116024820152706d656d6265725f6e6f745f61637469766560781b604482015290519081900360640190fd5b61107282610d6e565b600182810191909155815460ff1916600217825560075461109291611e93565b6007556040516001600160a01b038316907f7df2bff504799b36cafb9574b3fcfd8432ef4a1fa89d1ba9fe40324501adf5f590600090a25050565b6001546001600160a01b0316331461111f576040805162461bcd60e51b815260206004820152601060248201526f37b7363ca832b73234b733a7bbb732b960811b604482015290519081900360640190fd5b600154600080546040516001600160a01b0393841693909116917f8be0079c531659141344cd1fd0a4f28419497f9722a3daafe3b4186f6b6457e091a360018054600080546001600160a01b03199081166001600160a01b03841617909155169055565b6004546001600160a01b031681565b604080516001600160a01b0392909216600560a21b18601483015260348201905290565b6000546001600160a01b03163314611201576040805162461bcd60e51b815260206004820152600960248201526837b7363ca7bbb732b960b91b604482015290519081900360640190fd5b60016001600160a01b0382166000908152600b602052604090205460ff16600381111561122a57fe5b141561126e576040805162461bcd60e51b815260206004820152600e60248201526d6a706167656e745f61637469766560901b604482015290519081900360640190fd5b6001600160a01b0381166000818152600b6020526040808220805460ff19166001179055517f10581818fb1ffbfd9ac8500cba931a30c3a57b5e9b7972f2fa0aef002b3fde2b9190a2600954610d6890600163ffffffff6121e116565b6001336000908152600b602052604090205460ff1660038111156112eb57fe5b14611331576040805162461bcd60e51b81526020600482015260116024820152701bdb9b1e529bda5b94185c9d1059d95b9d607a1b604482015290519081900360640190fd5b60005b8151811015610e985761135982828151811061134c57fe5b6020026020010151611c37565b600101611334565b8061136b33610f28565b10156113b5576040805162461bcd60e51b8152602060048201526014602482015273696e73756666696369656e745f62616c616e636560601b604482015290519081900360640190fd5b336000908152600a6020526040902060038101546113d9908363ffffffff6121e116565b60038201556113e8838361223b565b6040805183815290516001600160a01b0385169133917f638ce96e87261f007ef5c0389bb59b90db3e19c42edee859d6b09739d8d79f7f9181900360200190a3505050565b600254604080516370a0823160e01b8152306004820152905160009283926001600160a01b03909116916370a0823191602480820192602092909190829003018186803b15801561147d57600080fd5b505afa158015611491573d6000803e3d6000fd5b505050506040513d60208110156114a757600080fd5b5051905060006114c56114b8610c31565b839063ffffffff611e9316565b9050806114d757600092505050610c4d565b60006114ee6007548361227290919063ffffffff16565b600854909150611504908263ffffffff6121e116565b60085560055461151a908363ffffffff6121e116565b6005556040805183815290517fbb104c0b161692e617f927e07be536dfaf8da7ea7d52ee804c1226a5630bb8bf9181900360200190a160075460408051838152602081019290925280517ff74e10cbd1c87229fe868ed3a35ebea686515293ff04a097409a4e3e089e6cac9281900390910190a15091505090565b60006115a333858585611ed5565b509392505050565b60005b8151811015610e98576115d38282815181106115c657fe5b6020026020010151610f84565b6001016115ae565b60065481565b6115e9610f51565b15611627576040805162461bcd60e51b8152602060048201526009602482015268696e69745f6f6e636560b81b604482015290519081900360640190fd5b60008054336001600160a01b031991821617909155600280549091166001600160a01b03861617905561165983610e1d565b600380546001600160a01b039384166001600160a01b031991821617909155600480549284169282169290921790915560008054959092169416939093179092555050565b6000546001600160a01b031681565b600a60205260009081526040902080546001820154600283015460039093015460ff90921692909184565b60095481565b60008151604114611736576040805162461bcd60e51b815260206004820152601860248201527f6572726f725f6261645369676e61747572654c656e6774680000000000000000604482015290519081900360640190fd5b60208201516040830151606084015160001a601b81101561175557601b015b8060ff16601b148061176a57508060ff16601c145b6117bb576040805162461bcd60e51b815260206004820152601960248201527f6572726f725f6261645369676e617475726556657273696f6e00000000000000604482015290519081900360640190fd5b60008787306117c98c611924565b60405160200180807f19457468657265756d205369676e6564204d6573736167653a0a313034000000815250601d01856001600160a01b03166001600160a01b031660601b8152601401848152602001836001600160a01b03166001600160a01b031660601b8152601401828152602001945050505050604051602081830303815290604052805190602001209050600060018284878760405160008152602001604052604051808581526020018460ff1660ff1681526020018381526020018281526020019450505050506020604051602081039080840390855afa1580156118b7573d6000803e3d6000fd5b5050604051601f1901516001600160a01b038c811691161496505050505050505b949350505050565b600080805b84518110156115a35761191b61190e86838151811061190057fe5b602002602001015186610f62565b839063ffffffff6121e116565b506001016118e5565b6001600160a01b0381166000908152600a6020526040812081815460ff16600381111561194d57fe5b1415611991576040805162461bcd60e51b815260206004820152600e60248201526d36b2b6b132b92fbab735b737bbb760911b604482015290519081900360640190fd5b6003015492915050565b600254604080516370a0823160e01b815230600482015290516000926001600160a01b0316916370a08231916024808301926020929190829003018186803b1580156119e657600080fd5b505afa1580156119fa573d6000803e3d6000fd5b505050506040513d6020811015611a1057600080fd5b5051600254604080516323b872dd60e01b81523360048201523060248201526044810186905290519293506001600160a01b03909116916323b872dd916064808201926020929091908290030181600087803b158015611a6f57600080fd5b505af1158015611a83573d6000803e3d6000fd5b505050506040513d6020811015611a9957600080fd5b5051611ade576040805162461bcd60e51b815260206004820152600f60248201526e1d1c985b9cd9995c97d9985a5b1959608a1b604482015290519081900360640190fd5b600254604080516370a0823160e01b815230600482015290516000926001600160a01b0316916370a08231916024808301926020929190829003018186803b158015611b2957600080fd5b505afa158015611b3d573d6000803e3d6000fd5b505050506040513d6020811015611b5357600080fd5b5051905082611b68828463ffffffff611e9316565b1015611bad576040805162461bcd60e51b815260206004820152600f60248201526e1d1c985b9cd9995c97d9985a5b1959608a1b604482015290519081900360640190fd5b611bb7848461223b565b600554611bca908463ffffffff6121e116565b6005556040805184815290516001600160a01b0386169133917f4e018df3c92158645fcf45007db7029d3fa97d269866be2bd4360c5f5a6163e49181900360200190a350505050565b600b6020526000908152604090205460ff1681565b6003546001600160a01b031681565b6001336000908152600b602052604090205460ff166003811115611c5757fe5b14611c9d576040805162461bcd60e51b81526020600482015260116024820152701bdb9b1e529bda5b94185c9d1059d95b9d607a1b604482015290519081900360640190fd5b6001600160a01b0381166000908152600a602052604090206001815460ff166003811115611cc757fe5b1415611d12576040805162461bcd60e51b81526020600482015260156024820152746d656d6265725f616c72656164795f61637469766560581b604482015290519081900360640190fd5b805460ff1916600190811782556008546002830155600754611d33916121e1565b6007556040516001600160a01b038316907f0abf3b3f643594d958297062a019458e27d7766629590ac621aa1000fa1298ab90600090a25050565b6000611d858585611d7e88610f28565b8686610e9c565b95945050505050565b6001546001600160a01b031681565b6000336001600160a01b0385161480611dc057506000546001600160a01b031633145b611e05576040805162461bcd60e51b81526020600482015260116024820152701c195c9b5a5cdcda5bdb97d9195b9a5959607a1b604482015290519081900360640190fd5b6115a384858585611ed5565b60085481565b6000546001600160a01b03163314611e62576040805162461bcd60e51b815260206004820152600960248201526837b7363ca7bbb732b960b91b604482015290519081900360640190fd5b600180546001600160a01b0319166001600160a01b0392909216919091179055565b6002546001600160a01b031681565b6000610f7783836040518060400160405280601e81526020017f536166654d6174683a207375627472616374696f6e206f766572666c6f7700008152506122b4565b600082611ee4575060006118d8565b611eed85610f28565b831115611f36576040805162461bcd60e51b8152602060048201526012602482015271696e73756666696369656e745f66756e647360701b604482015290519081900360640190fd5b6001600160a01b0385166000908152600a602052604090206003810154611f63908563ffffffff6121e116565b6003820155600654611f7b908563ffffffff6121e116565b60065582156120d3576002546003546001600160a01b0391821691634000aea0911686611fa789611192565b6040518463ffffffff1660e01b815260040180846001600160a01b03166001600160a01b0316815260200183815260200180602001828103825283818151815260200191508051906020019080838360005b83811015612011578181015183820152602001611ff9565b50505050905090810190601f16801561203e5780820380516001836020036101000a031916815260200191505b50945050505050602060405180830381600087803b15801561205f57600080fd5b505af1158015612073573d6000803e3d6000fd5b505050506040513d602081101561208957600080fd5b50516120ce576040805162461bcd60e51b815260206004820152600f60248201526e1d1c985b9cd9995c97d9985a5b1959608a1b604482015290519081900360640190fd5b612198565b6002546040805163a9059cbb60e01b81526001600160a01b038881166004830152602482018890529151919092169163a9059cbb9160448083019260209291908290030181600087803b15801561212957600080fd5b505af115801561213d573d6000803e3d6000fd5b505050506040513d602081101561215357600080fd5b5051612198576040805162461bcd60e51b815260206004820152600f60248201526e1d1c985b9cd9995c97d9985a5b1959608a1b604482015290519081900360640190fd5b6040805185815290516001600160a01b038816917f48dc35af7b45e2a81fffad55f6e2fafacdb1d3d0d50d24ebdc16324f5ba757f1919081900360200190a25091949350505050565b600082820183811015610f77576040805162461bcd60e51b815260206004820152601b60248201527f536166654d6174683a206164646974696f6e206f766572666c6f770000000000604482015290519081900360640190fd5b6001600160a01b0382166000908152600a602052604090206001810154612268908363ffffffff6121e116565b6001909101555050565b6000610f7783836040518060400160405280601a81526020017f536166654d6174683a206469766973696f6e206279207a65726f00000000000081525061234b565b600081848411156123435760405162461bcd60e51b81526004018080602001828103825283818151815260200191508051906020019080838360005b838110156123085781810151838201526020016122f0565b50505050905090810190601f1680156123355780820380516001836020036101000a031916815260200191505b509250505060405180910390fd5b505050900390565b6000818361239a5760405162461bcd60e51b81526020600482018181528351602484015283519092839260449091019190850190808383600083156123085781810151838201526020016122f0565b5060008385816123a657fe5b049594505050505056fea26469706673582212200ec8921e840ec7db18b02fe16918985b886060ce1c504f633fe0c02e2fd62fe664736f6c63430006060033",
  "immutableReferences": {},
  "source": "pragma solidity ^0.6.0;\n\nimport \"openzeppelin-solidity/contracts/math/SafeMath.sol\";\nimport \"openzeppelin-solidity/contracts/token/ERC20/IERC20.sol\";\nimport \"./IERC677.sol\";\nimport \"./Ownable.sol\"; // TODO: switch to \"openzeppelin-solidity/contracts/access/Ownable.sol\";\n\ncontract DataUnionSidechain is Ownable {\n    using SafeMath for uint256;\n\n    //used to describe members and join part agents\n    enum ActiveStatus {None, Active, Inactive, Blocked}\n\n    //emitted by joins/parts\n    event MemberJoined(address indexed);\n    event MemberParted(address indexed);\n    event JoinPartAgentAdded(address indexed);\n    event JoinPartAgentRemoved(address indexed);\n\n\n    //emitted when revenue received\n    event EarningsReceived(uint256 amount);\n    event MemberEarn(uint256 per_member_earn, uint256 active_members);\n\n    //emitted by withdrawal\n    event EarningsWithdrawn(address indexed member, uint256 amount);\n\n    //in-contract transfers\n    event TransferWithinContract(address indexed from, address indexed to, uint amount);\n    event TransferToAddressInContract(address indexed from, address indexed to, uint amount);\n\n\n    struct MemberInfo {\n        ActiveStatus status;\n        uint256 earnings_before_last_join;\n        uint256 lme_at_join;\n        uint256 withdrawnEarnings;\n    }\n\n    IERC677 public token;\n    address public token_mediator;\n    address public mainchain_DU;\n\n    uint256 public totalEarnings;\n    uint256 public totalEarningsWithdrawn;\n\n    uint256 public active_members;\n    uint256 public lifetime_member_earnings;\n\n    uint256 public join_part_agent_count;\n    mapping(address => MemberInfo) public memberData;\n    mapping(address => ActiveStatus) public joinPartAgents;\n\n    modifier onlyJoinPartAgent() {\n        require(\n            joinPartAgents[msg.sender] == ActiveStatus.Active,\n            \"onlyJoinPartAgent\"\n        );\n        _;\n    }\n\n    //owner set by initialize()\n    constructor() public Ownable(address(0)) {}\n\n    function initialize(\n        address _owner,\n        address token_address,\n        address[] memory agents,\n        address _token_mediator,\n        address _mainchain_DU\n    ) public {\n        require(!isInitialized(), \"init_once\");\n        //set owner at the end. caller needs admin to initialize()\n        owner = msg.sender;\n        token = IERC677(token_address);\n        addJoinPartAgents(agents);\n        token_mediator = _token_mediator;\n        mainchain_DU = _mainchain_DU;\n        owner = _owner;\n    }\n\n    function isInitialized() public view returns (bool){\n        return address(token) != address(0);\n    }\n\n    function toBytes(address a) public pure returns (bytes memory b) {\n        assembly {\n            let m := mload(0x40)\n            a := and(a, 0xFFFFFFFFFFFFFFFFFFFFFFFFFFFFFFFFFFFFFFFF)\n            mstore(\n                add(m, 20),\n                xor(0x140000000000000000000000000000000000000000, a)\n            )\n            mstore(0x40, add(m, 52))\n            b := m\n        }\n    }\n\n\n\n    function addJoinPartAgents(address[] memory agents) public onlyOwner {\n        for (uint256 i = 0; i < agents.length; i++) {\n            addJoinPartAgent(agents[i]);\n        }\n    }\n\n    function addJoinPartAgent(address agent) public onlyOwner {\n        require(joinPartAgents[agent] != ActiveStatus.Active, \"jpagent_active\");\n        joinPartAgents[agent] = ActiveStatus.Active;\n        emit JoinPartAgentAdded(agent);\n        join_part_agent_count = join_part_agent_count.add(1);\n    }\n\n    function removeJoinPartAgent(address agent) public onlyOwner {\n        require(\n            joinPartAgents[agent] == ActiveStatus.Active,\n            \"jpagent_not_active\"\n        );\n        joinPartAgents[agent] = ActiveStatus.Inactive;\n        emit JoinPartAgentRemoved(agent);\n        join_part_agent_count = join_part_agent_count.sub(1);\n    }\n\n    function getEarnings(address member) public view returns (uint256) {\n        MemberInfo storage info = memberData[member];\n        require(info.status != ActiveStatus.None, \"member_unknown\");\n        return\n            info.earnings_before_last_join +\n            (\n                info.status == ActiveStatus.Active\n                    ? lifetime_member_earnings.sub(info.lme_at_join)\n                    : 0\n            );\n    }\n\n    function getWithdrawn(address member) public view returns (uint256) {\n        MemberInfo storage info = memberData[member];\n        require(info.status != ActiveStatus.None, \"member_unknown\");\n        return info.withdrawnEarnings;\n    }\n\n    function getWithdrawableEarnings(address member)\n        public\n        view\n        returns (uint256)\n    {\n        return getEarnings(member).sub(getWithdrawn(member));\n    }\n\n    function addRevenue() public returns (uint256) {\n        uint256 balance = token.balanceOf(address(this));\n        uint256 memberEarnings = balance.sub(totalWithdrawable()); // a.sub(b) errors if b > a\n        if (memberEarnings == 0) return 0;\n        uint256 per_member_earn = memberEarnings.div(active_members);\n        lifetime_member_earnings = lifetime_member_earnings.add(\n            per_member_earn\n        );\n        totalEarnings = totalEarnings.add(memberEarnings);\n\n        emit EarningsReceived(memberEarnings);\n        emit MemberEarn(per_member_earn, active_members);\n        return memberEarnings;\n    }\n\n    function addMember(address member) public onlyJoinPartAgent {\n        MemberInfo storage info = memberData[member];\n        require(info.status != ActiveStatus.Active, \"member_already_active\");\n        info.status = ActiveStatus.Active;\n        info.lme_at_join = lifetime_member_earnings;\n        active_members = active_members.add(1);\n        emit MemberJoined(member);\n    }\n\n    function partMember(address member) public {\n        require(\n            msg.sender == member ||\n                joinPartAgents[msg.sender] == ActiveStatus.Active,\n            \"access_denied\"\n        );\n        MemberInfo storage info = memberData[member];\n        require(info.status == ActiveStatus.Active, \"member_not_active\");\n        info.earnings_before_last_join = getEarnings(member);\n        info.status = ActiveStatus.Inactive;\n        active_members = active_members.sub(1);\n        emit MemberParted(member);\n    }\n\n    function addMembers(address[] memory members) public onlyJoinPartAgent {\n        for (uint256 i = 0; i < members.length; i++) {\n            addMember(members[i]);\n        }\n    }\n\n    //access checked in partMember\n    function partMembers(address[] memory members) public {\n        for (uint256 i = 0; i < members.length; i++) {\n            partMember(members[i]);\n        }\n    }\n\n\n    function totalWithdrawable() public view returns (uint256) {\n        return\n            totalEarnings.sub(totalEarningsWithdrawn);\n    }\n\n    /*\n        transfer tokens from outside contract, add to recipient's in-contract balance\n    */\n\n    function transferToMemberInContract(address recipient, uint amount) public {\n        uint bal_before = token.balanceOf(address(this));\n        require(token.transferFrom(msg.sender, address(this), amount), \"transfer_failed\");\n        uint bal_after = token.balanceOf(address(this));\n        require(bal_after.sub(bal_before) >= amount, \"transfer_failed\");\n        _increaseBalance(recipient,  amount);\n        totalEarnings = totalEarnings.add(amount);\n        emit TransferToAddressInContract(msg.sender, recipient,  amount);\n    }\n\n    /**\n     * Transfer tokens from sender's in-contract balance to recipient's in-contract balance\n     * This is done by \"withdrawing\" sender's earnings and crediting them to recipient's unwithdrawn earnings,\n     *   so withdrawnEarnings never decreases for anyone (within this function)\n     * @param recipient whose withdrawable earnings will increase\n     * @param amount how much withdrawable earnings is transferred\n     */\n    function transferWithinContract(address recipient, uint amount) public {\n        require(getWithdrawableEarnings(msg.sender) >= amount, \"insufficient_balance\");\n        MemberInfo storage info = memberData[msg.sender];\n        info.withdrawnEarnings = info.withdrawnEarnings.add(amount);\n        _increaseBalance(recipient,  amount);\n        emit TransferWithinContract(msg.sender, recipient, amount);\n     }\n\n    function _increaseBalance(address member, uint amount) internal {\n        MemberInfo storage info = memberData[member];\n        info.earnings_before_last_join = info.earnings_before_last_join.add(amount);\n    }\n\n    function withdrawMembers(address[] memory members, bool sendToMainnet)\n        public\n        returns (uint256)\n    {\n        uint256 withdrawn = 0;\n        for (uint256 i = 0; i < members.length; i++) {\n            withdrawn.add(withdrawAll(members[i], sendToMainnet));\n        }\n        return withdrawn;\n    }\n    \n    function withdrawAll(address member, bool sendToMainnet)\n        public\n        returns (uint256)\n    {\n        return withdraw(member, getWithdrawableEarnings(member), sendToMainnet);\n    }\n\n    function withdraw(address member, uint amount, bool sendToMainnet)\n        public\n        returns (uint256)\n    {\n        require(msg.sender == member || msg.sender == owner, \"permission_denied\");\n        _withdrawTo(member, member, amount, sendToMainnet);\n    }\n\n    function withdrawAllTo(address to, bool sendToMainnet)\n        public\n        returns (uint256) \n    {\n        withdrawTo(to, getWithdrawableEarnings(msg.sender), sendToMainnet);\n    }\n\n    function withdrawTo(address to, uint amount, bool sendToMainnet)\n        public\n        returns (uint256)\n    {\n        _withdrawTo(msg.sender, to, amount, sendToMainnet);\n    }\n\n    /*\n        internal helper method. does NOT check access. \n    */\n\n    function _withdrawTo(address from, address to, uint amount, bool sendToMainnet)\n        internal\n        returns (uint256)\n    {\n        if (amount == 0) return 0;\n        require(amount <= getWithdrawableEarnings(from), \"insufficient_funds\");\n        MemberInfo storage info = memberData[from];\n        info.withdrawnEarnings = info.withdrawnEarnings.add(amount);\n        totalEarningsWithdrawn = totalEarningsWithdrawn.add(amount);\n        if (sendToMainnet)\n            require(\n                token.transferAndCall(\n                    token_mediator,\n                    amount,\n                    toBytes(to)\n                ),\n                \"transfer_failed\"\n            );\n        else require(token.transfer(to, amount), \"transfer_failed\");\n        emit EarningsWithdrawn(from, amount);\n        return amount;\n    }\n\n\n    /**\n     * Check signature from a member authorizing withdrawing its earnings to another account.\n     * Throws if the signature is badly formatted or doesn't match the given signer and amount.\n     * Signature has parts the act as replay protection:\n     * 1) `address(this)`: signature can't be used for other contracts;\n     * 2) `withdrawn[signer]`: signature only works once (for unspecified amount), and can be \"cancelled\" by sending a withdraw tx.\n     * Generated in Javascript with: `web3.eth.accounts.sign(recipientAddress + amount.toString(16, 64) + contractAddress.slice(2) + withdrawnTokens.toString(16, 64), signerPrivateKey)`,\n     * or for unlimited amount: `web3.eth.accounts.sign(recipientAddress + \"0\".repeat(64) + contractAddress.slice(2) + withdrawnTokens.toString(16, 64), signerPrivateKey)`.\n     * @param signer whose earnings are being withdrawn\n     * @param recipient of the tokens\n     * @param amount how much is authorized for withdraw, or zero for unlimited (withdrawAll)\n     * @param signature byte array from `web3.eth.accounts.sign`\n     * @return isValid true iff signer of the authorization (member whose earnings are going to be withdrawn) matches the signature\n     */\n    function signatureIsValid(address signer, address recipient, uint amount, bytes memory signature) public view returns (bool isValid) {\n        require(signature.length == 65, \"error_badSignatureLength\");\n\n        bytes32 r; bytes32 s; uint8 v;\n        assembly {      // solium-disable-line security/no-inline-assembly\n            r := mload(add(signature, 32))\n            s := mload(add(signature, 64))\n            v := byte(0, mload(add(signature, 96)))\n        }\n        if (v < 27) {\n            v += 27;\n        }\n        require(v == 27 || v == 28, \"error_badSignatureVersion\");\n\n        // When changing the message, remember to double-check that message length is correct!\n        bytes32 messageHash = keccak256(abi.encodePacked(\n            \"\\x19Ethereum Signed Message:\\n104\", recipient, amount, address(this), getWithdrawn(signer)));\n        address calculatedSigner = ecrecover(messageHash, v, r, s);\n\n        return calculatedSigner == signer;\n    }\n    \n    function withdrawAllToSigned(address from_signer, address to, bool sendToMainnet, bytes memory signature) public returns (uint withdrawn){\n        return withdrawToSigned(from_signer, to, getWithdrawableEarnings(from_signer), sendToMainnet, signature);\n    }\n\n    function withdrawToSigned(address from_signer, address to, uint amount, bool sendToMainnet, bytes memory signature) public returns (uint withdrawn){\n        require(signatureIsValid(from_signer, to, amount, signature), \"error_badSignature\");\n        return _withdrawTo(from_signer, to, amount, sendToMainnet);\n    }\n}\n",
  "sourcePath": "/home/heynow/streamr/data-union-solidity/contracts/DataUnionSidechain.sol",
  "compiler": {
    "name": "solc",
    "version": "0.6.6+commit.6c089d02.Emscripten.clang"
  },
  "schemaVersion": "3.2.0",
  "updatedAt": "2020-08-22T11:20:56.382Z",
  "devdoc": {
    "methods": {
      "claimOwnership()": {
        "details": "Allows the pendingOwner address to finalize the transfer."
      },
      "signatureIsValid(address,address,uint256,bytes)": {
        "params": {
          "amount": "how much is authorized for withdraw, or zero for unlimited (withdrawAll)",
          "recipient": "of the tokens",
          "signature": "byte array from `web3.eth.accounts.sign`",
          "signer": "whose earnings are being withdrawn"
        },
        "returns": {
          "isValid": "true iff signer of the authorization (member whose earnings are going to be withdrawn) matches the signature"
        }
      },
      "transferOwnership(address)": {
        "details": "Allows the current owner to set the pendingOwner address.",
        "params": {
          "newOwner": "The address to transfer ownership to."
        }
      },
      "transferWithinContract(address,uint256)": {
        "params": {
          "amount": "how much withdrawable earnings is transferred",
          "recipient": "whose withdrawable earnings will increase"
        }
      }
    }
  },
  "userdoc": {
    "methods": {
      "signatureIsValid(address,address,uint256,bytes)": {
        "notice": "Check signature from a member authorizing withdrawing its earnings to another account. Throws if the signature is badly formatted or doesn't match the given signer and amount. Signature has parts the act as replay protection: 1) `address(this)`: signature can't be used for other contracts; 2) `withdrawn[signer]`: signature only works once (for unspecified amount), and can be \"cancelled\" by sending a withdraw tx. Generated in Javascript with: `web3.eth.accounts.sign(recipientAddress + amount.toString(16, 64) + contractAddress.slice(2) + withdrawnTokens.toString(16, 64), signerPrivateKey)`, or for unlimited amount: `web3.eth.accounts.sign(recipientAddress + \"0\".repeat(64) + contractAddress.slice(2) + withdrawnTokens.toString(16, 64), signerPrivateKey)`."
      },
      "transferWithinContract(address,uint256)": {
        "notice": "Transfer tokens from sender's in-contract balance to recipient's in-contract balance This is done by \"withdrawing\" sender's earnings and crediting them to recipient's unwithdrawn earnings,  so withdrawnEarnings never decreases for anyone (within this function)"
      }
    }
  }
}