{
  "contractName": "DataUnionMainnet",
  "abi": [
    {
      "inputs": [],
      "stateMutability": "nonpayable",
      "type": "constructor"
    },
    {
      "anonymous": false,
      "inputs": [
        {
          "indexed": false,
          "internalType": "uint256",
          "name": "adminFee",
          "type": "uint256"
        }
      ],
      "name": "AdminFeeChanged",
      "type": "event"
    },
    {
      "anonymous": false,
      "inputs": [
        {
          "indexed": false,
          "internalType": "uint256",
          "name": "amount",
          "type": "uint256"
        }
      ],
      "name": "AdminFeeCharged",
      "type": "event"
    },
    {
      "anonymous": false,
      "inputs": [
        {
          "indexed": true,
          "internalType": "address",
          "name": "admin",
          "type": "address"
        },
        {
          "indexed": false,
          "internalType": "uint256",
          "name": "amount",
          "type": "uint256"
        }
      ],
      "name": "AdminFeesWithdrawn",
      "type": "event"
    },
    {
      "anonymous": false,
      "inputs": [
        {
          "indexed": true,
          "internalType": "address",
          "name": "previousOwner",
          "type": "address"
        },
        {
          "indexed": true,
          "internalType": "address",
          "name": "newOwner",
          "type": "address"
        }
      ],
      "name": "OwnershipTransferred",
      "type": "event"
    },
    {
      "anonymous": false,
      "inputs": [
        {
          "indexed": false,
          "internalType": "uint256",
          "name": "amount",
          "type": "uint256"
        }
      ],
      "name": "RevenueReceived",
      "type": "event"
    },
    {
      "inputs": [],
      "name": "adminFeeFraction",
      "outputs": [
        {
          "internalType": "uint256",
          "name": "",
          "type": "uint256"
        }
      ],
      "stateMutability": "view",
      "type": "function"
    },
    {
      "inputs": [],
      "name": "amb",
      "outputs": [
        {
          "internalType": "contract IAMB",
          "name": "",
          "type": "address"
        }
      ],
      "stateMutability": "view",
      "type": "function"
    },
    {
      "inputs": [],
      "name": "autoSendAdminFee",
      "outputs": [
        {
          "internalType": "bool",
          "name": "",
          "type": "bool"
        }
      ],
      "stateMutability": "view",
      "type": "function"
    },
    {
      "inputs": [],
      "name": "claimOwnership",
      "outputs": [],
      "stateMutability": "nonpayable",
      "type": "function"
    },
    {
      "inputs": [],
      "name": "owner",
      "outputs": [
        {
          "internalType": "address",
          "name": "",
          "type": "address"
        }
      ],
      "stateMutability": "view",
      "type": "function"
    },
    {
      "inputs": [],
      "name": "pendingOwner",
      "outputs": [
        {
          "internalType": "address",
          "name": "",
          "type": "address"
        }
      ],
      "stateMutability": "view",
      "type": "function"
    },
    {
      "inputs": [],
      "name": "sidechain_DU_factory",
      "outputs": [
        {
          "internalType": "address",
          "name": "",
          "type": "address"
        }
      ],
      "stateMutability": "view",
      "type": "function"
    },
    {
      "inputs": [],
      "name": "sidechain_maxgas",
      "outputs": [
        {
          "internalType": "uint256",
          "name": "",
          "type": "uint256"
        }
      ],
      "stateMutability": "view",
      "type": "function"
    },
    {
      "inputs": [],
      "name": "sidechain_template_DU",
      "outputs": [
        {
          "internalType": "address",
          "name": "",
          "type": "address"
        }
      ],
      "stateMutability": "view",
      "type": "function"
    },
    {
      "inputs": [],
      "name": "token",
      "outputs": [
        {
          "internalType": "contract ERC20",
          "name": "",
          "type": "address"
        }
      ],
      "stateMutability": "view",
      "type": "function"
    },
    {
      "inputs": [],
      "name": "token_mediator",
      "outputs": [
        {
          "internalType": "contract ITokenMediator",
          "name": "",
          "type": "address"
        }
      ],
      "stateMutability": "view",
      "type": "function"
    },
    {
      "inputs": [],
      "name": "totalAdminFees",
      "outputs": [
        {
          "internalType": "uint256",
          "name": "",
          "type": "uint256"
        }
      ],
      "stateMutability": "view",
      "type": "function"
    },
    {
      "inputs": [],
      "name": "totalAdminFeesWithdrawn",
      "outputs": [
        {
          "internalType": "uint256",
          "name": "",
          "type": "uint256"
        }
      ],
      "stateMutability": "view",
      "type": "function"
    },
    {
      "inputs": [],
      "name": "totalEarnings",
      "outputs": [
        {
          "internalType": "uint256",
          "name": "",
          "type": "uint256"
        }
      ],
      "stateMutability": "view",
      "type": "function"
    },
    {
      "inputs": [],
      "name": "totalMemberEarnings",
      "outputs": [
        {
          "internalType": "uint256",
          "name": "",
          "type": "uint256"
        }
      ],
      "stateMutability": "view",
      "type": "function"
    },
    {
      "inputs": [
        {
          "internalType": "address",
          "name": "newOwner",
          "type": "address"
        }
      ],
      "name": "transferOwnership",
      "outputs": [],
      "stateMutability": "nonpayable",
      "type": "function"
    },
    {
      "inputs": [
        {
          "internalType": "address",
          "name": "_token_mediator",
          "type": "address"
        },
        {
          "internalType": "address",
          "name": "_sidechain_DU_factory",
          "type": "address"
        },
        {
          "internalType": "uint256",
          "name": "_sidechain_maxgas",
          "type": "uint256"
        },
        {
          "internalType": "address",
          "name": "_sidechain_template_DU",
          "type": "address"
        },
        {
          "internalType": "address",
          "name": "_owner",
          "type": "address"
        },
        {
          "internalType": "uint256",
          "name": "_adminFeeFraction",
          "type": "uint256"
        },
        {
          "internalType": "address[]",
          "name": "agents",
          "type": "address[]"
        }
      ],
      "name": "initialize",
      "outputs": [],
      "stateMutability": "nonpayable",
      "type": "function"
    },
    {
      "inputs": [],
      "name": "isInitialized",
      "outputs": [
        {
          "internalType": "bool",
          "name": "",
          "type": "bool"
        }
      ],
      "stateMutability": "view",
      "type": "function"
    },
    {
      "inputs": [
        {
          "internalType": "uint256",
          "name": "newAdminFee",
          "type": "uint256"
        }
      ],
      "name": "setAdminFee",
      "outputs": [],
      "stateMutability": "nonpayable",
      "type": "function"
    },
    {
      "inputs": [
        {
          "internalType": "address[]",
          "name": "agents",
          "type": "address[]"
        }
      ],
      "name": "deployNewDUSidechain",
      "outputs": [],
      "stateMutability": "nonpayable",
      "type": "function"
    },
    {
      "inputs": [],
      "name": "sidechainAddress",
      "outputs": [
        {
          "internalType": "address",
          "name": "proxy",
          "type": "address"
        }
      ],
      "stateMutability": "view",
      "type": "function"
    },
    {
      "inputs": [
        {
          "internalType": "bytes32",
          "name": "",
          "type": "bytes32"
        },
        {
          "internalType": "address",
          "name": "",
          "type": "address"
        },
        {
          "internalType": "uint256",
          "name": "",
          "type": "uint256"
        },
        {
          "internalType": "uint256",
          "name": "",
          "type": "uint256"
        },
        {
          "internalType": "uint256",
          "name": "",
          "type": "uint256"
        }
      ],
      "name": "onPurchase",
      "outputs": [
        {
          "internalType": "bool",
          "name": "accepted",
          "type": "bool"
        }
      ],
      "stateMutability": "nonpayable",
      "type": "function"
    },
    {
      "inputs": [],
      "name": "adminFeesWithdrawable",
      "outputs": [
        {
          "internalType": "uint256",
          "name": "",
          "type": "uint256"
        }
      ],
      "stateMutability": "view",
      "type": "function"
    },
    {
      "inputs": [],
      "name": "sendTokensToBridge",
      "outputs": [
        {
          "internalType": "uint256",
          "name": "",
          "type": "uint256"
        }
      ],
      "stateMutability": "nonpayable",
      "type": "function"
    },
    {
      "inputs": [],
      "name": "withdrawAdminFees",
      "outputs": [
        {
          "internalType": "uint256",
          "name": "",
          "type": "uint256"
        }
      ],
      "stateMutability": "nonpayable",
      "type": "function"
    }
  ],
  "bytecode": "0x6080604052600c805460ff1916600117905534801561001d57600080fd5b50600080546001600160a01b031916905561148e8061003d6000396000f3fe608060405234801561001057600080fd5b50600436106101735760003560e01c80638da5cb5b116100de578063d35cec4011610097578063ee5fa36f11610071578063ee5fa36f1461034a578063f2fde38b14610352578063f658af4514610378578063fc0c546a1461045157610173565b8063d35cec4014610332578063e22ec1121461033a578063e30c39781461034257610173565b80638da5cb5b1461026757806399dd1c811461026f5780639eeba07c14610312578063a65c87d91461031a578063a913f41d14610322578063c5a8c91f1461032a57610173565b8063392e53cd11610130578063392e53cd146101d65780634a439cc0146101f25780634e71e0c81461023057806361feacff1461023a578063692199d4146102425780638beb60b61461024a57610173565b80630419b45a146101785780631062b39a1461019257806313fd3c56146101b65780632df3eba4146101be5780632efc1007146101c657806337b43a94146101ce575b600080fd5b610180610459565b60408051918252519081900360200190f35b61019a6105ae565b604080516001600160a01b039092168252519081900360200190f35b6101806105bd565b6101806105db565b6101806105e1565b61019a610a8f565b6101de610aaf565b604080519115158252519081900360200190f35b6101de600480360360a081101561020857600080fd5b508035906001600160a01b036020820135169060408101359060608101359060800135610ac0565b610238610ad7565b005b610180610b8d565b610180610b93565b6102386004803603602081101561026057600080fd5b5035610b99565b61019a610c6d565b6102386004803603602081101561028557600080fd5b8101906020810181356401000000008111156102a057600080fd5b8201836020820111156102b257600080fd5b803590602001918460208302840111640100000000831117156102d457600080fd5b919080806020026020016040519081016040528093929190818152602001838360200280828437600092019190915250929550610c7c945050505050565b6101de610e20565b61019a610e29565b610180610e38565b61019a610e3e565b610180610e4d565b61019a610e53565b61019a610e62565b610180610e71565b6102386004803603602081101561036857600080fd5b50356001600160a01b0316610e77565b610238600480360360e081101561038e57600080fd5b6001600160a01b0382358116926020810135821692604082013592606083013581169260808101359091169160a0820135919081019060e0810160c08201356401000000008111156103df57600080fd5b8201836020820111156103f157600080fd5b8035906020019184602083028401116401000000008311171561041357600080fd5b919080806020026020016040519081016040528093929190818152602001838360200280828437600092019190915250929550610ee4945050505050565b61019a61109e565b600080610473600b54600a546110ad90919063ffffffff16565b9050806104845760009150506105ab565b600b54610497908263ffffffff6110f816565b600b55600654600080546040805163a9059cbb60e01b81526001600160a01b039283166004820152602481018690529051919093169263a9059cbb9260448083019360209390929083900390910190829087803b1580156104f757600080fd5b505af115801561050b573d6000803e3d6000fd5b505050506040513d602081101561052157600080fd5b5051610566576040805162461bcd60e51b815260206004820152600f60248201526e1d1c985b9cd9995c97d9985a5b1959608a1b604482015290519081900360640190fd5b6000546040805183815290516001600160a01b03909216917fcdcaff67ac16639664e5f9343c9223a1dc9c972ec367b69ae9fc1325c7be54749181900360200190a290505b90565b6002546001600160a01b031681565b60006105d6600b54600a546110ad90919063ffffffff16565b905090565b600d5481565b6000806105ec611152565b9050806105fd5760009150506105ab565b6040805182815290517f41b06c6e0a1531dcb4b86d53ec6268666aa12d55775f8e5a63596fc935cdcc229181900360200190a1600061065f670de0b6b3a7640000610653600854856111e290919063ffffffff16565b9063ffffffff61123b16565b90506000610673838363ffffffff6110ad16565b600a54909150610689908363ffffffff6110f816565b506040805183815290517f538d1b2114be2374c7010694167f3db7f2d56f864a4e1555582b9716b7d11c3d9181900360200190a1600c5460ff16156106d2576106d0610459565b505b6006546003546040805163095ea7b360e01b81526001600160a01b0392831660048201526000602482018190529151929093169263095ea7b39260448083019360209383900390910190829087803b15801561072d57600080fd5b505af1158015610741573d6000803e3d6000fd5b505050506040513d602081101561075757600080fd5b505161079b576040805162461bcd60e51b815260206004820152600e60248201526d185c1c1c9bdd9957d9985a5b195960921b604482015290519081900360640190fd5b6006546003546040805163095ea7b360e01b81526001600160a01b039283166004820152602481018590529051919092169163095ea7b39160448083019260209291908290030181600087803b1580156107f457600080fd5b505af1158015610808573d6000803e3d6000fd5b505050506040513d602081101561081e57600080fd5b5051610862576040805162461bcd60e51b815260206004820152600e60248201526d185c1c1c9bdd9957d9985a5b195960921b604482015290519081900360640190fd5b6003546001600160a01b031663ad58bdd13061087c610a8f565b846040518463ffffffff1660e01b815260040180846001600160a01b03166001600160a01b03168152602001836001600160a01b03166001600160a01b031681526020018281526020019350505050600060405180830381600087803b1580156108e557600080fd5b505af11580156108f9573d6000803e3d6000fd5b50505050610905611152565b15610949576040805162461bcd60e51b815260206004820152600f60248201526e1d1c985b9cd9995c97d9985a5b1959608a1b604482015290519081900360640190fd5b60095461095c908263ffffffff6110f816565b6009556040805160048152602481019091526020810180516001600160e01b03166371d1ae7560e01b1790526002546001600160a01b031663dc8601b36109a1610a8f565b6005546040516001600160e01b031960e085901b1681526001600160a01b038316600482019081526044820183905260606024830190815287516064840152875188949360840190602086019080838360005b83811015610a0c5781810151838201526020016109f4565b50505050905090810190601f168015610a395780820380516001836020036101000a031916815260200191505b50945050505050602060405180830381600087803b158015610a5a57600080fd5b505af1158015610a6e573d6000803e3d6000fd5b505050506040513d6020811015610a8457600080fd5b509394505050505090565b6007546004546000916105d6916001600160a01b0391821691163061127d565b6006546001600160a01b0316151590565b6000610aca6105e1565b5060019695505050505050565b6001546001600160a01b03163314610b29576040805162461bcd60e51b815260206004820152601060248201526f37b7363ca832b73234b733a7bbb732b960811b604482015290519081900360640190fd5b600154600080546040516001600160a01b0393841693909116917f8be0079c531659141344cd1fd0a4f28419497f9722a3daafe3b4186f6b6457e091a360018054600080546001600160a01b03199081166001600160a01b03841617909155169055565b600a5481565b60055481565b6000546001600160a01b03163314610be4576040805162461bcd60e51b815260206004820152600960248201526837b7363ca7bbb732b960b91b604482015290519081900360640190fd5b670de0b6b3a7640000811115610c32576040805162461bcd60e51b815260206004820152600e60248201526d6572726f725f61646d696e46656560901b604482015290519081900360640190fd5b60088190556040805182815290517f11a80b766155f9b8f16a7da44d66269fd694cb1c247f4814244586f68dd534879181900360200190a150565b6000546001600160a01b031681565b60606000809054906101000a90046001600160a01b03168260405160240180836001600160a01b03166001600160a01b0316815260200180602001828103825283818151815260200191508051906020019060200280838360005b83811015610cef578181015183820152602001610cd7565b50506040805193909501838103601f190184528552505060208101805163325ff66f60e01b6001600160e01b0390911617815260025460048054600554965163dc8601b360e01b81526001600160a01b0391821692810183815260448201899052606060248301908152875160648401528751979e50929094169b5063dc8601b39a509198508b975091945090926084909101919080838360005b83811015610da2578181015183820152602001610d8a565b50505050905090810190601f168015610dcf5780820380516001836020036101000a031916815260200191505b50945050505050602060405180830381600087803b158015610df057600080fd5b505af1158015610e04573d6000803e3d6000fd5b505050506040513d6020811015610e1a57600080fd5b50505050565b600c5460ff1681565b6007546001600160a01b031681565b600b5481565b6003546001600160a01b031681565b60085481565b6004546001600160a01b031681565b6001546001600160a01b031681565b60095481565b6000546001600160a01b03163314610ec2576040805162461bcd60e51b815260206004820152600960248201526837b7363ca7bbb732b960b91b604482015290519081900360640190fd5b600180546001600160a01b0319166001600160a01b0392909216919091179055565b610eec610aaf565b15610f2a576040805162461bcd60e51b8152602060048201526009602482015268696e69745f6f6e636560b81b604482015290519081900360640190fd5b600380546001600160a01b0319166001600160a01b0389811691909117918290556040805163cd59658360e01b81529051929091169163cd59658391600480820192602092909190829003018186803b158015610f8657600080fd5b505afa158015610f9a573d6000803e3d6000fd5b505050506040513d6020811015610fb057600080fd5b5051600280546001600160a01b0319166001600160a01b03928316179055600354604080516318d8f9c960e01b8152905191909216916318d8f9c9916004808301926020929190829003018186803b15801561100b57600080fd5b505afa15801561101f573d6000803e3d6000fd5b505050506040513d602081101561103557600080fd5b5051600680546001600160a01b03199081166001600160a01b039384161790915560048054821689841617905560058790556007805482168784161790556000805490911691851691909117905561108c82610b99565b61109581610c7c565b50505050505050565b6006546001600160a01b031681565b60006110ef83836040518060400160405280601e81526020017f536166654d6174683a207375627472616374696f6e206f766572666c6f7700008152506112e9565b90505b92915050565b6000828201838110156110ef576040805162461bcd60e51b815260206004820152601b60248201527f536166654d6174683a206164646974696f6e206f766572666c6f770000000000604482015290519081900360640190fd5b60006105d661115f6105bd565b600654604080516370a0823160e01b815230600482015290516001600160a01b03909216916370a0823191602480820192602092909190829003018186803b1580156111aa57600080fd5b505afa1580156111be573d6000803e3d6000fd5b505050506040513d60208110156111d457600080fd5b50519063ffffffff6110ad16565b6000826111f1575060006110f2565b828202828482816111fe57fe5b04146110ef5760405162461bcd60e51b81526004018080602001828103825260218152602001806114386021913960400191505060405180910390fd5b60006110ef83836040518060400160405280601a81526020017f536166654d6174683a206469766973696f6e206279207a65726f000000000000815250611380565b600080611289856113e5565b8051602091820120604080516001600160f81b0319818501526bffffffffffffffffffffffff19606089901b1660218201526035810187905260558082019390935281518082039093018352607501905280519101209150509392505050565b600081848411156113785760405162461bcd60e51b81526004018080602001828103825283818151815260200191508051906020019080838360005b8381101561133d578181015183820152602001611325565b50505050905090810190601f16801561136a5780820380516001836020036101000a031916815260200191505b509250505060405180910390fd5b505050900390565b600081836113cf5760405162461bcd60e51b815260206004820181815283516024840152835190928392604490910191908501908083836000831561133d578181015183820152602001611325565b5060008385816113db57fe5b0495945050505050565b604080516057810190915260378152733d602d80600a3d3981f3363d3d373d3d3d363d7360601b602082015260609190911b60348201526e5af43d82803e903d91602b57fd5bf360881b60488201529056fe536166654d6174683a206d756c7469706c69636174696f6e206f766572666c6f77a26469706673582212201b9d70a8de2690bb6ebd58ef25cecc4ea03add0bcc62d451389d4efb2871cba764736f6c63430006060033",
  "immutableReferences": {},
  "source": "pragma solidity ^0.6.0;\n\nimport \"openzeppelin-solidity/contracts/token/ERC20/ERC20.sol\";\nimport \"openzeppelin-solidity/contracts/math/SafeMath.sol\";\nimport \"./Ownable.sol\"; // TODO: switch to \"openzeppelin-solidity/contracts/access/Ownable.sol\";\nimport \"./PurchaseListener.sol\";\nimport \"./CloneLib.sol\";\n\ninterface IAMB {\n    function messageSender() external view returns (address);\n\n    function maxGasPerTx() external view returns (uint256);\n\n    function transactionHash() external view returns (bytes32);\n\n    function messageId() external view returns (bytes32);\n\n    function messageSourceChainId() external view returns (bytes32);\n\n    function messageCallStatus(bytes32 _messageId) external view returns (bool);\n\n    function failedMessageDataHash(bytes32 _messageId)\n        external\n        view\n        returns (bytes32);\n\n    function failedMessageReceiver(bytes32 _messageId)\n        external\n        view\n        returns (address);\n\n    function failedMessageSender(bytes32 _messageId)\n        external\n        view\n        returns (address);\n\n    function requireToPassMessage(\n        address _contract,\n        bytes calldata _data,\n        uint256 _gas\n    ) external returns (bytes32);\n}\n\ninterface ITokenMediator {\n    function erc677token() external view returns (address);\n    function bridgeContract() external view returns (address);\n    function relayTokens(address _from, address _receiver, uint256 _value) external;\n}\n\ncontract DataUnionMainnet is Ownable, PurchaseListener {\n    using SafeMath for uint256;\n\n    event AdminFeeChanged(uint256 adminFee);\n    event AdminFeeCharged(uint256 amount);\n    event AdminFeesWithdrawn(address indexed admin, uint256 amount);\n\n    event RevenueReceived(uint256 amount);\n\n    IAMB public amb;\n    ITokenMediator public token_mediator;\n    address public sidechain_DU_factory;\n    uint256 public sidechain_maxgas;\n    ERC20 public token;\n    // needed to compute sidechain address\n    address public sidechain_template_DU;\n    uint256 public adminFeeFraction;\n    uint256 public totalMemberEarnings;\n    uint256 public totalAdminFees;\n    uint256 public totalAdminFeesWithdrawn;\n    bool public autoSendAdminFee = true;\n /*\n    totalEarnings includes:\n         member earnings (ie revenue - admin fees)\n         tokens held for members via transferToMemberInContract()\n\n    totalRevenue = totalEarnings + totalAdminFees;\n*/\n    uint256 public totalEarnings;\n\n\n    constructor() public Ownable(address(0)) {}\n\n    function initialize(\n        address _token_mediator,\n        address _sidechain_DU_factory,\n        uint256 _sidechain_maxgas,\n        address _sidechain_template_DU,\n        address _owner,\n        uint256 _adminFeeFraction,\n        address[] memory agents\n    )  public {\n        require(!isInitialized(), \"init_once\");\n        token_mediator = ITokenMediator(_token_mediator);\n        amb = IAMB(token_mediator.bridgeContract());\n        token = ERC20(token_mediator.erc677token());\n        sidechain_DU_factory = _sidechain_DU_factory;\n        sidechain_maxgas = _sidechain_maxgas;\n        sidechain_template_DU = _sidechain_template_DU;\n        owner = _owner;\n        setAdminFee(_adminFeeFraction);\n        deployNewDUSidechain(agents);\n    }\n\n    function isInitialized() public view returns (bool) {\n        return address(token) != address(0);\n    }\n\n        /**\n     * Admin fee as a fraction of revenue.\n     * Smart contract doesn't use it, it's here just for storing purposes.\n     * @param newAdminFee fixed-point decimal in the same way as ether: 50% === 0.5 ether === \"500000000000000000\"\n     */\n    function setAdminFee(uint256 newAdminFee) public onlyOwner {\n        require(newAdminFee <= 1 ether, \"error_adminFee\");\n        adminFeeFraction = newAdminFee;\n        emit AdminFeeChanged(adminFeeFraction);\n    }\n\n\n    function deployNewDUSidechain(address[] memory agents) public {\n        bytes memory data = abi.encodeWithSignature(\"deployNewDUSidechain(address,address[])\", owner, agents);\n        amb.requireToPassMessage(sidechain_DU_factory, data, sidechain_maxgas);\n    }\n\n    function sidechainAddress() public view returns (address proxy) {\n        return CloneLib.predictCloneAddressCreate2(sidechain_template_DU, sidechain_DU_factory, bytes32(uint256(address(this))));\n    }\n\n/*\n2 way doesnt work atm\n    //calls withdraw(member) on home network\n    function withdraw(address member) public {\n        bytes memory data = abi.encodeWithSignature(\n            \"withdraw(address,bool)\",\n            member,\n            true\n        );\n        amb.requireToPassMessage(sidechainAddress(), data, sidechain_maxgas);\n    }\n    */\n\n    //function onPurchase(bytes32 productId, address subscriber, uint256 endTimestamp, uint256 priceDatacoin, uint256 feeDatacoin)\n    function onPurchase(bytes32, address, uint256, uint256, uint256) external override returns (bool accepted) {\n        sendTokensToBridge();\n        return true;\n    }\n\n    function adminFeesWithdrawable() public view returns (uint256) {\n        return totalAdminFees.sub(totalAdminFeesWithdrawn);\n    }\n\n    function unaccountedTokens() private view returns (uint256) {\n        return token.balanceOf(address(this)).sub(adminFeesWithdrawable());\n    }\n\n\n    function sendTokensToBridge() public returns (uint256) {\n        uint256 newTokens = unaccountedTokens();\n        if (newTokens == 0) return 0;\n\n        emit RevenueReceived(newTokens);\n\n        uint256 adminFee = newTokens.mul(adminFeeFraction).div(10**18);\n        uint256 memberEarnings = newTokens.sub(adminFee);\n\n        totalAdminFees.add(adminFee);\n        emit AdminFeeCharged(adminFee);\n        if(autoSendAdminFee) withdrawAdminFees();\n\n        // transfer memberEarnings\n        require(token.approve(address(token_mediator), 0), \"approve_failed\");\n        require(token.approve(address(token_mediator), memberEarnings), \"approve_failed\");\n        token_mediator.relayTokens(address(this), sidechainAddress(), memberEarnings);\n        //check that memberEarnings were sent\n        require(unaccountedTokens() == 0, \"transfer_failed\");\n        totalMemberEarnings = totalMemberEarnings.add(memberEarnings);\n\n        bytes memory data = abi.encodeWithSignature(\"addRevenue()\");\n        amb.requireToPassMessage(sidechainAddress(), data, sidechain_maxgas);\n        return newTokens;\n    }\n\n    function withdrawAdminFees() public returns (uint256) {\n        uint256 withdrawable = totalAdminFees.sub(totalAdminFeesWithdrawn);\n        if (withdrawable == 0) return 0;\n        totalAdminFeesWithdrawn = totalAdminFeesWithdrawn.add(withdrawable);\n        require(token.transfer(owner, withdrawable), \"transfer_failed\");\n        emit AdminFeesWithdrawn(owner, withdrawable);\n        return withdrawable;\n    }\n}\n",
  "sourcePath": "/home/heynow/streamr/data-union-solidity/contracts/DataUnionMainnet.sol",
  "compiler": {
    "name": "solc",
    "version": "0.6.6+commit.6c089d02.Emscripten.clang"
  },
  "schemaVersion": "3.2.0",
  "updatedAt": "2020-08-20T12:28:46.990Z",
  "devdoc": {
    "methods": {
      "claimOwnership()": {
        "details": "Allows the pendingOwner address to finalize the transfer."
      },
      "setAdminFee(uint256)": {
        "params": {
          "newAdminFee": "fixed-point decimal in the same way as ether: 50% === 0.5 ether === \"500000000000000000\""
        }
      },
      "transferOwnership(address)": {
        "details": "Allows the current owner to set the pendingOwner address.",
        "params": {
          "newOwner": "The address to transfer ownership to."
        }
      }
    }
  },
  "userdoc": {
    "methods": {
      "setAdminFee(uint256)": {
        "notice": "Admin fee as a fraction of revenue. Smart contract doesn't use it, it's here just for storing purposes."
      }
    }
  }
}