{
  "contractName": "DataUnionSidechain",
  "abi": [
    {
      "inputs": [],
      "stateMutability": "nonpayable",
      "type": "constructor"
    },
    {
      "anonymous": false,
      "inputs": [
        {
          "indexed": false,
          "internalType": "uint256",
          "name": "adminFee",
          "type": "uint256"
        }
      ],
      "name": "AdminFeeChanged",
      "type": "event"
    },
    {
      "anonymous": false,
      "inputs": [
        {
          "indexed": false,
          "internalType": "uint256",
          "name": "amount",
          "type": "uint256"
        }
      ],
      "name": "AdminFeeCharged",
      "type": "event"
    },
    {
      "anonymous": false,
      "inputs": [
        {
          "indexed": true,
          "internalType": "address",
          "name": "admin",
          "type": "address"
        },
        {
          "indexed": false,
          "internalType": "uint256",
          "name": "amount",
          "type": "uint256"
        }
      ],
      "name": "AdminFeesWithdrawn",
      "type": "event"
    },
    {
      "anonymous": false,
      "inputs": [
        {
          "indexed": true,
          "internalType": "address",
          "name": "member",
          "type": "address"
        },
        {
          "indexed": false,
          "internalType": "uint256",
          "name": "amount",
          "type": "uint256"
        }
      ],
      "name": "EarningsWithdrawn",
      "type": "event"
    },
    {
      "anonymous": false,
      "inputs": [
        {
          "indexed": true,
          "internalType": "address",
          "name": "",
          "type": "address"
        }
      ],
      "name": "JoinPartAgentAdded",
      "type": "event"
    },
    {
      "anonymous": false,
      "inputs": [
        {
          "indexed": true,
          "internalType": "address",
          "name": "",
          "type": "address"
        }
      ],
      "name": "JoinPartAgentRemoved",
      "type": "event"
    },
    {
      "anonymous": false,
      "inputs": [
        {
          "indexed": false,
          "internalType": "uint256",
          "name": "per_member_earn",
          "type": "uint256"
        },
        {
          "indexed": false,
          "internalType": "uint256",
          "name": "active_members",
          "type": "uint256"
        }
      ],
      "name": "MemberEarn",
      "type": "event"
    },
    {
      "anonymous": false,
      "inputs": [
        {
          "indexed": true,
          "internalType": "address",
          "name": "",
          "type": "address"
        }
      ],
      "name": "MemberJoined",
      "type": "event"
    },
    {
      "anonymous": false,
      "inputs": [
        {
          "indexed": true,
          "internalType": "address",
          "name": "",
          "type": "address"
        }
      ],
      "name": "MemberParted",
      "type": "event"
    },
    {
      "anonymous": false,
      "inputs": [
        {
          "indexed": true,
          "internalType": "address",
          "name": "previousOwner",
          "type": "address"
        },
        {
          "indexed": true,
          "internalType": "address",
          "name": "newOwner",
          "type": "address"
        }
      ],
      "name": "OwnershipTransferred",
      "type": "event"
    },
    {
      "anonymous": false,
      "inputs": [
        {
          "indexed": false,
          "internalType": "uint256",
          "name": "amount",
          "type": "uint256"
        }
      ],
      "name": "RevenueReceived",
      "type": "event"
    },
    {
      "inputs": [],
      "name": "active_members",
      "outputs": [
        {
          "internalType": "uint256",
          "name": "",
          "type": "uint256"
        }
      ],
      "stateMutability": "view",
      "type": "function"
    },
    {
      "inputs": [],
      "name": "adminFeeFraction",
      "outputs": [
        {
          "internalType": "uint256",
          "name": "",
          "type": "uint256"
        }
      ],
      "stateMutability": "view",
      "type": "function"
    },
    {
      "inputs": [],
      "name": "claimOwnership",
      "outputs": [],
      "stateMutability": "nonpayable",
      "type": "function"
    },
    {
      "inputs": [
        {
          "internalType": "address",
          "name": "",
          "type": "address"
        }
      ],
      "name": "joinPartAgents",
      "outputs": [
        {
          "internalType": "enum DataUnionSidechain.ActiveStatus",
          "name": "",
          "type": "uint8"
        }
      ],
      "stateMutability": "view",
      "type": "function"
    },
    {
      "inputs": [],
      "name": "join_part_agent_count",
      "outputs": [
        {
          "internalType": "uint256",
          "name": "",
          "type": "uint256"
        }
      ],
      "stateMutability": "view",
      "type": "function"
    },
    {
      "inputs": [],
      "name": "lifetime_member_earnings",
      "outputs": [
        {
          "internalType": "uint256",
          "name": "",
          "type": "uint256"
        }
      ],
      "stateMutability": "view",
      "type": "function"
    },
    {
      "inputs": [],
      "name": "mainchain_DU",
      "outputs": [
        {
          "internalType": "address",
          "name": "",
          "type": "address"
        }
      ],
      "stateMutability": "view",
      "type": "function"
    },
    {
      "inputs": [
        {
          "internalType": "address",
          "name": "",
          "type": "address"
        }
      ],
      "name": "memberData",
      "outputs": [
        {
          "internalType": "enum DataUnionSidechain.ActiveStatus",
          "name": "status",
          "type": "uint8"
        },
        {
          "internalType": "uint256",
          "name": "earnings_before_last_join",
          "type": "uint256"
        },
        {
          "internalType": "uint256",
          "name": "lme_at_join",
          "type": "uint256"
        },
        {
          "internalType": "uint256",
          "name": "withdrawnEarnings",
          "type": "uint256"
        }
      ],
      "stateMutability": "view",
      "type": "function"
    },
    {
      "inputs": [],
      "name": "owner",
      "outputs": [
        {
          "internalType": "address",
          "name": "",
          "type": "address"
        }
      ],
      "stateMutability": "view",
      "type": "function"
    },
    {
      "inputs": [],
      "name": "pendingOwner",
      "outputs": [
        {
          "internalType": "address",
          "name": "",
          "type": "address"
        }
      ],
      "stateMutability": "view",
      "type": "function"
    },
    {
      "inputs": [],
      "name": "token",
      "outputs": [
        {
          "internalType": "contract ERC677",
          "name": "",
          "type": "address"
        }
      ],
      "stateMutability": "view",
      "type": "function"
    },
    {
      "inputs": [],
      "name": "token_mediator",
      "outputs": [
        {
          "internalType": "address",
          "name": "",
          "type": "address"
        }
      ],
      "stateMutability": "view",
      "type": "function"
    },
    {
      "inputs": [],
      "name": "totalAdminFees",
      "outputs": [
        {
          "internalType": "uint256",
          "name": "",
          "type": "uint256"
        }
      ],
      "stateMutability": "view",
      "type": "function"
    },
    {
      "inputs": [],
      "name": "totalAdminFeesWithdrawn",
      "outputs": [
        {
          "internalType": "uint256",
          "name": "",
          "type": "uint256"
        }
      ],
      "stateMutability": "view",
      "type": "function"
    },
    {
      "inputs": [],
      "name": "totalEarnings",
      "outputs": [
        {
          "internalType": "uint256",
          "name": "",
          "type": "uint256"
        }
      ],
      "stateMutability": "view",
      "type": "function"
    },
    {
      "inputs": [],
      "name": "totalEarningsWithdrawn",
      "outputs": [
        {
          "internalType": "uint256",
          "name": "",
          "type": "uint256"
        }
      ],
      "stateMutability": "view",
      "type": "function"
    },
    {
      "inputs": [
        {
          "internalType": "address",
          "name": "newOwner",
          "type": "address"
        }
      ],
      "name": "transferOwnership",
      "outputs": [],
      "stateMutability": "nonpayable",
      "type": "function"
    },
    {
      "inputs": [
        {
          "internalType": "address",
          "name": "_owner",
          "type": "address"
        },
        {
          "internalType": "address",
          "name": "token_address",
          "type": "address"
        },
        {
          "internalType": "uint256",
          "name": "adminFeeFraction_",
          "type": "uint256"
        },
        {
          "internalType": "address[]",
          "name": "agents",
          "type": "address[]"
        },
        {
          "internalType": "address",
          "name": "_token_mediator",
          "type": "address"
        },
        {
          "internalType": "address",
          "name": "_mainchain_DU",
          "type": "address"
        }
      ],
      "name": "initialize",
      "outputs": [],
      "stateMutability": "nonpayable",
      "type": "function"
    },
    {
      "inputs": [],
      "name": "isInitialized",
      "outputs": [
        {
          "internalType": "bool",
          "name": "",
          "type": "bool"
        }
      ],
      "stateMutability": "view",
      "type": "function"
    },
    {
      "inputs": [
        {
          "internalType": "address",
          "name": "a",
          "type": "address"
        }
      ],
      "name": "toBytes",
      "outputs": [
        {
          "internalType": "bytes",
          "name": "b",
          "type": "bytes"
        }
      ],
      "stateMutability": "pure",
      "type": "function"
    },
    {
      "inputs": [
        {
          "internalType": "uint256",
          "name": "newAdminFee",
          "type": "uint256"
        }
      ],
      "name": "setAdminFee",
      "outputs": [],
      "stateMutability": "nonpayable",
      "type": "function"
    },
    {
      "inputs": [
        {
          "internalType": "address[]",
          "name": "agents",
          "type": "address[]"
        }
      ],
      "name": "addJoinPartAgents",
      "outputs": [],
      "stateMutability": "nonpayable",
      "type": "function"
    },
    {
      "inputs": [
        {
          "internalType": "address",
          "name": "agent",
          "type": "address"
        }
      ],
      "name": "addJoinPartAgent",
      "outputs": [],
      "stateMutability": "nonpayable",
      "type": "function"
    },
    {
      "inputs": [
        {
          "internalType": "address",
          "name": "agent",
          "type": "address"
        }
      ],
      "name": "removeJoinPartAgent",
      "outputs": [],
      "stateMutability": "nonpayable",
      "type": "function"
    },
    {
      "inputs": [
        {
          "internalType": "address",
          "name": "member",
          "type": "address"
        }
      ],
      "name": "getEarnings",
      "outputs": [
        {
          "internalType": "uint256",
          "name": "",
          "type": "uint256"
        }
      ],
      "stateMutability": "view",
      "type": "function"
    },
    {
      "inputs": [
        {
          "internalType": "address",
          "name": "member",
          "type": "address"
        }
      ],
      "name": "getWithdrawn",
      "outputs": [
        {
          "internalType": "uint256",
          "name": "",
          "type": "uint256"
        }
      ],
      "stateMutability": "view",
      "type": "function"
    },
    {
      "inputs": [
        {
          "internalType": "address",
          "name": "member",
          "type": "address"
        }
      ],
      "name": "getWithdrawableEarnings",
      "outputs": [
        {
          "internalType": "uint256",
          "name": "",
          "type": "uint256"
        }
      ],
      "stateMutability": "view",
      "type": "function"
    },
    {
      "inputs": [],
      "name": "addRevenue",
      "outputs": [
        {
          "internalType": "uint256",
          "name": "",
          "type": "uint256"
        }
      ],
      "stateMutability": "nonpayable",
      "type": "function"
    },
    {
      "inputs": [
        {
          "internalType": "address",
          "name": "member",
          "type": "address"
        }
      ],
      "name": "addMember",
      "outputs": [],
      "stateMutability": "nonpayable",
      "type": "function"
    },
    {
      "inputs": [
        {
          "internalType": "address",
          "name": "member",
          "type": "address"
        }
      ],
      "name": "partMember",
      "outputs": [],
      "stateMutability": "nonpayable",
      "type": "function"
    },
    {
      "inputs": [
        {
          "internalType": "address[]",
          "name": "members",
          "type": "address[]"
        }
      ],
      "name": "addMembers",
      "outputs": [],
      "stateMutability": "nonpayable",
      "type": "function"
    },
    {
      "inputs": [
        {
          "internalType": "address[]",
          "name": "members",
          "type": "address[]"
        }
      ],
      "name": "partMembers",
      "outputs": [],
      "stateMutability": "nonpayable",
      "type": "function"
    },
    {
      "inputs": [],
      "name": "totalRevenue",
      "outputs": [
        {
          "internalType": "uint256",
          "name": "",
          "type": "uint256"
        }
      ],
      "stateMutability": "view",
      "type": "function"
    },
    {
      "inputs": [],
      "name": "totalWithdrawable",
      "outputs": [
        {
          "internalType": "uint256",
          "name": "",
          "type": "uint256"
        }
      ],
      "stateMutability": "view",
      "type": "function"
    },
    {
      "inputs": [
        {
          "internalType": "address[]",
          "name": "members",
          "type": "address[]"
        },
        {
          "internalType": "bool",
          "name": "sendToMainnet",
          "type": "bool"
        }
      ],
      "name": "withdrawMembers",
      "outputs": [
        {
          "internalType": "uint256",
          "name": "",
          "type": "uint256"
        }
      ],
      "stateMutability": "nonpayable",
      "type": "function"
    },
    {
      "inputs": [
        {
          "internalType": "address",
          "name": "member",
          "type": "address"
        },
        {
          "internalType": "bool",
          "name": "sendToMainnet",
          "type": "bool"
        }
      ],
      "name": "withdraw",
      "outputs": [
        {
          "internalType": "uint256",
          "name": "",
          "type": "uint256"
        }
      ],
      "stateMutability": "nonpayable",
      "type": "function"
    },
    {
      "inputs": [
        {
          "internalType": "bool",
          "name": "sendToMainnet",
          "type": "bool"
        }
      ],
      "name": "withdrawAdminFees",
      "outputs": [
        {
          "internalType": "uint256",
          "name": "",
          "type": "uint256"
        }
      ],
      "stateMutability": "nonpayable",
      "type": "function"
    }
  ],
  "bytecode": "0x608060405234801561001057600080fd5b50600080546001600160a01b0319169055611eab806100306000396000f3fe608060405234801561001057600080fd5b50600436106102275760003560e01c806385a2124611610130578063bf2d9e0b116100b8578063d7e5487c1161007c578063d7e5487c146108de578063e30c3978146108fd578063f2de565114610905578063f2fde38b1461090d578063fc0c546a1461093357610227565b8063bf2d9e0b14610856578063c44b73a31461085e578063c5a8c91f146108a8578063ca6d56dc146108b0578063d35cec40146108d657610227565b8063937e8c7b116100ff578063937e8c7b146106a6578063a4d6ddc0146106ae578063a913f41d14610751578063ae66d94814610759578063ba1a4de91461077f57610227565b806385a212461461061a5780638beb60b6146106225780638da5cb5b1461063f5780639107d08e1461064757610227565b80634e71e0c8116101b357806361feacff1161018257806361feacff146104a2578063662d45a2146104aa5780636f4d469b146104d057806371d1ae75146105715780637b30ed431461057957610227565b80634e71e0c8146103ad5780635437e401146103b557806354b608a4146103e3578063593b79fe1461040757610227565b80632df3eba4116101fa5780632df3eba4146103355780632e0d42121461033d578063392e53cd146103635780634c2541b81461037f5780634e40ea641461038757610227565b80630600a8651461022c57806309a6400b14610246578063131b9c041461026e5780631796621a14610294575b600080fd5b61023461093b565b60408051918252519081900360200190f35b61026c6004803603602081101561025c57600080fd5b50356001600160a01b0316610963565b005b6102346004803603602081101561028457600080fd5b50356001600160a01b0316610a81565b61026c600480360360208110156102aa57600080fd5b810190602081018135600160201b8111156102c457600080fd5b8201836020820111156102d657600080fd5b803590602001918460208302840111600160201b831117156102f757600080fd5b919080806020026020016040519081016040528093929190818152602001838360200280828437600092019190915250929550610b32945050505050565b610234610bb1565b6102346004803603602081101561035357600080fd5b50356001600160a01b0316610bb7565b61036b610bd4565b604080519115158252519081900360200190f35b610234610be5565b61026c6004803603602081101561039d57600080fd5b50356001600160a01b0316610beb565b61026c610d34565b610234600480360360408110156103cb57600080fd5b506001600160a01b0381351690602001351515610dea565b6103eb6110b0565b604080516001600160a01b039092168252519081900360200190f35b61042d6004803603602081101561041d57600080fd5b50356001600160a01b03166110bf565b6040805160208082528351818301528351919283929083019185019080838360005b8381101561046757818101518382015260200161044f565b50505050905090810190601f1680156104945780820380516001836020036101000a031916815260200191505b509250505060405180910390f35b6102346110e3565b61026c600480360360208110156104c057600080fd5b50356001600160a01b03166110e9565b61026c600480360360208110156104e657600080fd5b810190602081018135600160201b81111561050057600080fd5b82018360208201111561051257600080fd5b803590602001918460208302840111600160201b8311171561053357600080fd5b9190808060200260200160405190810160405280939291908181526020018383602002808284376000920191909152509295506111fe945050505050565b610234611294565b61026c6004803603602081101561058f57600080fd5b810190602081018135600160201b8111156105a957600080fd5b8201836020820111156105bb57600080fd5b803590602001918460208302840111600160201b831117156105dc57600080fd5b919080806020026020016040519081016040528093929190818152602001838360200280828437600092019190915250929550611484945050505050565b6102346114b4565b61026c6004803603602081101561063857600080fd5b50356114ba565b6103eb61158e565b61066d6004803603602081101561065d57600080fd5b50356001600160a01b031661159d565b6040518085600381111561067d57fe5b60ff16815260200184815260200183815260200182815260200194505050505060405180910390f35b6102346115c8565b610234600480360360408110156106c457600080fd5b810190602081018135600160201b8111156106de57600080fd5b8201836020820111156106f057600080fd5b803590602001918460208302840111600160201b8311171561071157600080fd5b91908080602002602001604051908101604052809392919081815260200183836020028082843760009201919091525092955050505035151590506115ce565b61023461161a565b6102346004803603602081101561076f57600080fd5b50356001600160a01b0316611620565b61026c600480360360c081101561079557600080fd5b6001600160a01b03823581169260208101359091169160408201359190810190608081016060820135600160201b8111156107cf57600080fd5b8201836020820111156107e157600080fd5b803590602001918460208302840111600160201b8311171561080257600080fd5b919080806020026020016040519081016040528093929190818152602001838360200280828437600092019190915250929550506001600160a01b0383358116945060209093013590921691506116979050565b61023461175e565b6108846004803603602081101561087457600080fd5b50356001600160a01b0316611777565b6040518082600381111561089457fe5b60ff16815260200191505060405180910390f35b6103eb61178c565b61026c600480360360208110156108c657600080fd5b50356001600160a01b031661179b565b6102346118d2565b610234600480360360208110156108f457600080fd5b503515156118d8565b6103eb611b89565b610234611b98565b61026c6004803603602081101561092357600080fd5b50356001600160a01b0316611b9e565b6103eb611c0b565b600061095d60095461095160075461095161175e565b9063ffffffff611c1a16565b90505b90565b6000546001600160a01b031633146109ae576040805162461bcd60e51b815260206004820152600960248201526837b7363ca7bbb732b960b91b604482015290519081900360640190fd5b60016001600160a01b0382166000908152600e602052604090205460ff1660038111156109d757fe5b14610a1e576040805162461bcd60e51b81526020600482015260126024820152716a706167656e745f6e6f745f61637469766560701b604482015290519081900360640190fd5b6001600160a01b0381166000818152600e6020526040808220805460ff19166002179055517feac6c7d5a1c157497119a5d4f661d5f23b844c415452ef440ed346bd127d885e9190a2600c54610a7b90600163ffffffff611c1a16565b600c5550565b6001600160a01b0381166000908152600d6020526040812081815460ff166003811115610aaa57fe5b1415610aee576040805162461bcd60e51b815260206004820152600e60248201526d36b2b6b132b92fbab735b737bbb760911b604482015290519081900360640190fd5b6001815460ff166003811115610b0057fe5b14610b0c576000610b23565b6002810154600b54610b239163ffffffff611c1a16565b8160010154019150505b919050565b6000546001600160a01b03163314610b7d576040805162461bcd60e51b815260206004820152600960248201526837b7363ca7bbb732b960b91b604482015290519081900360640190fd5b60005b8151811015610bad57610ba5828281518110610b9857fe5b60200260200101516110e9565b600101610b80565b5050565b60065481565b6000610bce610bc583611620565b61095184610a81565b92915050565b6002546001600160a01b0316151590565b600a5481565b336001600160a01b0382161480610c1f57506001336000908152600e602052604090205460ff166003811115610c1d57fe5b145b610c60576040805162461bcd60e51b815260206004820152600d60248201526c1858d8d95cdcd7d9195b9a5959609a1b604482015290519081900360640190fd5b6001600160a01b0381166000908152600d602052604090206001815460ff166003811115610c8a57fe5b14610cd0576040805162461bcd60e51b81526020600482015260116024820152706d656d6265725f6e6f745f61637469766560781b604482015290519081900360640190fd5b610cd982610a81565b600182810191909155815460ff19166002178255600a54610cf991611c1a565b600a556040516001600160a01b038316907f7df2bff504799b36cafb9574b3fcfd8432ef4a1fa89d1ba9fe40324501adf5f590600090a25050565b6001546001600160a01b03163314610d86576040805162461bcd60e51b815260206004820152601060248201526f37b7363ca832b73234b733a7bbb732b960811b604482015290519081900360640190fd5b600154600080546040516001600160a01b0393841693909116917f8be0079c531659141344cd1fd0a4f28419497f9722a3daafe3b4186f6b6457e091a360018054600080546001600160a01b03199081166001600160a01b03841617909155169055565b600080610df684610bb7565b905080610e07576000915050610bce565b6001600160a01b0384166000908152600d602052604090206003810154610e34908363ffffffff611c6316565b6003820155600754610e4c908363ffffffff611c6316565b6007558315610fa4576002546004546001600160a01b0391821691634000aea0911684610e78896110bf565b6040518463ffffffff1660e01b815260040180846001600160a01b03166001600160a01b0316815260200183815260200180602001828103825283818151815260200191508051906020019080838360005b83811015610ee2578181015183820152602001610eca565b50505050905090810190601f168015610f0f5780820380516001836020036101000a031916815260200191505b50945050505050602060405180830381600087803b158015610f3057600080fd5b505af1158015610f44573d6000803e3d6000fd5b505050506040513d6020811015610f5a57600080fd5b5051610f9f576040805162461bcd60e51b815260206004820152600f60248201526e1d1c985b9cd9995c97d9985a5b1959608a1b604482015290519081900360640190fd5b611069565b6002546040805163a9059cbb60e01b81526001600160a01b038881166004830152602482018690529151919092169163a9059cbb9160448083019260209291908290030181600087803b158015610ffa57600080fd5b505af115801561100e573d6000803e3d6000fd5b505050506040513d602081101561102457600080fd5b5051611069576040805162461bcd60e51b815260206004820152600f60248201526e1d1c985b9cd9995c97d9985a5b1959608a1b604482015290519081900360640190fd5b6040805183815290516001600160a01b038716917f48dc35af7b45e2a81fffad55f6e2fafacdb1d3d0d50d24ebdc16324f5ba757f1919081900360200190a2509392505050565b6005546001600160a01b031681565b604080516001600160a01b0392909216600560a21b18601483015260348201905290565b60085481565b6000546001600160a01b03163314611134576040805162461bcd60e51b815260206004820152600960248201526837b7363ca7bbb732b960b91b604482015290519081900360640190fd5b60016001600160a01b0382166000908152600e602052604090205460ff16600381111561115d57fe5b14156111a1576040805162461bcd60e51b815260206004820152600e60248201526d6a706167656e745f61637469766560901b604482015290519081900360640190fd5b6001600160a01b0381166000818152600e6020526040808220805460ff19166001179055517f10581818fb1ffbfd9ac8500cba931a30c3a57b5e9b7972f2fa0aef002b3fde2b9190a2600c54610a7b90600163ffffffff611c6316565b6001336000908152600e602052604090205460ff16600381111561121e57fe5b14611264576040805162461bcd60e51b81526020600482015260116024820152701bdb9b1e529bda5b94185c9d1059d95b9d607a1b604482015290519081900360640190fd5b60005b8151811015610bad5761128c82828151811061127f57fe5b602002602001015161179b565b600101611267565b6000806113256112a261093b565b600254604080516370a0823160e01b815230600482015290516001600160a01b03909216916370a0823191602480820192602092909190829003018186803b1580156112ed57600080fd5b505afa158015611301573d6000803e3d6000fd5b505050506040513d602081101561131757600080fd5b50519063ffffffff611c1a16565b905080611336576000915050610960565b6000611365670de0b6b3a764000061135960035485611cbd90919063ffffffff16565b9063ffffffff611d1616565b90506000611379838363ffffffff611c1a16565b90506000611392600a5483611d1690919063ffffffff16565b600b549091506113a8908263ffffffff611c6316565b600b556006546113be908363ffffffff611c6316565b6006556008546113d4908463ffffffff611c6316565b6008556040805185815290517f41b06c6e0a1531dcb4b86d53ec6268666aa12d55775f8e5a63596fc935cdcc229181900360200190a1600a5460408051838152602081019290925280517ff74e10cbd1c87229fe868ed3a35ebea686515293ff04a097409a4e3e089e6cac9281900390910190a16040805184815290517f538d1b2114be2374c7010694167f3db7f2d56f864a4e1555582b9716b7d11c3d9181900360200190a150919250505090565b60005b8151811015610bad576114ac82828151811061149f57fe5b6020026020010151610beb565b600101611487565b60075481565b6000546001600160a01b03163314611505576040805162461bcd60e51b815260206004820152600960248201526837b7363ca7bbb732b960b91b604482015290519081900360640190fd5b670de0b6b3a7640000811115611553576040805162461bcd60e51b815260206004820152600e60248201526d6572726f725f61646d696e46656560901b604482015290519081900360640190fd5b60038190556040805182815290517f11a80b766155f9b8f16a7da44d66269fd694cb1c247f4814244586f68dd534879181900360200190a150565b6000546001600160a01b031681565b600d60205260009081526040902080546001820154600283015460039093015460ff90921692909184565b600c5481565b600080805b8451811015611612576116096115fc8683815181106115ee57fe5b602002602001015186610dea565b839063ffffffff611c6316565b506001016115d3565b509392505050565b60095481565b6001600160a01b0381166000908152600d6020526040812081815460ff16600381111561164957fe5b141561168d576040805162461bcd60e51b815260206004820152600e60248201526d36b2b6b132b92fbab735b737bbb760911b604482015290519081900360640190fd5b6003015492915050565b61169f610bd4565b156116dd576040805162461bcd60e51b8152602060048201526009602482015268696e69745f6f6e636560b81b604482015290519081900360640190fd5b60008054336001600160a01b031991821617909155600280549091166001600160a01b03871617905561170f846114ba565b61171883610b32565b600480546001600160a01b039384166001600160a01b03199182161790915560058054928416928216929092179091556000805496909216951694909417909355505050565b600061095d600854600654611c6390919063ffffffff16565b600e6020526000908152604090205460ff1681565b6004546001600160a01b031681565b6001336000908152600e602052604090205460ff1660038111156117bb57fe5b14611801576040805162461bcd60e51b81526020600482015260116024820152701bdb9b1e529bda5b94185c9d1059d95b9d607a1b604482015290519081900360640190fd5b6001600160a01b0381166000908152600d602052604090206001815460ff16600381111561182b57fe5b1415611876576040805162461bcd60e51b81526020600482015260156024820152746d656d6265725f616c72656164795f61637469766560581b604482015290519081900360640190fd5b805460ff191660019081178255600b546002830155600a5461189791611c63565b600a556040516001600160a01b038316907f0abf3b3f643594d958297062a019458e27d7766629590ac621aa1000fa1298ab90600090a25050565b60035481565b6000806118f2600954600854611c1a90919063ffffffff16565b905080611903576000915050610b2d565b600954611916908263ffffffff611c6316565b6009558215611a75576002546004546000546001600160a01b0392831692634000aea092811691859161194991166110bf565b6040518463ffffffff1660e01b815260040180846001600160a01b03166001600160a01b0316815260200183815260200180602001828103825283818151815260200191508051906020019080838360005b838110156119b357818101518382015260200161199b565b50505050905090810190601f1680156119e05780820380516001836020036101000a031916815260200191505b50945050505050602060405180830381600087803b158015611a0157600080fd5b505af1158015611a15573d6000803e3d6000fd5b505050506040513d6020811015611a2b57600080fd5b5051611a70576040805162461bcd60e51b815260206004820152600f60248201526e1d1c985b9cd9995c97d9985a5b1959608a1b604482015290519081900360640190fd5b611b41565b600254600080546040805163a9059cbb60e01b81526001600160a01b039283166004820152602481018690529051919093169263a9059cbb9260448083019360209390929083900390910190829087803b158015611ad257600080fd5b505af1158015611ae6573d6000803e3d6000fd5b505050506040513d6020811015611afc57600080fd5b5051611b41576040805162461bcd60e51b815260206004820152600f60248201526e1d1c985b9cd9995c97d9985a5b1959608a1b604482015290519081900360640190fd5b6000546040805183815290516001600160a01b03909216917fcdcaff67ac16639664e5f9343c9223a1dc9c972ec367b69ae9fc1325c7be54749181900360200190a292915050565b6001546001600160a01b031681565b600b5481565b6000546001600160a01b03163314611be9576040805162461bcd60e51b815260206004820152600960248201526837b7363ca7bbb732b960b91b604482015290519081900360640190fd5b600180546001600160a01b0319166001600160a01b0392909216919091179055565b6002546001600160a01b031681565b6000611c5c83836040518060400160405280601e81526020017f536166654d6174683a207375627472616374696f6e206f766572666c6f770000815250611d58565b9392505050565b600082820183811015611c5c576040805162461bcd60e51b815260206004820152601b60248201527f536166654d6174683a206164646974696f6e206f766572666c6f770000000000604482015290519081900360640190fd5b600082611ccc57506000610bce565b82820282848281611cd957fe5b0414611c5c5760405162461bcd60e51b8152600401808060200182810382526021815260200180611e556021913960400191505060405180910390fd5b6000611c5c83836040518060400160405280601a81526020017f536166654d6174683a206469766973696f6e206279207a65726f000000000000815250611def565b60008184841115611de75760405162461bcd60e51b81526004018080602001828103825283818151815260200191508051906020019080838360005b83811015611dac578181015183820152602001611d94565b50505050905090810190601f168015611dd95780820380516001836020036101000a031916815260200191505b509250505060405180910390fd5b505050900390565b60008183611e3e5760405162461bcd60e51b8152602060048201818152835160248401528351909283926044909101919085019080838360008315611dac578181015183820152602001611d94565b506000838581611e4a57fe5b049594505050505056fe536166654d6174683a206d756c7469706c69636174696f6e206f766572666c6f77a2646970667358221220cf2346157325c2e7f81011bf3a8d57c8e972d8127f453199fda196eb4c7ae46364736f6c63430006060033",
  "immutableReferences": {},
  "source": "pragma solidity ^0.6.0;\n\nimport \"openzeppelin-solidity/contracts/token/ERC20/IERC20.sol\";\nimport \"openzeppelin-solidity/contracts/math/SafeMath.sol\";\nimport \"./Ownable.sol\";\n\ninterface ERC677 is IERC20 {\n    event Transfer(\n        address indexed from,\n        address indexed to,\n        uint256 value,\n        bytes data\n    );\n\n    function transferAndCall(\n        address,\n        uint256,\n        bytes calldata\n    ) external returns (bool);\n}\n\ncontract DataUnionSidechain is Ownable {\n    using SafeMath for uint256;\n\n    //used to describe members and join part agents\n    enum ActiveStatus {None, Active, Inactive, Blocked}\n\n    //emitted by joins/parts\n    event MemberJoined(address indexed);\n    event MemberParted(address indexed);\n    event JoinPartAgentAdded(address indexed);\n    event JoinPartAgentRemoved(address indexed);\n\n    event AdminFeeChanged(uint256 adminFee);\n\n    //emitted when revenue received\n    event RevenueReceived(uint256 amount);\n    event MemberEarn(uint256 per_member_earn, uint256 active_members);\n    event AdminFeeCharged(uint256 amount);\n\n    //emitted by withdrawal\n    event EarningsWithdrawn(address indexed member, uint256 amount);\n    event AdminFeesWithdrawn(address indexed admin, uint256 amount);\n\n    struct MemberInfo {\n        ActiveStatus status;\n        uint256 earnings_before_last_join;\n        uint256 lme_at_join;\n        uint256 withdrawnEarnings;\n    }\n\n    ERC677 public token;\n    uint256 public adminFeeFraction;\n    address public token_mediator;\n    address public mainchain_DU;\n\n    //totalRevenue = totalEarnings + totalAdminFees;\n\n    //excluding adminFee:\n    uint256 public totalEarnings;\n    uint256 public totalEarningsWithdrawn;\n\n    //only adminFee\n    uint256 public totalAdminFees;\n    uint256 public totalAdminFeesWithdrawn;\n\n    uint256 public active_members;\n    uint256 public lifetime_member_earnings;\n\n    uint256 public join_part_agent_count;\n    mapping(address => MemberInfo) public memberData;\n    mapping(address => ActiveStatus) public joinPartAgents;\n\n    modifier onlyJoinPartAgent() {\n        require(\n            joinPartAgents[msg.sender] == ActiveStatus.Active,\n            \"onlyJoinPartAgent\"\n        );\n        _;\n    }\n\n    //owner set by initialize()\n    constructor() public Ownable(address(0)) {}\n\n    function initialize(\n        address _owner,\n        address token_address,\n        uint256 adminFeeFraction_,\n        address[] memory agents,\n        address _token_mediator,\n        address _mainchain_DU\n    ) public {\n        require(!isInitialized(),\"init_once\");\n        //set owner at the end. caller needs admin to initialize()\n        owner = msg.sender;\n        token = ERC677(token_address);\n        setAdminFee(adminFeeFraction_);\n        addJoinPartAgents(agents);\n        token_mediator = _token_mediator;\n        mainchain_DU = _mainchain_DU;\n        owner = _owner;\n    }\n\n    function isInitialized() public view returns (bool){\n        return address(token) != address(0);\n    }\n\n    function toBytes(address a) public pure returns (bytes memory b) {\n        assembly {\n            let m := mload(0x40)\n            a := and(a, 0xFFFFFFFFFFFFFFFFFFFFFFFFFFFFFFFFFFFFFFFF)\n            mstore(\n                add(m, 20),\n                xor(0x140000000000000000000000000000000000000000, a)\n            )\n            mstore(0x40, add(m, 52))\n            b := m\n        }\n    }\n\n    /**\n     * Admin fee as a fraction of revenue.\n     * Smart contract doesn't use it, it's here just for storing purposes.\n     * @param newAdminFee fixed-point decimal in the same way as ether: 50% === 0.5 ether === \"500000000000000000\"\n     */\n    function setAdminFee(uint256 newAdminFee) public onlyOwner {\n        require(newAdminFee <= 1 ether, \"error_adminFee\");\n        adminFeeFraction = newAdminFee;\n        emit AdminFeeChanged(adminFeeFraction);\n    }\n\n    function addJoinPartAgents(address[] memory agents) public onlyOwner {\n        for (uint256 i = 0; i < agents.length; i++) {\n            addJoinPartAgent(agents[i]);\n        }\n    }\n\n    function addJoinPartAgent(address agent) public onlyOwner {\n        require(joinPartAgents[agent] != ActiveStatus.Active, \"jpagent_active\");\n        joinPartAgents[agent] = ActiveStatus.Active;\n        emit JoinPartAgentAdded(agent);\n        join_part_agent_count = join_part_agent_count.add(1);\n    }\n\n    function removeJoinPartAgent(address agent) public onlyOwner {\n        require(\n            joinPartAgents[agent] == ActiveStatus.Active,\n            \"jpagent_not_active\"\n        );\n        joinPartAgents[agent] = ActiveStatus.Inactive;\n        emit JoinPartAgentRemoved(agent);\n        join_part_agent_count = join_part_agent_count.sub(1);\n    }\n\n    function getEarnings(address member) public view returns (uint256) {\n        MemberInfo storage info = memberData[member];\n        require(info.status != ActiveStatus.None, \"member_unknown\");\n        return\n            info.earnings_before_last_join +\n            (\n                info.status == ActiveStatus.Active\n                    ? lifetime_member_earnings.sub(info.lme_at_join)\n                    : 0\n            );\n    }\n\n    function getWithdrawn(address member) public view returns (uint256) {\n        MemberInfo storage info = memberData[member];\n        require(info.status != ActiveStatus.None, \"member_unknown\");\n        return info.withdrawnEarnings;\n    }\n\n    function getWithdrawableEarnings(address member)\n        public\n        view\n        returns (uint256)\n    {\n        return getEarnings(member).sub(getWithdrawn(member));\n    }\n\n    function addRevenue() public returns (uint256) {\n        // a.sub(b) errors if b > a\n        uint256 amount = token.balanceOf(address(this)).sub(\n            totalWithdrawable()\n        );\n        if (amount == 0) return 0;\n        uint256 adminFee = amount.mul(adminFeeFraction).div(10**18);\n        uint256 memberEarnings = amount.sub(adminFee);\n        uint256 per_member_earn = memberEarnings.div(active_members);\n        lifetime_member_earnings = lifetime_member_earnings.add(\n            per_member_earn\n        );\n        totalEarnings = totalEarnings.add(memberEarnings);\n        totalAdminFees = totalAdminFees.add(adminFee);\n\n        emit RevenueReceived(amount);\n        emit MemberEarn(per_member_earn, active_members);\n        emit AdminFeeCharged(adminFee);\n        return amount;\n    }\n\n    function addMember(address member) public onlyJoinPartAgent {\n        MemberInfo storage info = memberData[member];\n        require(info.status != ActiveStatus.Active, \"member_already_active\");\n        info.status = ActiveStatus.Active;\n        info.lme_at_join = lifetime_member_earnings;\n        active_members = active_members.add(1);\n        emit MemberJoined(member);\n    }\n\n    function partMember(address member) public {\n        require(\n            msg.sender == member ||\n                joinPartAgents[msg.sender] == ActiveStatus.Active,\n            \"access_denied\"\n        );\n        MemberInfo storage info = memberData[member];\n        require(info.status == ActiveStatus.Active, \"member_not_active\");\n        info.earnings_before_last_join = getEarnings(member);\n        info.status = ActiveStatus.Inactive;\n        active_members = active_members.sub(1);\n        emit MemberParted(member);\n    }\n\n    function addMembers(address[] memory members) public onlyJoinPartAgent {\n        for (uint256 i = 0; i < members.length; i++) {\n            addMember(members[i]);\n        }\n    }\n\n    //access checked in partMember\n    function partMembers(address[] memory members) public {\n        for (uint256 i = 0; i < members.length; i++) {\n            partMember(members[i]);\n        }\n    }\n\n    function totalRevenue() public view returns (uint256) {\n        return totalEarnings.add(totalAdminFees);\n    }\n\n    function totalWithdrawable() public view returns (uint256) {\n        return\n            totalRevenue().sub(totalEarningsWithdrawn).sub(\n                totalAdminFeesWithdrawn\n            );\n    }\n\n    function withdrawMembers(address[] memory members, bool sendToMainnet)\n        public\n        returns (uint256)\n    {\n        uint256 withdrawn = 0;\n        for (uint256 i = 0; i < members.length; i++) {\n            withdrawn.add(withdraw(members[i], sendToMainnet));\n        }\n        return withdrawn;\n    }\n\n    function withdraw(address member, bool sendToMainnet)\n        public\n        returns (uint256)\n    {\n        uint256 withdrawable = getWithdrawableEarnings(member);\n        if (withdrawable == 0) return 0;\n        MemberInfo storage info = memberData[member];\n        info.withdrawnEarnings = info.withdrawnEarnings.add(withdrawable);\n        totalEarningsWithdrawn = totalEarningsWithdrawn.add(withdrawable);\n        if (sendToMainnet)\n            require(\n                token.transferAndCall(\n                    token_mediator,\n                    withdrawable,\n                    toBytes(member)\n                ),\n                \"transfer_failed\"\n            );\n        else require(token.transfer(member, withdrawable), \"transfer_failed\");\n        emit EarningsWithdrawn(member, withdrawable);\n        return withdrawable;\n    }\n\n    function withdrawAdminFees(bool sendToMainnet) public returns (uint256) {\n        uint256 withdrawable = totalAdminFees.sub(totalAdminFeesWithdrawn);\n        if (withdrawable == 0) return 0;\n        totalAdminFeesWithdrawn = totalAdminFeesWithdrawn.add(withdrawable);\n        if (sendToMainnet)\n            require(\n                token.transferAndCall(\n                    token_mediator,\n                    withdrawable,\n                    toBytes(owner)\n                ),\n                \"transfer_failed\"\n            );\n        else require(token.transfer(owner, withdrawable), \"transfer_failed\");\n        emit AdminFeesWithdrawn(owner, withdrawable);\n        return withdrawable;\n    }\n}\n",
  "sourcePath": "/home/heynow/streamr/data-union-solidity/contracts/DataUnionSidechain.sol",
  "compiler": {
    "name": "solc",
    "version": "0.6.6+commit.6c089d02.Emscripten.clang"
  },
  "schemaVersion": "3.2.0",
  "updatedAt": "2020-07-02T16:59:04.331Z",
  "devdoc": {
    "methods": {
      "claimOwnership()": {
        "details": "Allows the pendingOwner address to finalize the transfer."
      },
      "setAdminFee(uint256)": {
        "params": {
          "newAdminFee": "fixed-point decimal in the same way as ether: 50% === 0.5 ether === \"500000000000000000\""
        }
      },
      "transferOwnership(address)": {
        "details": "Allows the current owner to set the pendingOwner address.",
        "params": {
          "newOwner": "The address to transfer ownership to."
        }
      }
    }
  },
  "userdoc": {
    "methods": {
      "setAdminFee(uint256)": {
        "notice": "Admin fee as a fraction of revenue. Smart contract doesn't use it, it's here just for storing purposes."
      }
    }
  }
}