{
  "contractName": "DataUnionFactory",
  "abi": [
    {
      "inputs": [
        {
          "internalType": "address",
          "name": "_token_mediator",
          "type": "address"
        },
        {
          "internalType": "address",
          "name": "_data_union_sidechain_template",
          "type": "address"
        }
      ],
      "stateMutability": "nonpayable",
      "type": "constructor"
    },
    {
      "anonymous": false,
      "inputs": [
        {
          "indexed": true,
          "internalType": "address",
          "name": "mainnet",
          "type": "address"
        },
        {
          "indexed": true,
          "internalType": "address",
          "name": "sidenet",
          "type": "address"
        }
      ],
      "name": "DUCreated",
      "type": "event"
    },
    {
      "inputs": [],
      "name": "amb",
      "outputs": [
        {
          "internalType": "contract IAMB",
          "name": "",
          "type": "address"
        }
      ],
      "stateMutability": "view",
      "type": "function"
    },
    {
      "inputs": [],
      "name": "data_union_sidechain_template",
      "outputs": [
        {
          "internalType": "address",
          "name": "",
          "type": "address"
        }
      ],
      "stateMutability": "view",
      "type": "function"
    },
    {
      "inputs": [
        {
          "internalType": "address",
          "name": "",
          "type": "address"
        }
      ],
      "name": "mainchain2sidechain",
      "outputs": [
        {
          "internalType": "address",
          "name": "",
          "type": "address"
        }
      ],
      "stateMutability": "view",
      "type": "function"
    },
    {
      "inputs": [],
      "name": "token_mediator",
      "outputs": [
        {
          "internalType": "contract ITokenMediator",
          "name": "",
          "type": "address"
        }
      ],
      "stateMutability": "view",
      "type": "function"
    },
    {
      "inputs": [
        {
          "internalType": "address",
          "name": "_logic",
          "type": "address"
        },
        {
          "internalType": "bytes",
          "name": "_data",
          "type": "bytes"
        },
        {
          "internalType": "bytes32",
          "name": "salt",
          "type": "bytes32"
        }
      ],
      "name": "deployMinimal",
      "outputs": [
        {
          "internalType": "address",
          "name": "proxy",
          "type": "address"
        }
      ],
      "stateMutability": "nonpayable",
      "type": "function"
    },
    {
      "inputs": [
        {
          "internalType": "address",
          "name": "_logic",
          "type": "address"
        },
        {
          "internalType": "bytes32",
          "name": "salt",
          "type": "bytes32"
        }
      ],
      "name": "predictAddressCreate2",
      "outputs": [
        {
          "internalType": "address",
          "name": "proxy",
          "type": "address"
        }
      ],
      "stateMutability": "view",
      "type": "function"
    },
    {
      "inputs": [
        {
          "internalType": "bytes",
          "name": "data",
          "type": "bytes"
        }
      ],
      "name": "relayMessageToSidechainDU",
      "outputs": [
        {
          "internalType": "bool",
          "name": "",
          "type": "bool"
        },
        {
          "internalType": "bytes",
          "name": "",
          "type": "bytes"
        }
      ],
      "stateMutability": "nonpayable",
      "type": "function"
    },
    {
      "inputs": [
        {
          "internalType": "uint256",
          "name": "adminFeeFraction",
          "type": "uint256"
        },
        {
          "internalType": "address[]",
          "name": "agents",
          "type": "address[]"
        }
      ],
      "name": "deployNewDUSidechain",
      "outputs": [
        {
          "internalType": "address",
          "name": "",
          "type": "address"
        }
      ],
      "stateMutability": "nonpayable",
      "type": "function"
    }
  ],
  "bytecode": "0x608060405234801561001057600080fd5b50604051610b04380380610b048339818101604052604081101561003357600080fd5b508051602091820151600280546001600160a01b038085166001600160a01b03199283161792839055600080548286169316929092179091556040805163cd59658360e01b8152905194959394929091169263cd59658392600480840193829003018186803b1580156100a557600080fd5b505afa1580156100b9573d6000803e3d6000fd5b505050506040513d60208110156100cf57600080fd5b5051600180546001600160a01b0319166001600160a01b0390921691909117905550610a029050806101026000396000f3fe608060405234801561001057600080fd5b50600436106100885760003560e01c8063455cd6861161005b578063455cd686146102b85780635f6dcb8c146102e4578063c5a8c91f1461038e578063e4a154a41461039657610088565b80630ea347fa1461008d5780631062b39a146100cf57806314f3cb16146100d7578063322d79ec14610200575b600080fd5b6100b3600480360360208110156100a357600080fd5b50356001600160a01b031661039e565b604080516001600160a01b039092168252519081900360200190f35b6100b36103b9565b61017d600480360360208110156100ed57600080fd5b81019060208101813564010000000081111561010857600080fd5b82018360208201111561011a57600080fd5b8035906020019184600183028401116401000000008311171561013c57600080fd5b91908080601f0160208091040260200160405190810160405280939291908181526020018383808284376000920191909152509295506103c8945050505050565b604051808315151515815260200180602001828103825283818151815260200191508051906020019080838360005b838110156101c45781810151838201526020016101ac565b50505050905090810190601f1680156101f15780820380516001836020036101000a031916815260200191505b50935050505060405180910390f35b6100b36004803603606081101561021657600080fd5b6001600160a01b03823516919081019060408101602082013564010000000081111561024157600080fd5b82018360208201111561025357600080fd5b8035906020019184600183028401116401000000008311171561027557600080fd5b91908080601f0160208091040260200160405190810160405280939291908181526020018383808284376000920191909152509295505091359250610595915050565b6100b3600480360360408110156102ce57600080fd5b506001600160a01b0381351690602001356106a7565b6100b3600480360360408110156102fa57600080fd5b8135919081019060408101602082013564010000000081111561031c57600080fd5b82018360208201111561032e57600080fd5b8035906020019184602083028401116401000000008311171561035057600080fd5b919080806020026020016040519081016040528093929190818152602001838360200280828437600092019190915250929550610732945050505050565b6100b36109ae565b6100b36109bd565b6003602052600090815260409020546001600160a01b031681565b6001546001600160a01b031681565b6001546000906060906001600160a01b03163314610418576040805162461bcd60e51b815260206004820152600860248201526737b7363cafb0b6b160c11b604482015290519081900360640190fd5b6001546040805163d67bdd2560e01b815290516000926001600160a01b03169163d67bdd25916004808301926020929190829003018186803b15801561045d57600080fd5b505afa158015610471573d6000803e3d6000fd5b505050506040513d602081101561048757600080fd5b50516001600160a01b0380821660009081526003602052604090205491925016806104e8576040805162461bcd60e51b815260206004820152600c60248201526b191d57db9bdd17d99bdd5b9960a21b604482015290519081900360640190fd5b806001600160a01b0316856040518082805190602001908083835b602083106105225780518252601f199092019160209182019101610503565b6001836020036101000a0380198251168184511680821785525050505050509050019150506000604051808303816000865af19150503d8060008114610584576040519150601f19603f3d011682016040523d82523d6000602084013e610589565b606091505b50935093505050915091565b6000808460601b9050604051733d602d80600a3d3981f3363d3d373d3d3d363d7360601b81528160148201526e5af43d82803e903d91602b57fd5bf360881b60288201526037816000f092505060008451111561069f576000826001600160a01b0316856040518082805190602001908083835b602083106106285780518252601f199092019160209182019101610609565b6001836020036101000a0380198251168184511680821785525050505050509050019150506000604051808303816000865af19150503d806000811461068a576040519150601f19603f3d011682016040523d82523d6000602084013e61068f565b606091505b505090508061069d57600080fd5b505b509392505050565b60408051733d602d80600a3d3981f3363d3d373d3d3d363d7360601b8152606093841b60148201526e5af43d82803e903d91602b57fd5bf360881b60288201526037902081516001600160f81b03196020828101919091523090951b602182015260358101939093526055808401919091528151808403909101815260759092019052805191012090565b6001546000906001600160a01b0316331461077f576040805162461bcd60e51b815260206004820152600860248201526737b7363cafb0b6b160c11b604482015290519081900360640190fd5b6001546040805163d67bdd2560e01b815290516000926001600160a01b03169163d67bdd25916004808301926020929190829003018186803b1580156107c457600080fd5b505afa1580156107d8573d6000803e3d6000fd5b505050506040513d60208110156107ee57600080fd5b5051600254604080516318d8f9c960e01b815290519293506060926001600160a01b03909216916318d8f9c991600480820192602092909190829003018186803b15801561083b57600080fd5b505afa15801561084f573d6000803e3d6000fd5b505050506040513d602081101561086557600080fd5b50516002546040516001600160a01b0380841660248301908152604483018a90529281166084830181905290861660a483015260a060648301908152885160c484015288518a948a948993919260e4909101906020878101910280838360005b838110156108dd5781810151838201526020016108c5565b50506040805193909501838103601f1901845290945250602081018051631646fc3560e11b6001600160e01b0390911617905260008054919b50995061094c98506001600160a01b03169650899550505050606088901b6bffffffffffffffffffffffff191691506105959050565b6001600160a01b0384811660008181526003602052604080822080546001600160a01b031916948616948517905551939450919290917f5d59035155392a1b7232dcc676850f630153200d5edf7bac2c64f3dcf2ae6a7491a395945050505050565b6002546001600160a01b031681565b6000546001600160a01b03168156fea26469706673582212206aac311799a4be0af4301c53b8e3f725041caf550c353ce542fb994f495b08e164736f6c63430006060033",
  "immutableReferences": {},
  "source": "pragma solidity ^0.6.0;\n\nimport \"openzeppelin-solidity/contracts/token/ERC20/IERC20.sol\";\nimport \"openzeppelin-solidity/contracts/math/SafeMath.sol\";\nimport \"./Ownable.sol\";\n\ninterface IAMB {\n    function messageSender() external view returns (address);\n\n    function maxGasPerTx() external view returns (uint256);\n\n    function transactionHash() external view returns (bytes32);\n\n    function messageId() external view returns (bytes32);\n\n    function messageSourceChainId() external view returns (bytes32);\n\n    function messageCallStatus(bytes32 _messageId) external view returns (bool);\n\n    function failedMessageDataHash(bytes32 _messageId)\n        external\n        view\n        returns (bytes32);\n\n    function failedMessageReceiver(bytes32 _messageId)\n        external\n        view\n        returns (address);\n\n    function failedMessageSender(bytes32 _messageId)\n        external\n        view\n        returns (address);\n\n    function requireToPassMessage(\n        address _contract,\n        bytes calldata _data,\n        uint256 _gas\n    ) external returns (bytes32);\n}\n\ninterface ITokenMediator {\n    function erc677token() external view returns (address);\n    function bridgeContract() external view returns (address);\n    function relayTokens(address _from, address _receiver, uint256 _value) external;\n}\n\n\ncontract DataUnionFactory {\n    event DUCreated(address indexed mainnet, address indexed sidenet);\n\n    address public data_union_sidechain_template;\n    IAMB public amb;\n    ITokenMediator public token_mediator;\n    mapping(address => address) public mainchain2sidechain;\n\n    constructor( address _token_mediator, address _data_union_sidechain_template) public {\n        token_mediator = ITokenMediator(_token_mediator);\n        data_union_sidechain_template = _data_union_sidechain_template;\n        amb = IAMB(token_mediator.bridgeContract());\n    }\n\n    //https://raw.githubusercontent.com/OpenZeppelin/openzeppelin-sdk/master/packages/lib/contracts/upgradeability/ProxyFactory.sol\n    function deployMinimal(address _logic, bytes memory _data, bytes32 salt)\n        public\n        returns (address proxy)\n    {\n        // Adapted from https://github.com/optionality/clone-factory/blob/32782f82dfc5a00d103a7e61a17a5dedbd1e8e9d/contracts/CloneFactory.sol\n        bytes20 targetBytes = bytes20(_logic);\n        assembly {\n            let clone := mload(0x40)\n            mstore(\n                clone,\n                0x3d602d80600a3d3981f3363d3d373d3d3d363d73000000000000000000000000\n            )\n            mstore(add(clone, 0x14), targetBytes)\n            mstore(\n                add(clone, 0x28),\n                0x5af43d82803e903d91602b57fd5bf30000000000000000000000000000000000\n            )\n            proxy := create(0, clone, 0x37)\n        }\n        if (_data.length > 0) {\n            (bool success, ) = proxy.call(_data);\n            require(success);\n        }\n    }\n    \n    function predictAddressCreate2(address _logic, bytes32 salt)\n        public view\n        returns (address proxy)\n    {\n        // Adapted from https://github.com/optionality/clone-factory/blob/32782f82dfc5a00d103a7e61a17a5dedbd1e8e9d/contracts/CloneFactory.sol\n        bytes20 targetBytes = bytes20(_logic);\n        bytes32 codehash;\n        assembly {\n            let clone := mload(0x40)\n            mstore(\n                clone,\n                0x3d602d80600a3d3981f3363d3d373d3d3d363d73000000000000000000000000\n            )\n            mstore(add(clone, 0x14), targetBytes)\n            mstore(\n                add(clone, 0x28),\n                0x5af43d82803e903d91602b57fd5bf30000000000000000000000000000000000\n            )\n            codehash := keccak256(clone, 0x37)\n        }\n        return address(uint160(uint256(keccak256(abi.encodePacked(byte(0xff),address(this),salt,codehash)))));\n    }\n\n    function relayMessageToSidechainDU(bytes memory data)\n        public\n        returns (bool, bytes memory)\n    {\n        require(msg.sender == address(amb), \"only_amb\");\n        address sender = amb.messageSender();\n        address recipient = mainchain2sidechain[sender];\n        require(recipient != address(0), \"du_not_found\");\n        return recipient.call(data);\n    }\n/*\nfunction initialize(\n        address token_address,\n        uint256 adminFeeFraction_,\n        address[] memory agents,\n        address _token_mediator,\n        address _mainchain_DU\n    )\n*/\n    function deployNewDUSidechain(uint256 adminFeeFraction, address[] memory agents) public returns (address) {\n        require(msg.sender == address(amb), \"only_amb\");\n        address du_mainnet = amb.messageSender();\n        bytes memory data = abi.encodeWithSignature(\"initialize(address,uint256,address[],address,address)\",\n            token_mediator.erc677token(),\n            adminFeeFraction,\n            agents,\n            address(token_mediator),\n            du_mainnet\n        );\n        address du = deployMinimal(data_union_sidechain_template, data, bytes32(bytes20(du_mainnet)));\n        mainchain2sidechain[du_mainnet] = du;\n        emit DUCreated(du_mainnet, du);\n        return du;\n    }\n}\n",
  "sourcePath": "/home/heynow/streamr/data-union-solidity/contracts/DataUnionFactorySidechain.sol",
  "compiler": {
    "name": "solc",
    "version": "0.6.6+commit.6c089d02.Emscripten.clang"
  },
  "schemaVersion": "3.2.0",
  "updatedAt": "2020-07-02T03:16:38.955Z",
  "devdoc": {
    "methods": {}
  },
  "userdoc": {
    "methods": {}
  }
}