{
  "contractName": "DataUnionMainnet",
  "abi": [
    {
      "inputs": [],
      "stateMutability": "nonpayable",
      "type": "constructor"
    },
    {
      "anonymous": false,
      "inputs": [
        {
          "indexed": false,
          "internalType": "uint256",
          "name": "adminFee",
          "type": "uint256"
        }
      ],
      "name": "AdminFeeChanged",
      "type": "event"
    },
    {
      "anonymous": false,
      "inputs": [
        {
          "indexed": false,
          "internalType": "uint256",
          "name": "amount",
          "type": "uint256"
        }
      ],
      "name": "AdminFeeCharged",
      "type": "event"
    },
    {
      "anonymous": false,
      "inputs": [
        {
          "indexed": true,
          "internalType": "address",
          "name": "admin",
          "type": "address"
        },
        {
          "indexed": false,
          "internalType": "uint256",
          "name": "amount",
          "type": "uint256"
        }
      ],
      "name": "AdminFeesWithdrawn",
      "type": "event"
    },
    {
      "anonymous": false,
      "inputs": [
        {
          "indexed": true,
          "internalType": "address",
          "name": "newMediator",
          "type": "address"
        },
        {
          "indexed": true,
          "internalType": "address",
          "name": "oldMediator",
          "type": "address"
        }
      ],
      "name": "MigrateMediator",
      "type": "event"
    },
    {
      "anonymous": false,
      "inputs": [
        {
          "indexed": true,
          "internalType": "address",
          "name": "newToken",
          "type": "address"
        },
        {
          "indexed": true,
          "internalType": "address",
          "name": "oldToken",
          "type": "address"
        }
      ],
      "name": "MigrateToken",
      "type": "event"
    },
    {
      "anonymous": false,
      "inputs": [
        {
          "indexed": true,
          "internalType": "address",
          "name": "previousOwner",
          "type": "address"
        },
        {
          "indexed": true,
          "internalType": "address",
          "name": "newOwner",
          "type": "address"
        }
      ],
      "name": "OwnershipTransferred",
      "type": "event"
    },
    {
      "anonymous": false,
      "inputs": [
        {
          "indexed": false,
          "internalType": "uint256",
          "name": "amount",
          "type": "uint256"
        }
      ],
      "name": "RevenueReceived",
      "type": "event"
    },
    {
      "inputs": [],
      "name": "adminFeeFraction",
      "outputs": [
        {
          "internalType": "uint256",
          "name": "",
          "type": "uint256"
        }
      ],
      "stateMutability": "view",
      "type": "function"
    },
    {
      "inputs": [],
      "name": "amb",
      "outputs": [
        {
          "internalType": "contract IAMB",
          "name": "",
          "type": "address"
        }
      ],
      "stateMutability": "view",
      "type": "function"
    },
    {
      "inputs": [],
      "name": "autoSendAdminFee",
      "outputs": [
        {
          "internalType": "bool",
          "name": "",
          "type": "bool"
        }
      ],
      "stateMutability": "view",
      "type": "function"
    },
    {
      "inputs": [],
      "name": "claimOwnership",
      "outputs": [],
      "stateMutability": "nonpayable",
      "type": "function"
    },
    {
      "inputs": [],
      "name": "migrationManager",
      "outputs": [
        {
          "internalType": "contract IMainnetMigrationManager",
          "name": "",
          "type": "address"
        }
      ],
      "stateMutability": "view",
      "type": "function"
    },
    {
      "inputs": [],
      "name": "owner",
      "outputs": [
        {
          "internalType": "address",
          "name": "",
          "type": "address"
        }
      ],
      "stateMutability": "view",
      "type": "function"
    },
    {
      "inputs": [],
      "name": "pendingOwner",
      "outputs": [
        {
          "internalType": "address",
          "name": "",
          "type": "address"
        }
      ],
      "stateMutability": "view",
      "type": "function"
    },
    {
      "inputs": [],
      "name": "sidechain_DU_factory",
      "outputs": [
        {
          "internalType": "address",
          "name": "",
          "type": "address"
        }
      ],
      "stateMutability": "view",
      "type": "function"
    },
    {
      "inputs": [],
      "name": "sidechain_maxgas",
      "outputs": [
        {
          "internalType": "uint256",
          "name": "",
          "type": "uint256"
        }
      ],
      "stateMutability": "view",
      "type": "function"
    },
    {
      "inputs": [],
      "name": "sidechain_template_DU",
      "outputs": [
        {
          "internalType": "address",
          "name": "",
          "type": "address"
        }
      ],
      "stateMutability": "view",
      "type": "function"
    },
    {
      "inputs": [],
      "name": "token",
      "outputs": [
        {
          "internalType": "contract ERC20",
          "name": "",
          "type": "address"
        }
      ],
      "stateMutability": "view",
      "type": "function"
    },
    {
      "inputs": [],
      "name": "token_mediator",
      "outputs": [
        {
          "internalType": "contract ITokenMediator",
          "name": "",
          "type": "address"
        }
      ],
      "stateMutability": "view",
      "type": "function"
    },
    {
      "inputs": [],
      "name": "tokensSentToBridge",
      "outputs": [
        {
          "internalType": "uint256",
          "name": "",
          "type": "uint256"
        }
      ],
      "stateMutability": "view",
      "type": "function"
    },
    {
      "inputs": [],
      "name": "totalAdminFees",
      "outputs": [
        {
          "internalType": "uint256",
          "name": "",
          "type": "uint256"
        }
      ],
      "stateMutability": "view",
      "type": "function"
    },
    {
      "inputs": [],
      "name": "totalAdminFeesWithdrawn",
      "outputs": [
        {
          "internalType": "uint256",
          "name": "",
          "type": "uint256"
        }
      ],
      "stateMutability": "view",
      "type": "function"
    },
    {
      "inputs": [
        {
          "internalType": "address",
          "name": "newOwner",
          "type": "address"
        }
      ],
      "name": "transferOwnership",
      "outputs": [],
      "stateMutability": "nonpayable",
      "type": "function"
    },
    {
      "inputs": [],
      "name": "version",
      "outputs": [
        {
          "internalType": "uint256",
          "name": "",
          "type": "uint256"
        }
      ],
      "stateMutability": "pure",
      "type": "function"
    },
    {
      "inputs": [
        {
          "internalType": "address",
          "name": "_migrationManager",
          "type": "address"
        },
        {
          "internalType": "address",
          "name": "_sidechain_DU_factory",
          "type": "address"
        },
        {
          "internalType": "uint256",
          "name": "_sidechain_maxgas",
          "type": "uint256"
        },
        {
          "internalType": "address",
          "name": "_sidechain_template_DU",
          "type": "address"
        },
        {
          "internalType": "address",
          "name": "_owner",
          "type": "address"
        },
        {
          "internalType": "uint256",
          "name": "_adminFeeFraction",
          "type": "uint256"
        },
        {
          "internalType": "address[]",
          "name": "agents",
          "type": "address[]"
        }
      ],
      "name": "initialize",
      "outputs": [],
      "stateMutability": "nonpayable",
      "type": "function"
    },
    {
      "inputs": [],
      "name": "isInitialized",
      "outputs": [
        {
          "internalType": "bool",
          "name": "",
          "type": "bool"
        }
      ],
      "stateMutability": "view",
      "type": "function"
    },
    {
      "inputs": [
        {
          "internalType": "uint256",
          "name": "newAdminFee",
          "type": "uint256"
        }
      ],
      "name": "setAdminFee",
      "outputs": [],
      "stateMutability": "nonpayable",
      "type": "function"
    },
    {
      "inputs": [
        {
          "internalType": "bool",
          "name": "autoSend",
          "type": "bool"
        }
      ],
      "name": "setAutoSendAdminFee",
      "outputs": [],
      "stateMutability": "nonpayable",
      "type": "function"
    },
    {
      "inputs": [
        {
          "internalType": "address[]",
          "name": "agents",
          "type": "address[]"
        }
      ],
      "name": "deployNewDUSidechain",
      "outputs": [],
      "stateMutability": "nonpayable",
      "type": "function"
    },
    {
      "inputs": [],
      "name": "sidechainAddress",
      "outputs": [
        {
          "internalType": "address",
          "name": "",
          "type": "address"
        }
      ],
      "stateMutability": "view",
      "type": "function"
    },
    {
      "inputs": [
        {
          "internalType": "address",
          "name": "",
          "type": "address"
        },
        {
          "internalType": "uint256",
          "name": "",
          "type": "uint256"
        },
        {
          "internalType": "bytes",
          "name": "",
          "type": "bytes"
        }
      ],
      "name": "onTokenTransfer",
      "outputs": [
        {
          "internalType": "bool",
          "name": "success",
          "type": "bool"
        }
      ],
      "stateMutability": "nonpayable",
      "type": "function"
    },
    {
      "inputs": [
        {
          "internalType": "bytes32",
          "name": "",
          "type": "bytes32"
        },
        {
          "internalType": "address",
          "name": "",
          "type": "address"
        },
        {
          "internalType": "uint256",
          "name": "",
          "type": "uint256"
        },
        {
          "internalType": "uint256",
          "name": "",
          "type": "uint256"
        },
        {
          "internalType": "uint256",
          "name": "",
          "type": "uint256"
        }
      ],
      "name": "onPurchase",
      "outputs": [
        {
          "internalType": "bool",
          "name": "",
          "type": "bool"
        }
      ],
      "stateMutability": "nonpayable",
      "type": "function"
    },
    {
      "inputs": [],
      "name": "adminFeesWithdrawable",
      "outputs": [
        {
          "internalType": "uint256",
          "name": "",
          "type": "uint256"
        }
      ],
      "stateMutability": "view",
      "type": "function"
    },
    {
      "inputs": [],
      "name": "unaccountedTokens",
      "outputs": [
        {
          "internalType": "uint256",
          "name": "",
          "type": "uint256"
        }
      ],
      "stateMutability": "view",
      "type": "function"
    },
    {
      "inputs": [],
      "name": "sendTokensToBridge",
      "outputs": [
        {
          "internalType": "uint256",
          "name": "",
          "type": "uint256"
        }
      ],
      "stateMutability": "nonpayable",
      "type": "function"
    },
    {
      "inputs": [],
      "name": "withdrawAdminFees",
      "outputs": [
        {
          "internalType": "uint256",
          "name": "",
          "type": "uint256"
        }
      ],
      "stateMutability": "nonpayable",
      "type": "function"
    },
    {
      "inputs": [],
      "name": "migrate",
      "outputs": [],
      "stateMutability": "nonpayable",
      "type": "function"
    }
  ],
  "bytecode": "0x608060405234801561001057600080fd5b50600080546001600160a01b031916905561195d806100306000396000f3fe608060405234801561001057600080fd5b50600436106101da5760003560e01c80638da5cb5b11610104578063c5a8c91f116100a2578063e30c397811610071578063e30c39781461046d578063f2fde38b14610475578063f658af451461049b578063fc0c546a14610574576101da565b8063c5a8c91f1461044d578063cb12b92d14610455578063d35cec401461045d578063e22ec11214610465576101da565b80639eeba07c116100de5780639eeba07c146103b0578063a4c0ed36146103b8578063a65c87d91461043d578063a913f41d14610445576101da565b80638da5cb5b146102fd5780638fd3ab801461030557806399dd1c811461030d576101da565b806337b43a941161017c57806354fd4d501161014b57806354fd4d50146102c857806361feacff146102d0578063692199d4146102d85780638beb60b6146102e0576101da565b806337b43a941461025e578063392e53cd146102665780634a439cc0146102825780634e71e0c8146102c0576101da565b8063132b4194116101b8578063132b41941461023e57806313fd3c5614610246578063187ac4cb1461024e5780632efc100714610256576101da565b80630419b45a146101df5780630f3afcbe146101f95780631062b39a1461021a575b600080fd5b6101e761057c565b60408051918252519081900360200190f35b6102186004803603602081101561020f57600080fd5b503515156106c2565b005b610222610720565b604080516001600160a01b039092168252519081900360200190f35b6101e761072f565b6101e76107c4565b6102226107dd565b6101e76107ec565b610222610cd2565b61026e610cf2565b604080519115158252519081900360200190f35b61026e600480360360a081101561029857600080fd5b508035906001600160a01b036020820135169060408101359060608101359060800135610d03565b610218610d1a565b6101e7610dd0565b6101e7610dd5565b6101e7610ddb565b610218600480360360208110156102f657600080fd5b5035610de1565b610222610eb5565b610218610ec4565b6102186004803603602081101561032357600080fd5b81019060208101813564010000000081111561033e57600080fd5b82018360208201111561035057600080fd5b8035906020019184602083028401116401000000008311171561037257600080fd5b9190808060200260200160405190810160405280939291908181526020018383602002808284376000920191909152509295506110fd945050505050565b61026e6112a1565b61026e600480360360608110156103ce57600080fd5b6001600160a01b03823516916020810135918101906060810160408201356401000000008111156103fe57600080fd5b82018360208201111561041057600080fd5b8035906020019184600183028401116401000000008311171561043257600080fd5b5090925090506112aa565b6102226112dd565b6101e76112ec565b6102226112f2565b6101e7611301565b6101e7611307565b61022261130d565b61022261131c565b6102186004803603602081101561048b57600080fd5b50356001600160a01b031661132b565b610218600480360360e08110156104b157600080fd5b6001600160a01b0382358116926020810135821692604082013592606083013581169260808101359091169160a0820135919081019060e0810160c082013564010000000081111561050257600080fd5b82018360208201111561051457600080fd5b8035906020019184602083028401116401000000008311171561053657600080fd5b919080806020026020016040519081016040528093929190818152602001838360200280828437600092019190915250929550611398945050505050565b6102226115fd565b6000806105876107c4565b9050806105985760009150506106bf565b600b546105ab908263ffffffff61160c16565b600b55600654600080546040805163a9059cbb60e01b81526001600160a01b039283166004820152602481018690529051919093169263a9059cbb9260448083019360209390929083900390910190829087803b15801561060b57600080fd5b505af115801561061f573d6000803e3d6000fd5b505050506040513d602081101561063557600080fd5b505161067a576040805162461bcd60e51b815260206004820152600f60248201526e1d1c985b9cd9995c97d9985a5b1959608a1b604482015290519081900360640190fd5b6000546040805183815290516001600160a01b03909216917fcdcaff67ac16639664e5f9343c9223a1dc9c972ec367b69ae9fc1325c7be54749181900360200190a290505b90565b6000546001600160a01b0316331461070d576040805162461bcd60e51b815260206004820152600960248201526837b7363ca7bbb732b960b91b604482015290519081900360640190fd5b600c805460ff1916911515919091179055565b6002546001600160a01b031681565b60006107bf61073c6107c4565b600654604080516370a0823160e01b815230600482015290516001600160a01b03909216916370a0823191602480820192602092909190829003018186803b15801561078757600080fd5b505afa15801561079b573d6000803e3d6000fd5b505050506040513d60208110156107b157600080fd5b50519063ffffffff61166f16565b905090565b60006107bf600b54600a5461166f90919063ffffffff16565b6007546001600160a01b031681565b6000806107f761072f565b9050806108085760009150506106bf565b6040805182815290517f41b06c6e0a1531dcb4b86d53ec6268666aa12d55775f8e5a63596fc935cdcc229181900360200190a1600061086a670de0b6b3a764000061085e600954856116b190919063ffffffff16565b9063ffffffff61170a16565b9050600061087e838363ffffffff61166f16565b600a54909150610894908363ffffffff61160c16565b600a556040805183815290517f538d1b2114be2374c7010694167f3db7f2d56f864a4e1555582b9716b7d11c3d9181900360200190a1600c5460ff16156108df576108dd61057c565b505b6006546003546040805163095ea7b360e01b81526001600160a01b0392831660048201526000602482018190529151929093169263095ea7b39260448083019360209383900390910190829087803b15801561093a57600080fd5b505af115801561094e573d6000803e3d6000fd5b505050506040513d602081101561096457600080fd5b50516109a8576040805162461bcd60e51b815260206004820152600e60248201526d185c1c1c9bdd9957d9985a5b195960921b604482015290519081900360640190fd5b6006546003546040805163095ea7b360e01b81526001600160a01b039283166004820152602481018590529051919092169163095ea7b39160448083019260209291908290030181600087803b158015610a0157600080fd5b505af1158015610a15573d6000803e3d6000fd5b505050506040513d6020811015610a2b57600080fd5b5051610a6f576040805162461bcd60e51b815260206004820152600e60248201526d185c1c1c9bdd9957d9985a5b195960921b604482015290519081900360640190fd5b6003546040805163437764df60e01b815290516000926001600160a01b03169163437764df916004808301926020929190829003018186803b158015610ab457600080fd5b505afa158015610ac8573d6000803e3d6000fd5b505050506040513d6020811015610ade57600080fd5b505190506358a8b61360e11b6001600160e01b031982161415610ba2576003546006546001600160a01b039182169163ad58bdd19116610b1c610cd2565b856040518463ffffffff1660e01b815260040180846001600160a01b03166001600160a01b03168152602001836001600160a01b03166001600160a01b031681526020018281526020019350505050600060405180830381600087803b158015610b8557600080fd5b505af1158015610b99573d6000803e3d6000fd5b50505050610c67565b633b2cadab60e11b6001600160e01b031982161415610c24576003546001600160a01b03166301e4f53a610bd4610cd2565b846040518363ffffffff1660e01b815260040180836001600160a01b03166001600160a01b0316815260200182815260200192505050600060405180830381600087803b158015610b8557600080fd5b6040805162461bcd60e51b8152602060048201526013602482015272756e6b6e6f776e5f6272696467655f6d6f646560681b604482015290519081900360640190fd5b610c6f61072f565b15610cb3576040805162461bcd60e51b815260206004820152600f60248201526e1b9bdd17dd1c985b9cd9995c9c9959608a1b604482015290519081900360640190fd5b600d54610cc6908363ffffffff61160c16565b600d5550919250505090565b6008546004546000916107bf916001600160a01b0391821691163061174c565b6006546001600160a01b0316151590565b6000610d0d6107ec565b5060019695505050505050565b6001546001600160a01b03163314610d6c576040805162461bcd60e51b815260206004820152601060248201526f37b7363ca832b73234b733a7bbb732b960811b604482015290519081900360640190fd5b600154600080546040516001600160a01b0393841693909116917f8be0079c531659141344cd1fd0a4f28419497f9722a3daafe3b4186f6b6457e091a360018054600080546001600160a01b03199081166001600160a01b03841617909155169055565b600290565b600a5481565b60055481565b6000546001600160a01b03163314610e2c576040805162461bcd60e51b815260206004820152600960248201526837b7363ca7bbb732b960b91b604482015290519081900360640190fd5b670de0b6b3a7640000811115610e7a576040805162461bcd60e51b815260206004820152600e60248201526d6572726f725f61646d696e46656560901b604482015290519081900360640190fd5b60098190556040805182815290517f11a80b766155f9b8f16a7da44d66269fd694cb1c247f4814244586f68dd534879181900360200190a150565b6000546001600160a01b031681565b6000546001600160a01b03163314610f0f576040805162461bcd60e51b815260206004820152600960248201526837b7363ca7bbb732b960b91b604482015290519081900360640190fd5b60075460408051636215e82d60e11b815290516000926001600160a01b03169163c42bd05a916004808301926020929190829003018186803b158015610f5457600080fd5b505afa158015610f68573d6000803e3d6000fd5b505050506040513d6020811015610f7e57600080fd5b505190506001600160a01b03811615801590610fa857506006546001600160a01b03828116911614155b15611004576006546040516001600160a01b03918216918316907f1a10a9f5e0b3bc7bffb82cdebe89204ade13ed81bf7dc816199fadc282de3d8a90600090a3600680546001600160a01b0319166001600160a01b0383161790555b600754604080516307f89c7f60e41b815290516000926001600160a01b031691637f89c7f0916004808301926020929190829003018186803b15801561104957600080fd5b505afa15801561105d573d6000803e3d6000fd5b505050506040513d602081101561107357600080fd5b505190506001600160a01b0381161580159061109d57506003546001600160a01b03828116911614155b156110f9576003546040516001600160a01b03918216918316907f5d82b60ad3cf3639e02e96994b2b10060c4c0a7c0214695baa228363fb910c3490600090a3600380546001600160a01b0319166001600160a01b0383161790555b5050565b60606000809054906101000a90046001600160a01b03168260405160240180836001600160a01b03166001600160a01b0316815260200180602001828103825283818151815260200191508051906020019060200280838360005b83811015611170578181015183820152602001611158565b50506040805193909501838103601f190184528552505060208101805163325ff66f60e01b6001600160e01b0390911617815260025460048054600554965163dc8601b360e01b81526001600160a01b0391821692810183815260448201899052606060248301908152875160648401528751979e50929094169b5063dc8601b39a509198508b975091945090926084909101919080838360005b8381101561122357818101518382015260200161120b565b50505050905090810190601f1680156112505780820380516001836020036101000a031916815260200191505b50945050505050602060405180830381600087803b15801561127157600080fd5b505af1158015611285573d6000803e3d6000fd5b505050506040513d602081101561129b57600080fd5b50505050565b600c5460ff1681565b6006546000906001600160a01b031633146112c7575060006112d5565b6112cf6107ec565b50600190505b949350505050565b6008546001600160a01b031681565b600b5481565b6003546001600160a01b031681565b600d5481565b60095481565b6004546001600160a01b031681565b6001546001600160a01b031681565b6000546001600160a01b03163314611376576040805162461bcd60e51b815260206004820152600960248201526837b7363ca7bbb732b960b91b604482015290519081900360640190fd5b600180546001600160a01b0319166001600160a01b0392909216919091179055565b6113a0610cf2565b156113de576040805162461bcd60e51b8152602060048201526009602482015268696e69745f6f6e636560b81b604482015290519081900360640190fd5b600c805460ff19166001179055600780546001600160a01b03808a166001600160a01b03199283161792839055600080549092163317909155604080516307f89c7f60e41b815290519290911691637f89c7f091600480820192602092909190829003018186803b15801561145257600080fd5b505afa158015611466573d6000803e3d6000fd5b505050506040513d602081101561147c57600080fd5b5051600380546001600160a01b0319166001600160a01b0392831617908190556040805163cd59658360e01b81529051919092169163cd596583916004808301926020929190829003018186803b1580156114d657600080fd5b505afa1580156114ea573d6000803e3d6000fd5b505050506040513d602081101561150057600080fd5b5051600280546001600160a01b0319166001600160a01b0392831617905560075460408051636215e82d60e11b81529051919092169163c42bd05a916004808301926020929190829003018186803b15801561155b57600080fd5b505afa15801561156f573d6000803e3d6000fd5b505050506040513d602081101561158557600080fd5b5051600680546001600160a01b03199081166001600160a01b03938416179091556004805482168984161790556005879055600880549091169186169190911790556115d082610de1565b600080546001600160a01b0319166001600160a01b0385161790556115f4816110fd565b50505050505050565b6006546001600160a01b031681565b600082820183811015611666576040805162461bcd60e51b815260206004820152601b60248201527f536166654d6174683a206164646974696f6e206f766572666c6f770000000000604482015290519081900360640190fd5b90505b92915050565b600061166683836040518060400160405280601e81526020017f536166654d6174683a207375627472616374696f6e206f766572666c6f7700008152506117b8565b6000826116c057506000611669565b828202828482816116cd57fe5b04146116665760405162461bcd60e51b81526004018080602001828103825260218152602001806119076021913960400191505060405180910390fd5b600061166683836040518060400160405280601a81526020017f536166654d6174683a206469766973696f6e206279207a65726f00000000000081525061184f565b600080611758856118b4565b8051602091820120604080516001600160f81b0319818501526bffffffffffffffffffffffff19606089901b1660218201526035810187905260558082019390935281518082039093018352607501905280519101209150509392505050565b600081848411156118475760405162461bcd60e51b81526004018080602001828103825283818151815260200191508051906020019080838360005b8381101561180c5781810151838201526020016117f4565b50505050905090810190601f1680156118395780820380516001836020036101000a031916815260200191505b509250505060405180910390fd5b505050900390565b6000818361189e5760405162461bcd60e51b815260206004820181815283516024840152835190928392604490910191908501908083836000831561180c5781810151838201526020016117f4565b5060008385816118aa57fe5b0495945050505050565b604080516057810190915260378152733d602d80600a3d3981f3363d3d373d3d3d363d7360601b602082015260609190911b60348201526e5af43d82803e903d91602b57fd5bf360881b60488201529056fe536166654d6174683a206d756c7469706c69636174696f6e206f766572666c6f77a2646970667358221220bc094b3aeb09fc5a8da4fb5427daca35bd69924bde3f5587e26b0f801554cfb664736f6c63430006060033",
  "immutableReferences": {},
  "source": "pragma solidity 0.6.6;\n\nimport \"openzeppelin-solidity/contracts/token/ERC20/ERC20.sol\";\nimport \"openzeppelin-solidity/contracts/math/SafeMath.sol\";\nimport \"./Ownable.sol\"; // TODO: switch to \"openzeppelin-solidity/contracts/access/Ownable.sol\";\nimport \"./PurchaseListener.sol\";\nimport \"./CloneLib.sol\";\nimport \"./IAMB.sol\";\nimport \"./ITokenMediator.sol\";\nimport \"./IMainnetMigrationManager.sol\";\n\ncontract DataUnionMainnet is Ownable, PurchaseListener {\n    using SafeMath for uint256;\n\n    event AdminFeeChanged(uint256 adminFee);\n    event AdminFeeCharged(uint256 amount);\n    event AdminFeesWithdrawn(address indexed admin, uint256 amount);\n    event MigrateToken(address indexed newToken, address indexed oldToken);\n    event MigrateMediator(address indexed newMediator, address indexed oldMediator);\n    event RevenueReceived(uint256 amount);\n\n    IAMB public amb;\n    ITokenMediator public token_mediator;\n    address public sidechain_DU_factory;\n    uint256 public sidechain_maxgas;\n    ERC20 public token;\n    IMainnetMigrationManager public migrationManager;\n\n/*\n    NOTE: any variables set below will NOT be visible in clones\n    clones must set variables in initialize()\n*/\n\n    // needed to compute sidechain address\n    address public sidechain_template_DU;\n    uint256 public adminFeeFraction;\n    uint256 public totalAdminFees;\n    uint256 public totalAdminFeesWithdrawn;\n    bool public autoSendAdminFee;\n\n    function version() public pure returns (uint256) { return 2; }\n\n    uint256 public tokensSentToBridge;\n\n\n    constructor() public Ownable(address(0)) {}\n\n    function initialize(\n        address _migrationManager,\n        address _sidechain_DU_factory,\n        uint256 _sidechain_maxgas,\n        address _sidechain_template_DU,\n        address _owner,\n        uint256 _adminFeeFraction,\n        address[] memory agents\n    )  public {\n        require(!isInitialized(), \"init_once\");\n        // must set default values here so that there are in clone state\n        autoSendAdminFee = true;\n        migrationManager = IMainnetMigrationManager(_migrationManager);\n\n        //during setup, msg.sender is admin\n        owner = msg.sender;\n\n        token_mediator = ITokenMediator(migrationManager.newMediator());\n        amb = IAMB(token_mediator.bridgeContract());\n        token = ERC20(migrationManager.newToken());\n        sidechain_DU_factory = _sidechain_DU_factory;\n        sidechain_maxgas = _sidechain_maxgas;\n        sidechain_template_DU = _sidechain_template_DU;\n        setAdminFee(_adminFeeFraction);\n        //transfer to real admin\n        owner = _owner;\n        deployNewDUSidechain(agents);\n    }\n\n    function isInitialized() public view returns (bool) {\n        return address(token) != address(0);\n    }\n\n    /**\n     * Admin fee as a fraction of revenue.\n     * @param newAdminFee fixed-point decimal in the same way as ether: 50% === 0.5 ether === \"500000000000000000\"\n     */\n    function setAdminFee(uint256 newAdminFee) public onlyOwner {\n        require(newAdminFee <= 1 ether, \"error_adminFee\");\n        adminFeeFraction = newAdminFee;\n        emit AdminFeeChanged(adminFeeFraction);\n    }\n\n    function setAutoSendAdminFee(bool autoSend) public onlyOwner {\n        autoSendAdminFee = autoSend;\n    }\n\n\n    function deployNewDUSidechain(address[] memory agents) public {\n        bytes memory data = abi.encodeWithSignature(\"deployNewDUSidechain(address,address[])\", owner, agents);\n        amb.requireToPassMessage(sidechain_DU_factory, data, sidechain_maxgas);\n    }\n\n    function sidechainAddress() public view returns (address) {\n        return CloneLib.predictCloneAddressCreate2(sidechain_template_DU, sidechain_DU_factory, bytes32(uint256(address(this))));\n    }\n\n    /**\n    ERC677 callback function\n    see https://github.com/ethereum/EIPs/issues/677\n    */\n    function onTokenTransfer(address, uint256, bytes calldata) external returns (bool success) {\n        if(msg.sender != address(token)){\n            return false;\n        }\n        sendTokensToBridge();\n        return true;\n    }\n\n/*\n2 way doesnt work atm\n    //calls withdraw(member) on home network\n    function withdraw(address member) public {\n        bytes memory data = abi.encodeWithSignature(\n            \"withdraw(address,bool)\",\n            member,\n            true\n        );\n        amb.requireToPassMessage(sidechainAddress(), data, sidechain_maxgas);\n    }\n    */\n\n    //function onPurchase(bytes32 productId, address subscriber, uint256 endTimestamp, uint256 priceDatacoin, uint256 feeDatacoin)\n    function onPurchase(bytes32, address, uint256, uint256, uint256) external override returns (bool) {\n        sendTokensToBridge();\n        return true;\n    }\n\n    function adminFeesWithdrawable() public view returns (uint256) {\n        return totalAdminFees.sub(totalAdminFeesWithdrawn);\n    }\n\n    function unaccountedTokens() public view returns (uint256) {\n        return token.balanceOf(address(this)).sub(adminFeesWithdrawable());\n    }\n\n\n    function sendTokensToBridge() public returns (uint256) {\n        uint256 newTokens = unaccountedTokens();\n        if (newTokens == 0) return 0;\n\n        emit RevenueReceived(newTokens);\n\n        uint256 adminFee = newTokens.mul(adminFeeFraction).div(10**18);\n        uint256 memberEarnings = newTokens.sub(adminFee);\n\n        totalAdminFees = totalAdminFees.add(adminFee);\n        emit AdminFeeCharged(adminFee);\n        if(autoSendAdminFee) withdrawAdminFees();\n\n        // transfer memberEarnings\n        require(token.approve(address(token_mediator), 0), \"approve_failed\");\n        require(token.approve(address(token_mediator), memberEarnings), \"approve_failed\");\n        bytes4 bridgeMode = token_mediator.getBridgeMode();\n        //MultiAMB 0xb1516c26 == bytes4(keccak256(abi.encodePacked(\"multi-erc-to-erc-amb\")))\n        //Single token AMB 0x76595b56 ==  bytes4(keccak256(abi.encodePacked(\"erc-to-erc-amb\")))\n        if(bridgeMode == 0xb1516c26) {\n            token_mediator.relayTokens(address(token), sidechainAddress(), memberEarnings);\n        }\n        else if(bridgeMode == 0x76595b56){\n            token_mediator.relayTokens(sidechainAddress(), memberEarnings);\n        }\n        else{\n            revert(\"unknown_bridge_mode\");\n        }\n\n        //check that memberEarnings were sent\n        require(unaccountedTokens() == 0, \"not_transferred\");\n        tokensSentToBridge = tokensSentToBridge.add(memberEarnings);\n\n        return newTokens;\n    }\n\n    function withdrawAdminFees() public returns (uint256) {\n        uint256 withdrawable = adminFeesWithdrawable();\n        if (withdrawable == 0) return 0;\n        totalAdminFeesWithdrawn = totalAdminFeesWithdrawn.add(withdrawable);\n        require(token.transfer(owner, withdrawable), \"transfer_failed\");\n        emit AdminFeesWithdrawn(owner, withdrawable);\n        return withdrawable;\n    }\n\n    function migrate() public onlyOwner {\n        address newToken = migrationManager.newToken();\n        if(newToken != address(0) && newToken != address(token)) {\n            emit MigrateToken(newToken, address(token));\n            token = ERC20(newToken);\n        }\n        address newMediator = migrationManager.newMediator();\n        if(newMediator != address(0) && newMediator != address(token_mediator)) {\n            emit MigrateMediator(newMediator, address(token_mediator));\n            token_mediator = ITokenMediator(newMediator);\n        }\n    }\n}\n",
  "sourcePath": "/home/heynow/streamr/data-union-solidity/contracts/DataUnionMainnet.sol",
  "compiler": {
    "name": "solc",
    "version": "0.6.6+commit.6c089d02.Emscripten.clang"
  },
  "schemaVersion": "3.2.3",
  "updatedAt": "2021-02-24T14:32:37.197Z",
  "devdoc": {
    "methods": {
      "claimOwnership()": {
        "details": "Allows the pendingOwner address to finalize the transfer."
      },
      "setAdminFee(uint256)": {
        "params": {
          "newAdminFee": "fixed-point decimal in the same way as ether: 50% === 0.5 ether === \"500000000000000000\""
        }
      },
      "transferOwnership(address)": {
        "details": "Allows the current owner to set the pendingOwner address.",
        "params": {
          "newOwner": "The address to transfer ownership to."
        }
      }
    }
  },
  "userdoc": {
    "methods": {
      "onTokenTransfer(address,uint256,bytes)": {
        "notice": "ERC677 callback function see https://github.com/ethereum/EIPs/issues/677"
      },
      "setAdminFee(uint256)": {
        "notice": "Admin fee as a fraction of revenue."
      }
    }
  }
}