{
  "contractName": "DataUnionFactorySidechain",
  "abi": [
    {
      "inputs": [
        {
          "internalType": "address",
          "name": "_migrationManager",
          "type": "address"
        },
        {
          "internalType": "address",
          "name": "_dataUnionSidechainTemplate",
          "type": "address"
        }
      ],
      "stateMutability": "nonpayable",
      "type": "constructor"
    },
    {
      "anonymous": false,
      "inputs": [
        {
          "indexed": false,
          "internalType": "uint256",
          "name": "amountWei",
          "type": "uint256"
        }
      ],
      "name": "DUInitialEthSent",
      "type": "event"
    },
    {
      "anonymous": false,
      "inputs": [
        {
          "indexed": false,
          "internalType": "uint256",
          "name": "amountWei",
          "type": "uint256"
        }
      ],
      "name": "OwnerInitialEthSent",
      "type": "event"
    },
    {
      "anonymous": false,
      "inputs": [
        {
          "indexed": true,
          "internalType": "address",
          "name": "previousOwner",
          "type": "address"
        },
        {
          "indexed": true,
          "internalType": "address",
          "name": "newOwner",
          "type": "address"
        }
      ],
      "name": "OwnershipTransferred",
      "type": "event"
    },
    {
      "anonymous": false,
      "inputs": [
        {
          "indexed": true,
          "internalType": "address",
          "name": "mainnet",
          "type": "address"
        },
        {
          "indexed": true,
          "internalType": "address",
          "name": "sidenet",
          "type": "address"
        },
        {
          "indexed": true,
          "internalType": "address",
          "name": "owner",
          "type": "address"
        },
        {
          "indexed": false,
          "internalType": "address",
          "name": "template",
          "type": "address"
        }
      ],
      "name": "SidechainDUCreated",
      "type": "event"
    },
    {
      "anonymous": false,
      "inputs": [
        {
          "indexed": false,
          "internalType": "uint256",
          "name": "amount",
          "type": "uint256"
        }
      ],
      "name": "UpdateDefaultNewMemberInitialEth",
      "type": "event"
    },
    {
      "anonymous": false,
      "inputs": [
        {
          "indexed": false,
          "internalType": "uint256",
          "name": "amount",
          "type": "uint256"
        }
      ],
      "name": "UpdateNewDUInitialEth",
      "type": "event"
    },
    {
      "anonymous": false,
      "inputs": [
        {
          "indexed": false,
          "internalType": "uint256",
          "name": "amount",
          "type": "uint256"
        }
      ],
      "name": "UpdateNewDUOwnerInitialEth",
      "type": "event"
    },
    {
      "inputs": [],
      "name": "claimOwnership",
      "outputs": [],
      "stateMutability": "nonpayable",
      "type": "function"
    },
    {
      "inputs": [],
      "name": "dataUnionSidechainTemplate",
      "outputs": [
        {
          "internalType": "address",
          "name": "",
          "type": "address"
        }
      ],
      "stateMutability": "view",
      "type": "function"
    },
    {
      "inputs": [],
      "name": "defaultNewMemberEth",
      "outputs": [
        {
          "internalType": "uint256",
          "name": "",
          "type": "uint256"
        }
      ],
      "stateMutability": "view",
      "type": "function"
    },
    {
      "inputs": [],
      "name": "migrationManager",
      "outputs": [
        {
          "internalType": "contract ISidechainMigrationManager",
          "name": "",
          "type": "address"
        }
      ],
      "stateMutability": "view",
      "type": "function"
    },
    {
      "inputs": [],
      "name": "newDUInitialEth",
      "outputs": [
        {
          "internalType": "uint256",
          "name": "",
          "type": "uint256"
        }
      ],
      "stateMutability": "view",
      "type": "function"
    },
    {
      "inputs": [],
      "name": "newDUOwnerInitialEth",
      "outputs": [
        {
          "internalType": "uint256",
          "name": "",
          "type": "uint256"
        }
      ],
      "stateMutability": "view",
      "type": "function"
    },
    {
      "inputs": [],
      "name": "owner",
      "outputs": [
        {
          "internalType": "address",
          "name": "",
          "type": "address"
        }
      ],
      "stateMutability": "view",
      "type": "function"
    },
    {
      "inputs": [],
      "name": "pendingOwner",
      "outputs": [
        {
          "internalType": "address",
          "name": "",
          "type": "address"
        }
      ],
      "stateMutability": "view",
      "type": "function"
    },
    {
      "inputs": [
        {
          "internalType": "address",
          "name": "newOwner",
          "type": "address"
        }
      ],
      "name": "transferOwnership",
      "outputs": [],
      "stateMutability": "nonpayable",
      "type": "function"
    },
    {
      "stateMutability": "payable",
      "type": "receive"
    },
    {
      "inputs": [],
      "name": "amb",
      "outputs": [
        {
          "internalType": "contract IAMB",
          "name": "",
          "type": "address"
        }
      ],
      "stateMutability": "view",
      "type": "function"
    },
    {
      "inputs": [],
      "name": "token",
      "outputs": [
        {
          "internalType": "address",
          "name": "",
          "type": "address"
        }
      ],
      "stateMutability": "view",
      "type": "function"
    },
    {
      "inputs": [
        {
          "internalType": "uint256",
          "name": "val",
          "type": "uint256"
        }
      ],
      "name": "setNewDUInitialEth",
      "outputs": [],
      "stateMutability": "nonpayable",
      "type": "function"
    },
    {
      "inputs": [
        {
          "internalType": "uint256",
          "name": "val",
          "type": "uint256"
        }
      ],
      "name": "setNewDUOwnerInitialEth",
      "outputs": [],
      "stateMutability": "nonpayable",
      "type": "function"
    },
    {
      "inputs": [
        {
          "internalType": "uint256",
          "name": "val",
          "type": "uint256"
        }
      ],
      "name": "setNewMemberInitialEth",
      "outputs": [],
      "stateMutability": "nonpayable",
      "type": "function"
    },
    {
      "inputs": [
        {
          "internalType": "address",
          "name": "mainet_address",
          "type": "address"
        }
      ],
      "name": "sidechainAddress",
      "outputs": [
        {
          "internalType": "address",
          "name": "proxy",
          "type": "address"
        }
      ],
      "stateMutability": "view",
      "type": "function"
    },
    {
      "inputs": [
        {
          "internalType": "address payable",
          "name": "owner",
          "type": "address"
        },
        {
          "internalType": "address[]",
          "name": "agents",
          "type": "address[]"
        }
      ],
      "name": "deployNewDUSidechain",
      "outputs": [
        {
          "internalType": "address",
          "name": "",
          "type": "address"
        }
      ],
      "stateMutability": "nonpayable",
      "type": "function"
    }
  ],
  "bytecode": "0x608060405234801561001057600080fd5b50604051610dff380380610dff8339818101604052604081101561003357600080fd5b508051602090910151600080546001600160a01b03199081163317909155600680546001600160a01b0394851690831617905560028054939092169216919091179055610d7a806100856000396000f3fe6080604052600436106100f75760003560e01c8063afc6224b1161008a578063f0ef0b0611610059578063f0ef0b0614610322578063f2fde38b1461034c578063f7c1329e1461037f578063fc0c546a14610394576100fe565b8063afc6224b146102bc578063cfeef807146102e3578063e22ab5ae146102f8578063e30c39781461030d576100fe565b806337dd8b05116100c657806337dd8b051461023c5780634e51a863146102685780634e71e0c8146102925780638da5cb5b146102a7576100fe565b80631062b39a1461010357806317c2a98c14610134578063187ac4cb14610167578063325ff66f1461017c576100fe565b366100fe57005b600080fd5b34801561010f57600080fd5b506101186103a9565b604080516001600160a01b039092168252519081900360200190f35b34801561014057600080fd5b506101186004803603602081101561015757600080fd5b50356001600160a01b031661048d565b34801561017357600080fd5b506101186104b2565b34801561018857600080fd5b506101186004803603604081101561019f57600080fd5b6001600160a01b0382351691908101906040810160208201356401000000008111156101ca57600080fd5b8201836020820111156101dc57600080fd5b803590602001918460208302840111640100000000831117156101fe57600080fd5b9190808060200260200160405190810160405280939291908181526020018383602002808284376000920191909152509295506104c1945050505050565b34801561024857600080fd5b506102666004803603602081101561025f57600080fd5b50356107bd565b005b34801561027457600080fd5b506102666004803603602081101561028b57600080fd5b5035610853565b34801561029e57600080fd5b506102666108e8565b3480156102b357600080fd5b5061011861099e565b3480156102c857600080fd5b506102d16109ad565b60408051918252519081900360200190f35b3480156102ef57600080fd5b506101186109b3565b34801561030457600080fd5b506102d16109c2565b34801561031957600080fd5b506101186109c8565b34801561032e57600080fd5b506102666004803603602081101561034557600080fd5b50356109d7565b34801561035857600080fd5b506102666004803603602081101561036f57600080fd5b50356001600160a01b0316610a6c565b34801561038b57600080fd5b506102d1610ad9565b3480156103a057600080fd5b50610118610adf565b600654604080516307f89c7f60e41b815290516000926001600160a01b031691637f89c7f0916004808301926020929190829003018186803b1580156103ee57600080fd5b505afa158015610402573d6000803e3d6000fd5b505050506040513d602081101561041857600080fd5b50516040805163cd59658360e01b815290516001600160a01b039092169163cd59658391600480820192602092909190829003018186803b15801561045c57600080fd5b505afa158015610470573d6000803e3d6000fd5b505050506040513d602081101561048657600080fd5b5051905090565b6002546000906104ac906001600160a01b039081169030908516610b24565b92915050565b6006546001600160a01b031681565b60006104cb6103a9565b6001600160a01b0316336001600160a01b03161461051b576040805162461bcd60e51b815260206004820152600860248201526737b7363cafa0a6a160c11b604482015290519081900360640190fd5b60006105256103a9565b6001600160a01b031663d67bdd256040518163ffffffff1660e01b815260040160206040518083038186803b15801561055d57600080fd5b505afa158015610571573d6000803e3d6000fd5b505050506040513d602081101561058757600080fd5b50516006546005546040516001600160a01b0388811660248301908152938116604483018190529085166084830181905260a4830184905260a060648401908152895160c4850152895196975090956060958b9593948b948a949093909160e401906020878101910280838360005b8381101561060e5781810151838201526020016105f6565b50506040805193909501838103601f1901845290945250602081018051634d6b976f60e01b6001600160e01b03909116179052600254909a5060009950610672985061066b97506001600160a01b03169550610b90945050505050565b8385610be2565b600254604080516001600160a01b0392831681529051929350818a1692828516928816917f90d0a5d098b9a181ff8ddc866f840cc210e5b91eaf27bc267d5822a0deafad25919081900360200190a4600354158015906106d457506003544710155b1561073a576003546040516001600160a01b0383169180156108fc02916000818181858888f193505050501561073a5760035460408051918252517f517165f169759cdb94227d1c50f4f47895eb099a7f04a780f519bf1739face6f9181900360200190a15b6004541580159061074d57506004544710155b156107b3576004546040516001600160a01b0389169180156108fc02916000818181858888f19350505050156107b35760045460408051918252517f69e30c0bf438d0d3e0afb7f68d57ef394a0d5e8712f82fa00aa599e42574bc2a9181900360200190a15b9695505050505050565b6000546001600160a01b03163314610808576040805162461bcd60e51b815260206004820152600960248201526837b7363ca7bbb732b960b91b604482015290519081900360640190fd5b60055481141561081757610850565b60058190556040805182815290517f7a78bdfbfb2e909f35c05c77e80038cfd0a22c704748eba8b1d20aab76cd5d9c9181900360200190a15b50565b6000546001600160a01b0316331461089e576040805162461bcd60e51b815260206004820152600960248201526837b7363ca7bbb732b960b91b604482015290519081900360640190fd5b6003548114156108ad57610850565b60038190556040805182815290517fa02ce31a8a8adcdc2e2811a0c7f5d1eb1aa920ca9fdfaeaebfe3a2163e69a6549181900360200190a150565b6001546001600160a01b0316331461093a576040805162461bcd60e51b815260206004820152601060248201526f37b7363ca832b73234b733a7bbb732b960811b604482015290519081900360640190fd5b600154600080546040516001600160a01b0393841693909116917f8be0079c531659141344cd1fd0a4f28419497f9722a3daafe3b4186f6b6457e091a360018054600080546001600160a01b03199081166001600160a01b03841617909155169055565b6000546001600160a01b031681565b60045481565b6002546001600160a01b031681565b60055481565b6001546001600160a01b031681565b6000546001600160a01b03163314610a22576040805162461bcd60e51b815260206004820152600960248201526837b7363ca7bbb732b960b91b604482015290519081900360640190fd5b600454811415610a3157610850565b60048190556040805182815290517fe08bf32e9c0e823a76d0088908afba678014c513e2311bba64fc72f38ae809709181900360200190a150565b6000546001600160a01b03163314610ab7576040805162461bcd60e51b815260206004820152600960248201526837b7363ca7bbb732b960b91b604482015290519081900360640190fd5b600180546001600160a01b0319166001600160a01b0392909216919091179055565b60035481565b60065460408051636215e82d60e11b815290516000926001600160a01b03169163c42bd05a916004808301926020929190829003018186803b15801561045c57600080fd5b600080610b3085610b90565b8051602091820120604080516001600160f81b0319818501526bffffffffffffffffffffffff19606089901b1660218201526035810187905260558082019390935281518082039093018352607501905280519101209150509392505050565b604080516057810190915260378152733d602d80600a3d3981f3363d3d373d3d3d363d7360601b602082015260609190911b60348201526e5af43d82803e903d91602b57fd5bf360881b604882015290565b825160009082816020870184f591506001600160a01b038216610c43576040805162461bcd60e51b8152602060048201526014602482015273195c9c9bdc97d85b1c9958591e50dc99585d195960621b604482015290519081900360640190fd5b835115610d3c576000826001600160a01b0316856040518082805190602001908083835b60208310610c865780518252601f199092019160209182019101610c67565b6001836020036101000a0380198251168184511680821785525050505050509050019150506000604051808303816000865af19150503d8060008114610ce8576040519150601f19603f3d011682016040523d82523d6000602084013e610ced565b606091505b5050905080610d3a576040805162461bcd60e51b815260206004820152601460248201527332b93937b92fb4b734ba34b0b634bd30ba34b7b760611b604482015290519081900360640190fd5b505b50939250505056fea26469706673582212206fff2215cf6410bbf53da0ebe0fe5bc9840b59f1ccdc39e6c7c6f408c3050a2f64736f6c63430006060033",
  "immutableReferences": {},
  "source": "pragma solidity 0.6.6;\n\nimport \"openzeppelin-solidity/contracts/token/ERC20/IERC20.sol\";\nimport \"openzeppelin-solidity/contracts/math/SafeMath.sol\";\nimport \"./CloneLib.sol\";\nimport \"./IAMB.sol\";\nimport \"./ITokenMediator.sol\";\nimport \"./Ownable.sol\"; // TODO: switch to \"openzeppelin-solidity/contracts/access/Ownable.sol\";\nimport \"./ISidechainMigrationManager.sol\";\n\ncontract DataUnionFactorySidechain is Ownable {\n    event SidechainDUCreated(address indexed mainnet, address indexed sidenet, address indexed owner, address template);\n    event UpdateNewDUInitialEth(uint amount);\n    event UpdateNewDUOwnerInitialEth(uint amount);\n    event UpdateDefaultNewMemberInitialEth(uint amount);\n    event DUInitialEthSent(uint amountWei);\n    event OwnerInitialEthSent(uint amountWei);\n\n    address public dataUnionSidechainTemplate;\n    // when sidechain DU is created, the factory sends a bit of sETH to the DU and the owner\n    uint public newDUInitialEth;\n    uint public newDUOwnerInitialEth;\n    uint public defaultNewMemberEth;\n    ISidechainMigrationManager public migrationManager;\n\n    constructor(address _migrationManager, address _dataUnionSidechainTemplate) public Ownable(msg.sender) {\n        migrationManager = ISidechainMigrationManager(_migrationManager);\n        dataUnionSidechainTemplate = _dataUnionSidechainTemplate;\n    }\n\n    function amb() public view returns (IAMB) {\n        return IAMB(ITokenMediator(migrationManager.newMediator()).bridgeContract());\n    }\n\n    function token() public view returns (address) {\n        return migrationManager.newToken();\n    }\n    \n\n    //contract is payable\n    receive() external payable {}\n\n    function setNewDUInitialEth(uint val) public onlyOwner {\n        if(val == newDUInitialEth) return;\n        newDUInitialEth = val;\n        emit UpdateNewDUInitialEth(val);\n    }\n\n    function setNewDUOwnerInitialEth(uint val) public onlyOwner {\n        if(val == newDUOwnerInitialEth) return;\n        newDUOwnerInitialEth = val;\n        emit UpdateNewDUOwnerInitialEth(val);\n    }\n\n    function setNewMemberInitialEth(uint val) public onlyOwner {\n        if(val == defaultNewMemberEth) return;\n        defaultNewMemberEth = val;\n        emit UpdateDefaultNewMemberInitialEth(val);\n    }\n\n\n    function sidechainAddress(address mainet_address)\n        public view\n        returns (address proxy)\n    {\n        return CloneLib.predictCloneAddressCreate2(dataUnionSidechainTemplate, address(this), bytes32(uint256(mainet_address)));\n    }\n\n    /*\n    Must be called by AMB. Use MockAMB for testing.\n    salt = mainnet_address.\n    */\n    \n    function deployNewDUSidechain(address payable owner, address[] memory agents) public returns (address) {\n        require(msg.sender == address(amb()), \"only_AMB\");\n        address duMainnet = amb().messageSender();\n        bytes32 salt = bytes32(uint256(duMainnet));\n        bytes memory data = abi.encodeWithSignature(\"initialize(address,address,address[],address,uint256)\",\n            owner,\n            migrationManager,\n            agents,\n            duMainnet,\n            defaultNewMemberEth\n        );\n        address payable du = CloneLib.deployCodeAndInitUsingCreate2(CloneLib.cloneBytecode(dataUnionSidechainTemplate), data, salt);\n        emit SidechainDUCreated(duMainnet, du, owner, dataUnionSidechainTemplate);\n\n        // continue whether or not send succeeds\n        if (newDUInitialEth != 0 && address(this).balance >= newDUInitialEth) {\n            if (du.send(newDUInitialEth)) {\n                emit DUInitialEthSent(newDUInitialEth);\n            }\n        }\n        if (newDUOwnerInitialEth != 0 && address(this).balance >= newDUOwnerInitialEth) {\n            if (owner.send(newDUOwnerInitialEth)) {\n                emit OwnerInitialEthSent(newDUOwnerInitialEth);\n            }\n        }\n        return du;\n    }\n}\n",
  "sourcePath": "/home/heynow/streamr/data-union-solidity/contracts/DataUnionFactorySidechain.sol",
  "compiler": {
    "name": "solc",
    "version": "0.6.6+commit.6c089d02.Emscripten.clang"
  },
  "schemaVersion": "3.2.3",
  "updatedAt": "2021-02-24T14:27:12.313Z",
  "devdoc": {
    "methods": {
      "claimOwnership()": {
        "details": "Allows the pendingOwner address to finalize the transfer."
      },
      "transferOwnership(address)": {
        "details": "Allows the current owner to set the pendingOwner address.",
        "params": {
          "newOwner": "The address to transfer ownership to."
        }
      }
    }
  },
  "userdoc": {
    "methods": {}
  }
}