{
  "contractName": "DataUnionFactorySidechain",
  "abi": [
    {
      "inputs": [
        {
          "internalType": "address",
          "name": "_token_mediator",
          "type": "address"
        },
        {
          "internalType": "address",
          "name": "_data_union_sidechain_template",
          "type": "address"
        }
      ],
      "stateMutability": "nonpayable",
      "type": "constructor"
    },
    {
      "anonymous": false,
      "inputs": [
        {
          "indexed": true,
          "internalType": "address",
          "name": "previousOwner",
          "type": "address"
        },
        {
          "indexed": true,
          "internalType": "address",
          "name": "newOwner",
          "type": "address"
        }
      ],
      "name": "OwnershipTransferred",
      "type": "event"
    },
    {
      "anonymous": false,
      "inputs": [
        {
          "indexed": true,
          "internalType": "address",
          "name": "mainnet",
          "type": "address"
        },
        {
          "indexed": true,
          "internalType": "address",
          "name": "sidenet",
          "type": "address"
        },
        {
          "indexed": true,
          "internalType": "address",
          "name": "owner",
          "type": "address"
        },
        {
          "indexed": false,
          "internalType": "address",
          "name": "template",
          "type": "address"
        }
      ],
      "name": "SidechainDUCreated",
      "type": "event"
    },
    {
      "anonymous": false,
      "inputs": [
        {
          "indexed": false,
          "internalType": "uint256",
          "name": "amount",
          "type": "uint256"
        }
      ],
      "name": "UpdateNewDUInitialEth",
      "type": "event"
    },
    {
      "anonymous": false,
      "inputs": [
        {
          "indexed": false,
          "internalType": "uint256",
          "name": "amount",
          "type": "uint256"
        }
      ],
      "name": "UpdateNewDUOwnerInitialEth",
      "type": "event"
    },
    {
      "inputs": [],
      "name": "amb",
      "outputs": [
        {
          "internalType": "contract IAMB",
          "name": "",
          "type": "address"
        }
      ],
      "stateMutability": "view",
      "type": "function"
    },
    {
      "inputs": [],
      "name": "claimOwnership",
      "outputs": [],
      "stateMutability": "nonpayable",
      "type": "function"
    },
    {
      "inputs": [],
      "name": "data_union_sidechain_template",
      "outputs": [
        {
          "internalType": "address",
          "name": "",
          "type": "address"
        }
      ],
      "stateMutability": "view",
      "type": "function"
    },
    {
      "inputs": [],
      "name": "newDUInitialEth",
      "outputs": [
        {
          "internalType": "uint256",
          "name": "",
          "type": "uint256"
        }
      ],
      "stateMutability": "view",
      "type": "function"
    },
    {
      "inputs": [],
      "name": "newDUOwnerInitialEth",
      "outputs": [
        {
          "internalType": "uint256",
          "name": "",
          "type": "uint256"
        }
      ],
      "stateMutability": "view",
      "type": "function"
    },
    {
      "inputs": [],
      "name": "owner",
      "outputs": [
        {
          "internalType": "address",
          "name": "",
          "type": "address"
        }
      ],
      "stateMutability": "view",
      "type": "function"
    },
    {
      "inputs": [],
      "name": "pendingOwner",
      "outputs": [
        {
          "internalType": "address",
          "name": "",
          "type": "address"
        }
      ],
      "stateMutability": "view",
      "type": "function"
    },
    {
      "inputs": [],
      "name": "token_mediator",
      "outputs": [
        {
          "internalType": "contract ITokenMediator",
          "name": "",
          "type": "address"
        }
      ],
      "stateMutability": "view",
      "type": "function"
    },
    {
      "inputs": [
        {
          "internalType": "address",
          "name": "newOwner",
          "type": "address"
        }
      ],
      "name": "transferOwnership",
      "outputs": [],
      "stateMutability": "nonpayable",
      "type": "function"
    },
    {
      "stateMutability": "payable",
      "type": "receive"
    },
    {
      "inputs": [
        {
          "internalType": "uint256",
          "name": "val",
          "type": "uint256"
        }
      ],
      "name": "setNewDUInitialEth",
      "outputs": [],
      "stateMutability": "nonpayable",
      "type": "function"
    },
    {
      "inputs": [
        {
          "internalType": "uint256",
          "name": "val",
          "type": "uint256"
        }
      ],
      "name": "setNewDUOwnerInitialEth",
      "outputs": [],
      "stateMutability": "nonpayable",
      "type": "function"
    },
    {
      "inputs": [
        {
          "internalType": "address",
          "name": "mainet_address",
          "type": "address"
        }
      ],
      "name": "sidechainAddress",
      "outputs": [
        {
          "internalType": "address",
          "name": "proxy",
          "type": "address"
        }
      ],
      "stateMutability": "view",
      "type": "function"
    },
    {
      "inputs": [
        {
          "internalType": "address payable",
          "name": "owner",
          "type": "address"
        },
        {
          "internalType": "address[]",
          "name": "agents",
          "type": "address[]"
        }
      ],
      "name": "deployNewDUSidechain",
      "outputs": [
        {
          "internalType": "address",
          "name": "",
          "type": "address"
        }
      ],
      "stateMutability": "nonpayable",
      "type": "function"
    }
  ],
  "bytecode": "0x608060405234801561001057600080fd5b50604051610c12380380610c128339818101604052604081101561003357600080fd5b50805160209182015160008054336001600160a01b0319918216179091556004805482166001600160a01b038086169190911780835560028054909416828616179093556040805163cd59658360e01b8152905195969495939091169363cd59658393828401939192909190829003018186803b1580156100b357600080fd5b505afa1580156100c7573d6000803e3d6000fd5b505050506040513d60208110156100dd57600080fd5b5051600380546001600160a01b0319166001600160a01b0390921691909117905550610b029050806101106000396000f3fe6080604052600436106100c65760003560e01c8063afc6224b1161007f578063e4a154a411610059578063e4a154a41461029d578063f0ef0b06146102b2578063f2fde38b146102dc578063f7c1329e1461030f576100cd565b8063afc6224b1461024c578063c5a8c91f14610273578063e30c397814610288576100cd565b80631062b39a146100d257806317c2a98c14610103578063325ff66f146101365780634e51a863146101f65780634e71e0c8146102225780638da5cb5b14610237576100cd565b366100cd57005b600080fd5b3480156100de57600080fd5b506100e7610324565b604080516001600160a01b039092168252519081900360200190f35b34801561010f57600080fd5b506100e76004803603602081101561012657600080fd5b50356001600160a01b0316610333565b34801561014257600080fd5b506100e76004803603604081101561015957600080fd5b6001600160a01b03823516919081019060408101602082013564010000000081111561018457600080fd5b82018360208201111561019657600080fd5b803590602001918460208302840111640100000000831117156101b857600080fd5b919080806020026020016040519081016040528093929190818152602001838360200280828437600092019190915250929550610358945050505050565b34801561020257600080fd5b506102206004803603602081101561021957600080fd5b5035610686565b005b34801561022e57600080fd5b5061022061070c565b34801561024357600080fd5b506100e76107c2565b34801561025857600080fd5b506102616107d1565b60408051918252519081900360200190f35b34801561027f57600080fd5b506100e76107d7565b34801561029457600080fd5b506100e76107e6565b3480156102a957600080fd5b506100e76107f5565b3480156102be57600080fd5b50610220600480360360208110156102d557600080fd5b5035610804565b3480156102e857600080fd5b50610220600480360360208110156102ff57600080fd5b50356001600160a01b031661088a565b34801561031b57600080fd5b506102616108f7565b6003546001600160a01b031681565b600254600090610352906001600160a01b0390811690309085166108fd565b92915050565b600354600090819081906001600160a01b03163314156103f757600360009054906101000a90046001600160a01b03166001600160a01b031663d67bdd256040518163ffffffff1660e01b815260040160206040518083038186803b1580156103c057600080fd5b505afa1580156103d4573d6000803e3d6000fd5b505050506040513d60208110156103ea57600080fd5b50519150600190506103fb565b3391505b60048054604080516318d8f9c960e01b815290516001600160a01b03808716946060948b949216926318d8f9c9928083019260209291829003018186803b15801561044557600080fd5b505afa158015610459573d6000803e3d6000fd5b505050506040513d602081101561046f57600080fd5b50516004546040516001600160a01b038481166024830190815281851660448401529281166084830181905290891660a483015260a0606483019081528b5160c48401528b518c9492938b93929160e4909101906020878101910280838360005b838110156104e85781810151838201526020016104d0565b50506040805193909501838103601f190184529094525060208101805163434f423f60e11b6001600160e01b03909116179052600254909a506000995061054c985061054597506001600160a01b03169550610969945050505050565b83856109bb565b90506001600160a01b0381166105a9576040805162461bcd60e51b815260206004820152601860248201527f6572726f725f64755f616c72656164795f637265617465640000000000000000604482015290519081900360640190fd5b600254604080516001600160a01b0392831681529051828b169284811692908916917f90d0a5d098b9a181ff8ddc866f840cc210e5b91eaf27bc267d5822a0deafad259181900360200190a4831561067b57600060055411801561060f57506005544710155b1561063b576005546040516001600160a01b0383169180156108fc02916000818181858888f150505050505b600060065411801561064f57506006544710155b1561067b576006546040516001600160a01b038a169180156108fc02916000818181858888f150505050505b979650505050505050565b6000546001600160a01b031633146106d1576040805162461bcd60e51b815260206004820152600960248201526837b7363ca7bbb732b960b91b604482015290519081900360640190fd5b60058190556040805182815290517fa02ce31a8a8adcdc2e2811a0c7f5d1eb1aa920ca9fdfaeaebfe3a2163e69a6549181900360200190a150565b6001546001600160a01b0316331461075e576040805162461bcd60e51b815260206004820152601060248201526f37b7363ca832b73234b733a7bbb732b960811b604482015290519081900360640190fd5b600154600080546040516001600160a01b0393841693909116917f8be0079c531659141344cd1fd0a4f28419497f9722a3daafe3b4186f6b6457e091a360018054600080546001600160a01b03199081166001600160a01b03841617909155169055565b6000546001600160a01b031681565b60065481565b6004546001600160a01b031681565b6001546001600160a01b031681565b6002546001600160a01b031681565b6000546001600160a01b0316331461084f576040805162461bcd60e51b815260206004820152600960248201526837b7363ca7bbb732b960b91b604482015290519081900360640190fd5b60068190556040805182815290517fe08bf32e9c0e823a76d0088908afba678014c513e2311bba64fc72f38ae809709181900360200190a150565b6000546001600160a01b031633146108d5576040805162461bcd60e51b815260206004820152600960248201526837b7363ca7bbb732b960b91b604482015290519081900360640190fd5b600180546001600160a01b0319166001600160a01b0392909216919091179055565b60055481565b60008061090985610969565b8051602091820120604080516001600160f81b0319818501526bffffffffffffffffffffffff19606089901b1660218201526035810187905260558082019390935281518082039093018352607501905280519101209150509392505050565b604080516057810190915260378152733d602d80600a3d3981f3363d3d373d3d3d363d7360601b602082015260609190911b60348201526e5af43d82803e903d91602b57fd5bf360881b604882015290565b825160009082816020870184f5845190925015610ac4576000826001600160a01b0316856040518082805190602001908083835b60208310610a0e5780518252601f1990920191602091820191016109ef565b6001836020036101000a0380198251168184511680821785525050505050509050019150506000604051808303816000865af19150503d8060008114610a70576040519150601f19603f3d011682016040523d82523d6000602084013e610a75565b606091505b5050905080610ac2576040805162461bcd60e51b815260206004820152601460248201527332b93937b92fb4b734ba34b0b634bd30ba34b7b760611b604482015290519081900360640190fd5b505b50939250505056fea26469706673582212209e560cf85904a4e77db412b99317b224e5d8b26005fb188412ff22da0d71756064736f6c63430006060033",
  "immutableReferences": {},
  "source": "pragma solidity ^0.6.0;\n\nimport \"openzeppelin-solidity/contracts/token/ERC20/IERC20.sol\";\nimport \"openzeppelin-solidity/contracts/math/SafeMath.sol\";\nimport \"./CloneLib.sol\";\nimport \"./IAMB.sol\";\nimport \"./ITokenMediator.sol\";\nimport \"./Ownable.sol\"; // TODO: switch to \"openzeppelin-solidity/contracts/access/Ownable.sol\";\n\ncontract DataUnionFactorySidechain is Ownable{\n    event SidechainDUCreated(address indexed mainnet, address indexed sidenet, address indexed owner, address template);\n    event UpdateNewDUInitialEth(uint amount);\n    event UpdateNewDUOwnerInitialEth(uint amount);\n    \n\n    address public data_union_sidechain_template;\n    IAMB public amb;\n    ITokenMediator public token_mediator;\n    uint public newDUInitialEth;\n    uint public newDUOwnerInitialEth;\n\n    constructor(address _token_mediator, address _data_union_sidechain_template) public Ownable(msg.sender) {\n        token_mediator = ITokenMediator(_token_mediator);\n        data_union_sidechain_template = _data_union_sidechain_template;\n        amb = IAMB(token_mediator.bridgeContract());\n    }\n\n    //contract is payable\n    receive() external payable {}\n\n    function setNewDUInitialEth(uint val) public onlyOwner {\n        newDUInitialEth = val;\n        emit UpdateNewDUInitialEth(val);\n    }\n\n    function setNewDUOwnerInitialEth(uint val) public onlyOwner {\n        newDUOwnerInitialEth = val;\n        emit UpdateNewDUOwnerInitialEth(val);\n    }\n\n    function sidechainAddress(address mainet_address)\n        public view\n        returns (address proxy)\n    {\n        return CloneLib.predictCloneAddressCreate2(data_union_sidechain_template, address(this), bytes32(uint256(mainet_address)));\n    }\n\n/*\n    initialize(address _owner,\n        address token_address,\n        address[] memory agents,\n        address _token_mediator,\n        address _mainchain_DU)\n\n\n    users can only deploy with salt = their key.\n*/\n    function deployNewDUSidechain(address payable owner, address[] memory agents) public returns (address) {\n        address duMainnet;\n        bool sendEth = false;\n        if(msg.sender == address(amb)) {\n            duMainnet = amb.messageSender();\n            sendEth = true;\n        } else {\n            //if the request didnt come from AMB, use the sender's address as the corresponding \"mainnet\" address\n            duMainnet = msg.sender;\n        }\n        bytes32 salt = bytes32(uint256(duMainnet));\n        bytes memory data = abi.encodeWithSignature(\"initialize(address,address,address[],address,address)\",\n            owner,\n            token_mediator.erc677token(),\n            agents,\n            address(token_mediator),\n            duMainnet\n        );\n        address payable du = CloneLib.deployCodeAndInitUsingCreate2(CloneLib.cloneBytecode(data_union_sidechain_template), data, salt);\n        require(du != address(0), \"error_du_already_created\");\n        emit SidechainDUCreated(duMainnet, du, owner, data_union_sidechain_template);\n        if(sendEth){\n            //continue wheter or not send succeeds\n            if(newDUInitialEth > 0 && address(this).balance >= newDUInitialEth)\n                du.send(newDUInitialEth);\n            if(newDUOwnerInitialEth > 0 && address(this).balance >= newDUOwnerInitialEth)\n                owner.send(newDUOwnerInitialEth);\n        }\n        return du;\n    }\n}\n",
  "sourcePath": "/home/heynow/streamr/data-union-solidity/contracts/DataUnionFactorySidechain.sol",
  "compiler": {
    "name": "solc",
    "version": "0.6.6+commit.6c089d02.Emscripten.clang"
  },
  "schemaVersion": "3.2.3",
  "updatedAt": "2020-09-01T13:51:51.873Z",
  "devdoc": {
    "methods": {
      "claimOwnership()": {
        "details": "Allows the pendingOwner address to finalize the transfer."
      },
      "transferOwnership(address)": {
        "details": "Allows the current owner to set the pendingOwner address.",
        "params": {
          "newOwner": "The address to transfer ownership to."
        }
      }
    }
  },
  "userdoc": {
    "methods": {}
  }
}