{
  "contractName": "DataUnionOnchain",
  "abi": [
    {
      "inputs": [
        {
          "internalType": "address",
          "name": "token_address",
          "type": "address"
        },
        {
          "internalType": "uint256",
          "name": "adminFeeFraction_",
          "type": "uint256"
        },
        {
          "internalType": "address[]",
          "name": "agents",
          "type": "address[]"
        }
      ],
      "stateMutability": "nonpayable",
      "type": "constructor"
    },
    {
      "anonymous": false,
      "inputs": [
        {
          "indexed": false,
          "internalType": "uint256",
          "name": "adminFee",
          "type": "uint256"
        }
      ],
      "name": "AdminFeeChanged",
      "type": "event"
    },
    {
      "anonymous": false,
      "inputs": [
        {
          "indexed": false,
          "internalType": "uint256",
          "name": "amount",
          "type": "uint256"
        }
      ],
      "name": "AdminFeeCharged",
      "type": "event"
    },
    {
      "anonymous": false,
      "inputs": [
        {
          "indexed": true,
          "internalType": "address",
          "name": "admin",
          "type": "address"
        },
        {
          "indexed": false,
          "internalType": "uint256",
          "name": "amount",
          "type": "uint256"
        }
      ],
      "name": "AdminFeesWithdrawn",
      "type": "event"
    },
    {
      "anonymous": false,
      "inputs": [
        {
          "indexed": true,
          "internalType": "address",
          "name": "member",
          "type": "address"
        },
        {
          "indexed": false,
          "internalType": "uint256",
          "name": "amount",
          "type": "uint256"
        }
      ],
      "name": "EarningsWithdrawn",
      "type": "event"
    },
    {
      "anonymous": false,
      "inputs": [
        {
          "indexed": true,
          "internalType": "address",
          "name": "",
          "type": "address"
        }
      ],
      "name": "JoinPartAgentAdded",
      "type": "event"
    },
    {
      "anonymous": false,
      "inputs": [
        {
          "indexed": true,
          "internalType": "address",
          "name": "",
          "type": "address"
        }
      ],
      "name": "JoinPartAgentRemoved",
      "type": "event"
    },
    {
      "anonymous": false,
      "inputs": [
        {
          "indexed": false,
          "internalType": "uint256",
          "name": "per_member_earn",
          "type": "uint256"
        },
        {
          "indexed": false,
          "internalType": "uint256",
          "name": "active_members",
          "type": "uint256"
        }
      ],
      "name": "MemberEarn",
      "type": "event"
    },
    {
      "anonymous": false,
      "inputs": [
        {
          "indexed": true,
          "internalType": "address",
          "name": "",
          "type": "address"
        }
      ],
      "name": "MemberJoined",
      "type": "event"
    },
    {
      "anonymous": false,
      "inputs": [
        {
          "indexed": true,
          "internalType": "address",
          "name": "",
          "type": "address"
        }
      ],
      "name": "MemberParted",
      "type": "event"
    },
    {
      "anonymous": false,
      "inputs": [
        {
          "indexed": true,
          "internalType": "address",
          "name": "previousOwner",
          "type": "address"
        },
        {
          "indexed": true,
          "internalType": "address",
          "name": "newOwner",
          "type": "address"
        }
      ],
      "name": "OwnershipTransferred",
      "type": "event"
    },
    {
      "anonymous": false,
      "inputs": [
        {
          "indexed": false,
          "internalType": "uint256",
          "name": "amount",
          "type": "uint256"
        }
      ],
      "name": "RevenueReceived",
      "type": "event"
    },
    {
      "inputs": [],
      "name": "active_members",
      "outputs": [
        {
          "internalType": "uint256",
          "name": "",
          "type": "uint256"
        }
      ],
      "stateMutability": "view",
      "type": "function"
    },
    {
      "inputs": [],
      "name": "adminFeeFraction",
      "outputs": [
        {
          "internalType": "uint256",
          "name": "",
          "type": "uint256"
        }
      ],
      "stateMutability": "view",
      "type": "function"
    },
    {
      "inputs": [],
      "name": "claimOwnership",
      "outputs": [],
      "stateMutability": "nonpayable",
      "type": "function"
    },
    {
      "inputs": [
        {
          "internalType": "address",
          "name": "",
          "type": "address"
        }
      ],
      "name": "joinPartAgents",
      "outputs": [
        {
          "internalType": "enum DataUnionOnchain.ActiveStatus",
          "name": "",
          "type": "uint8"
        }
      ],
      "stateMutability": "view",
      "type": "function"
    },
    {
      "inputs": [],
      "name": "join_part_agent_count",
      "outputs": [
        {
          "internalType": "uint256",
          "name": "",
          "type": "uint256"
        }
      ],
      "stateMutability": "view",
      "type": "function"
    },
    {
      "inputs": [],
      "name": "lifetime_member_earnings",
      "outputs": [
        {
          "internalType": "uint256",
          "name": "",
          "type": "uint256"
        }
      ],
      "stateMutability": "view",
      "type": "function"
    },
    {
      "inputs": [
        {
          "internalType": "address",
          "name": "",
          "type": "address"
        }
      ],
      "name": "memberData",
      "outputs": [
        {
          "internalType": "enum DataUnionOnchain.ActiveStatus",
          "name": "status",
          "type": "uint8"
        },
        {
          "internalType": "uint256",
          "name": "earnings_before_last_join",
          "type": "uint256"
        },
        {
          "internalType": "uint256",
          "name": "lme_at_join",
          "type": "uint256"
        },
        {
          "internalType": "uint256",
          "name": "withdrawnEarnings",
          "type": "uint256"
        }
      ],
      "stateMutability": "view",
      "type": "function"
    },
    {
      "inputs": [],
      "name": "owner",
      "outputs": [
        {
          "internalType": "address",
          "name": "",
          "type": "address"
        }
      ],
      "stateMutability": "view",
      "type": "function"
    },
    {
      "inputs": [],
      "name": "pendingOwner",
      "outputs": [
        {
          "internalType": "address",
          "name": "",
          "type": "address"
        }
      ],
      "stateMutability": "view",
      "type": "function"
    },
    {
      "inputs": [],
      "name": "token",
      "outputs": [
        {
          "internalType": "contract ERC20",
          "name": "",
          "type": "address"
        }
      ],
      "stateMutability": "view",
      "type": "function"
    },
    {
      "inputs": [],
      "name": "totalAdminFees",
      "outputs": [
        {
          "internalType": "uint256",
          "name": "",
          "type": "uint256"
        }
      ],
      "stateMutability": "view",
      "type": "function"
    },
    {
      "inputs": [],
      "name": "totalAdminFeesWithdrawn",
      "outputs": [
        {
          "internalType": "uint256",
          "name": "",
          "type": "uint256"
        }
      ],
      "stateMutability": "view",
      "type": "function"
    },
    {
      "inputs": [],
      "name": "totalEarnings",
      "outputs": [
        {
          "internalType": "uint256",
          "name": "",
          "type": "uint256"
        }
      ],
      "stateMutability": "view",
      "type": "function"
    },
    {
      "inputs": [],
      "name": "totalEarningsWithdrawn",
      "outputs": [
        {
          "internalType": "uint256",
          "name": "",
          "type": "uint256"
        }
      ],
      "stateMutability": "view",
      "type": "function"
    },
    {
      "inputs": [
        {
          "internalType": "address",
          "name": "newOwner",
          "type": "address"
        }
      ],
      "name": "transferOwnership",
      "outputs": [],
      "stateMutability": "nonpayable",
      "type": "function"
    },
    {
      "inputs": [
        {
          "internalType": "uint256",
          "name": "newAdminFee",
          "type": "uint256"
        }
      ],
      "name": "setAdminFee",
      "outputs": [],
      "stateMutability": "nonpayable",
      "type": "function"
    },
    {
      "inputs": [
        {
          "internalType": "address[]",
          "name": "agents",
          "type": "address[]"
        }
      ],
      "name": "addJoinPartAgents",
      "outputs": [],
      "stateMutability": "nonpayable",
      "type": "function"
    },
    {
      "inputs": [
        {
          "internalType": "address",
          "name": "agent",
          "type": "address"
        }
      ],
      "name": "addJoinPartAgent",
      "outputs": [],
      "stateMutability": "nonpayable",
      "type": "function"
    },
    {
      "inputs": [
        {
          "internalType": "address",
          "name": "agent",
          "type": "address"
        }
      ],
      "name": "removeJoinPartAgent",
      "outputs": [],
      "stateMutability": "nonpayable",
      "type": "function"
    },
    {
      "inputs": [
        {
          "internalType": "address",
          "name": "member",
          "type": "address"
        }
      ],
      "name": "getEarnings",
      "outputs": [
        {
          "internalType": "uint256",
          "name": "",
          "type": "uint256"
        }
      ],
      "stateMutability": "view",
      "type": "function"
    },
    {
      "inputs": [
        {
          "internalType": "address",
          "name": "member",
          "type": "address"
        }
      ],
      "name": "getWithdrawn",
      "outputs": [
        {
          "internalType": "uint256",
          "name": "",
          "type": "uint256"
        }
      ],
      "stateMutability": "view",
      "type": "function"
    },
    {
      "inputs": [
        {
          "internalType": "address",
          "name": "member",
          "type": "address"
        }
      ],
      "name": "getWithdrawableEarnings",
      "outputs": [
        {
          "internalType": "uint256",
          "name": "",
          "type": "uint256"
        }
      ],
      "stateMutability": "view",
      "type": "function"
    },
    {
      "inputs": [],
      "name": "addRevenue",
      "outputs": [
        {
          "internalType": "uint256",
          "name": "",
          "type": "uint256"
        }
      ],
      "stateMutability": "nonpayable",
      "type": "function"
    },
    {
      "inputs": [
        {
          "internalType": "address",
          "name": "member",
          "type": "address"
        }
      ],
      "name": "addMember",
      "outputs": [],
      "stateMutability": "nonpayable",
      "type": "function"
    },
    {
      "inputs": [
        {
          "internalType": "address",
          "name": "member",
          "type": "address"
        }
      ],
      "name": "partMember",
      "outputs": [],
      "stateMutability": "nonpayable",
      "type": "function"
    },
    {
      "inputs": [
        {
          "internalType": "address[]",
          "name": "members",
          "type": "address[]"
        }
      ],
      "name": "addMembers",
      "outputs": [],
      "stateMutability": "nonpayable",
      "type": "function"
    },
    {
      "inputs": [
        {
          "internalType": "address[]",
          "name": "members",
          "type": "address[]"
        }
      ],
      "name": "partMembers",
      "outputs": [],
      "stateMutability": "nonpayable",
      "type": "function"
    },
    {
      "inputs": [],
      "name": "totalRevenue",
      "outputs": [
        {
          "internalType": "uint256",
          "name": "",
          "type": "uint256"
        }
      ],
      "stateMutability": "view",
      "type": "function"
    },
    {
      "inputs": [],
      "name": "totalWithdrawable",
      "outputs": [
        {
          "internalType": "uint256",
          "name": "",
          "type": "uint256"
        }
      ],
      "stateMutability": "view",
      "type": "function"
    },
    {
      "inputs": [
        {
          "internalType": "address[]",
          "name": "members",
          "type": "address[]"
        }
      ],
      "name": "withdrawMembers",
      "outputs": [
        {
          "internalType": "uint256",
          "name": "",
          "type": "uint256"
        }
      ],
      "stateMutability": "nonpayable",
      "type": "function"
    },
    {
      "inputs": [
        {
          "internalType": "address",
          "name": "member",
          "type": "address"
        }
      ],
      "name": "withdraw",
      "outputs": [
        {
          "internalType": "uint256",
          "name": "",
          "type": "uint256"
        }
      ],
      "stateMutability": "nonpayable",
      "type": "function"
    },
    {
      "inputs": [],
      "name": "withdrawAdminFees",
      "outputs": [
        {
          "internalType": "uint256",
          "name": "",
          "type": "uint256"
        }
      ],
      "stateMutability": "nonpayable",
      "type": "function"
    }
  ],
  "bytecode": "0x60806040523480156200001157600080fd5b5060405162001d0738038062001d07833981810160405260608110156200003757600080fd5b815160208301516040808501805191519395929483019291846401000000008211156200006357600080fd5b9083019060208201858111156200007957600080fd5b82518660208202830111640100000000821117156200009757600080fd5b82525081516020918201928201910280838360005b83811015620000c6578181015183820152602001620000ac565b5050505091909101604052505060008054336001600160a01b031991821617909155600280549091166001600160a01b038716179055506200010a90508262000127565b6200011e816001600160e01b03620001fd16565b50505062000411565b6000546001600160a01b0316331462000173576040805162461bcd60e51b815260206004820152600960248201526837b7363ca7bbb732b960b91b604482015290519081900360640190fd5b670de0b6b3a7640000811115620001c2576040805162461bcd60e51b815260206004820152600e60248201526d6572726f725f61646d696e46656560901b604482015290519081900360640190fd5b60038190556040805182815290517f11a80b766155f9b8f16a7da44d66269fd694cb1c247f4814244586f68dd534879181900360200190a150565b6000546001600160a01b0316331462000249576040805162461bcd60e51b815260206004820152600960248201526837b7363ca7bbb732b960b91b604482015290519081900360640190fd5b60005b815181101562000284576200027b8282815181106200026757fe5b60200260200101516200028860201b60201c565b6001016200024c565b5050565b6000546001600160a01b03163314620002d4576040805162461bcd60e51b815260206004820152600960248201526837b7363ca7bbb732b960b91b604482015290519081900360640190fd5b60016001600160a01b0382166000908152600c602052604090205460ff166003811115620002fe57fe5b141562000343576040805162461bcd60e51b815260206004820152600e60248201526d6a706167656e745f61637469766560901b604482015290519081900360640190fd5b6001600160a01b0381166000818152600c6020526040808220805460ff19166001179055517f10581818fb1ffbfd9ac8500cba931a30c3a57b5e9b7972f2fa0aef002b3fde2b9190a2620003a96001600a54620003af60201b6200169e1790919060201c565b600a5550565b6000828201838110156200040a576040805162461bcd60e51b815260206004820152601b60248201527f536166654d6174683a206164646974696f6e206f766572666c6f770000000000604482015290519081900360640190fd5b9392505050565b6118e680620004216000396000f3fe608060405234801561001057600080fd5b50600436106101f05760003560e01c8063814bef521161010f578063bf2d9e0b116100a2578063e30c397811610071578063e30c397814610707578063f2de56511461070f578063f2fde38b14610717578063fc0c546a1461073d576101f0565b8063bf2d9e0b14610687578063c44b73a31461068f578063ca6d56dc146106d9578063d35cec40146106ff576101f0565b80639107d08e116100de5780639107d08e146105f2578063937e8c7b14610651578063a913f41d14610659578063ae66d94814610661576101f0565b8063814bef521461050857806385a21246146105a95780638beb60b6146105b15780638da5cb5b146105ce576101f0565b80634e40ea6411610187578063662d45a211610156578063662d45a2146103985780636f4d469b146103be57806371d1ae751461045f5780637b30ed4314610467576101f0565b80634e40ea641461033c5780634e71e0c81461036257806351cff8d91461036a57806361feacff14610390576101f0565b80631796621a116101c35780631796621a146102655780632df3eba4146103065780632e0d42121461030e5780634c2541b814610334576101f0565b80630419b45a146101f55780630600a8651461020f57806309a6400b14610217578063131b9c041461023f575b600080fd5b6101fd610745565b60408051918252519081900360200190f35b6101fd61089a565b61023d6004803603602081101561022d57600080fd5b50356001600160a01b03166108c1565b005b6101fd6004803603602081101561025557600080fd5b50356001600160a01b03166109df565b61023d6004803603602081101561027b57600080fd5b810190602081018135600160201b81111561029557600080fd5b8201836020820111156102a757600080fd5b803590602001918460208302840111600160201b831117156102c857600080fd5b919080806020026020016040519081016040528093929190818152602001838360200280828437600092019190915250929550610a90945050505050565b6101fd610b0f565b6101fd6004803603602081101561032457600080fd5b50356001600160a01b0316610b15565b6101fd610b32565b61023d6004803603602081101561035257600080fd5b50356001600160a01b0316610b38565b61023d610c81565b6101fd6004803603602081101561038057600080fd5b50356001600160a01b0316610d37565b6101fd610ea7565b61023d600480360360208110156103ae57600080fd5b50356001600160a01b0316610ead565b61023d600480360360208110156103d457600080fd5b810190602081018135600160201b8111156103ee57600080fd5b82018360208201111561040057600080fd5b803590602001918460208302840111600160201b8311171561042157600080fd5b919080806020026020016040519081016040528093929190818152602001838360200280828437600092019190915250929550610fc2945050505050565b6101fd611058565b61023d6004803603602081101561047d57600080fd5b810190602081018135600160201b81111561049757600080fd5b8201836020820111156104a957600080fd5b803590602001918460208302840111600160201b831117156104ca57600080fd5b919080806020026020016040519081016040528093929190818152602001838360200280828437600092019190915250929550611248945050505050565b6101fd6004803603602081101561051e57600080fd5b810190602081018135600160201b81111561053857600080fd5b82018360208201111561054a57600080fd5b803590602001918460208302840111600160201b8311171561056b57600080fd5b919080806020026020016040519081016040528093929190818152602001838360200280828437600092019190915250929550611278945050505050565b6101fd6112c2565b61023d600480360360208110156105c757600080fd5b50356112c8565b6105d661139c565b604080516001600160a01b039092168252519081900360200190f35b6106186004803603602081101561060857600080fd5b50356001600160a01b03166113ab565b6040518085600381111561062857fe5b60ff16815260200184815260200183815260200182815260200194505050505060405180910390f35b6101fd6113d6565b6101fd6113dc565b6101fd6004803603602081101561067757600080fd5b50356001600160a01b03166113e2565b6101fd611459565b6106b5600480360360208110156106a557600080fd5b50356001600160a01b0316611472565b604051808260038111156106c557fe5b60ff16815260200191505060405180910390f35b61023d600480360360208110156106ef57600080fd5b50356001600160a01b0316611487565b6101fd6115be565b6105d66115c4565b6101fd6115d3565b61023d6004803603602081101561072d57600080fd5b50356001600160a01b03166115d9565b6105d6611646565b60008061075f60075460065461165590919063ffffffff16565b905080610770576000915050610897565b600754610783908263ffffffff61169e16565b600755600254600080546040805163a9059cbb60e01b81526001600160a01b039283166004820152602481018690529051919093169263a9059cbb9260448083019360209390929083900390910190829087803b1580156107e357600080fd5b505af11580156107f7573d6000803e3d6000fd5b505050506040513d602081101561080d57600080fd5b5051610852576040805162461bcd60e51b815260206004820152600f60248201526e1d1c985b9cd9995c97d9985a5b1959608a1b604482015290519081900360640190fd5b6000546040805183815290516001600160a01b03909216917fcdcaff67ac16639664e5f9343c9223a1dc9c972ec367b69ae9fc1325c7be54749181900360200190a290505b90565b60006108bc6007546108b06005546108b0611459565b9063ffffffff61165516565b905090565b6000546001600160a01b0316331461090c576040805162461bcd60e51b815260206004820152600960248201526837b7363ca7bbb732b960b91b604482015290519081900360640190fd5b60016001600160a01b0382166000908152600c602052604090205460ff16600381111561093557fe5b1461097c576040805162461bcd60e51b81526020600482015260126024820152716a706167656e745f6e6f745f61637469766560701b604482015290519081900360640190fd5b6001600160a01b0381166000818152600c6020526040808220805460ff19166002179055517feac6c7d5a1c157497119a5d4f661d5f23b844c415452ef440ed346bd127d885e9190a2600a546109d990600163ffffffff61165516565b600a5550565b6001600160a01b0381166000908152600b6020526040812081815460ff166003811115610a0857fe5b1415610a4c576040805162461bcd60e51b815260206004820152600e60248201526d36b2b6b132b92fbab735b737bbb760911b604482015290519081900360640190fd5b6001815460ff166003811115610a5e57fe5b14610a6a576000610a81565b6002810154600954610a819163ffffffff61165516565b8160010154019150505b919050565b6000546001600160a01b03163314610adb576040805162461bcd60e51b815260206004820152600960248201526837b7363ca7bbb732b960b91b604482015290519081900360640190fd5b60005b8151811015610b0b57610b03828281518110610af657fe5b6020026020010151610ead565b600101610ade565b5050565b60045481565b6000610b2c610b23836113e2565b6108b0846109df565b92915050565b60085481565b336001600160a01b0382161480610b6c57506001336000908152600c602052604090205460ff166003811115610b6a57fe5b145b610bad576040805162461bcd60e51b815260206004820152600d60248201526c1858d8d95cdcd7d9195b9a5959609a1b604482015290519081900360640190fd5b6001600160a01b0381166000908152600b602052604090206001815460ff166003811115610bd757fe5b14610c1d576040805162461bcd60e51b81526020600482015260116024820152706d656d6265725f6e6f745f61637469766560781b604482015290519081900360640190fd5b610c26826109df565b600182810191909155815460ff19166002178255600854610c4691611655565b6008556040516001600160a01b038316907f7df2bff504799b36cafb9574b3fcfd8432ef4a1fa89d1ba9fe40324501adf5f590600090a25050565b6001546001600160a01b03163314610cd3576040805162461bcd60e51b815260206004820152601060248201526f37b7363ca832b73234b733a7bbb732b960811b604482015290519081900360640190fd5b600154600080546040516001600160a01b0393841693909116917f8be0079c531659141344cd1fd0a4f28419497f9722a3daafe3b4186f6b6457e091a360018054600080546001600160a01b03199081166001600160a01b03841617909155169055565b600080610d4383610b15565b905080610d54576000915050610a8b565b6001600160a01b0383166000908152600b602052604090206003810154610d81908363ffffffff61169e16565b6003820155600554610d99908363ffffffff61169e16565b6005556002546040805163a9059cbb60e01b81526001600160a01b038781166004830152602482018690529151919092169163a9059cbb9160448083019260209291908290030181600087803b158015610df257600080fd5b505af1158015610e06573d6000803e3d6000fd5b505050506040513d6020811015610e1c57600080fd5b5051610e61576040805162461bcd60e51b815260206004820152600f60248201526e1d1c985b9cd9995c97d9985a5b1959608a1b604482015290519081900360640190fd5b6040805183815290516001600160a01b038616917f48dc35af7b45e2a81fffad55f6e2fafacdb1d3d0d50d24ebdc16324f5ba757f1919081900360200190a25092915050565b60065481565b6000546001600160a01b03163314610ef8576040805162461bcd60e51b815260206004820152600960248201526837b7363ca7bbb732b960b91b604482015290519081900360640190fd5b60016001600160a01b0382166000908152600c602052604090205460ff166003811115610f2157fe5b1415610f65576040805162461bcd60e51b815260206004820152600e60248201526d6a706167656e745f61637469766560901b604482015290519081900360640190fd5b6001600160a01b0381166000818152600c6020526040808220805460ff19166001179055517f10581818fb1ffbfd9ac8500cba931a30c3a57b5e9b7972f2fa0aef002b3fde2b9190a2600a546109d990600163ffffffff61169e16565b6001336000908152600c602052604090205460ff166003811115610fe257fe5b14611028576040805162461bcd60e51b81526020600482015260116024820152701bdb9b1e529bda5b94185c9d1059d95b9d607a1b604482015290519081900360640190fd5b60005b8151811015610b0b5761105082828151811061104357fe5b6020026020010151611487565b60010161102b565b6000806110e961106661089a565b600254604080516370a0823160e01b815230600482015290516001600160a01b03909216916370a0823191602480820192602092909190829003018186803b1580156110b157600080fd5b505afa1580156110c5573d6000803e3d6000fd5b505050506040513d60208110156110db57600080fd5b50519063ffffffff61165516565b9050806110fa576000915050610897565b6000611129670de0b6b3a764000061111d600354856116f890919063ffffffff16565b9063ffffffff61175116565b9050600061113d838363ffffffff61165516565b905060006111566008548361175190919063ffffffff16565b60095490915061116c908263ffffffff61169e16565b600955600454611182908363ffffffff61169e16565b600455600654611198908463ffffffff61169e16565b6006556040805185815290517f41b06c6e0a1531dcb4b86d53ec6268666aa12d55775f8e5a63596fc935cdcc229181900360200190a160085460408051838152602081019290925280517ff74e10cbd1c87229fe868ed3a35ebea686515293ff04a097409a4e3e089e6cac9281900390910190a16040805184815290517f538d1b2114be2374c7010694167f3db7f2d56f864a4e1555582b9716b7d11c3d9181900360200190a150919250505090565b60005b8151811015610b0b5761127082828151811061126357fe5b6020026020010151610b38565b60010161124b565b600080805b83518110156112bb576112b26112a585838151811061129857fe5b6020026020010151610d37565b839063ffffffff61169e16565b5060010161127d565b5092915050565b60055481565b6000546001600160a01b03163314611313576040805162461bcd60e51b815260206004820152600960248201526837b7363ca7bbb732b960b91b604482015290519081900360640190fd5b670de0b6b3a7640000811115611361576040805162461bcd60e51b815260206004820152600e60248201526d6572726f725f61646d696e46656560901b604482015290519081900360640190fd5b60038190556040805182815290517f11a80b766155f9b8f16a7da44d66269fd694cb1c247f4814244586f68dd534879181900360200190a150565b6000546001600160a01b031681565b600b60205260009081526040902080546001820154600283015460039093015460ff90921692909184565b600a5481565b60075481565b6001600160a01b0381166000908152600b6020526040812081815460ff16600381111561140b57fe5b141561144f576040805162461bcd60e51b815260206004820152600e60248201526d36b2b6b132b92fbab735b737bbb760911b604482015290519081900360640190fd5b6003015492915050565b60006108bc60065460045461169e90919063ffffffff16565b600c6020526000908152604090205460ff1681565b6001336000908152600c602052604090205460ff1660038111156114a757fe5b146114ed576040805162461bcd60e51b81526020600482015260116024820152701bdb9b1e529bda5b94185c9d1059d95b9d607a1b604482015290519081900360640190fd5b6001600160a01b0381166000908152600b602052604090206001815460ff16600381111561151757fe5b1415611562576040805162461bcd60e51b81526020600482015260156024820152746d656d6265725f616c72656164795f61637469766560581b604482015290519081900360640190fd5b805460ff19166001908117825560095460028301556008546115839161169e565b6008556040516001600160a01b038316907f0abf3b3f643594d958297062a019458e27d7766629590ac621aa1000fa1298ab90600090a25050565b60035481565b6001546001600160a01b031681565b60095481565b6000546001600160a01b03163314611624576040805162461bcd60e51b815260206004820152600960248201526837b7363ca7bbb732b960b91b604482015290519081900360640190fd5b600180546001600160a01b0319166001600160a01b0392909216919091179055565b6002546001600160a01b031681565b600061169783836040518060400160405280601e81526020017f536166654d6174683a207375627472616374696f6e206f766572666c6f770000815250611793565b9392505050565b600082820183811015611697576040805162461bcd60e51b815260206004820152601b60248201527f536166654d6174683a206164646974696f6e206f766572666c6f770000000000604482015290519081900360640190fd5b60008261170757506000610b2c565b8282028284828161171457fe5b04146116975760405162461bcd60e51b81526004018080602001828103825260218152602001806118906021913960400191505060405180910390fd5b600061169783836040518060400160405280601a81526020017f536166654d6174683a206469766973696f6e206279207a65726f00000000000081525061182a565b600081848411156118225760405162461bcd60e51b81526004018080602001828103825283818151815260200191508051906020019080838360005b838110156117e75781810151838201526020016117cf565b50505050905090810190601f1680156118145780820380516001836020036101000a031916815260200191505b509250505060405180910390fd5b505050900390565b600081836118795760405162461bcd60e51b81526020600482018181528351602484015283519092839260449091019190850190808383600083156117e75781810151838201526020016117cf565b50600083858161188557fe5b049594505050505056fe536166654d6174683a206d756c7469706c69636174696f6e206f766572666c6f77a264697066735822122029f3b85e7c36f1e7466c9730c9ab6d760f299e8c72058819ea195554e4bc0c8864736f6c63430006060033",
  "immutableReferences": {},
  "source": "pragma solidity ^0.6.0;\n\nimport \"openzeppelin-solidity/contracts/token/ERC20/ERC20.sol\";\nimport \"openzeppelin-solidity/contracts/math/SafeMath.sol\";\nimport \"./Ownable.sol\";\n\n\ncontract DataUnionOnchain is Ownable {\n    using SafeMath for uint;\n\n    //used to describe members and join part agents\n    enum ActiveStatus {None, Active, Inactive, Blocked}\n\n    //emitted by joins/parts\n    event MemberJoined(address indexed);\n    event MemberParted(address indexed);\n    event JoinPartAgentAdded(address indexed);\n    event JoinPartAgentRemoved(address indexed);\n\n    event AdminFeeChanged(uint adminFee);\n\n    //emitted when revenue received\n    event RevenueReceived(uint amount);\n    event MemberEarn(uint per_member_earn, uint active_members);\n    event AdminFeeCharged(uint amount);\n\n    //emitted by withdrawal\n    event EarningsWithdrawn(address indexed member, uint amount);\n    event AdminFeesWithdrawn(address indexed admin, uint amount);\n\n    struct MemberInfo {\n        ActiveStatus status;\n        uint earnings_before_last_join;\n        uint lme_at_join;\n        uint withdrawnEarnings;\n    }\n\n\n    ERC20 public token;\n    uint public adminFeeFraction;\n\n    //totalRevenue = totalEarnings + totalAdminFees;\n\n    //excluding adminFee:\n    uint public totalEarnings;\n    uint public totalEarningsWithdrawn;\n\n    //only adminFee\n    uint public totalAdminFees;\n    uint public totalAdminFeesWithdrawn;\n\n    uint public active_members;\n    uint public lifetime_member_earnings;\n\n    uint public join_part_agent_count;\n    mapping(address => MemberInfo) public memberData;\n    mapping(address => ActiveStatus) public joinPartAgents;\n\n    modifier onlyJoinPartAgent() {\n        require(\n            joinPartAgents[msg.sender] == ActiveStatus.Active,\n            \"onlyJoinPartAgent\"\n        );\n        _;\n    }\n\n    constructor(address token_address, uint adminFeeFraction_, address[] memory agents)\n        public\n        Ownable(msg.sender)\n    {\n        token = ERC20(token_address);\n        setAdminFee(adminFeeFraction_);\n        addJoinPartAgents(agents);\n    }\n\n    /**\n     * Admin fee as a fraction of revenue.\n     * Smart contract doesn't use it, it's here just for storing purposes.\n     * @param newAdminFee fixed-point decimal in the same way as ether: 50% === 0.5 ether === \"500000000000000000\"\n     */\n    function setAdminFee(uint newAdminFee) public onlyOwner {\n        require(newAdminFee <= 1 ether, \"error_adminFee\");\n        adminFeeFraction = newAdminFee;\n        emit AdminFeeChanged(adminFeeFraction);\n    }\n    function addJoinPartAgents(address[] memory agents) public onlyOwner {\n        for(uint i = 0; i < agents.length; i++){\n            addJoinPartAgent(agents[i]);\n        }\n    }\n    function addJoinPartAgent(address agent) public onlyOwner {\n        require(joinPartAgents[agent] != ActiveStatus.Active, \"jpagent_active\");\n        joinPartAgents[agent] = ActiveStatus.Active;\n        emit JoinPartAgentAdded(agent);\n        join_part_agent_count = join_part_agent_count.add(1);\n    }\n\n    function removeJoinPartAgent(address agent) public onlyOwner {\n        require(\n            joinPartAgents[agent] == ActiveStatus.Active,\n            \"jpagent_not_active\"\n        );\n        joinPartAgents[agent] = ActiveStatus.Inactive;\n        emit JoinPartAgentRemoved(agent);\n        join_part_agent_count = join_part_agent_count.sub(1);\n    }\n\n    function getEarnings(address member) public view returns (uint) {\n        MemberInfo storage info = memberData[member];\n        require(info.status != ActiveStatus.None, \"member_unknown\");\n        return\n            info.earnings_before_last_join +\n            (\n                info.status == ActiveStatus.Active\n                    ? lifetime_member_earnings.sub(\n                        info.lme_at_join\n                    )\n                    : 0\n            );\n    }\n\n    function getWithdrawn(address member) public view returns (uint) {\n        MemberInfo storage info = memberData[member];\n        require(info.status != ActiveStatus.None, \"member_unknown\");\n        return info.withdrawnEarnings;\n    }\n\n    function getWithdrawableEarnings(address member)\n        public\n        view\n        returns (uint)\n    {\n        return getEarnings(member).sub(getWithdrawn(member));\n    }\n\n    function addRevenue() public returns (uint) {\n        // a.sub(b) errors if b > a\n        uint amount = token.balanceOf(address(this)).sub(totalWithdrawable());\n        if (amount == 0) return 0;\n        uint adminFee = amount.mul(adminFeeFraction).div(10**18);\n        uint memberEarnings = amount.sub(adminFee);\n        uint per_member_earn = memberEarnings.div(active_members);\n        lifetime_member_earnings = lifetime_member_earnings.add(\n            per_member_earn\n        );\n        totalEarnings = totalEarnings.add(memberEarnings);\n        totalAdminFees = totalAdminFees.add(adminFee);\n\n        emit RevenueReceived(amount);\n        emit MemberEarn(per_member_earn, active_members);\n        emit AdminFeeCharged(adminFee);\n        return amount;\n    }\n\n    function addMember(address member) public onlyJoinPartAgent {\n        MemberInfo storage info = memberData[member];\n        require(info.status != ActiveStatus.Active, \"member_already_active\");\n        info.status = ActiveStatus.Active;\n        info.lme_at_join = lifetime_member_earnings;\n        active_members = active_members.add(1);\n        emit MemberJoined(member);\n    }\n\n    function partMember(address member) public {\n        require(\n            msg.sender == member ||\n                joinPartAgents[msg.sender] == ActiveStatus.Active,\n            \"access_denied\"\n        );\n        MemberInfo storage info = memberData[member];\n        require(info.status == ActiveStatus.Active, \"member_not_active\");\n        info.earnings_before_last_join = getEarnings(member);\n        info.status = ActiveStatus.Inactive;\n        active_members = active_members.sub(1);\n        emit MemberParted(member);\n    }\n\n    function addMembers(address[] memory members) public onlyJoinPartAgent {\n        for (uint i = 0; i < members.length; i++) {\n            addMember(members[i]);\n        }\n    }\n\n    //access checked in partMember\n    function partMembers(address[] memory members) public {\n        for (uint i = 0; i < members.length; i++) {\n            partMember(members[i]);\n        }\n    }\n    \n    function totalRevenue() public view returns (uint) {\n        return totalEarnings.add(totalAdminFees);\n    }\n\n    function totalWithdrawable() public view returns (uint) {\n        return totalRevenue().sub(totalEarningsWithdrawn).sub(totalAdminFeesWithdrawn);\n    }\n\n    function withdrawMembers(address[] memory members) public returns (uint) {\n        uint withdrawn = 0;\n        for (uint i = 0; i < members.length; i++) {\n            withdrawn.add(withdraw(members[i]));\n        }\n        return withdrawn;\n    }\n\n    function withdraw(address member) public returns (uint) {\n        uint withdrawable = getWithdrawableEarnings(member);\n        if (withdrawable == 0) return 0;\n        MemberInfo storage info = memberData[member];\n        info.withdrawnEarnings = info.withdrawnEarnings.add(withdrawable);\n        totalEarningsWithdrawn = totalEarningsWithdrawn.add(withdrawable);\n        require(token.transfer(member, withdrawable), \"transfer_failed\");\n        emit EarningsWithdrawn(member, withdrawable);\n        return withdrawable;\n    }\n\n    function withdrawAdminFees() public returns (uint) {\n        uint withdrawable = totalAdminFees.sub(totalAdminFeesWithdrawn);\n        if (withdrawable == 0) return 0;\n        totalAdminFeesWithdrawn = totalAdminFeesWithdrawn.add(withdrawable);\n        require(token.transfer(owner, withdrawable), \"transfer_failed\");\n        emit AdminFeesWithdrawn(owner, withdrawable);\n        return withdrawable;\n    }\n}\n",
  "sourcePath": "/home/heynow/streamr/data-union-solidity/contracts/DataUnionOnchain.sol",
  "compiler": {
    "name": "solc",
    "version": "0.6.6+commit.6c089d02.Emscripten.clang"
  },
  "schemaVersion": "3.2.0",
  "updatedAt": "2020-06-02T19:51:55.180Z",
  "devdoc": {
    "methods": {
      "claimOwnership()": {
        "details": "Allows the pendingOwner address to finalize the transfer."
      },
      "setAdminFee(uint256)": {
        "params": {
          "newAdminFee": "fixed-point decimal in the same way as ether: 50% === 0.5 ether === \"500000000000000000\""
        }
      },
      "transferOwnership(address)": {
        "details": "Allows the current owner to set the pendingOwner address.",
        "params": {
          "newOwner": "The address to transfer ownership to."
        }
      }
    }
  },
  "userdoc": {
    "methods": {
      "setAdminFee(uint256)": {
        "notice": "Admin fee as a fraction of revenue. Smart contract doesn't use it, it's here just for storing purposes."
      }
    }
  }
}