{
  "contractName": "DataUnionFactorySidechain",
  "abi": [
    {
      "inputs": [
        {
          "internalType": "address",
          "name": "_token_mediator",
          "type": "address"
        },
        {
          "internalType": "address",
          "name": "_data_union_sidechain_template",
          "type": "address"
        }
      ],
      "stateMutability": "nonpayable",
      "type": "constructor"
    },
    {
      "anonymous": false,
      "inputs": [
        {
          "indexed": true,
          "internalType": "address",
          "name": "mainnet",
          "type": "address"
        },
        {
          "indexed": true,
          "internalType": "address",
          "name": "sidenet",
          "type": "address"
        },
        {
          "indexed": true,
          "internalType": "address",
          "name": "owner",
          "type": "address"
        },
        {
          "indexed": false,
          "internalType": "address",
          "name": "template",
          "type": "address"
        }
      ],
      "name": "SidechainDUCreated",
      "type": "event"
    },
    {
      "inputs": [],
      "name": "amb",
      "outputs": [
        {
          "internalType": "contract IAMB",
          "name": "",
          "type": "address"
        }
      ],
      "stateMutability": "view",
      "type": "function"
    },
    {
      "inputs": [],
      "name": "data_union_sidechain_template",
      "outputs": [
        {
          "internalType": "address",
          "name": "",
          "type": "address"
        }
      ],
      "stateMutability": "view",
      "type": "function"
    },
    {
      "inputs": [],
      "name": "newDUInitialEth",
      "outputs": [
        {
          "internalType": "uint256",
          "name": "",
          "type": "uint256"
        }
      ],
      "stateMutability": "view",
      "type": "function"
    },
    {
      "inputs": [],
      "name": "newDUOwnerInitialEth",
      "outputs": [
        {
          "internalType": "uint256",
          "name": "",
          "type": "uint256"
        }
      ],
      "stateMutability": "view",
      "type": "function"
    },
    {
      "inputs": [],
      "name": "token_mediator",
      "outputs": [
        {
          "internalType": "contract ITokenMediator",
          "name": "",
          "type": "address"
        }
      ],
      "stateMutability": "view",
      "type": "function"
    },
    {
      "inputs": [
        {
          "internalType": "address",
          "name": "mainet_address",
          "type": "address"
        }
      ],
      "name": "sidechainAddress",
      "outputs": [
        {
          "internalType": "address",
          "name": "proxy",
          "type": "address"
        }
      ],
      "stateMutability": "view",
      "type": "function"
    },
    {
      "inputs": [
        {
          "internalType": "address payable",
          "name": "owner",
          "type": "address"
        },
        {
          "internalType": "address[]",
          "name": "agents",
          "type": "address[]"
        }
      ],
      "name": "deployNewDUSidechain",
      "outputs": [
        {
          "internalType": "address",
          "name": "",
          "type": "address"
        }
      ],
      "stateMutability": "nonpayable",
      "type": "function"
    }
  ],
  "bytecode": "0x608060405234801561001057600080fd5b506040516108453803806108458339818101604052604081101561003357600080fd5b508051602091820151600280546001600160a01b038085166001600160a01b03199283161792839055600080548286169316929092179091556040805163cd59658360e01b8152905194959394929091169263cd59658392600480840193829003018186803b1580156100a557600080fd5b505afa1580156100b9573d6000803e3d6000fd5b505050506040513d60208110156100cf57600080fd5b5051600180546001600160a01b0319166001600160a01b03909216919091179055506107439050806101026000396000f3fe608060405234801561001057600080fd5b506004361061007d5760003560e01c8063afc6224b1161005b578063afc6224b1461017f578063c5a8c91f14610199578063e4a154a4146101a1578063f7c1329e146101a95761007d565b80631062b39a1461008257806317c2a98c146100a6578063325ff66f146100cc575b600080fd5b61008a6101b1565b604080516001600160a01b039092168252519081900360200190f35b61008a600480360360208110156100bc57600080fd5b50356001600160a01b03166101c0565b61008a600480360360408110156100e257600080fd5b6001600160a01b03823516919081019060408101602082013564010000000081111561010d57600080fd5b82018360208201111561011f57600080fd5b8035906020019184602083028401116401000000008311171561014157600080fd5b9190808060200260200160405190810160405280939291908181526020018383602002808284376000920191909152509295506101e3945050505050565b610187610514565b60408051918252519081900360200190f35b61008a61051a565b61008a610529565b610187610538565b6001546001600160a01b031681565b600080546101dd906001600160a01b03908116903090851661053e565b92915050565b600154600090819081906001600160a01b031633141561028257600160009054906101000a90046001600160a01b03166001600160a01b031663d67bdd256040518163ffffffff1660e01b815260040160206040518083038186803b15801561024b57600080fd5b505afa15801561025f573d6000803e3d6000fd5b505050506040513d602081101561027557600080fd5b5051915060019050610286565b3391505b600254604080516318d8f9c960e01b815290516001600160a01b03808616936060938a9391909216916318d8f9c9916004808301926020929190829003018186803b1580156102d457600080fd5b505afa1580156102e8573d6000803e3d6000fd5b505050506040513d60208110156102fe57600080fd5b50516002546040516001600160a01b038481166024830190815281851660448401529281166084830181905290891660a483015260a0606483019081528b5160c48401528b518c9492938b93929160e4909101906020878101910280838360005b8381101561037757818101518382015260200161035f565b50506040805193909501838103601f190184529094525060208101805163434f423f60e11b6001600160e01b0390911617905260008054919b5099506103da98506103d397506001600160a01b031695506105aa945050505050565b83856105fc565b90506001600160a01b038116610437576040805162461bcd60e51b815260206004820152601860248201527f6572726f725f64755f616c72656164795f637265617465640000000000000000604482015290519081900360640190fd5b600054604080516001600160a01b0392831681529051828b169284811692908916917f90d0a5d098b9a181ff8ddc866f840cc210e5b91eaf27bc267d5822a0deafad259181900360200190a4831561050957600060035411801561049d57506003544710155b156104c9576003546040516001600160a01b0383169180156108fc02916000818181858888f150505050505b60006004541180156104dd57506004544710155b15610509576004546040516001600160a01b038a169180156108fc02916000818181858888f150505050505b979650505050505050565b60045481565b6002546001600160a01b031681565b6000546001600160a01b031681565b60035481565b60008061054a856105aa565b8051602091820120604080516001600160f81b0319818501526bffffffffffffffffffffffff19606089901b1660218201526035810187905260558082019390935281518082039093018352607501905280519101209150509392505050565b604080516057810190915260378152733d602d80600a3d3981f3363d3d373d3d3d363d7360601b602082015260609190911b60348201526e5af43d82803e903d91602b57fd5bf360881b604882015290565b825160009082816020870184f5845190925015610705576000826001600160a01b0316856040518082805190602001908083835b6020831061064f5780518252601f199092019160209182019101610630565b6001836020036101000a0380198251168184511680821785525050505050509050019150506000604051808303816000865af19150503d80600081146106b1576040519150601f19603f3d011682016040523d82523d6000602084013e6106b6565b606091505b5050905080610703576040805162461bcd60e51b815260206004820152601460248201527332b93937b92fb4b734ba34b0b634bd30ba34b7b760611b604482015290519081900360640190fd5b505b50939250505056fea264697066735822122069bc539ac012ca69dc06b5e4b14dfc0a7ddba254d66b2c2c7003f8ef5157038764736f6c63430006060033",
  "immutableReferences": {},
  "source": "pragma solidity ^0.6.0;\n\nimport \"openzeppelin-solidity/contracts/token/ERC20/IERC20.sol\";\nimport \"openzeppelin-solidity/contracts/math/SafeMath.sol\";\nimport \"./CloneLib.sol\";\nimport \"./IAMB.sol\";\nimport \"./ITokenMediator.sol\";\n\ncontract DataUnionFactorySidechain {\n    event SidechainDUCreated(address indexed mainnet, address indexed sidenet, address indexed owner, address template);\n\n    address public data_union_sidechain_template;\n    IAMB public amb;\n    ITokenMediator public token_mediator;\n    uint public newDUInitialEth;\n    uint public newDUOwnerInitialEth;\n\n    constructor( address _token_mediator, address _data_union_sidechain_template) public {\n        token_mediator = ITokenMediator(_token_mediator);\n        data_union_sidechain_template = _data_union_sidechain_template;\n        amb = IAMB(token_mediator.bridgeContract());\n    }\n\n    function sidechainAddress(address mainet_address)\n        public view\n        returns (address proxy)\n    {\n        return CloneLib.predictCloneAddressCreate2(data_union_sidechain_template, address(this), bytes32(uint256(mainet_address)));\n    }\n\n/*\n    initialize(address _owner,\n        address token_address,\n        address[] memory agents,\n        address _token_mediator,\n        address _mainchain_DU)\n\n\n    users can only deploy with salt = their key.\n*/\n    function deployNewDUSidechain(address payable owner, address[] memory agents) public returns (address) {\n        address duMainnet;\n        bool sendEth = false;\n        if(msg.sender == address(amb)) {\n            duMainnet = amb.messageSender();\n            sendEth = true;\n        } else {\n            //if the request didnt come from AMB, use the sender's address as the corresponding \"mainnet\" address\n            duMainnet = msg.sender;\n        }\n        bytes32 salt = bytes32(uint256(duMainnet));\n        bytes memory data = abi.encodeWithSignature(\"initialize(address,address,address[],address,address)\",\n            owner,\n            token_mediator.erc677token(),\n            agents,\n            address(token_mediator),\n            duMainnet\n        );\n        address payable du = CloneLib.deployCodeAndInitUsingCreate2(CloneLib.cloneBytecode(data_union_sidechain_template), data, salt);\n        require(du != address(0), \"error_du_already_created\");\n        emit SidechainDUCreated(duMainnet, du, owner, data_union_sidechain_template);\n        if(sendEth){\n            //continue wheter or not send succeeds\n            if(newDUInitialEth > 0 && address(this).balance >= newDUInitialEth)\n                du.send(newDUInitialEth);\n            if(newDUOwnerInitialEth > 0 && address(this).balance >= newDUOwnerInitialEth)\n                owner.send(newDUOwnerInitialEth);\n        }\n        return du;\n    }\n}\n",
  "sourcePath": "/home/heynow/streamr/data-union-solidity/contracts/DataUnionFactorySidechain.sol",
  "compiler": {
    "name": "solc",
    "version": "0.6.6+commit.6c089d02.Emscripten.clang"
  },
  "schemaVersion": "3.2.3",
  "updatedAt": "2020-09-01T10:31:57.744Z",
  "devdoc": {
    "methods": {}
  },
  "userdoc": {
    "methods": {}
  }
}