{
  "contractName": "ERC677BridgeToken",
  "abi": [
    {
      "inputs": [
        {
          "internalType": "string",
          "name": "_name",
          "type": "string"
        },
        {
          "internalType": "string",
          "name": "_symbol",
          "type": "string"
        },
        {
          "internalType": "uint8",
          "name": "_decimals",
          "type": "uint8"
        }
      ],
      "stateMutability": "nonpayable",
      "type": "constructor"
    },
    {
      "anonymous": false,
      "inputs": [
        {
          "indexed": true,
          "internalType": "address",
          "name": "owner",
          "type": "address"
        },
        {
          "indexed": true,
          "internalType": "address",
          "name": "spender",
          "type": "address"
        },
        {
          "indexed": false,
          "internalType": "uint256",
          "name": "value",
          "type": "uint256"
        }
      ],
      "name": "Approval",
      "type": "event"
    },
    {
      "anonymous": false,
      "inputs": [
        {
          "indexed": false,
          "internalType": "address",
          "name": "from",
          "type": "address"
        },
        {
          "indexed": false,
          "internalType": "address",
          "name": "to",
          "type": "address"
        },
        {
          "indexed": false,
          "internalType": "uint256",
          "name": "value",
          "type": "uint256"
        }
      ],
      "name": "ContractFallbackCallFailed",
      "type": "event"
    },
    {
      "anonymous": false,
      "inputs": [
        {
          "indexed": true,
          "internalType": "address",
          "name": "previousOwner",
          "type": "address"
        },
        {
          "indexed": true,
          "internalType": "address",
          "name": "newOwner",
          "type": "address"
        }
      ],
      "name": "OwnershipTransferred",
      "type": "event"
    },
    {
      "anonymous": false,
      "inputs": [
        {
          "indexed": true,
          "internalType": "address",
          "name": "from",
          "type": "address"
        },
        {
          "indexed": true,
          "internalType": "address",
          "name": "to",
          "type": "address"
        },
        {
          "indexed": false,
          "internalType": "uint256",
          "name": "value",
          "type": "uint256"
        },
        {
          "indexed": false,
          "internalType": "bytes",
          "name": "data",
          "type": "bytes"
        }
      ],
      "name": "Transfer",
      "type": "event"
    },
    {
      "anonymous": false,
      "inputs": [
        {
          "indexed": true,
          "internalType": "address",
          "name": "from",
          "type": "address"
        },
        {
          "indexed": true,
          "internalType": "address",
          "name": "to",
          "type": "address"
        },
        {
          "indexed": false,
          "internalType": "uint256",
          "name": "value",
          "type": "uint256"
        }
      ],
      "name": "Transfer",
      "type": "event"
    },
    {
      "inputs": [
        {
          "internalType": "address",
          "name": "owner",
          "type": "address"
        },
        {
          "internalType": "address",
          "name": "spender",
          "type": "address"
        }
      ],
      "name": "allowance",
      "outputs": [
        {
          "internalType": "uint256",
          "name": "",
          "type": "uint256"
        }
      ],
      "stateMutability": "view",
      "type": "function"
    },
    {
      "inputs": [
        {
          "internalType": "address",
          "name": "spender",
          "type": "address"
        },
        {
          "internalType": "uint256",
          "name": "amount",
          "type": "uint256"
        }
      ],
      "name": "approve",
      "outputs": [
        {
          "internalType": "bool",
          "name": "",
          "type": "bool"
        }
      ],
      "stateMutability": "nonpayable",
      "type": "function"
    },
    {
      "inputs": [
        {
          "internalType": "address",
          "name": "account",
          "type": "address"
        }
      ],
      "name": "balanceOf",
      "outputs": [
        {
          "internalType": "uint256",
          "name": "",
          "type": "uint256"
        }
      ],
      "stateMutability": "view",
      "type": "function"
    },
    {
      "inputs": [],
      "name": "decimals",
      "outputs": [
        {
          "internalType": "uint8",
          "name": "",
          "type": "uint8"
        }
      ],
      "stateMutability": "view",
      "type": "function"
    },
    {
      "inputs": [
        {
          "internalType": "address",
          "name": "spender",
          "type": "address"
        },
        {
          "internalType": "uint256",
          "name": "subtractedValue",
          "type": "uint256"
        }
      ],
      "name": "decreaseAllowance",
      "outputs": [
        {
          "internalType": "bool",
          "name": "",
          "type": "bool"
        }
      ],
      "stateMutability": "nonpayable",
      "type": "function"
    },
    {
      "inputs": [
        {
          "internalType": "address",
          "name": "spender",
          "type": "address"
        },
        {
          "internalType": "uint256",
          "name": "addedValue",
          "type": "uint256"
        }
      ],
      "name": "increaseAllowance",
      "outputs": [
        {
          "internalType": "bool",
          "name": "",
          "type": "bool"
        }
      ],
      "stateMutability": "nonpayable",
      "type": "function"
    },
    {
      "inputs": [
        {
          "internalType": "address",
          "name": "recipient",
          "type": "address"
        },
        {
          "internalType": "uint256",
          "name": "amount",
          "type": "uint256"
        }
      ],
      "name": "mint",
      "outputs": [],
      "stateMutability": "nonpayable",
      "type": "function"
    },
    {
      "inputs": [],
      "name": "name",
      "outputs": [
        {
          "internalType": "string",
          "name": "",
          "type": "string"
        }
      ],
      "stateMutability": "view",
      "type": "function"
    },
    {
      "inputs": [],
      "name": "owner",
      "outputs": [
        {
          "internalType": "address",
          "name": "",
          "type": "address"
        }
      ],
      "stateMutability": "view",
      "type": "function"
    },
    {
      "inputs": [],
      "name": "symbol",
      "outputs": [
        {
          "internalType": "string",
          "name": "",
          "type": "string"
        }
      ],
      "stateMutability": "view",
      "type": "function"
    },
    {
      "inputs": [],
      "name": "totalSupply",
      "outputs": [
        {
          "internalType": "uint256",
          "name": "",
          "type": "uint256"
        }
      ],
      "stateMutability": "view",
      "type": "function"
    },
    {
      "inputs": [
        {
          "internalType": "address",
          "name": "newOwner",
          "type": "address"
        }
      ],
      "name": "transferOwnership",
      "outputs": [],
      "stateMutability": "nonpayable",
      "type": "function"
    },
    {
      "inputs": [],
      "name": "bridgeContract",
      "outputs": [
        {
          "internalType": "address",
          "name": "",
          "type": "address"
        }
      ],
      "stateMutability": "view",
      "type": "function"
    },
    {
      "inputs": [
        {
          "internalType": "address",
          "name": "_bridgeContract",
          "type": "address"
        }
      ],
      "name": "setBridgeContract",
      "outputs": [],
      "stateMutability": "nonpayable",
      "type": "function"
    },
    {
      "inputs": [
        {
          "internalType": "address",
          "name": "_to",
          "type": "address"
        },
        {
          "internalType": "uint256",
          "name": "_value",
          "type": "uint256"
        },
        {
          "internalType": "bytes",
          "name": "_data",
          "type": "bytes"
        }
      ],
      "name": "transferAndCall",
      "outputs": [
        {
          "internalType": "bool",
          "name": "",
          "type": "bool"
        }
      ],
      "stateMutability": "nonpayable",
      "type": "function"
    },
    {
      "inputs": [],
      "name": "getTokenInterfacesVersion",
      "outputs": [
        {
          "internalType": "uint64",
          "name": "major",
          "type": "uint64"
        },
        {
          "internalType": "uint64",
          "name": "minor",
          "type": "uint64"
        },
        {
          "internalType": "uint64",
          "name": "patch",
          "type": "uint64"
        }
      ],
      "stateMutability": "pure",
      "type": "function"
    },
    {
      "inputs": [
        {
          "internalType": "address",
          "name": "_to",
          "type": "address"
        },
        {
          "internalType": "uint256",
          "name": "_value",
          "type": "uint256"
        }
      ],
      "name": "transfer",
      "outputs": [
        {
          "internalType": "bool",
          "name": "",
          "type": "bool"
        }
      ],
      "stateMutability": "nonpayable",
      "type": "function"
    },
    {
      "inputs": [
        {
          "internalType": "address",
          "name": "_from",
          "type": "address"
        },
        {
          "internalType": "address",
          "name": "_to",
          "type": "address"
        },
        {
          "internalType": "uint256",
          "name": "_value",
          "type": "uint256"
        }
      ],
      "name": "transferFrom",
      "outputs": [
        {
          "internalType": "bool",
          "name": "",
          "type": "bool"
        }
      ],
      "stateMutability": "nonpayable",
      "type": "function"
    },
    {
      "inputs": [
        {
          "internalType": "address",
          "name": "_address",
          "type": "address"
        }
      ],
      "name": "isBridge",
      "outputs": [
        {
          "internalType": "bool",
          "name": "",
          "type": "bool"
        }
      ],
      "stateMutability": "view",
      "type": "function"
    },
    {
      "inputs": [],
      "name": "renounceOwnership",
      "outputs": [],
      "stateMutability": "nonpayable",
      "type": "function"
    },
    {
      "inputs": [
        {
          "internalType": "address",
          "name": "_token",
          "type": "address"
        },
        {
          "internalType": "address payable",
          "name": "_to",
          "type": "address"
        }
      ],
      "name": "claimTokens",
      "outputs": [],
      "stateMutability": "nonpayable",
      "type": "function"
    }
  ],
  "bytecode": "0x60806040523480156200001157600080fd5b50604051620018cd380380620018cd833981810160405260608110156200003757600080fd5b81019080805160405193929190846401000000008211156200005857600080fd5b9083019060208201858111156200006e57600080fd5b82516401000000008111828201881017156200008957600080fd5b82525081516020918201929091019080838360005b83811015620000b85781810151838201526020016200009e565b50505050905090810190601f168015620000e65780820380516001836020036101000a031916815260200191505b50604052602001805160405193929190846401000000008211156200010a57600080fd5b9083019060208201858111156200012057600080fd5b82516401000000008111828201881017156200013b57600080fd5b82525081516020918201929091019080838360005b838110156200016a57818101518382015260200162000150565b50505050905090810190601f168015620001985780820380516001836020036101000a031916815260200191505b506040526020908101518551909350859250849183918391620001c19160039185019062000262565b508051620001d790600490602084019062000262565b50506005805460ff19166012179055506000620001fc6001600160e01b036200025d16565b60058054610100600160a81b0319166101006001600160a01b03841690810291909117909155604051919250906000907f8be0079c531659141344cd1fd0a4f28419497f9722a3daafe3b4186f6b6457e0908290a350505050505062000304565b335b90565b828054600181600116156101000203166002900490600052602060002090601f016020900481019282601f10620002a557805160ff1916838001178555620002d5565b82800160010185558215620002d5579182015b82811115620002d5578251825591602001919060010190620002b8565b50620002e3929150620002e7565b5090565b6200025f91905b80821115620002e35760008155600101620002ee565b6115b980620003146000396000f3fe608060405234801561001057600080fd5b50600436106101375760003560e01c806370a08231116100b857806395d89b411161007c57806395d89b4114610446578063a457c2d71461044e578063a9059cbb1461047a578063cd596583146104a6578063dd62ed3e146104ae578063f2fde38b146104dc57610137565b806370a082311461039a578063715018a6146103c0578063726600ce146103c8578063859ba28c146103ee5780638da5cb5b1461042257610137565b8063313ce567116100ff578063313ce56714610271578063395093511461028f5780634000aea0146102bb57806340c10f191461034057806369ffa08a1461036c57610137565b806306fdde031461013c578063095ea7b3146101b95780630b26cf66146101f957806318160ddd1461022157806323b872dd1461023b575b600080fd5b610144610502565b6040805160208082528351818301528351919283929083019185019080838360005b8381101561017e578181015183820152602001610166565b50505050905090810190601f1680156101ab5780820380516001836020036101000a031916815260200191505b509250505060405180910390f35b6101e5600480360360408110156101cf57600080fd5b506001600160a01b038135169060200135610598565b604080519115158252519081900360200190f35b61021f6004803603602081101561020f57600080fd5b50356001600160a01b03166105b5565b005b610229610646565b60408051918252519081900360200190f35b6101e56004803603606081101561025157600080fd5b506001600160a01b0381358116916020810135909116906040013561064c565b610279610677565b6040805160ff9092168252519081900360200190f35b6101e5600480360360408110156102a557600080fd5b506001600160a01b038135169060200135610680565b6101e5600480360360608110156102d157600080fd5b6001600160a01b038235169160208101359181019060608101604082013564010000000081111561030157600080fd5b82018360208201111561031357600080fd5b8035906020019184600183028401116401000000008311171561033557600080fd5b5090925090506106d9565b61021f6004803603604081101561035657600080fd5b506001600160a01b0381351690602001356107fa565b61021f6004803603604081101561038257600080fd5b506001600160a01b0381358116916020013516610865565b610229600480360360208110156103b057600080fd5b50356001600160a01b0316610a37565b61021f610a52565b6101e5600480360360208110156103de57600080fd5b50356001600160a01b0316610aaf565b6103f6610ac3565b6040805167ffffffffffffffff9485168152928416602084015292168183015290519081900360600190f35b61042a610acd565b604080516001600160a01b039092168252519081900360200190f35b610144610ae1565b6101e56004803603604081101561046457600080fd5b506001600160a01b038135169060200135610b42565b6101e56004803603604081101561049057600080fd5b506001600160a01b038135169060200135610bb0565b61042a610bd0565b610229600480360360408110156104c457600080fd5b506001600160a01b0381358116916020013516610bdf565b61021f600480360360208110156104f257600080fd5b50356001600160a01b0316610c0a565b60038054604080516020601f600260001961010060018816150201909516949094049384018190048102820181019092528281526060939092909183018282801561058e5780601f106105635761010080835404028352916020019161058e565b820191906000526020600020905b81548152906001019060200180831161057157829003601f168201915b5050505050905090565b60006105ac6105a5610d13565b8484610d17565b50600192915050565b6105bd610d13565b60055461010090046001600160a01b03908116911614610612576040805162461bcd60e51b815260206004820181905260248201526000805160206114f6833981519152604482015290519081900360640190fd5b61061b81610e03565b61062457600080fd5b600680546001600160a01b0319166001600160a01b0392909216919091179055565b60025490565b6000610659848484610e3f565b61066257600080fd5b61066d848484610ebd565b5060019392505050565b60055460ff1690565b60006105ac61068d610d13565b846106d4856001600061069e610d13565b6001600160a01b03908116825260208083019390935260409182016000908120918c16815292529020549063ffffffff610f5416565b610d17565b6000846001600160a01b038116158015906106fd57506001600160a01b0381163014155b61070657600080fd5b6107108686610fb5565b61071957600080fd5b856001600160a01b0316336001600160a01b03167fe19260aff97b920c7df27010903aeb9c8d2be5d310a2c67824cf3f15396e4c1687878760405180848152602001806020018281038252848482818152602001925080828437600083820152604051601f909101601f1916909201829003965090945050505050a361079e86610e03565b156107ee576107e533878787878080601f016020809104026020016040519081016040528093929190818152602001838380828437600092019190915250610fc192505050565b6107ee57600080fd5b50600195945050505050565b610802610d13565b60055461010090046001600160a01b03908116911614610857576040805162461bcd60e51b815260206004820181905260248201526000805160206114f6833981519152604482015290519081900360640190fd5b610861828261112e565b5050565b61086d610d13565b60055461010090046001600160a01b039081169116146108c2576040805162461bcd60e51b815260206004820181905260248201526000805160206114f6833981519152604482015290519081900360640190fd5b806001600160a01b038116158015906108e457506001600160a01b0381163014155b6108ed57600080fd5b6001600160a01b038316610936576040516001600160a01b038316904780156108fc02916000818181858888f19350505050158015610930573d6000803e3d6000fd5b50610a32565b604080516370a0823160e01b8152306004820152905184916000916001600160a01b038416916370a08231916024808301926020929190829003018186803b15801561098157600080fd5b505afa158015610995573d6000803e3d6000fd5b505050506040513d60208110156109ab57600080fd5b50516040805163a9059cbb60e01b81526001600160a01b0387811660048301526024820184905291519293509084169163a9059cbb916044808201926020929091908290030181600087803b158015610a0357600080fd5b505af1158015610a17573d6000803e3d6000fd5b505050506040513d6020811015610a2d57600080fd5b505050505b505050565b6001600160a01b031660009081526020819052604090205490565b610a5a610d13565b60055461010090046001600160a01b03908116911614610137576040805162461bcd60e51b815260206004820181905260248201526000805160206114f6833981519152604482015290519081900360640190fd5b6006546001600160a01b0390811691161490565b6002806000909192565b60055461010090046001600160a01b031690565b60048054604080516020601f600260001961010060018816150201909516949094049384018190048102820181019092528281526060939092909183018282801561058e5780601f106105635761010080835404028352916020019161058e565b60006105ac610b4f610d13565b846106d48560405180606001604052806025815260200161155f6025913960016000610b79610d13565b6001600160a01b03908116825260208083019390935260409182016000908120918d1681529252902054919063ffffffff61122a16565b6000610bbc8383610fb5565b610bc557600080fd5b6105ac338484610ebd565b6006546001600160a01b031690565b6001600160a01b03918216600090815260016020908152604080832093909416825291909152205490565b610c12610d13565b60055461010090046001600160a01b03908116911614610c67576040805162461bcd60e51b815260206004820181905260248201526000805160206114f6833981519152604482015290519081900360640190fd5b6001600160a01b038116610cac5760405162461bcd60e51b81526004018080602001828103825260268152602001806114606026913960400191505060405180910390fd5b6005546040516001600160a01b0380841692610100900416907f8be0079c531659141344cd1fd0a4f28419497f9722a3daafe3b4186f6b6457e090600090a3600580546001600160a01b0390921661010002610100600160a81b0319909216919091179055565b3390565b6001600160a01b038316610d5c5760405162461bcd60e51b815260040180806020018281038252602481526020018061153b6024913960400191505060405180910390fd5b6001600160a01b038216610da15760405162461bcd60e51b81526004018080602001828103825260228152602001806114866022913960400191505060405180910390fd5b6001600160a01b03808416600081815260016020908152604080832094871680845294825291829020859055815185815291517f8c5be1e5ebec7d5bd14f71427d1e84f3dd0314c0f7b2291e5b200ac8c7c3b9259281900390910190a3505050565b6000813f7fc5d2460186f7233c927e7db2dcc703c0e500b653ca82273b7bfad8045d85a470818114801590610e3757508115155b949350505050565b6000610e4c8484846112c1565b61066d84610e58610d13565b6106d4856040518060600160405280602881526020016114ce602891396001600160a01b038a16600090815260016020526040812090610e96610d13565b6001600160a01b03168152602081019190915260400160002054919063ffffffff61122a16565b610ec682610e03565b8015610eed5750604080516000815260208101909152610eeb90849084908490610fc1565b155b15610a3257610efb82610aaf565b15610f0557600080fd5b604080516001600160a01b0380861682528416602082015280820183905290517f11249f0fc79fc134a15a10d1da8291b79515bf987e036ced05b9ec119614070b9181900360600190a1505050565b600082820183811015610fae576040805162461bcd60e51b815260206004820152601b60248201527f536166654d6174683a206164646974696f6e206f766572666c6f770000000000604482015290519081900360640190fd5b9392505050565b6000610fae8383611428565b600080846001600160a01b031686858560405160240180846001600160a01b03166001600160a01b0316815260200183815260200180602001828103825283818151815260200191508051906020019080838360005b8381101561102f578181015183820152602001611017565b50505050905090810190601f16801561105c5780820380516001836020036101000a031916815260200191505b5060408051601f198184030181529181526020820180516001600160e01b0316635260769b60e11b178152905182519297509550859450925090508083835b602083106110ba5780518252601f19909201916020918201910161109b565b6001836020036101000a0380198251168184511680821785525050505050509050019150506000604051808303816000865af19150503d806000811461111c576040519150601f19603f3d011682016040523d82523d6000602084013e611121565b606091505b5090979650505050505050565b6001600160a01b038216611189576040805162461bcd60e51b815260206004820152601f60248201527f45524332303a206d696e7420746f20746865207a65726f206164647265737300604482015290519081900360640190fd5b61119560008383610a32565b6002546111a8908263ffffffff610f5416565b6002556001600160a01b0382166000908152602081905260409020546111d4908263ffffffff610f5416565b6001600160a01b0383166000818152602081815260408083209490945583518581529351929391927fddf252ad1be2c89b69c2b068fc378daa952ba7f163c4a11628f55a4df523b3ef9281900390910190a35050565b600081848411156112b95760405162461bcd60e51b81526004018080602001828103825283818151815260200191508051906020019080838360005b8381101561127e578181015183820152602001611266565b50505050905090810190601f1680156112ab5780820380516001836020036101000a031916815260200191505b509250505060405180910390fd5b505050900390565b6001600160a01b0383166113065760405162461bcd60e51b81526004018080602001828103825260258152602001806115166025913960400191505060405180910390fd5b6001600160a01b03821661134b5760405162461bcd60e51b815260040180806020018281038252602381526020018061143d6023913960400191505060405180910390fd5b611356838383610a32565b611399816040518060600160405280602681526020016114a8602691396001600160a01b038616600090815260208190526040902054919063ffffffff61122a16565b6001600160a01b0380851660009081526020819052604080822093909355908416815220546113ce908263ffffffff610f5416565b6001600160a01b038084166000818152602081815260409182902094909455805185815290519193928716927fddf252ad1be2c89b69c2b068fc378daa952ba7f163c4a11628f55a4df523b3ef92918290030190a3505050565b60006105ac611435610d13565b84846112c156fe45524332303a207472616e7366657220746f20746865207a65726f20616464726573734f776e61626c653a206e6577206f776e657220697320746865207a65726f206164647265737345524332303a20617070726f766520746f20746865207a65726f206164647265737345524332303a207472616e7366657220616d6f756e7420657863656564732062616c616e636545524332303a207472616e7366657220616d6f756e74206578636565647320616c6c6f77616e63654f776e61626c653a2063616c6c6572206973206e6f7420746865206f776e657245524332303a207472616e736665722066726f6d20746865207a65726f206164647265737345524332303a20617070726f76652066726f6d20746865207a65726f206164647265737345524332303a2064656372656173656420616c6c6f77616e63652062656c6f77207a65726fa264697066735822122096bb9744533b9cb4a6f12d236e9755903bdbb9504a6fe19813cb5e6287e5220a64736f6c63430006060033",
  "immutableReferences": {},
  "source": "pragma solidity ^0.6.0;\n\nimport \"openzeppelin-solidity/contracts/token/ERC20/ERC20Burnable.sol\";\nimport \"openzeppelin-solidity/contracts/token/ERC20/ERC20.sol\";\nimport \"openzeppelin-solidity/contracts/utils/Address.sol\";\nimport \"./ERC20Mintable.sol\";\nimport \"./IERC677.sol\";\n\n/**\n * @title ERC677BridgeToken\n * @dev The basic implementation of a bridgeable ERC677-compatible token\n */\ncontract ERC677BridgeToken is ERC20Mintable, IERC677 {\n    address internal bridgeContractAddr;\n\n    event ContractFallbackCallFailed(address from, address to, uint256 value);\n\n    /**\n     * NOTE: _decimals is ignored! All tokens should have 18 decimals (regards, openzeppelin)\n     */\n    constructor(string memory _name, string memory _symbol, uint8 _decimals) public ERC20Mintable(_name, _symbol) {\n        // solhint-disable-previous-line no-empty-blocks\n    }\n\n    function bridgeContract() external view returns (address) {\n        return bridgeContractAddr;\n    }\n\n    function setBridgeContract(address _bridgeContract) external onlyOwner {\n        require(Address.isContract(_bridgeContract));\n        bridgeContractAddr = _bridgeContract;\n    }\n\n    modifier validRecipient(address _recipient) {\n        require(_recipient != address(0) && _recipient != address(this));\n        /* solcov ignore next */\n        _;\n    }\n\n    function transferAndCall(address _to, uint256 _value, bytes calldata _data) override external validRecipient(_to) returns (bool) {\n        require(superTransfer(_to, _value));\n        emit Transfer(msg.sender, _to, _value, _data);\n\n        if (Address.isContract(_to)) {\n            require(contractFallback(msg.sender, _to, _value, _data));\n        }\n        return true;\n    }\n\n    function getTokenInterfacesVersion() external pure returns (uint64 major, uint64 minor, uint64 patch) {\n        return (2, 2, 0);\n    }\n\n    function superTransfer(address _to, uint256 _value) internal returns (bool) {\n        return super.transfer(_to, _value);\n    }\n\n    function transfer(address _to, uint256 _value) override(ERC20, IERC20) public returns (bool) {\n        require(superTransfer(_to, _value));\n        callAfterTransfer(msg.sender, _to, _value);\n        return true;\n    }\n\n    function transferFrom(address _from, address _to, uint256 _value) override(ERC20, IERC20) public returns (bool) {\n        require(super.transferFrom(_from, _to, _value));\n        callAfterTransfer(_from, _to, _value);\n        return true;\n    }\n\n    function callAfterTransfer(address _from, address _to, uint256 _value) internal {\n        if (Address.isContract(_to) && !contractFallback(_from, _to, _value, new bytes(0))) {\n            require(!isBridge(_to));\n            emit ContractFallbackCallFailed(_from, _to, _value);\n        }\n    }\n\n    function isBridge(address _address) public view returns (bool) {\n        return _address == bridgeContractAddr;\n    }\n\n    /**\n     * @dev call onTokenTransfer fallback on the token recipient contract\n     * @param _from tokens sender\n     * @param _to tokens recipient\n     * @param _value amount of tokens that was sent\n     * @param _data set of extra bytes that can be passed to the recipient\n     */\n    function contractFallback(address _from, address _to, uint256 _value, bytes memory _data) private returns (bool) {\n        (bool success,) = _to.call(abi.encodeWithSignature(\"onTokenTransfer(address,uint256,bytes)\", _from, _value, _data));\n        return success;\n    }\n\n    function renounceOwnership() override public onlyOwner {\n        revert();\n    }\n\n    function claimTokens(address _token, address payable _to) public onlyOwner validRecipient(_to) {\n        if (_token == address(0)) {\n            _to.transfer(address(this).balance);\n        } else {\n            ERC20 token = ERC20(_token);\n            uint256 balance = token.balanceOf(address(this));\n            token.transfer(_to, balance);\n        }\n    }\n}\n",
  "sourcePath": "/Users/jtakalai/Documents/workspace/data-union-solidity/contracts/ERC677BridgeToken.sol",
  "compiler": {
    "name": "solc",
    "version": "0.6.6+commit.6c089d02.Emscripten.clang"
  },
  "schemaVersion": "3.2.0",
  "updatedAt": "2020-08-14T11:08:24.256Z",
  "devdoc": {
    "details": "The basic implementation of a bridgeable ERC677-compatible token",
    "methods": {
      "allowance(address,address)": {
        "details": "See {IERC20-allowance}."
      },
      "approve(address,uint256)": {
        "details": "See {IERC20-approve}.     * Requirements:     * - `spender` cannot be the zero address."
      },
      "balanceOf(address)": {
        "details": "See {IERC20-balanceOf}."
      },
      "decimals()": {
        "details": "Returns the number of decimals used to get its user representation. For example, if `decimals` equals `2`, a balance of `505` tokens should be displayed to a user as `5,05` (`505 / 10 ** 2`).     * Tokens usually opt for a value of 18, imitating the relationship between Ether and Wei. This is the value {ERC20} uses, unless {_setupDecimals} is called.     * NOTE: This information is only used for _display_ purposes: it in no way affects any of the arithmetic of the contract, including {IERC20-balanceOf} and {IERC20-transfer}."
      },
      "decreaseAllowance(address,uint256)": {
        "details": "Atomically decreases the allowance granted to `spender` by the caller.     * This is an alternative to {approve} that can be used as a mitigation for problems described in {IERC20-approve}.     * Emits an {Approval} event indicating the updated allowance.     * Requirements:     * - `spender` cannot be the zero address. - `spender` must have allowance for the caller of at least `subtractedValue`."
      },
      "increaseAllowance(address,uint256)": {
        "details": "Atomically increases the allowance granted to `spender` by the caller.     * This is an alternative to {approve} that can be used as a mitigation for problems described in {IERC20-approve}.     * Emits an {Approval} event indicating the updated allowance.     * Requirements:     * - `spender` cannot be the zero address."
      },
      "mint(address,uint256)": {
        "params": {
          "amount": "scaled so that 10^18 equals 1 token (multiply by 10^18)",
          "recipient": "address where new tokens are transferred (from 0x0)"
        }
      },
      "name()": {
        "details": "Returns the name of the token."
      },
      "owner()": {
        "details": "Returns the address of the current owner."
      },
      "symbol()": {
        "details": "Returns the symbol of the token, usually a shorter version of the name."
      },
      "totalSupply()": {
        "details": "See {IERC20-totalSupply}."
      },
      "transferOwnership(address)": {
        "details": "Transfers ownership of the contract to a new account (`newOwner`). Can only be called by the current owner."
      }
    },
    "title": "ERC677BridgeToken"
  },
  "userdoc": {
    "methods": {
      "constructor": "NOTE: _decimals is ignored! All tokens should have 18 decimals (regards, openzeppelin)",
      "mint(address,uint256)": {
        "notice": "Token contract owner can create tokens"
      }
    }
  }
}