{
  "contractName": "MainnetMigrationManager",
  "abi": [
    {
      "inputs": [],
      "stateMutability": "nonpayable",
      "type": "constructor"
    },
    {
      "anonymous": false,
      "inputs": [
        {
          "indexed": true,
          "internalType": "address",
          "name": "current",
          "type": "address"
        },
        {
          "indexed": true,
          "internalType": "address",
          "name": "prev",
          "type": "address"
        }
      ],
      "name": "NewMediatorChange",
      "type": "event"
    },
    {
      "anonymous": false,
      "inputs": [
        {
          "indexed": true,
          "internalType": "address",
          "name": "current",
          "type": "address"
        },
        {
          "indexed": true,
          "internalType": "address",
          "name": "prev",
          "type": "address"
        }
      ],
      "name": "NewTokenChange",
      "type": "event"
    },
    {
      "anonymous": false,
      "inputs": [
        {
          "indexed": true,
          "internalType": "address",
          "name": "current",
          "type": "address"
        },
        {
          "indexed": true,
          "internalType": "address",
          "name": "prev",
          "type": "address"
        }
      ],
      "name": "OldTokenChange",
      "type": "event"
    },
    {
      "anonymous": false,
      "inputs": [
        {
          "indexed": true,
          "internalType": "address",
          "name": "previousOwner",
          "type": "address"
        },
        {
          "indexed": true,
          "internalType": "address",
          "name": "newOwner",
          "type": "address"
        }
      ],
      "name": "OwnershipTransferred",
      "type": "event"
    },
    {
      "inputs": [],
      "name": "claimOwnership",
      "outputs": [],
      "stateMutability": "nonpayable",
      "type": "function"
    },
    {
      "inputs": [],
      "name": "newMediator",
      "outputs": [
        {
          "internalType": "address",
          "name": "",
          "type": "address"
        }
      ],
      "stateMutability": "view",
      "type": "function"
    },
    {
      "inputs": [],
      "name": "newToken",
      "outputs": [
        {
          "internalType": "address",
          "name": "",
          "type": "address"
        }
      ],
      "stateMutability": "view",
      "type": "function"
    },
    {
      "inputs": [],
      "name": "owner",
      "outputs": [
        {
          "internalType": "address",
          "name": "",
          "type": "address"
        }
      ],
      "stateMutability": "view",
      "type": "function"
    },
    {
      "inputs": [],
      "name": "pendingOwner",
      "outputs": [
        {
          "internalType": "address",
          "name": "",
          "type": "address"
        }
      ],
      "stateMutability": "view",
      "type": "function"
    },
    {
      "inputs": [
        {
          "internalType": "address",
          "name": "newOwner",
          "type": "address"
        }
      ],
      "name": "transferOwnership",
      "outputs": [],
      "stateMutability": "nonpayable",
      "type": "function"
    },
    {
      "inputs": [
        {
          "internalType": "address",
          "name": "newToken_",
          "type": "address"
        }
      ],
      "name": "setNewToken",
      "outputs": [],
      "stateMutability": "nonpayable",
      "type": "function"
    },
    {
      "inputs": [
        {
          "internalType": "address",
          "name": "newMediator_",
          "type": "address"
        }
      ],
      "name": "setNewMediator",
      "outputs": [],
      "stateMutability": "nonpayable",
      "type": "function"
    }
  ],
  "bytecode": "0x608060405234801561001057600080fd5b50600080546001600160a01b0319163317905561042a806100326000396000f3fe608060405234801561001057600080fd5b50600436106100885760003560e01c80638da5cb5b1161005b5780638da5cb5b14610107578063c42bd05a1461010f578063e30c397814610117578063f2fde38b1461011f57610088565b80631eb8befb1461008d5780634e71e0c8146100b55780635ed411e5146100bd5780637f89c7f0146100e3575b600080fd5b6100b3600480360360208110156100a357600080fd5b50356001600160a01b0316610145565b005b6100b36101ed565b6100b3600480360360208110156100d357600080fd5b50356001600160a01b03166102a3565b6100eb61034b565b604080516001600160a01b039092168252519081900360200190f35b6100eb61035a565b6100eb610369565b6100eb610378565b6100b36004803603602081101561013557600080fd5b50356001600160a01b0316610387565b6000546001600160a01b03163314610190576040805162461bcd60e51b815260206004820152600960248201526837b7363ca7bbb732b960b91b604482015290519081900360640190fd5b6003546040516001600160a01b03918216918316907fb347b37d5ec85a25f9f980bb2c45005eb52dbd76ffe3ac4bb9d1b60893093f0d90600090a3600380546001600160a01b0319166001600160a01b0392909216919091179055565b6001546001600160a01b0316331461023f576040805162461bcd60e51b815260206004820152601060248201526f37b7363ca832b73234b733a7bbb732b960811b604482015290519081900360640190fd5b600154600080546040516001600160a01b0393841693909116917f8be0079c531659141344cd1fd0a4f28419497f9722a3daafe3b4186f6b6457e091a360018054600080546001600160a01b03199081166001600160a01b03841617909155169055565b6000546001600160a01b031633146102ee576040805162461bcd60e51b815260206004820152600960248201526837b7363ca7bbb732b960b91b604482015290519081900360640190fd5b6002546040516001600160a01b03918216918316907f5390902a28ffcc178064a6bdfcfbc3731c6ebe8dea40264d2431fb1fb5cc5c6b90600090a3600280546001600160a01b0319166001600160a01b0392909216919091179055565b6003546001600160a01b031681565b6000546001600160a01b031681565b6002546001600160a01b031681565b6001546001600160a01b031681565b6000546001600160a01b031633146103d2576040805162461bcd60e51b815260206004820152600960248201526837b7363ca7bbb732b960b91b604482015290519081900360640190fd5b600180546001600160a01b0319166001600160a01b039290921691909117905556fea264697066735822122062faafb9491f719f6191f2235be5dfaca6d60a294a225619d82a105c49a0362664736f6c63430006060033",
  "immutableReferences": {},
  "source": "pragma solidity 0.6.6;\n\nimport \"./Ownable.sol\"; // TODO: switch to \"openzeppelin-solidity/contracts/access/Ownable.sol\";\nimport \"./IMainnetMigrationManager.sol\";\n\ncontract MainnetMigrationManager is Ownable, IMainnetMigrationManager {\n    event OldTokenChange(address indexed current, address indexed prev);\n    event NewTokenChange(address indexed current, address indexed prev);\n    event NewMediatorChange(address indexed current, address indexed prev);\n\n    address override public newToken;\n    address override public newMediator;\n    \n    constructor() public Ownable(msg.sender) {}\n\n    function setNewToken(address newToken_) public onlyOwner {\n        emit NewTokenChange(newToken_, newToken);\n        newToken = newToken_;\n    }\n\n    function setNewMediator(address newMediator_) public onlyOwner {\n        emit NewMediatorChange(newMediator_, newMediator);\n        newMediator = newMediator_;\n    }\n\n}",
  "sourcePath": "/home/heynow/streamr/data-union-solidity/contracts/MainnetMigrationManager.sol",
  "compiler": {
    "name": "solc",
    "version": "0.6.6+commit.6c089d02.Emscripten.clang"
  },
  "schemaVersion": "3.2.3",
  "updatedAt": "2021-02-24T14:32:37.214Z",
  "devdoc": {
    "methods": {
      "claimOwnership()": {
        "details": "Allows the pendingOwner address to finalize the transfer."
      },
      "transferOwnership(address)": {
        "details": "Allows the current owner to set the pendingOwner address.",
        "params": {
          "newOwner": "The address to transfer ownership to."
        }
      }
    }
  },
  "userdoc": {
    "methods": {}
  }
}