{
  "contractName": "MainnetMigrationManager",
  "abi": [
    {
      "inputs": [],
      "stateMutability": "nonpayable",
      "type": "constructor"
    },
    {
      "anonymous": false,
      "inputs": [
        {
          "indexed": true,
          "internalType": "address",
          "name": "current",
          "type": "address"
        },
        {
          "indexed": true,
          "internalType": "address",
          "name": "prev",
          "type": "address"
        }
      ],
      "name": "CurrentMediatorChange",
      "type": "event"
    },
    {
      "anonymous": false,
      "inputs": [
        {
          "indexed": true,
          "internalType": "address",
          "name": "current",
          "type": "address"
        },
        {
          "indexed": true,
          "internalType": "address",
          "name": "prev",
          "type": "address"
        }
      ],
      "name": "CurrentTokenChange",
      "type": "event"
    },
    {
      "anonymous": false,
      "inputs": [
        {
          "indexed": true,
          "internalType": "address",
          "name": "current",
          "type": "address"
        },
        {
          "indexed": true,
          "internalType": "address",
          "name": "prev",
          "type": "address"
        }
      ],
      "name": "OldTokenChange",
      "type": "event"
    },
    {
      "anonymous": false,
      "inputs": [
        {
          "indexed": true,
          "internalType": "address",
          "name": "previousOwner",
          "type": "address"
        },
        {
          "indexed": true,
          "internalType": "address",
          "name": "newOwner",
          "type": "address"
        }
      ],
      "name": "OwnershipTransferred",
      "type": "event"
    },
    {
      "inputs": [],
      "name": "claimOwnership",
      "outputs": [],
      "stateMutability": "nonpayable",
      "type": "function"
    },
    {
      "inputs": [],
      "name": "currentMediator",
      "outputs": [
        {
          "internalType": "address",
          "name": "",
          "type": "address"
        }
      ],
      "stateMutability": "view",
      "type": "function"
    },
    {
      "inputs": [],
      "name": "currentToken",
      "outputs": [
        {
          "internalType": "address",
          "name": "",
          "type": "address"
        }
      ],
      "stateMutability": "view",
      "type": "function"
    },
    {
      "inputs": [],
      "name": "owner",
      "outputs": [
        {
          "internalType": "address",
          "name": "",
          "type": "address"
        }
      ],
      "stateMutability": "view",
      "type": "function"
    },
    {
      "inputs": [],
      "name": "pendingOwner",
      "outputs": [
        {
          "internalType": "address",
          "name": "",
          "type": "address"
        }
      ],
      "stateMutability": "view",
      "type": "function"
    },
    {
      "inputs": [
        {
          "internalType": "address",
          "name": "newOwner",
          "type": "address"
        }
      ],
      "name": "transferOwnership",
      "outputs": [],
      "stateMutability": "nonpayable",
      "type": "function"
    },
    {
      "inputs": [
        {
          "internalType": "address",
          "name": "currentToken_",
          "type": "address"
        }
      ],
      "name": "setCurrentToken",
      "outputs": [],
      "stateMutability": "nonpayable",
      "type": "function"
    },
    {
      "inputs": [
        {
          "internalType": "address",
          "name": "currentMediator_",
          "type": "address"
        }
      ],
      "name": "setCurrentMediator",
      "outputs": [],
      "stateMutability": "nonpayable",
      "type": "function"
    }
  ],
  "bytecode": "0x608060405234801561001057600080fd5b50600080546001600160a01b0319163317905561042a806100326000396000f3fe608060405234801561001057600080fd5b50600436106100885760003560e01c80638da5cb5b1161005b5780638da5cb5b146100e9578063e30c3978146100f1578063e39f4565146100f9578063f2fde38b1461011f57610088565b80634e71e0c81461008d578063533426d114610097578063834bc594146100bb578063836c081d146100e1575b600080fd5b610095610145565b005b61009f6101fb565b604080516001600160a01b039092168252519081900360200190f35b610095600480360360208110156100d157600080fd5b50356001600160a01b031661020a565b61009f6102b2565b61009f6102c1565b61009f6102d0565b6100956004803603602081101561010f57600080fd5b50356001600160a01b03166102df565b6100956004803603602081101561013557600080fd5b50356001600160a01b0316610387565b6001546001600160a01b03163314610197576040805162461bcd60e51b815260206004820152601060248201526f37b7363ca832b73234b733a7bbb732b960811b604482015290519081900360640190fd5b600154600080546040516001600160a01b0393841693909116917f8be0079c531659141344cd1fd0a4f28419497f9722a3daafe3b4186f6b6457e091a360018054600080546001600160a01b03199081166001600160a01b03841617909155169055565b6003546001600160a01b031681565b6000546001600160a01b03163314610255576040805162461bcd60e51b815260206004820152600960248201526837b7363ca7bbb732b960b91b604482015290519081900360640190fd5b6002546040516001600160a01b03918216918316907f77f72df9021d6c85a85c9539e22c507f137341a44dc236249d2ac2ec94332a6590600090a3600280546001600160a01b0319166001600160a01b0392909216919091179055565b6002546001600160a01b031681565b6000546001600160a01b031681565b6001546001600160a01b031681565b6000546001600160a01b0316331461032a576040805162461bcd60e51b815260206004820152600960248201526837b7363ca7bbb732b960b91b604482015290519081900360640190fd5b6003546040516001600160a01b03918216918316907feeaab2a31d713c6b25c64e6ea1a3b6aa9c2ef0be563ab7280ef8444b70226a2590600090a3600380546001600160a01b0319166001600160a01b0392909216919091179055565b6000546001600160a01b031633146103d2576040805162461bcd60e51b815260206004820152600960248201526837b7363ca7bbb732b960b91b604482015290519081900360640190fd5b600180546001600160a01b0319166001600160a01b039290921691909117905556fea264697066735822122034feaa2b9d3c55303c8aabc8d2d949887eb886541acc004518d1f35dde5cbd2a64736f6c63430006060033",
  "immutableReferences": {},
  "source": "pragma solidity 0.6.6;\n\nimport \"./Ownable.sol\"; // TODO: switch to \"openzeppelin-solidity/contracts/access/Ownable.sol\";\nimport \"./FactoryConfig.sol\";\n\ncontract MainnetMigrationManager is Ownable, FactoryConfig {\n\n    event OldTokenChange(address indexed current, address indexed prev);\n    event CurrentTokenChange(address indexed current, address indexed prev);\n    event CurrentMediatorChange(address indexed current, address indexed prev);\n\n    address override public currentToken;\n    address override public currentMediator;\n    \n    constructor() public Ownable(msg.sender) {}\n\n    function setCurrentToken(address currentToken_) public onlyOwner {\n        emit CurrentTokenChange(currentToken_, currentToken);\n        currentToken = currentToken_;\n    }\n\n    function setCurrentMediator(address currentMediator_) public onlyOwner {\n        emit CurrentMediatorChange(currentMediator_, currentMediator);\n        currentMediator = currentMediator_;\n    }\n\n}",
  "sourcePath": "/home/heynow/streamr/data-union-solidity/contracts/MainnetMigrationManager.sol",
  "compiler": {
    "name": "solc",
    "version": "0.6.6+commit.6c089d02.Emscripten.clang"
  },
  "schemaVersion": "3.2.3",
  "updatedAt": "2021-02-26T10:12:22.034Z",
  "devdoc": {
    "methods": {
      "claimOwnership()": {
        "details": "Allows the pendingOwner address to finalize the transfer."
      },
      "transferOwnership(address)": {
        "details": "Allows the current owner to set the pendingOwner address.",
        "params": {
          "newOwner": "The address to transfer ownership to."
        }
      }
    }
  },
  "userdoc": {
    "methods": {}
  }
}