{
  "contractName": "MockTokenMediator",
  "abi": [
    {
      "inputs": [
        {
          "internalType": "address",
          "name": "_token",
          "type": "address"
        },
        {
          "internalType": "address",
          "name": "_amb",
          "type": "address"
        }
      ],
      "stateMutability": "nonpayable",
      "type": "constructor"
    },
    {
      "inputs": [],
      "name": "amb",
      "outputs": [
        {
          "internalType": "address",
          "name": "",
          "type": "address"
        }
      ],
      "stateMutability": "view",
      "type": "function"
    },
    {
      "inputs": [],
      "name": "token",
      "outputs": [
        {
          "internalType": "contract ERC20",
          "name": "",
          "type": "address"
        }
      ],
      "stateMutability": "view",
      "type": "function"
    },
    {
      "inputs": [],
      "name": "bridgeContract",
      "outputs": [
        {
          "internalType": "address",
          "name": "",
          "type": "address"
        }
      ],
      "stateMutability": "view",
      "type": "function"
    },
    {
      "inputs": [],
      "name": "getBridgeMode",
      "outputs": [
        {
          "internalType": "bytes4",
          "name": "_data",
          "type": "bytes4"
        }
      ],
      "stateMutability": "pure",
      "type": "function"
    },
    {
      "inputs": [
        {
          "internalType": "address",
          "name": "_receiver",
          "type": "address"
        },
        {
          "internalType": "uint256",
          "name": "_value",
          "type": "uint256"
        }
      ],
      "name": "relayTokens",
      "outputs": [],
      "stateMutability": "nonpayable",
      "type": "function"
    },
    {
      "inputs": [
        {
          "internalType": "address",
          "name": "",
          "type": "address"
        },
        {
          "internalType": "address",
          "name": "",
          "type": "address"
        },
        {
          "internalType": "uint256",
          "name": "",
          "type": "uint256"
        }
      ],
      "name": "relayTokens",
      "outputs": [],
      "stateMutability": "nonpayable",
      "type": "function"
    }
  ],
  "bytecode": "0x608060405234801561001057600080fd5b5060405161032b38038061032b8339818101604052604081101561003357600080fd5b508051602090910151600080546001600160a01b039384166001600160a01b031991821617909155600180549390921692169190911790556102b18061007a6000396000f3fe608060405234801561001057600080fd5b50600436106100625760003560e01c806301e4f53a146100675780631062b39a14610095578063437764df146100b9578063ad58bdd1146100de578063cd59658314610114578063fc0c546a1461011c575b600080fd5b6100936004803603604081101561007d57600080fd5b506001600160a01b038135169060200135610124565b005b61009d610204565b604080516001600160a01b039092168252519081900360200190f35b6100c1610213565b604080516001600160e01b03199092168252519081900360200190f35b610093600480360360608110156100f457600080fd5b506001600160a01b0381358116916020810135909116906040013561021e565b61009d61025d565b61009d61026c565b60008054604080516323b872dd60e01b81523360048201526001600160a01b03868116602483015260448201869052915191909216926323b872dd92606480820193602093909283900390910190829087803b15801561018357600080fd5b505af1158015610197573d6000803e3d6000fd5b505050506040513d60208110156101ad57600080fd5b5051610200576040805162461bcd60e51b815260206004820152601960248201527f7472616e736665725f72656a65637465645f696e5f6d6f636b00000000000000604482015290519081900360640190fd5b5050565b6001546001600160a01b031681565b633b2cadab60e11b90565b6040805162461bcd60e51b815260206004820152600f60248201526e1b9bdd17da5b5c1b195b595b9d1959608a1b604482015290519081900360640190fd5b6001546001600160a01b031690565b6000546001600160a01b03168156fea264697066735822122041e4249333eedad3c208e23b8aa0cac3ae85ac1c49e8e7c9fc86061e8d0ca67964736f6c63430006060033",
  "immutableReferences": {},
  "source": "pragma solidity 0.6.6;\nimport \"openzeppelin-solidity/contracts/token/ERC20/ERC20.sol\";\nimport \"./ITokenMediator.sol\";\n\ncontract MockTokenMediator is ITokenMediator {\n    ERC20 public token;\n    address public amb;\n    constructor(address _token, address _amb) public {\n        token = ERC20(_token);\n        amb = _amb;\n    }\n\n    function bridgeContract() override public view returns (address) {\n        return amb;\n    }\n\n    //MultiAMB 0xb1516c26 == bytes4(keccak256(abi.encodePacked(\"multi-erc-to-erc-amb\")))\n    //Single token AMB 0x76595b56 ==  bytes4(keccak256(abi.encodePacked(\"erc-to-erc-amb\")))\n    function getBridgeMode() override public pure returns (bytes4 _data) {\n        return 0x76595b56;\n    }\n\n\n    /**\n     * Transfers to address on local network\n     */\n    function relayTokens(address _receiver, uint256 _value) override public {\n        require(token.transferFrom(msg.sender, _receiver, _value), \"transfer_rejected_in_mock\");\n    }\n\n    //not implemented in single token mediator\n    function relayTokens(address, address, uint256) override public {\n        revert(\"not_implemented\");\n    }\n\n}\n",
  "sourcePath": "/home/heynow/streamr/data-union-solidity/contracts/MockTokenMediator.sol",
  "compiler": {
    "name": "solc",
    "version": "0.6.6+commit.6c089d02.Emscripten.clang"
  },
  "schemaVersion": "3.2.3",
  "updatedAt": "2020-12-07T14:57:24.696Z",
  "devdoc": {
    "methods": {}
  },
  "userdoc": {
    "methods": {
      "relayTokens(address,uint256)": {
        "notice": "Transfers to address on local network"
      }
    }
  }
}