{
  "contractName": "MockAMB",
  "abi": [
    {
      "inputs": [
        {
          "internalType": "address",
          "name": "_contract",
          "type": "address"
        },
        {
          "internalType": "bytes",
          "name": "",
          "type": "bytes"
        },
        {
          "internalType": "uint256",
          "name": "",
          "type": "uint256"
        }
      ],
      "name": "requireToPassMessage",
      "outputs": [
        {
          "internalType": "bytes32",
          "name": "",
          "type": "bytes32"
        }
      ],
      "stateMutability": "nonpayable",
      "type": "function"
    }
  ],
  "bytecode": "0x608060405234801561001057600080fd5b50610147806100206000396000f3fe608060405234801561001057600080fd5b506004361061002b5760003560e01c8063dc8601b314610030575b600080fd5b6100e86004803603606081101561004657600080fd5b6001600160a01b03823516919081019060408101602082013564010000000081111561007157600080fd5b82018360208201111561008357600080fd5b803590602001918460018302840111640100000000831117156100a557600080fd5b91908080601f01602080910402602001604051908101604052809392919081815260200183838082843760009201919091525092955050913592506100fa915050565b60408051918252519081900360200190f35b505060601b6bffffffffffffffffffffffff19169056fea26469706673582212202ca7c1b78ed969b1a313c7652f718db8ffe0d6fb2b1164dd3a5e05719364ee2064736f6c63430006060033",
  "immutableReferences": {},
  "source": "pragma solidity ^0.6.0;\n\ncontract MockAMB {\n    function requireToPassMessage(\n        address _contract,\n        bytes memory, // _data,\n        uint256 // _gas\n    ) public returns (bytes32) {\n        return bytes32(bytes20(_contract));\n    }\n}\n",
  "sourcePath": "/Users/jtakalai/Documents/workspace/data-union-solidity/contracts/MockAMB.sol",
  "compiler": {
    "name": "solc",
    "version": "0.6.6+commit.6c089d02.Emscripten.clang"
  },
  "schemaVersion": "3.2.3",
  "updatedAt": "2020-08-26T08:58:13.237Z",
  "devdoc": {
    "methods": {}
  },
  "userdoc": {
    "methods": {}
  }
}