{
  "contractName": "MockTokenMediator",
  "abi": [
    {
      "inputs": [
        {
          "internalType": "address",
          "name": "_token",
          "type": "address"
        },
        {
          "internalType": "address",
          "name": "_amb",
          "type": "address"
        }
      ],
      "stateMutability": "nonpayable",
      "type": "constructor"
    },
    {
      "inputs": [],
      "name": "amb",
      "outputs": [
        {
          "internalType": "address",
          "name": "",
          "type": "address"
        }
      ],
      "stateMutability": "view",
      "type": "function"
    },
    {
      "inputs": [],
      "name": "token",
      "outputs": [
        {
          "internalType": "contract ERC20",
          "name": "",
          "type": "address"
        }
      ],
      "stateMutability": "view",
      "type": "function"
    },
    {
      "inputs": [],
      "name": "erc677token",
      "outputs": [
        {
          "internalType": "address",
          "name": "",
          "type": "address"
        }
      ],
      "stateMutability": "view",
      "type": "function"
    },
    {
      "inputs": [],
      "name": "bridgeContract",
      "outputs": [
        {
          "internalType": "address",
          "name": "",
          "type": "address"
        }
      ],
      "stateMutability": "view",
      "type": "function"
    },
    {
      "inputs": [
        {
          "internalType": "address",
          "name": "_from",
          "type": "address"
        },
        {
          "internalType": "address",
          "name": "_receiver",
          "type": "address"
        },
        {
          "internalType": "uint256",
          "name": "_value",
          "type": "uint256"
        }
      ],
      "name": "relayTokens",
      "outputs": [],
      "stateMutability": "nonpayable",
      "type": "function"
    }
  ],
  "bytecode": "0x608060405234801561001057600080fd5b506040516102923803806102928339818101604052604081101561003357600080fd5b508051602090910151600080546001600160a01b039384166001600160a01b031991821617909155600180549390921692169190911790556102188061007a6000396000f3fe608060405234801561001057600080fd5b50600436106100575760003560e01c80631062b39a1461005c57806318d8f9c914610080578063ad58bdd114610088578063cd596583146100c0578063fc0c546a146100c8575b600080fd5b6100646100d0565b604080516001600160a01b039092168252519081900360200190f35b6100646100df565b6100be6004803603606081101561009e57600080fd5b506001600160a01b038135811691602081013590911690604001356100ee565b005b6100646101c4565b6100646101d3565b6001546001600160a01b031681565b6000546001600160a01b031690565b60008054604080516323b872dd60e01b81526001600160a01b038781166004830152868116602483015260448201869052915191909216926323b872dd92606480820193602093909283900390910190829087803b15801561014f57600080fd5b505af1158015610163573d6000803e3d6000fd5b505050506040513d602081101561017957600080fd5b50516101bf576040805162461bcd60e51b815260206004820152601060248201526f3a3930b739b332b92fb330b4b632b21960811b604482015290519081900360640190fd5b505050565b6001546001600160a01b031690565b6000546001600160a01b03168156fea264697066735822122005ca9335066093da519601c41df48abdefc64112825bc3841ac39c543af2f75c64736f6c63430006060033",
  "immutableReferences": {},
  "source": "pragma solidity ^0.6.0;\nimport \"openzeppelin-solidity/contracts/token/ERC20/ERC20.sol\";\nimport \"./ITokenMediator.sol\";\n\ncontract MockTokenMediator is ITokenMediator {\n    ERC20 public token;\n    address public amb;\n    constructor(address _token, address _amb) public {\n        token = ERC20(_token);\n        amb = _amb;\n    }\n\n    function erc677token() override public view returns (address) {\n        return address(token);\n    }\n\n    function bridgeContract() override public view returns (address) {\n        return amb;\n    } \n\n    /*\n        transfers to address on local network\n    */\n    function relayTokens(address _from, address _receiver, uint256 _value) override public {\n        require(token.transferFrom(_from, _receiver, _value), \"transfer_failed2\");\n    }\n\n}\n",
  "sourcePath": "/home/heynow/streamr/data-union-solidity/contracts/MockTokenMediator.sol",
  "compiler": {
    "name": "solc",
    "version": "0.6.6+commit.6c089d02.Emscripten.clang"
  },
  "schemaVersion": "3.2.3",
  "updatedAt": "2020-09-01T10:29:47.270Z",
  "devdoc": {
    "methods": {}
  },
  "userdoc": {
    "methods": {}
  }
}