{
  "contractName": "MockAMB",
  "abi": [
    {
      "inputs": [],
      "name": "messageSender",
      "outputs": [
        {
          "internalType": "address",
          "name": "",
          "type": "address"
        }
      ],
      "stateMutability": "view",
      "type": "function"
    },
    {
      "inputs": [
        {
          "internalType": "address",
          "name": "_contract",
          "type": "address"
        },
        {
          "internalType": "bytes",
          "name": "_data",
          "type": "bytes"
        },
        {
          "internalType": "uint256",
          "name": "_gas",
          "type": "uint256"
        }
      ],
      "name": "requireToPassMessage",
      "outputs": [
        {
          "internalType": "bytes32",
          "name": "",
          "type": "bytes32"
        }
      ],
      "stateMutability": "nonpayable",
      "type": "function"
    }
  ],
  "bytecode": "0x608060405234801561001057600080fd5b50610262806100206000396000f3fe608060405234801561001057600080fd5b50600436106100365760003560e01c8063d67bdd251461003b578063dc8601b31461005f575b600080fd5b610043610129565b604080516001600160a01b039092168252519081900360200190f35b6101176004803603606081101561007557600080fd5b6001600160a01b0382351691908101906040810160208201356401000000008111156100a057600080fd5b8201836020820111156100b257600080fd5b803590602001918460018302840111640100000000831117156100d457600080fd5b91908080601f0160208091040260200160405190810160405280939291908181526020018383808284376000920191909152509295505091359250610138915050565b60408051918252519081900360200190f35b6000546001600160a01b031681565b600080546001600160a01b03191633178155604051835182916001600160a01b0387169185918791819060208401908083835b6020831061018a5780518252601f19909201916020918201910161016b565b6001836020036101000a03801982511681845116808217855250505050505090500191505060006040518083038160008787f1925050503d80600081146101ed576040519150601f19603f3d011682016040523d82523d6000602084013e6101f2565b606091505b5050600080546001600160a01b0319169055905080610212576000610215565b60015b60f81b6001600160f81b031916915050939250505056fea26469706673582212201b492c70dd43395c350e6c27495c6f10d6ea1879c431d52f5e16c5557bf47a3064736f6c63430006060033",
  "immutableReferences": {},
  "source": "pragma solidity 0.6.6;\n\ncontract MockAMB {\n    address public messageSender;\n    /*\n    call on LOCAL blockchain. no bridge\n    */\n    function requireToPassMessage(\n        address _contract,\n        bytes memory _data,\n        uint256 _gas\n    ) public returns (bytes32) {\n        messageSender = msg.sender;\n        (bool success, ) = _contract.call{gas: _gas}(_data);\n        messageSender = address(0);\n        return bytes32(byte(success ? 0x1 : 0x0));\n    }\n}\n",
  "sourcePath": "/home/heynow/streamr/data-union-solidity/contracts/MockAMB.sol",
  "compiler": {
    "name": "solc",
    "version": "0.6.6+commit.6c089d02.Emscripten.clang"
  },
  "schemaVersion": "3.2.3",
  "updatedAt": "2020-09-30T12:37:08.216Z",
  "devdoc": {
    "methods": {}
  },
  "userdoc": {
    "methods": {}
  }
}