{
  "contractName": "SidechainMigrationManager",
  "abi": [
    {
      "inputs": [],
      "stateMutability": "nonpayable",
      "type": "constructor"
    },
    {
      "anonymous": false,
      "inputs": [
        {
          "indexed": true,
          "internalType": "address",
          "name": "current",
          "type": "address"
        },
        {
          "indexed": true,
          "internalType": "address",
          "name": "prev",
          "type": "address"
        }
      ],
      "name": "CurrentMediatorChange",
      "type": "event"
    },
    {
      "anonymous": false,
      "inputs": [
        {
          "indexed": true,
          "internalType": "address",
          "name": "current",
          "type": "address"
        },
        {
          "indexed": true,
          "internalType": "address",
          "name": "prev",
          "type": "address"
        }
      ],
      "name": "CurrentTokenChange",
      "type": "event"
    },
    {
      "anonymous": false,
      "inputs": [
        {
          "indexed": true,
          "internalType": "address",
          "name": "current",
          "type": "address"
        },
        {
          "indexed": true,
          "internalType": "address",
          "name": "prev",
          "type": "address"
        }
      ],
      "name": "OldTokenChange",
      "type": "event"
    },
    {
      "anonymous": false,
      "inputs": [
        {
          "indexed": true,
          "internalType": "address",
          "name": "previousOwner",
          "type": "address"
        },
        {
          "indexed": true,
          "internalType": "address",
          "name": "newOwner",
          "type": "address"
        }
      ],
      "name": "OwnershipTransferred",
      "type": "event"
    },
    {
      "anonymous": false,
      "inputs": [
        {
          "indexed": true,
          "internalType": "address",
          "name": "user",
          "type": "address"
        },
        {
          "indexed": true,
          "internalType": "address",
          "name": "fromToken",
          "type": "address"
        },
        {
          "indexed": true,
          "internalType": "address",
          "name": "toToken",
          "type": "address"
        },
        {
          "indexed": false,
          "internalType": "uint256",
          "name": "amount",
          "type": "uint256"
        }
      ],
      "name": "Swap",
      "type": "event"
    },
    {
      "anonymous": false,
      "inputs": [
        {
          "indexed": true,
          "internalType": "address",
          "name": "owner",
          "type": "address"
        },
        {
          "indexed": false,
          "internalType": "uint256",
          "name": "amount",
          "type": "uint256"
        }
      ],
      "name": "Withdrawal",
      "type": "event"
    },
    {
      "inputs": [],
      "name": "claimOwnership",
      "outputs": [],
      "stateMutability": "nonpayable",
      "type": "function"
    },
    {
      "inputs": [],
      "name": "currentMediator",
      "outputs": [
        {
          "internalType": "address",
          "name": "",
          "type": "address"
        }
      ],
      "stateMutability": "view",
      "type": "function"
    },
    {
      "inputs": [],
      "name": "currentToken",
      "outputs": [
        {
          "internalType": "address",
          "name": "",
          "type": "address"
        }
      ],
      "stateMutability": "view",
      "type": "function"
    },
    {
      "inputs": [],
      "name": "oldToken",
      "outputs": [
        {
          "internalType": "address",
          "name": "",
          "type": "address"
        }
      ],
      "stateMutability": "view",
      "type": "function"
    },
    {
      "inputs": [],
      "name": "owner",
      "outputs": [
        {
          "internalType": "address",
          "name": "",
          "type": "address"
        }
      ],
      "stateMutability": "view",
      "type": "function"
    },
    {
      "inputs": [],
      "name": "pendingOwner",
      "outputs": [
        {
          "internalType": "address",
          "name": "",
          "type": "address"
        }
      ],
      "stateMutability": "view",
      "type": "function"
    },
    {
      "inputs": [
        {
          "internalType": "address",
          "name": "newOwner",
          "type": "address"
        }
      ],
      "name": "transferOwnership",
      "outputs": [],
      "stateMutability": "nonpayable",
      "type": "function"
    },
    {
      "inputs": [
        {
          "internalType": "address",
          "name": "oldToken_",
          "type": "address"
        }
      ],
      "name": "setOldToken",
      "outputs": [],
      "stateMutability": "nonpayable",
      "type": "function"
    },
    {
      "inputs": [
        {
          "internalType": "address",
          "name": "currentToken_",
          "type": "address"
        }
      ],
      "name": "setCurrentToken",
      "outputs": [],
      "stateMutability": "nonpayable",
      "type": "function"
    },
    {
      "inputs": [
        {
          "internalType": "address",
          "name": "currentMediator_",
          "type": "address"
        }
      ],
      "name": "setCurrentMediator",
      "outputs": [],
      "stateMutability": "nonpayable",
      "type": "function"
    },
    {
      "inputs": [
        {
          "internalType": "address",
          "name": "tokenAddress",
          "type": "address"
        }
      ],
      "name": "withdraw",
      "outputs": [],
      "stateMutability": "nonpayable",
      "type": "function"
    },
    {
      "inputs": [
        {
          "internalType": "uint256",
          "name": "amount",
          "type": "uint256"
        }
      ],
      "name": "swap",
      "outputs": [],
      "stateMutability": "nonpayable",
      "type": "function"
    }
  ],
  "bytecode": "0x608060405234801561001057600080fd5b50600080546001600160a01b031916331790556109a3806100326000396000f3fe608060405234801561001057600080fd5b50600436106100b45760003560e01c80638da5cb5b116100715780638da5cb5b1461016157806394b918de14610169578063b31c710a14610186578063e30c39781461018e578063e39f456514610196578063f2fde38b146101bc576100b4565b80634e71e0c8146100b957806351cff8d9146100c3578063533426d1146100e95780635b7a50f71461010d578063834bc59414610133578063836c081d14610159575b600080fd5b6100c16101e2565b005b6100c1600480360360208110156100d957600080fd5b50356001600160a01b0316610298565b6100f1610476565b604080516001600160a01b039092168252519081900360200190f35b6100c16004803603602081101561012357600080fd5b50356001600160a01b0316610485565b6100c16004803603602081101561014957600080fd5b50356001600160a01b031661052d565b6100f16105d5565b6100f16105e4565b6100c16004803603602081101561017f57600080fd5b50356105f3565b6100f161083a565b6100f1610849565b6100c1600480360360208110156101ac57600080fd5b50356001600160a01b0316610858565b6100c1600480360360208110156101d257600080fd5b50356001600160a01b0316610900565b6001546001600160a01b03163314610234576040805162461bcd60e51b815260206004820152601060248201526f37b7363ca832b73234b733a7bbb732b960811b604482015290519081900360640190fd5b600154600080546040516001600160a01b0393841693909116917f8be0079c531659141344cd1fd0a4f28419497f9722a3daafe3b4186f6b6457e091a360018054600080546001600160a01b03199081166001600160a01b03841617909155169055565b6000546001600160a01b031633146102e3576040805162461bcd60e51b815260206004820152600960248201526837b7363ca7bbb732b960b91b604482015290519081900360640190fd5b604080516370a0823160e01b8152306004820152905182916000916001600160a01b038416916370a08231916024808301926020929190829003018186803b15801561032e57600080fd5b505afa158015610342573d6000803e3d6000fd5b505050506040513d602081101561035857600080fd5b5051905080610368575050610473565b600080546040805163a9059cbb60e01b81526001600160a01b0392831660048201526024810185905290519185169263a9059cbb926044808401936020939083900390910190829087803b1580156103bf57600080fd5b505af11580156103d3573d6000803e3d6000fd5b505050506040513d60208110156103e957600080fd5b505161042e576040805162461bcd60e51b815260206004820152600f60248201526e1d1c985b9cd9995c97d9985a5b1959608a1b604482015290519081900360640190fd5b6000546040805183815290516001600160a01b03909216917f7fcf532c15f0a6db0bd6d0e038bea71d30d808c7d98cb3bf7268a95bf5081b659181900360200190a250505b50565b6004546001600160a01b031681565b6000546001600160a01b031633146104d0576040805162461bcd60e51b815260206004820152600960248201526837b7363ca7bbb732b960b91b604482015290519081900360640190fd5b6002546040516001600160a01b03918216918316907f1aa7dd3c81658118943ae26982827c3fe431efc748245477507938313ff1092690600090a3600280546001600160a01b0319166001600160a01b0392909216919091179055565b6000546001600160a01b03163314610578576040805162461bcd60e51b815260206004820152600960248201526837b7363ca7bbb732b960b91b604482015290519081900360640190fd5b6003546040516001600160a01b03918216918316907f77f72df9021d6c85a85c9539e22c507f137341a44dc236249d2ac2ec94332a6590600090a3600380546001600160a01b0319166001600160a01b0392909216919091179055565b6003546001600160a01b031681565b6000546001600160a01b031681565b6002546001600160a01b03161580159061061757506003546001600160a01b031615155b610659576040805162461bcd60e51b815260206004820152600e60248201526d1d1bdad95b9cd7db9bdd17dcd95d60921b604482015290519081900360640190fd5b600254600354604080516323b872dd60e01b81523360048201523060248201526044810185905290516001600160a01b03938416939092169183916323b872dd9160648083019260209291908290030181600087803b1580156106bb57600080fd5b505af11580156106cf573d6000803e3d6000fd5b505050506040513d60208110156106e557600080fd5b505161072a576040805162461bcd60e51b815260206004820152600f60248201526e1d1c985b9cd9995c97d9985a5b1959608a1b604482015290519081900360640190fd5b6040805163a9059cbb60e01b81523360048201526024810185905290516001600160a01b0383169163a9059cbb9160448083019260209291908290030181600087803b15801561077957600080fd5b505af115801561078d573d6000803e3d6000fd5b505050506040513d60208110156107a357600080fd5b50516107e8576040805162461bcd60e51b815260206004820152600f60248201526e1d1c985b9cd9995c97d9985a5b1959608a1b604482015290519081900360640190fd5b6003546002546040805186815290516001600160a01b0393841693929092169133917fffebebfb273923089a3ed6bac0fd4686ac740307859becadeb82f998e30db614919081900360200190a4505050565b6002546001600160a01b031681565b6001546001600160a01b031681565b6000546001600160a01b031633146108a3576040805162461bcd60e51b815260206004820152600960248201526837b7363ca7bbb732b960b91b604482015290519081900360640190fd5b6004546040516001600160a01b03918216918316907feeaab2a31d713c6b25c64e6ea1a3b6aa9c2ef0be563ab7280ef8444b70226a2590600090a3600480546001600160a01b0319166001600160a01b0392909216919091179055565b6000546001600160a01b0316331461094b576040805162461bcd60e51b815260206004820152600960248201526837b7363ca7bbb732b960b91b604482015290519081900360640190fd5b600180546001600160a01b0319166001600160a01b039290921691909117905556fea26469706673582212202e36ebf1d150f05507704e39554393d6dd41fdf6420c26862614a40f8a33da8764736f6c63430006060033",
  "immutableReferences": {},
  "source": "pragma solidity 0.6.6;\n\nimport \"./Ownable.sol\"; // TODO: switch to \"openzeppelin-solidity/contracts/access/Ownable.sol\";\nimport \"./ISidechainMigrationManager.sol\";\nimport \"openzeppelin-solidity/contracts/token/ERC20/IERC20.sol\";\n\ncontract SidechainMigrationManager is Ownable, ISidechainMigrationManager {\n\n    event OldTokenChange(address indexed current, address indexed prev);\n    event CurrentTokenChange(address indexed current, address indexed prev);\n    event CurrentMediatorChange(address indexed current, address indexed prev);\n    event Withdrawal(address indexed owner, uint amount);\n    event Swap(address indexed user, address indexed fromToken, address indexed toToken, uint amount);\n\n    address override public oldToken;\n    address override public currentToken;\n    address override public currentMediator;\n    \n    constructor() public Ownable(msg.sender) {}\n\n    function setOldToken(address oldToken_) public onlyOwner {\n        emit OldTokenChange(oldToken_, oldToken);\n        oldToken = oldToken_;\n    }\n\n    function setCurrentToken(address currentToken_) public onlyOwner {\n        emit CurrentTokenChange(currentToken_, currentToken);\n        currentToken = currentToken_;\n    }\n\n    function setCurrentMediator(address currentMediator_) public onlyOwner {\n        emit CurrentMediatorChange(currentMediator_, currentMediator);\n        currentMediator = currentMediator_;\n    }\n\n    function withdraw(address tokenAddress) public onlyOwner {\n        IERC20 token = IERC20(tokenAddress);\n        uint bal = token.balanceOf(address(this));\n        if(bal == 0) return;\n        require(token.transfer(owner, bal), \"transfer_failed\");\n        emit Withdrawal(owner, bal);\n    }\n\n    function swap(uint amount) public override {\n        require(oldToken != address(0) && currentToken != address(0), \"tokens_not_set\");\n        IERC20 fromToken = IERC20(oldToken);\n        IERC20 toToken = IERC20(currentToken);\n        require(fromToken.transferFrom(msg.sender, address(this), amount), \"transfer_failed\");\n        require(toToken.transfer(msg.sender, amount), \"transfer_failed\");\n        emit Swap(msg.sender, oldToken, currentToken, amount);\n    }\n\n}",
  "sourcePath": "/home/heynow/streamr/data-union-solidity/contracts/SidechainMigrationManager.sol",
  "compiler": {
    "name": "solc",
    "version": "0.6.6+commit.6c089d02.Emscripten.clang"
  },
  "schemaVersion": "3.2.3",
  "updatedAt": "2021-02-26T10:12:22.038Z",
  "devdoc": {
    "methods": {
      "claimOwnership()": {
        "details": "Allows the pendingOwner address to finalize the transfer."
      },
      "transferOwnership(address)": {
        "details": "Allows the current owner to set the pendingOwner address.",
        "params": {
          "newOwner": "The address to transfer ownership to."
        }
      }
    }
  },
  "userdoc": {
    "methods": {}
  }
}