{
  "contractName": "SidechainMigrationManager",
  "abi": [
    {
      "inputs": [],
      "stateMutability": "nonpayable",
      "type": "constructor"
    },
    {
      "anonymous": false,
      "inputs": [
        {
          "indexed": true,
          "internalType": "address",
          "name": "current",
          "type": "address"
        },
        {
          "indexed": true,
          "internalType": "address",
          "name": "prev",
          "type": "address"
        }
      ],
      "name": "NewMediatorChange",
      "type": "event"
    },
    {
      "anonymous": false,
      "inputs": [
        {
          "indexed": true,
          "internalType": "address",
          "name": "current",
          "type": "address"
        },
        {
          "indexed": true,
          "internalType": "address",
          "name": "prev",
          "type": "address"
        }
      ],
      "name": "NewTokenChange",
      "type": "event"
    },
    {
      "anonymous": false,
      "inputs": [
        {
          "indexed": true,
          "internalType": "address",
          "name": "current",
          "type": "address"
        },
        {
          "indexed": true,
          "internalType": "address",
          "name": "prev",
          "type": "address"
        }
      ],
      "name": "OldTokenChange",
      "type": "event"
    },
    {
      "anonymous": false,
      "inputs": [
        {
          "indexed": true,
          "internalType": "address",
          "name": "previousOwner",
          "type": "address"
        },
        {
          "indexed": true,
          "internalType": "address",
          "name": "newOwner",
          "type": "address"
        }
      ],
      "name": "OwnershipTransferred",
      "type": "event"
    },
    {
      "anonymous": false,
      "inputs": [
        {
          "indexed": true,
          "internalType": "address",
          "name": "user",
          "type": "address"
        },
        {
          "indexed": false,
          "internalType": "uint256",
          "name": "amount",
          "type": "uint256"
        }
      ],
      "name": "Swap",
      "type": "event"
    },
    {
      "anonymous": false,
      "inputs": [
        {
          "indexed": true,
          "internalType": "address",
          "name": "owner",
          "type": "address"
        },
        {
          "indexed": false,
          "internalType": "uint256",
          "name": "amount",
          "type": "uint256"
        }
      ],
      "name": "Withdrawal",
      "type": "event"
    },
    {
      "inputs": [],
      "name": "claimOwnership",
      "outputs": [],
      "stateMutability": "nonpayable",
      "type": "function"
    },
    {
      "inputs": [],
      "name": "newMediator",
      "outputs": [
        {
          "internalType": "address",
          "name": "",
          "type": "address"
        }
      ],
      "stateMutability": "view",
      "type": "function"
    },
    {
      "inputs": [],
      "name": "newToken",
      "outputs": [
        {
          "internalType": "address",
          "name": "",
          "type": "address"
        }
      ],
      "stateMutability": "view",
      "type": "function"
    },
    {
      "inputs": [],
      "name": "oldToken",
      "outputs": [
        {
          "internalType": "address",
          "name": "",
          "type": "address"
        }
      ],
      "stateMutability": "view",
      "type": "function"
    },
    {
      "inputs": [],
      "name": "owner",
      "outputs": [
        {
          "internalType": "address",
          "name": "",
          "type": "address"
        }
      ],
      "stateMutability": "view",
      "type": "function"
    },
    {
      "inputs": [],
      "name": "pendingOwner",
      "outputs": [
        {
          "internalType": "address",
          "name": "",
          "type": "address"
        }
      ],
      "stateMutability": "view",
      "type": "function"
    },
    {
      "inputs": [
        {
          "internalType": "address",
          "name": "newOwner",
          "type": "address"
        }
      ],
      "name": "transferOwnership",
      "outputs": [],
      "stateMutability": "nonpayable",
      "type": "function"
    },
    {
      "inputs": [
        {
          "internalType": "address",
          "name": "oldToken_",
          "type": "address"
        }
      ],
      "name": "setOldToken",
      "outputs": [],
      "stateMutability": "nonpayable",
      "type": "function"
    },
    {
      "inputs": [
        {
          "internalType": "address",
          "name": "newToken_",
          "type": "address"
        }
      ],
      "name": "setNewToken",
      "outputs": [],
      "stateMutability": "nonpayable",
      "type": "function"
    },
    {
      "inputs": [
        {
          "internalType": "address",
          "name": "newMediator_",
          "type": "address"
        }
      ],
      "name": "setNewMediator",
      "outputs": [],
      "stateMutability": "nonpayable",
      "type": "function"
    },
    {
      "inputs": [
        {
          "internalType": "address",
          "name": "tokenAddress",
          "type": "address"
        }
      ],
      "name": "withdraw",
      "outputs": [],
      "stateMutability": "nonpayable",
      "type": "function"
    },
    {
      "inputs": [
        {
          "internalType": "uint256",
          "name": "amount",
          "type": "uint256"
        }
      ],
      "name": "swap",
      "outputs": [],
      "stateMutability": "nonpayable",
      "type": "function"
    }
  ],
  "bytecode": "0x608060405234801561001057600080fd5b50600080546001600160a01b03191633179055610951806100326000396000f3fe608060405234801561001057600080fd5b50600436106100b45760003560e01c80638da5cb5b116100715780638da5cb5b1461017f57806394b918de14610187578063b31c710a146101a4578063c42bd05a146101ac578063e30c3978146101b4578063f2fde38b146101bc576100b4565b80631eb8befb146100b95780634e71e0c8146100e157806351cff8d9146100e95780635b7a50f71461010f5780635ed411e5146101355780637f89c7f01461015b575b600080fd5b6100df600480360360208110156100cf57600080fd5b50356001600160a01b03166101e2565b005b6100df61028a565b6100df600480360360208110156100ff57600080fd5b50356001600160a01b0316610340565b6100df6004803603602081101561012557600080fd5b50356001600160a01b031661051e565b6100df6004803603602081101561014b57600080fd5b50356001600160a01b031661058b565b610163610633565b604080516001600160a01b039092168252519081900360200190f35b610163610642565b6100df6004803603602081101561019d57600080fd5b5035610651565b610163610881565b610163610890565b61016361089f565b6100df600480360360208110156101d257600080fd5b50356001600160a01b03166108ae565b6000546001600160a01b0316331461022d576040805162461bcd60e51b815260206004820152600960248201526837b7363ca7bbb732b960b91b604482015290519081900360640190fd5b6004546040516001600160a01b03918216918316907fb347b37d5ec85a25f9f980bb2c45005eb52dbd76ffe3ac4bb9d1b60893093f0d90600090a3600480546001600160a01b0319166001600160a01b0392909216919091179055565b6001546001600160a01b031633146102dc576040805162461bcd60e51b815260206004820152601060248201526f37b7363ca832b73234b733a7bbb732b960811b604482015290519081900360640190fd5b600154600080546040516001600160a01b0393841693909116917f8be0079c531659141344cd1fd0a4f28419497f9722a3daafe3b4186f6b6457e091a360018054600080546001600160a01b03199081166001600160a01b03841617909155169055565b6000546001600160a01b0316331461038b576040805162461bcd60e51b815260206004820152600960248201526837b7363ca7bbb732b960b91b604482015290519081900360640190fd5b604080516370a0823160e01b8152306004820152905182916000916001600160a01b038416916370a08231916024808301926020929190829003018186803b1580156103d657600080fd5b505afa1580156103ea573d6000803e3d6000fd5b505050506040513d602081101561040057600080fd5b505190508061041057505061051b565b600080546040805163a9059cbb60e01b81526001600160a01b0392831660048201526024810185905290519185169263a9059cbb926044808401936020939083900390910190829087803b15801561046757600080fd5b505af115801561047b573d6000803e3d6000fd5b505050506040513d602081101561049157600080fd5b50516104d6576040805162461bcd60e51b815260206004820152600f60248201526e1d1c985b9cd9995c97d9985a5b1959608a1b604482015290519081900360640190fd5b6000546040805183815290516001600160a01b03909216917f7fcf532c15f0a6db0bd6d0e038bea71d30d808c7d98cb3bf7268a95bf5081b659181900360200190a250505b50565b6000546001600160a01b03163314610569576040805162461bcd60e51b815260206004820152600960248201526837b7363ca7bbb732b960b91b604482015290519081900360640190fd5b600280546001600160a01b0319166001600160a01b0392909216919091179055565b6000546001600160a01b031633146105d6576040805162461bcd60e51b815260206004820152600960248201526837b7363ca7bbb732b960b91b604482015290519081900360640190fd5b6003546040516001600160a01b03918216918316907f5390902a28ffcc178064a6bdfcfbc3731c6ebe8dea40264d2431fb1fb5cc5c6b90600090a3600380546001600160a01b0319166001600160a01b0392909216919091179055565b6004546001600160a01b031681565b6000546001600160a01b031681565b6002546001600160a01b03161580159061067557506003546001600160a01b031615155b6106b7576040805162461bcd60e51b815260206004820152600e60248201526d1d1bdad95b9cd7db9bdd17dcd95d60921b604482015290519081900360640190fd5b600254600354604080516323b872dd60e01b81523360048201523060248201526044810185905290516001600160a01b03938416939092169183916323b872dd9160648083019260209291908290030181600087803b15801561071957600080fd5b505af115801561072d573d6000803e3d6000fd5b505050506040513d602081101561074357600080fd5b5051610788576040805162461bcd60e51b815260206004820152600f60248201526e1d1c985b9cd9995c97d9985a5b1959608a1b604482015290519081900360640190fd5b6040805163a9059cbb60e01b81523360048201526024810185905290516001600160a01b0383169163a9059cbb9160448083019260209291908290030181600087803b1580156107d757600080fd5b505af11580156107eb573d6000803e3d6000fd5b505050506040513d602081101561080157600080fd5b5051610846576040805162461bcd60e51b815260206004820152600f60248201526e1d1c985b9cd9995c97d9985a5b1959608a1b604482015290519081900360640190fd5b60408051848152905133917f562c219552544ec4c9d7a8eb850f80ea152973e315372bf4999fe7c953ea004f919081900360200190a2505050565b6002546001600160a01b031681565b6003546001600160a01b031681565b6001546001600160a01b031681565b6000546001600160a01b031633146108f9576040805162461bcd60e51b815260206004820152600960248201526837b7363ca7bbb732b960b91b604482015290519081900360640190fd5b600180546001600160a01b0319166001600160a01b039290921691909117905556fea26469706673582212200116cad71d3016a2d611893e324e4d96fcdfa0faeaff36f94c65411fa789bbdd64736f6c63430006060033",
  "immutableReferences": {},
  "source": "pragma solidity 0.6.6;\n\nimport \"./Ownable.sol\"; // TODO: switch to \"openzeppelin-solidity/contracts/access/Ownable.sol\";\nimport \"./ISidechainMigrationManager.sol\";\nimport \"openzeppelin-solidity/contracts/token/ERC20/IERC20.sol\";\n\ncontract SidechainMigrationManager is Ownable, ISidechainMigrationManager {\n\n    event OldTokenChange(address indexed current, address indexed prev);\n    event NewTokenChange(address indexed current, address indexed prev);\n    event NewMediatorChange(address indexed current, address indexed prev);\n    event Withdrawal(address indexed owner, uint amount);\n    event Swap(address indexed user, uint amount);\n\n    address override public oldToken;\n    address override public newToken;\n    address override public newMediator;\n    \n    constructor() public Ownable(msg.sender) {}\n\n    function setOldToken(address oldToken_) public onlyOwner {\n        oldToken = oldToken_;\n    }\n\n    function setNewToken(address newToken_) public onlyOwner {\n        emit NewTokenChange(newToken_, newToken);\n        newToken = newToken_;\n    }\n\n    function setNewMediator(address newMediator_) public onlyOwner {\n        emit NewMediatorChange(newMediator_, newMediator);\n        newMediator = newMediator_;\n    }\n\n    function withdraw(address tokenAddress) public onlyOwner {\n        IERC20 token = IERC20(tokenAddress);\n        uint bal = token.balanceOf(address(this));\n        if(bal == 0) return;\n        require(token.transfer(owner, bal), \"transfer_failed\");\n        emit Withdrawal(owner, bal);\n    }\n\n    function swap(uint amount) public override {\n        require(oldToken != address(0) && newToken != address(0), \"tokens_not_set\");\n        IERC20 fromToken = IERC20(oldToken);\n        IERC20 toToken = IERC20(newToken);\n        require(fromToken.transferFrom(msg.sender, address(this), amount), \"transfer_failed\");\n        require(toToken.transfer(msg.sender, amount), \"transfer_failed\");\n        emit Swap(msg.sender, amount);\n    }\n\n}",
  "sourcePath": "/home/heynow/streamr/data-union-solidity/contracts/SidechainMigrationManager.sol",
  "compiler": {
    "name": "solc",
    "version": "0.6.6+commit.6c089d02.Emscripten.clang"
  },
  "schemaVersion": "3.2.3",
  "updatedAt": "2021-02-21T11:58:14.444Z",
  "devdoc": {
    "methods": {
      "claimOwnership()": {
        "details": "Allows the pendingOwner address to finalize the transfer."
      },
      "transferOwnership(address)": {
        "details": "Allows the current owner to set the pendingOwner address.",
        "params": {
          "newOwner": "The address to transfer ownership to."
        }
      }
    }
  },
  "userdoc": {
    "methods": {}
  }
}